:100000000C9460010C940C180C94E1170C94B61726
:100010000C948B170C9460170C9435170C940A17DA
:100020000C94DF160C948A010C948A010C948A01BA
:100030000C945B190C948A010C948A010C948A012B
:100040000C9495160C948A010C945F160C9435163A
:100050000C948A010C948A010C948A010C948A01F4
:100060000C948A010C948A010C948A010C948A01E4
:100070000C948A010C948A010C948A010C948A01D4
:100080000C948A010C9437180C948A013D030000EB
:10009000000000090D0000000000000101C0800008
:1000A000000000000000000000060000000000004A
:1000B0000000000000000000000000000000000040
:1000C0000000000000007F000000000000000000B1
:1000D0000000000000000000000000000000000020
:1000E0000000000000000000000000000000000010
:1000F0000000000000000000000000000000800080
:1001000000008000010080000100800001008000EC
:1001100001008000010080000200800003008000D8
:1001200003008000030080000300800003008000C3
:1001300003008000040080000400800005008000AF
:100140000680FF000681FF00FF000000FF000000A6
:10015000FF000000FF000000FF000000FF000000A3
:10016000FF000000FF000000FF000000FF00000093
:10017000FF000000FF000000FF000000FF00000083
:10018000FF000000FF000000FF000000FF00000073
:10019000FF000000FF000000FF00000000003A0028
:1001A00037003400310022006100640000003B0091
:1001B00038003500320023006200650070007400D2
:1001C00078007C008000840088008C0090009400FF
:1001D00098009C00A000A400A800AC00B000B400EF
:1001E000B800BC00C000C400C800CC00D000D400DF
:1001F000D800DC00E000E400E800EC00F000F400CF
:10020000F800FC000001040108010C0100003900A5
:10021000360033003000210020006300050505058D
:100220000505050502020202020202020707040494
:100230000404040404040707030303030303030380
:100240000701010101010101010606060606060675
:10025000060102040810204080010204081020401A
:1002600080081001020408102040800102010204ED
:100270000810204080048040201008040201010280
:100280000408102040800000000A0B0C0000000051
:10029000000001040506000000000000000000004E
:1002A000000000000000000000000000000000004E
:1002B000000000000000000000000000311A0225CC
:1002C00011241FBECFEFD0E1DEBFCDBF11E0A0E013
:1002D000B1E0E8E6FDE400E00BBF02C007900D923C
:1002E000A636B107D9F727E0A6E6B1E001C01D9216
:1002F000A43AB207E1F711E0CFE5D1E004C02197BD
:10030000FE010E943525CE35D107C9F70E94411C58
:100310000C94A7260C9400009C016115710529F02E
:100320006130710571F080E0089580911B0782179C
:10033000130681F090911E0781E09217130699F73A
:10034000089581E040911C0750911D074217530703
:1003500051F7F6CF81E0F4CF089581E080934E020B
:10036000089520912607309127072115310549F07E
:1003700090E0880F991F820F931FFC01808191816B
:10038000089590E080E00895FC01538D448D252F61
:1003900030E0842F90E0821B930B541710F0CF961F
:1003A000089501970895FC01918D828D981761F051
:1003B000A28DAE0FBF2FB11D5D968C91928D9F5F68
:1003C0009F73928F90E008958FEF9FEF0895FC0147
:1003D000918D828D981731F0828DE80FF11D858DFA
:1003E00090E008958FEF9FEF0895FC01918D228D8D
:1003F000892F90E0805C9F4F821B91098F73992712
:100400000895FC01A48DA80FB92FB11DA35ABF4FA9
:100410002C91848D90E001968F739927848FA68903
:10042000B7892C93A089B1898C9180648C93938D2A
:10043000848D981306C00288F389E02D80818F7D1A
:1004400080830895EF92FF920F931F93CF93DF93D2
:10045000EC0181E0888F9B8D8C8D981316C0E88904
:10046000F989808185FF11C0EE89FF896083E88961
:10047000F98980818064808381E090E0DF91CF9171
:100480001F910F91FF90EF900895F62E0B8D10E0C5
:100490000F5F1F4F0F731127E02E8C8D8E110CC034
:1004A0000FB607FCFACFE889F989808185FFF5CF7F
:1004B000CE010E940102F1CFEB8DEC0FFD2FF11D5B
:1004C000E35AFF4FF0820B8FEA89FB8980818062BB
:1004D000D2CFCF93DF93EC01888D8823B9F0AA891E
:1004E000BB89E889F9898C9185FD03C0808186FDEF
:1004F0000DC00FB607FCF7CF8C9185FFF2CF80813E
:1005000085FFEDCFCE010E940102E9CFDF91CF91AF
:10051000089587E892E00E94F50121E0892B09F413
:1005200020E0822F089580E090E0892B29F00E943E
:10053000890281110E94000080E090E0892B49F03F
:1005400080E090E0892B29F00E94000081110C943A
:1005500000000895E0911002F0911102309729F007
:1005600010921A021092190209940895CF93DF9302
:10057000AC01E0910E02F0910F023097F1F09091F2
:100580001C0280911B029817C0F090E0292F30E0E8
:100590002617370754F4D901A258BE4F240F351F30
:1005A000E90128812C939F5FF1CF10921C02609388
:1005B0001B02CB01DF91CF910994DF91CF91089578
:1005C000DC011296ED91FC91139711969C91119775
:1005D000808161110EC09095982390831496ED91BF
:1005E000FC911597908111968C9180958923808339
:1005F0000895623061F49095982390831496ED915C
:10060000FC911597808111969C91892BF0CF982BA6
:1006100090830895AF92BF92CF92DF92EF92FF92B4
:100620000F931F93CF93DF936C017B018B01040F1A
:10063000151FEB015E01AE18BF08C017D10759F0B6
:100640006991D601ED91FC910190F081E02DC601F8
:100650000995892B79F7C501DF91CF911F910F91F2
:10066000FF90EF90DF90CF90BF90AF9008958150B2
:100670008C3088F5E82FF0E0E05CFC4F0C943525D9
:10068000680368036B034C035003530356036B0367
:100690006B035A03600364038FB58F778FBD089592
:1006A0008FB58F7DFBCF8FB5877FF8CF85B58F7DD9
:1006B00085BD089580918B008F7780938B0008957E
:1006C00080918B008F7DF9CF80918B00877FF5CF54
:1006D00083B78F7D83BF08951F93CF93DF93282F18
:1006E00030E0F901EA57FD4F8491F901EF5AFD4FCF
:1006F000D491F901E45EFD4FC491CC23A9F0162FEB
:1007000081110E943703EC2FF0E0EE0FFF1FE4553C
:10071000FE4FA591B4918FB7F894EC91111108C0D8
:10072000D095DE23DC938FBFDF91CF911F91089589
:10073000DE2BF8CFCF93DF9390E0FC01EF5AFD4F13
:100740002491845E9D4FFC0184918823D1F090E038
:10075000880F991FFC01E456FE4FA591B491FC014E
:10076000E455FE4FC591D49161110EC09FB7F89426
:100770008C91E22FE0958E238C932881E223E883ED
:100780009FBFDF91CF9108958FB7F894EC91E22B42
:10079000EC938FBFF6CF3FB7F89480910A02909107
:1007A0000B02A0910C02B0910D0222B706B600FE1A
:1007B00005C02F3F19F00196A11DB11D3FBFBA2FF3
:1007C000A92F982F8827BC01CD01620F711D811DB3
:1007D000911D42E0660F771F881F991F4A95D1F738
:1007E00008958F929F92AF92BF92CF92DF92EF9235
:1007F000FF924B015C010E94CB036B017C010E94C4
:10080000CB036C197D098E099F09683E73408105F1
:100810009105A8F321E0821A9108A108B10888EE99
:10082000C80E83E0D81EE11CF11C81149104A104C0
:10083000B10429F7FF90EF90DF90CF90BF90AF9079
:100840009F908F90089561E08FE10E946C0364E0B7
:1008500070E080E090E00E94F10360E08FE10C9492
:100860006C030C9423042FB7F894609106027091E6
:10087000070280910802909109022FBF0895E82F86
:10088000F0E0DF01AA0FBB1FA050BF4F11967C9371
:100890006E938830A8F4E15BFB4F0C943525570428
:1008A00061046E047C048A0491049C04A804809171
:1008B0006A008C7F482B40936A0089B7816089BFAA
:1008C000089580916A00837F440F551F440F551F80
:1008D000482B40936A0089B78260F1CF80916A000B
:1008E0008F7C74E0440F551F7A95E1F7482B4093B5
:1008F0006A0089B78460E3CF80916A008F7366E0F5
:10090000440F551F6A95E1F7482B40936A0089B759
:100910008860D5CF8AB78C7F482B4ABF89B7806162
:10092000CECF8AB7837F440F551F440F551F482BE6
:100930004ABF89B78062C3CF8AB78F7C24E0440F57
:10094000551F2A95E1F7482B4ABF89B78064B7CF76
:100950008AB78F7396E0440F551F9A95E1F7482B9D
:100960004ABF89B78068ABCF883010F40C943F043D
:1009700008950E94CB0320916C0130916D01FB0121
:10098000E21BF30B20916E0230916F02E217F30726
:1009900008F438C1209170023091710270936D019A
:1009A00060936C0140917202509173024130510585
:1009B00099F148F04230510509F4B9C0433051056E
:1009C00009F4EFC00895E217F30708F0D4C080914E
:1009D00075028F5F809375028B3008F413C181E03C
:1009E00090E0909373028093720241E050E069EBD3
:1009F00074E0809168020E94B40410926B0182E559
:100A000090E0909371028093700283E290E0909363
:100A10006F0280936E02089540916B014130A9F0FE
:100A200038F0433009F449C0443009F47CC00895DB
:100A3000E217F30730F491E090936B01E0936A01C1
:100A4000089584E080936B010895E217F30798F509
:100A500010926B01909175029F5F909375028E2F9B
:100A6000EE0F990B20916A01821B910927FD939546
:100A700097FF03C091958195910949970CF4C2C0E5
:100A8000109273021092720282E990E090937102C8
:100A90008093700282E590E090936F0280936E02E3
:100AA000109275024091560250E069EB74E080911B
:100AB00068020C94B40483E0C5CFE217F30700F397
:100AC00080915602833061F582E08093560282E085
:100AD00090E0909373028093720282E990E0909389
:100AE00071028093700282E590E090936F02809390
:100AF0006E02109277021092790210927A0210928E
:100B00007B0210927C0210927D0210927E028091F4
:100B10007502809378021092750210927602C2CF0D
:100B200040935602D4CFE217F30788F6A9CF50912D
:100B300075025F5F5093750240917602440FE21791
:100B4000F307E0F040937602583009F05BC0E09183
:100B50007702E630A9F4109273021092720282E9D1
:100B600090E0909371028093700282E590E0909300
:100B70006F0280936E021092750208954160E2CF79
:100B800083E090E0909373028093720281E08E0F75
:100B900080937702F0E0EE58FD4F809176028783D4
:100BA0000895E217F307F8F410927302109272029C
:100BB0001092750282E990E0909371028093700226
:100BC00082E590E090936F0280936E0288E0E7E701
:100BD000F2E0AFE7B2E001900D928A95E1F781E093
:100BE00080937402089580917702863009F4B3CF20
:100BF00082E090E0909373028093720210927502EB
:100C000010927602089585ED8093740080917400AF
:100C100084FDFCCF1092180208952091BE01260F8A
:100C20003327331F21323105ECF420911802FC01E7
:100C300090E080E0243069F082E00895A091BE0148
:100C40002191AC0142565E4FA40FB52FB11D2C93DC
:100C50000196861798F38091BE01680F6093BE01DC
:100C600080E0089581E008950895E0911C0280914C
:100C70001B02E81730F4F0E0E258FE4F808190E06C
:100C800008958FEF9FEF089590911C0280911B02B1
:100C90002FEF3FEF981748F4E92FF0E0E258FE4FAE
:100CA000208130E09F5F90931C02C90108958091DC
:100CB0001B0290911C02891B990B0895CF93DF931F
:100CC000CB01EA01642F0E940D06CE01DF91CF9186
:100CD000089544E050E066E671E084E293E00C940D
:100CE0005E06CF93DF931F92CDB7DEB7698361E0D5
:100CF000CE0101960E940D0681E090E00F90DF91F9
:100D0000CF91089590E080E00895CF93DF93DC01C8
:100D1000EC91F0E0EE0FFF1FE45FFD4FC591D49121
:100D2000988111968C91982381E009F480E0DF91FD
:100D3000CF910895DC0170E0FB01EF5AFD4FE49183
:100D40001196EC931197645E7D4FFB0124912C93D7
:100D500030E0220F331FF901E456FE4F8591949144
:100D600013969C938E931297F901E455FE4F85914B
:100D7000949115969C938E9314970895FC0180810D
:100D8000813089F4CB01845893408897C0F0613852
:100D9000F3E07F07A1F06C5F734081E0653071057F
:100DA00078F080E00895823021F4CB018C5A934092
:100DB000ECCF833061F7CB01845D9340E6CF81E0D7
:100DC0000895CF93DF93EC0161E08D8D9E8D0E949D
:100DD000E002AD8DBE8D1496ED91FC91159790813A
:100DE00011968C9180958923808361E070E080E08A
:100DF00090E00E94F10360E08D8D9E8DDF91CF9198
:100E00000C94E00280E090E0892B29F080916D0243
:100E100083FD0C9400000895E82FF0E0E15EFD4FA3
:100E2000608308950F931F93CF93DF93FC0182811A
:100E3000813089F040F0823009F47AC0DF91CF919F
:100E40001F910F91089561E08081DF91CF911F91F3
:100E50000F910C946C030181C02FD0E0108161E0F0
:100E6000812F0E949A03209719F460E0812FEDCF23
:100E7000CF3FD10511F461E0F9CFE12FF0E0EA575F
:100E8000FD4FE491E150EC3008F04DC0F0E0E55B3F
:100E9000F84F0C9435255707570793075C076207EF
:100EA000680770079307930775077F07890783B75C
:100EB000806283BF01BFC2CF8FB580688FBDDBBDAD
:100EC000CABDBCCF8FB580628FBDD9BDC8BDB6CFFE
:100ED0008FB588608FBDD0937900C0937800AECF76
:100EE00085B5806285BD03BDA9CF80918B008068E8
:100EF00080938B00D0938700C09386009FCF809112
:100F00008B00806280938B00D0938500C093840017
:100F100095CF80918B00886080938B00D093830065
:100F2000C09382008BCFC038D1050CF0A4CF9DCFE9
:100F30008181E381F0E0E15EFD4F80837FCF0F93FD
:100F40001F93CF93DF93D62F8C01C0E0CD1741F0D4
:100F5000F801819191918F010E941207CF5FF6CF26
:100F6000DF91CF911F910F9108950F931F93CF930E
:100F7000DF93162F082FEC0184E293E00E944406D1
:100F800089938C2F801B8117B8F3812FDF91CF912C
:100F90001F910F9108958F929F92AF92BF92CF921F
:100FA000DF92EF92FF920F931F93CF930E94CB0398
:100FB000AB01BC018091320390913303A0913403C3
:100FC000B09135038A019B01081B190B2A0B3B0BBF
:100FD00080913A03882309F47FC080913C0390916B
:100FE0003B03E92FEE0FFF0BA82F082E000CBB0BC5
:100FF000C3E68C02E00DF11D1124E05DFC4F178B60
:10100000068B053F11402105310508F054C09F5F54
:1010100090933B0390913B039332C9F593E69A9FDB
:1010200090019B9F300D1124205D3C4FF901E45A43
:10103000FF4FC0903603D0903703E0903803F09014
:1010400039034A015B018C189D08AE08BF08750181
:101050006401C082D182E282F38229593F4FE1E0EC
:10106000F0E0D901ED93FC938F5F8A3094F5809383
:101070003C03E0913C03B3E6EB02F0011124E95696
:10108000FC4F1182108210923A0310923B0340935E
:101090003203509333036093340370933503CF913D
:1010A0001F910F91FF90EF90DF90CF90BF90AF9086
:1010B0009F908F90089510923B0391E090933A0394
:1010C000409336035093370360933803709339038A
:1010D000A1CF10923C03CDCF053F11402105310532
:1010E000B0F281E080933A03409336035093370384
:1010F0006093380370933903CACFE82FF0E0E15EC4
:10110000FD4F60830895CF93FC018281813051F0BF
:1011100020F0823079F0CF91089560E08081CF9106
:101120000C946C03C08161E08C2F0E949A0360E0F4
:101130008C2FF5CFE381F0E0E15EFD4F1082EBCF25
:1011400080934F02882321F08BE997E00C941207DB
:101150008BE997E00C948308CF93C82F80915902B4
:101160008C1731F081E0C11101C080E00E94A0081D
:10117000C093590260E070E0CB01C1110E943304BA
:1011800060935A0270935B0280935C0290935D02BD
:10119000809159028C1739F081E0C11101C080E0C3
:1011A000CF910C94A008CF910895EF92FF920F93E6
:1011B0001F93CF93DF938C01FC01C581D6812097CB
:1011C00051F0E480F12CEF1431F0899199910E9453
:1011D0008308F394F8CFF801C085D185209751F0AA
:1011E000078110E0011731F0899199910E948308DD
:1011F0001F5FF8CFDF91CF911F910F91FF90EF907C
:1012000008950F931F93CF938C01C42F0E948C01DC
:101210008823E1F180911E07482F50E0C03128F566
:10122000882319F12C2F30E080912B0790912C0707
:101230000C2E02C0969587950A94E2F780FF15C0A0
:101240000417150719F58091260790912707009735
:10125000E9F0220F331F820F931FFC0180819181DF
:10126000CF911F910F910C94D5080417150771F0B9
:101270008091260790912707009741F04C2F50E06E
:10128000440F551F480F591FFA01E8CFCF911F9106
:101290000F910895CF938091290790912A07892B68
:1012A000A1F1C0E080912507C81778F58C2F8695AD
:1012B0008695869590E0E0912907F0912A07E80F3E
:1012C000F91F208130E04C2F50E063E0880F991F18
:1012D0006A95E1F7BA01681B790B02C0359527952D
:1012E0006A95E2F720FF0FC08091260790912707AB
:1012F000009749F0440F551F840F951FFC01808112
:1013000091810E94D508CF5FCDCF10922807CF9151
:1013100008950F931F93CF93DF93EC018B81882364
:1013200079F08B0189819A818617970729F0CE0180
:101330000E94D5081A83098389819A81019731F423
:101340008D819E81009769F06C8105C088859985A3
:10135000009739F06F81DF91CF911F910F910C941D
:101360009F07DF91CF911F910F9108950F931F93C6
:10137000CF938C01C42F0E948C01882309F444C0B0
:1013800080911E07482F50E0C03148F5882339F17D
:101390002C2F30E080912B0790912C070C2E02C04F
:1013A000969587950A94E2F780FF19C004171507F0
:1013B00059F58091260790912707009729F16091B0
:1013C000220770912307220F331F820F931FFC0106
:1013D00080819181CF911F910F910C9489090417FD
:1013E000150791F08091260790912707009761F0EB
:1013F00060912007709121074C2F50E0440F551F3A
:10140000480F591FFA01E4CFCF911F910F91089512
:10141000CF93C0E080912507C81798F480912607E4
:1014200090912707009759F02C2F30E0220F331F9F
:10143000820F931FFC01808191810E94D508CF5FAC
:10144000E9CF8091290790912A07892BC1F1C0E04B
:1014500080912507C81798F58C2F869586958695D7
:1014600090E0E0912907F0912A07E80FF91F208109
:1014700030E04C2F50E063E0880F991F6A95E1F748
:10148000BA01681B790B02C0359527956A95E2F77A
:1014900020FF13C08091260790912707009769F0DD
:1014A0006091200770912107440F551F840F951FED
:1014B000FC01808191810E948909CF5FC9CF81E0C1
:1014C00080932807CF9108950E94AC08E7E5F2E0E9
:1014D00081E087831086E0E6F2E088E0DF011D927C
:1014E0008A95E9F708950C940C25CF93863823E06C
:1014F000920719F130F481389340D1F08FEFCF91FA
:101500000895873823E09207D9F088389340B1F7DF
:1015100086E893E00E94730AC82F87E893E00E9450
:10152000730A90E02FEFC29F800D911D112402C01D
:1015300081E893E0CF910C94730A86E893E0FACFA8
:1015400087E893E0F7CFCF93C82F8FE290E00E9417
:10155000730A811109C085E190E0CC2311F086E186
:1015600090E0CF910C94730A80E0CF910895CF93CF
:10157000C82F8FE290E00E94730A811106C08C2F61
:1015800090E0CA96CF910C94730A80E0CF910895B1
:10159000DF92EF92FF920F931F93CF93DF938C0113
:1015A0007B01D42EE9010E948C018111D092240785
:1015B0008DE190E00E94730AD82EB701C8010E9405
:1015C0008C018823B1F080911E078017110629F540
:1015D0008091220790912307C817D90751F0809175
:1015E0001F078823A9F0219761F410922307109216
:1015F0002207DF91CF911F910F91FF90EF90DF9025
:10160000089581E090E09093230780932207F1CF23
:10161000D0932307C0932207ECCF809120079091AD
:101620002107C817D90729F3D0FE0EC0219729F446
:101630001092210710922007DCCF81E090E0909378
:10164000210780932007D5CFD0932107C09320078F
:10165000D0CF0F931F93CF93C82F81E090E00E94CB
:10166000730A0FE710E021E030E04C2F70E060E0FB
:1016700090E00E94C80ACF911F910F9108950F9397
:101680001F93CF936130710529F4CF911F910F9172
:101690000C94290BC82F81E090E00E94730A0FE799
:1016A00010E030E020E04C2F70E060E090E00E941D
:1016B000C80ACF911F910F9108951F93CF93DF9385
:1016C000EC0180914F02882359F08FE090E00E9456
:1016D000730A182F80E190E00E94730A181306C065
:1016E000CE01DF91CF911F910C94730A8BE997E0A3
:1016F0000E9483080FB6F894A89581B5886181BDD2
:1017000011BC0FBEFFCF0C945D0BCF93DF932091E4
:101710006A0230916B022F3F320721F0C901DF913D
:10172000CF91089580916D0287FF2BC086FF0FC077
:1017300089E090E00E94830BC82F81E090E00E9436
:10174000830B9C2F90936B0280936A0215C089E0F3
:1017500090E00E94830BC82F81E090E00E94830BF1
:1017600090E4C99F90011124207C31708F73282B45
:1017700030936B0220936A0280916A0290916B020F
:10178000CECF85FF0CC081E190E00E94830BC82F73
:1017900082E190E00E94830BC05CDD0BD2CF81E040
:1017A00090E00E94830B90E0CDCFFF920F931F93A8
:1017B000CF93DF93EC018B01F22E4330510509F4F6
:1017C0007EC068F441305105E9F04230510509F41A
:1017D00058C0DF91CF911F910F91FF900895453030
:1017E000510509F4D4C008F488C04630510589F782
:1017F00040E024FF2CC0DF91CF911F910F91FF900B
:101800000C94B6098091440281112BC040E0B801CC
:10181000CE01F4FE23C00E94B60941E0B801CE011A
:10182000F0FE26C00E94B60942E0B801CE01F1FEEA
:1018300022C00E94B60943E0B801CE01F2FE1EC0EC
:101840000E94B60944E0B801CE01F3FCD4CFDF9189
:10185000CF911F910F91FF900C9401090E940109F3
:10186000DCCF8DE190E00E94830B81FDCFCFD5CFFF
:101870000E940109D9CF0E940109DDCF0E94010910
:10188000E1CF45E020FF12C00E94B60946E0B80152
:10189000CE01F1FE0EC00E94B60947E0B801CE01AC
:1018A000F2FE0AC00E94B60948E0CDCF0E940109AD
:1018B000EDCF0E940109F1CF0E940109F5CF49E067
:1018C00020FF12C00E94B6094AE0B801CE01F1FE25
:1018D0000EC00E94B6094BE0B801CE01F2FE0AC06C
:1018E0000E94B6094CE0AFCF0E940109EDCF0E94E3
:1018F0000109F1CF0E940109F5CF4DE020FF32C070
:101900000E94B6094EE0B801CE01F1FE2EC00E9441
:10191000B6094FE0B801CE01F2FE2AC00E94B60916
:1019200040E1B801CE01F3FE26C00E94B60941E1B4
:10193000B801CE01F4FE22C00E94B60942E1B8010E
:10194000CE01F5FE1EC00E94B60943E1B801CE01EA
:10195000F6FE1AC00E94B60944E1B801CE01F7FEB6
:1019600076CF49CF0E940109CDCF0E940109D1CF86
:101970000E940109D5CF0E940109D9CF0E94010917
:10198000DDCF0E940109E1CF0E940109E5CF45E1C9
:1019900020FF2EC00E94B60946E1B801CE01F1FE3B
:1019A0002AC00E94B60947E1B801CE01F2FE26C066
:1019B0000E94B60948E1B801CE01F3FE22C00E94A0
:1019C000B60949E1B801CE01F4FE1EC00E94B60975
:1019D0004AE1B801CE01F5FE1AC00E94B6094BE1FA
:1019E000B801CE01F6FE16C00E94B6094CE1B5CF93
:1019F0000E940109D1CF0E940109D5CF0E9401099F
:101A0000D9CF0E940109DDCF0E940109E1CF0E94D8
:101A10000109E5CF0E940109E9CFCF93C82F81E0EA
:101A200090E00E94730A2C2F42E050E070E060E0EA
:101A300090E00E94D50B81E090E00E94730A2C2F69
:101A400030E094E0359527959A95E1F743E050E032
:101A500070E060E090E0CF910C94D50BCF93823092
:101A6000910511F1C62F8330910520F4019779F08B
:101A7000CF91089583309105D9F00497C9F781E09B
:101A800090E00E94730A2C2F45E050E007C081E0EF
:101A900090E00E94730A2C2F41E050E070E060E07B
:101AA00090E0CF910C94D50B862FCF910C940D0D17
:101AB00081E090E00E94730A2C2F44E050E0EECFCA
:101AC0001F93CF93DF93EC01162F0E940C2518175C
:101AD00021F0612FCE010E941425CE01DF91CF911C
:101AE0001F910C94730ACF93DF93863823E09207FB
:101AF00039F138F481389340E9F08FEFDF91CF91DD
:101B00000895873823E09207F1F088389340A9F7C9
:101B1000C62F86E893E00E94730AD82F87E893E0E7
:101B20000E94730A90E06C2F2FEFD29F800D911DC1
:101B3000112402C081E893E0DF91CF910C94600DF5
:101B400086E893E0F9CF87E893E0F6CF0F931F93F1
:101B5000CF93DF930FB6F894A89581B5886181BDC6
:101B600011BC0FBE0FB7F894D0E0C0E0FE01E457FF
:101B7000FF4F1491CE010E940C25181721F0612F00
:101B8000CE010E9414252196C03181E0D80771F75B
:101B900081E893E00E940C25813029F061E081E822
:101BA00093E00E941425CCE1D1E01FEF8991999137
:101BB000FC0111830E941207F1E0C234DF07B1F784
:101BC0000FBF88E19BE00FB6F894A89581BD0FBECA
:101BD00091BDDF91CF911F910F9108952F923F9268
:101BE0004F925F926F927F928F929F92AF92BF922D
:101BF000CF92DF92EF92FF920F931F93CF93DF93D9
:101C000000D000D000D0CDB7DEB78C01E0E0AE2E22
:101C1000E0E0BE2EF0E02F2EF0E03F2E412C512CC4
:101C200032014394B0E08B2EB0E09B2E80E0C82EB2
:101C300080E0D82ED8015B960D90BC91A02DBD837D
:101C4000AC83109709F450C28C91803409F451C1CF
:101C500008F04BC0893209F4C4C108F5843209F494
:101C60009DC198F4813209F465C1833209F46EC1D3
:101C7000811113C0E0E0F0E0EF2B79F0AC81BD8181
:101C800011968C910E94000008C0863209F472C13E
:101C900008F44DC0883209F498C180E015C28D3235
:101CA00009F4BFC170F48B3209F4B0C108F4A4C1C7
:101CB000C114D10491F3EC81FD81618185E090E054
:101CC0008DC18F3209F4C2C108F4B6C1803309F462
:101CD000C8C1813311F7E0E0F0E0EF2BF1F2AC8105
:101CE000BD8111966C9182E0C6C1813609F4B4C001
:101CF00048F5803509F452C188F4823409F410C1E2
:101D000008F403C1833449F6A114B10431F2AC8163
:101D1000BD8111966C9184E090E0F4C08E3509F499
:101D2000ADC1803609F490C0813509F0B6CFAC81E1
:101D3000BD8111969C9180E8890F97FF41C10E9457
:101D4000290BABCF8D3609F49BC0A0F4833609F480
:101D500090C008F488C08C3609F09FCF80E090E0F6
:101D6000892B09F49ACFAC81BD8111968C910E9488
:101D7000000093CF873709F498C108F58E3609F033
:101D80008CCFAC81BD811396ED91FC911497309767
:101D900009F4AAC180818F3609F07FCF2114310464
:101DA00009F47BCF11962C91622F661F6627661F60
:101DB0008181B0E88B9FC0011124822B97C08B37A3
:101DC00009F4E2C18F3709F068CFAC81BD8111966B
:101DD000EC90F12CBFEFEB1ABCEFFB0AB701C80186
:101DE0000E94BE06882309F46EC1E5E8EE16E3E022
:101DF000FE0609F468C1FDEAEF16F3E0FF0609F4F8
:101E000089C225EDE21623E0F20609F483C234E824
:101E1000E31633E0F30659F04CEAE41643E0F40627
:101E200031F084EDE81683E0F80609F065C2AC8174
:101E3000BD8112968C91883009F05EC20E94A60D79
:101E4000C8010E94E10666C2EC81FD81618181E0EA
:101E500090E00E942E0D21CFAC81BD8111968C9116
:101E60000E940D0D1ACFEC81FD81618183E090E02D
:101E7000F0CFAC81BD8111966C9184E090E0E9CF08
:101E8000EC81FD816181862F8F778183211431045C
:101E900009F403CF661F6627661FD8015B96ED9194
:101EA000FC918181811121C081E080937D016111CC
:101EB0000EC080917D0187FDF0CE60E090E00E9431
:101EC000000080917D018F5F80937D01F2CF809132
:101ED0007D0187FDE2CE61E090E00E9400008091EC
:101EE0007D018F5F80937D01F2CF90E00E94000022
:101EF000D4CEA114B10409F4D0CEEC81FD8161816E
:101F000081E090E00E940000C8CEA114B10409F461
:101F1000C4CEAC81BD8111966C9182E090E0F2CF8D
:101F2000A114B10409F4B9CEEC81FD81618183E093
:101F300090E0E8CFE0E0F0E0EF2B09F4AECEAC812A
:101F4000BD8111968C910E940000A7CEE0E0F0E0E8
:101F5000EF2B09F4A2CEAC81BD8111968C9190E05B
:101F600087FF05C0819590E09195819591090E9428
:101F7000000093CEE0E0F0E0EF2B09F48ECEAC81D0
:101F8000BD8111968C9190E087FF05C0819590E00E
:101F90009195819591090E9400007FCE8114910452
:101FA00009F47BCEEC81FD81918180E8890F61E0AD
:101FB00070E097FD02C070E060E00E9400006DCE0E
:101FC00070E060E00E943F0B68CEC114D10409F4B8
:101FD00064CEEC81FD81618181E090E00E9400008F
:101FE0005CCEC114D10409F458CEAC81BD811196E8
:101FF0006C9182E090E0F2CFC114D10409F44DCE8F
:10200000EC81FD81618183E090E0E8CFC114D104CF
:1020100009F443CEAC81BD8111966C9184E090E0CF
:10202000DDCFC114D10409F438CEAC81BD81119645
:102030006C9186E090E0D2CFC114D10409F42DCE8A
:10204000EC81FD81618187E090E0C8CFC114D104AB
:1020500009F423CEAC81BD8111966C9188E090E0AB
:10206000BDCFE0E0F0E0EF2B09F417CEAC81BD81ED
:1020700011966C9181E00E9400000FCEAC81BD8171
:102080001396ED91FC911497309771F180818F3503
:1020900009F003CE20E030E0232B09F4FECD91813E
:1020A00011968C910E940000F8CDEC81FD81E180B9
:1020B000F12CFFEFEF1AFCEFFF0AB701C8010E94F5
:1020C000BE0681112AC081E0D8015B96ED91FC919A
:1020D0005C9723813481148213825C963C932E9307
:1020E0005B97813009F4A6CD26960FB6F894DEBF33
:1020F0000FBECDBFDF91CF911F910F91FF90EF9059
:10210000DF90CF90BF90AF909F908F907F906F9017
:102110005F904F903F902F90089521E8E21623E0C2
:10212000F20601F134E8E31633E0F30659F145E82D
:10213000E41643E0F406A1F08CEAE81683E0F80622
:1021400009F19DEAE91693E0F90651F0A4EDEA16CB
:10215000A3E0FA06B9F0B5EDEB16B3E0FB0671F4B7
:102160008AE002C0F8018081AC81BD8112969C9109
:102170009813A9CFC8010E94E106A5CFC7010E940C
:10218000750AF2CF8DE0F0CFEC81FD81F181F9830A
:10219000EF2EF12C2FEFE21A2CEFF20AB701C80153
:1021A0000E94BE06882309F48ECFAC81BD811296B1
:1021B000BC91BA838B2F90E09C0144E03595279524
:1021C0004A95E1F7E22FE170EE83E0937C019C01F8
:1021D00053E0359527955A95E1F7F22FF170FB837F
:1021E000F0937B019C0135952795422F4170440F58
:1021F00095958795959587958170880F880F840FA1
:10220000B170B80FBC83B0937A0181E8E81683E01F
:10221000F806B9F4D8018C9180937901E130B1F1DD
:102220008091790190E00C8002C0959587950A9481
:10223000E2F781709927BB81B817190609F043CFDF
:1022400099CFE4E8EE16E3E0FE0651F0FCEAEF1663
:10225000F3E0FF0629F024EDE21623E0F20691F503
:102260008DE0809379019E819130D1F6C701845829
:102270009340029708F427CF89818B5A823008F463
:1022800022CF8981835D823008F41DCFD301C20142
:102290000C8004C0880F991FAA1FBB1F0A94D2F795
:1022A00020917901EA81E3FF22C0822B809379019A
:1022B00060917901C7010E94730D90917901891392
:1022C00002CF58CF35E8E31633E0F30651F04DEA7C
:1022D000E41643E0F40629F085EDE81683E0F806FD
:1022E00011F48AE0BECFC7010E94750ABACF482F09
:1022F0004095822F8423DACFEC81FD816281C70172
:102300000E94730DD8015B96ED91FC919281891723
:1023100009F496CDB1E8EB16B3E0FB0609F0D3CE95
:1023200081E893E00E94730AF8018083CCCEAF92DB
:10233000BF92CF92DF92EF92FF920F931F93CF93B2
:10234000DF93C0911D02D0911E02109178011111EE
:102350001AC0FE0190E080E025813681232B09F030
:102360005AC025E0289FF001299FF00D11243296D4
:10237000EC0FFD1FF0937701E0937601309709F49D
:102380003FC014821382A0907601B0907701A1140F
:10239000B104B1F10E943304C0907201D090730176
:1023A000E0907401F09075016C197D098E099F0908
:1023B0006A30710581059105C8F1109278010E947B
:1023C000330460937201709373018093740190934E
:1023D00075018D8D9E8D0E948506F5019081882363
:1023E00019F19160908381E0809378010E94CB0382
:1023F00060936E0170936F018093700190937101EF
:10240000DF91CF911F910F91FF90EF90DF90CF90D0
:10241000BF90AF900895019635968530910509F0EB
:102420009BCFF0E0E0E0A6CF9E7FDCCF0E94CB0305
:10243000C0906E01D0906F01E0907001F09071013A
:102440006C197D098E099F0965317105810591051A
:10245000B8F20E94CB036C197D098E099F09643F75
:1024600071408105910560F68D8D9E8D212F27701D
:10247000C12CD12C7601C39404C0CC0CDD1CEE1C05
:10248000FF1C2A95D2F7103108F049C00E9485063A
:10249000E12FE695E695E695EA0DFB2DF11D8823E3
:1024A000D1F18081C82AC08201E0010F0093780138
:1024B0000E94CB0360936E0170936F018093700153
:1024C00090937101177F173019F0083109F098CFF8
:1024D0000E943304609372017093730180937401BE
:1024E00090937501003141F1083109F089CF0B8DCE
:1024F0001C8D80917601909177019C8F8B8FCE01FE
:102500000E94EE0DE0917601F09177011482138222
:102510001C8F0B8F2CC0C0948081C822C4CF0E9416
:102520008506F5019281882319F0C92AC282BCCFA1
:10253000C0949C219283B8CFA0917601B09177018D
:102540008C91982F977F973709F45ACF8B3709F4DE
:1025500057CFEB8DFC8D309721F4BC8FAB8F07C02C
:10256000FC01838194810097D9F7B483A3831092EF
:10257000780146CF1F93CF93DF93EC01162F089776
:1025800079F4662319F10E94A60D80E090E0892B72
:10259000B9F0612FCE01DF91CF911F910C94000013
:1025A00080E090E0892BA9F781E0C11590E1D9077F
:1025B00008F080E0111105C0DF91CF911F910895BF
:1025C00081E027972297C0F780E0F6CF80E090E087
:1025D000892BF9F681E0F0CF0F931F93CF93DF9310
:1025E00020914F02222329F08F30910541F48FE092
:1025F00090E0DF91CF911F910F910C94600D162FF9
:10260000EC018FE090E00E94730A082F80E190E0D7
:102610000E94730A08130CC0C730D10529F0C830D6
:10262000D10519F4183029F0FFCF612FCE01E1CF89
:10263000FFCF0E94A60D88E0DF91CF911F910F91EF
:1026400008958331910588F48131910530F481300A
:10265000910519F08930910531F42FEF3FEF309358
:102660006B0220936A020C94EC128D319105D9F71C
:10267000677F60936D02209157022F73362F307C55
:10268000232B20935702E9CF1F93CF93DF93182F6B
:10269000E2E7F2E085E1DF011D928A95E9F782E940
:1026A00090E0909371028093700282E590E09093A5
:1026B0006F0280936E02C7E5D2E0688319828FEFC4
:1026C0009FEF9C8B8B8B1D8A83E08093560243E0A7
:1026D00050E069EB74E089890E94B4048DE190E0D8
:1026E0000E94830B682F6F738DE190E00E9421138D
:1026F0008E8B612F87E090E00E9421136DE088E0CF
:1027000090E00E94211380E0DF91CF911F910C9403
:10271000640A89B78F7B89BF8CEA91E090930D01A1
:1027200080930C0161E08AE00E94441310925502EC
:102730001092540208950F931F930E94CB030091AF
:102740005002109151022091520230915302601BAD
:10275000710B820B930B613F79448240910508F421
:1027600056C080914F0281110BC08091540290910C
:10277000550281309105B1F188F0029709F444C007
:102780000E94CB03609350027093510280935202D7
:102790009093530281E01F910F91089580E390E0A0
:1027A0000E945D0B80FF0EC041E050E06BEC77E0D3
:1027B00086E00E943F0481E090E090935502809370
:1027C0005402DECF8DE190E00E945D0B82FFD8CFF6
:1027D00041E050E06DEA71E086E00E943F0482E053
:1027E00090E0EBCF89B78F7B89BF8CEA91E0909323
:1027F0000D0180930C018DE190E00E945D0B82FD44
:10280000E7CF0E948913BCCF10924E02FACF80E02E
:10281000C2CFBF92CF92DF92EF92FF920F931F939E
:10282000CF93DF938B01B42E690182FF23C083FF16
:1028300017C061E0C8010E94BA128823D9F16B2D3C
:10284000C8010E9421138B1135C0F601DF91CF9191
:102850001F910F91FF90EF90DF90CF90BF90099460
:1028600060E0C8010E94BA12882321F1C8010E94C9
:10287000830BE9CF842F8770C1E0D0E07E0101C0D7
:10288000EE0C8A95EAF7D42FD870CB010E94830B07
:10289000C82FB4FE1CC061E0C8010E94BA12882390
:1028A00049F0DD2389F0CE296C2FC8010E94211345
:1028B0008C1759F2DF91CF911F910F91FF90EF90FC
:1028C000DF90CF90BF900895E094CE21EDCF60E0EF
:1028D000C8010E94BA12882369F3CE21DD2319F0C2
:1028E000C111B3CFE7CFCC2309F4AFCFE3CFCF9261
:1028F000DF92EF92FF920F931F93CF93DF937C01B0
:102900006B01C42F122FD42FD07E8091570287FFE6
:102910002CC0D03EC1F5809158028823A1F190E0EF
:102920000E94830BD82F8091580290E001960E945C
:10293000830B982F8D2FE816F90629F56C2F70E080
:10294000762F662766277370612B6F5F7F4F22E0BB
:1029500037E0402F8C2FDF91CF911F910F91FF9087
:10296000EF90DF90CF900C94091480FD32C0D036E8
:1029700009F464C088F4D03209F447C0D03409F4B3
:102980005DC0DD2379F1DF91CF911F910F91FF9011
:10299000EF90DF90CF900895D03A09F483C090F47F
:1029A0002C2F2F7141E050E0D03869F7B601C701F4
:1029B000DF91CF911F910F91FF90EF90DF90CF901B
:1029C0000C94D50BD03C09F476C0D03E09F4B6CFB8
:1029D000DACF0E94850B8E159F0549F2E114F104B0
:1029E00031F2D1CF8C2F8E7071F680E090E0892B80
:1029F00051F28C2F8170DF91CF911F910F91FF9039
:102A0000EF90DF90CF900C940000CF71CF3109F0A0
:102A1000BACF412F4F7771F0413071F0111F11275C
:102A2000111F212F30E00FE710E0B601C7010E940F
:102A3000C80AA9CF41E0F2CF40E0F0CF2C2F30E020
:102A40008C2F8F71813029F030F0803121F081316D
:102A5000F9F440E001C041E025FB222720F90DE117
:102A600010E030E0B601C7010E94C80A80E090E0A3
:102A7000892B09F488CF4C2FB601C701DF91CF9184
:102A80001F910F91FF90EF90DF90CF900C9400007A
:102A9000C901880F991F8E71C4FB442740F9482B48
:102AA0004250DACF2C2F2F7043E050E0C4FF7ECF8E
:102AB00042E050E07BCFCF71CE3139F0CF3109F019
:102AC00062CF212F45E050E071CF212F44E050E04C
:102AD0006DCF0F931F93CF93DF93CDB7DEB72997B9
:102AE0000FB6F894DEBF0FBECDBF181619069CF5C1
:102AF00084E293E00E944406992782309105D9F040
:102B00008330910599F1019759F464E086E691E0EC
:102B10000E94B507809169018823B9F18130F1F1F4
:102B200090911B0280911C029817A9F084E293E017
:102B30000E944406F5CF69E0CE0101960E94B507D8
:102B4000088519852E813F816B817C814D8189812A
:102B50009A810E94C80A29960FB6F894DEBF0FBE6C
:102B6000CDBFDF91CF911F910F91089567E0CE0106
:102B700001960E94B5074D815E816B817C812F811A
:102B800089819A810E94D50BE6CF8091670190914F
:102B900068010E945D0B80936601C2CF609166015F
:102BA00080916701909168010E94EC12F4CFCF925E
:102BB000DF92EF92FF920F931F93CF93DF93EC017D
:102BC0007B0141305105F9F4CD80DE802496C1149B
:102BD000D104E9F462E070E081E090E00E945225C7
:102BE0008C01009731F0FC01F182E08288818F5FD7
:102BF0008883C801DF91CF911F910F91FF90EF90D3
:102C0000DF90CF900895C884D9842796E0CF88813B
:102C10008F5F8883C82FD0E062E070E0CE010E9411
:102C200052258C0120E0BE0161507109822F90E095
:102C30008617970774F4880F991FF601E80FF91F9C
:102C400040815181800F911FFC01518340832F5F90
:102C5000EDCFC150D048CC0FDD1FC00FD11FF9827E
:102C6000E882C6010E940A26C4CF1F920F920FB6B7
:102C70000F9211240BB60F922F933F934F935F93B4
:102C80006F937F938F939F93AF93BF93EF93FF9334
:102C900087E892E00E940102FF91EF91BF91AF910E
:102CA0009F918F917F916F915F914F913F912F9164
:102CB0000F900BBE0F900FBE0F901F9018951F9294
:102CC0000F920FB60F9211240BB60F922F938F9382
:102CD0009F93EF93FF93E0919702F0919802808188
:102CE000E0919D02F0919E0282FD1DC09081809135
:102CF000A0028F5F8F732091A102821741F0E091B3
:102D0000A002F0E0E957FD4F958F8093A002FF915C
:102D1000EF919F918F912F910F900BBE0F900FBE4F
:102D20000F901F9018958081F2CF1F920F920FB6CF
:102D30000F9211242F933F938F939F93AF93BF9341
:102D40008091060290910702A0910802B0910902B9
:102D50003091050223E0230F2D3768F126E8230F79
:102D60000296A11DB11D2093050280930602909347
:102D70000702A0930802B093090280910A02909181
:102D80000B02A0910C02B0910D020196A11DB11D84
:102D900080930A0290930B02A0930C02B0930D0251
:102DA000BF91AF919F918F913F912F910F900FBE47
:102DB0000F901F9018950196A11DB11DD4CF1F92A1
:102DC0000F920FB60F9211240BB60F922F933F93D1
:102DD0004F935F936F937F938F939F93AF93BF9323
:102DE000EF93FF93E0910E01F0910F010995FF9190
:102DF000EF91BF91AF919F918F917F916F915F9173
:102E00004F913F912F910F900BBE0F900FBE0F90DF
:102E10001F9018951F920F920FB60F9211240BB6A8
:102E20000F922F933F934F935F936F937F938F9363
:102E30009F93AF93BF93EF93FF93E0910C01F091B9
:102E40000D010995FF91EF91BF91AF919F918F91E6
:102E50007F916F915F914F913F912F910F900BBE9A
:102E60000F900FBE0F901F9018951F920F920FB6E4
:102E70000F9211240BB60F922F933F934F935F93B2
:102E80006F937F938F939F93AF93BF93EF93FF9332
:102E9000E0910A01F0910B010995FF91EF91BF912B
:102EA000AF919F918F917F916F915F914F913F91E2
:102EB0002F910F900BBE0F900FBE0F901F90189583
:102EC0001F920F920FB60F9211240BB60F922F93F1
:102ED0003F934F935F936F937F938F939F93AF93A2
:102EE000BF93EF93FF93E0910801F09109010995D9
:102EF000FF91EF91BF91AF919F918F917F916F91D2
:102F00005F914F913F912F910F900BBE0F900FBE8D
:102F10000F901F9018951F920F920FB60F921124C9
:102F20000BB60F922F933F934F935F936F937F93C3
:102F30008F939F93AF93BF93EF93FF93E09106011D
:102F4000F09107010995FF91EF91BF91AF919F918A
:102F50008F917F916F915F914F913F912F910F9042
:102F60000BBE0F900FBE0F901F9018951F920F92DF
:102F70000FB60F9211240BB60F922F933F934F93DE
:102F80005F936F937F938F939F93AF93BF93EF93D1
:102F9000FF93E0910401F09105010995FF91EF91F4
:102FA000BF91AF919F918F917F916F915F914F9161
:102FB0003F912F910F900BBE0F900FBE0F901F905F
:102FC00018951F920F920FB60F9211240BB60F9205
:102FD0002F933F934F935F936F937F938F939F9321
:102FE000AF93BF93EF93FF93E0910201F091030140
:102FF0000995FF91EF91BF91AF919F918F917F9133
:103000006F915F914F913F912F910F900BBE0F9059
:103010000FBE0F901F9018951F920F920FB60F9230
:1030200011240BB60F922F933F934F935F936F939F
:103030007F938F939F93AF93BF93EF93FF93E09111
:103040000001F09101010995FF91EF91BF91AF91BE
:103050009F918F917F916F915F914F913F912F91B0
:103060000F900BBE0F900FBE0F901F9018951F92E0
:103070000F920FB60F9211240BB60F922F933F931E
:103080004F935F936F937F938F939F93AF93BF9370
:10309000EF93FF9380917100887F803609F44DC0D3
:1030A00008F040C0883209F4A9C028F5803109F43D
:1030B0009DC0C8F4882309F4FBC0883009F496C089
:1030C000FF91EF91BF91AF919F918F917F916F9100
:1030D0005F914F913F912F910F900BBE0F900FBEBC
:1030E0000F901F901895883109F488C0803241F7FD
:1030F0008093E10114C0803409F49DC040F4803312
:10310000B9F38833E9F68093E10185ECB0C08035EE
:1031100009F485C0883509F496C0883489F60E9480
:103120000306CECF883909F48CC038F5883729F0EA
:1031300050F4883611F0803719F683E08093180236
:103140001092E00157C0883809F47BC0803919F02B
:10315000803809F0B5CF8091E001803208F071C06D
:10316000E091E00181E08E0F8093E0018091730097
:10317000F0E0E054FE4F80833DC0803B39F0E0F446
:10318000803A09F479C0883A09F09ACF84E08093B4
:1031900018021092BF011092BE01E0911402F0914A
:1031A000150209958091BE0181110FC081E08093C5
:1031B000BE0110929E0109C0803C09F4A6CF883C54
:1031C00009F4A3CF883B09F07BCFE091BF0181E0F8
:1031D0008E0F8093BF01F0E0E256FE4F8081809316
:1031E00073009091BF018091BE0129C080910402BB
:1031F0008093730085EC8093740062CF90910302FA
:1032000080910202981758F5E091030281E08E0F39
:1032100080930302F0E0EE51FE4F8081E9CFE09110
:10322000030281E08E0F8093030280917300F0E02F
:10323000EE51FE4F80839091030280910202981715
:10324000C8F285E8D8CFE091030281E08E0F809329
:10325000030280917300F0E0EE51FE4F8083809175
:10326000170281115CCF81E08093160284EA80937B
:1032700074001092180224CF85EC80937400109291
:1032800018028091E001803230F4E091E001F0E03A
:10329000E054FE4F10826091E00170E0E091120274
:1032A000F091130280EC91E009951092E00108CFB3
:1032B0001092E10134CF1F920F920FB60F9211249A
:1032C0008F939F9378948091320290913102891765
:1032D00008F08AC09091620098609093620090918B
:1032E0003002891708F084C0DC9A90912F02891768
:1032F00008F080C090916200906490936200909179
:103300002E02891708F07AC0909162009062909323
:10331000620090912D02891708F074C0C69A9091AE
:103320002C02891708F070C0C59A90912B0289175A
:1033300008F06CC0C49A90912A02891708F068C0FE
:103340001D9A90912902891708F064C01C9A9091E7
:103350002802891708F060C01B9A909127028917EC
:1033600008F05CC09091620091609093620090912F
:103370002602891708F056C0C79A9091250289172E
:1033800008F052C0DE9A90912402891708F04EC0CE
:10339000DF9A90912302891708F04AC0969A90917B
:1033A0002202891708F046C0979A90912102891746
:1033B00008F042C0DD9A90912002891708F03EC0C3
:1033C000DB9A90911F028917D8F590916200906165
:1033D000909362008F5F809332029F918F910F9044
:1033E0000FBE0F901F90189590916200977F75CF38
:1033F000DC987BCF909162009F7B7FCF90916200A1
:103400009F7D85CFC6988BCFC5988FCFC49893CF1B
:103410001D9897CF1C989BCF1B989FCF90916200CF
:103420009E7FA3CFC798A9CFDE98ADCFDF98B1CF4D
:103430009698B5CF9798B9CFDD98BDCFDB98C1CF1F
:10344000909162009F7EC4CFCF93DF93EC0161E047
:1034500088810E949A0360E08881DF91CF910C946B
:103460006C03EF92FF920F931F93CF93DF93109211
:103470008A021092890288EE93E0A0E0B0E0809387
:103480008B0290938C02A0938D02B0938E0226E45F
:1034900031E0309388022093870220E930E03093B6
:1034A00094022093930229E230E030939602209315
:1034B00095022BE230E030939802209397022AE2A3
:1034C00030E030939A022093990225E930E030935E
:1034D0009C0220939B022CE230E030939E022093CA
:1034E0009D021092A0021092A1021092A2021092CC
:1034F000A30210922703109226038093280390932F
:103500002903A0932A03B0932B0388E591E09093BD
:1035100025038093240310923203109233031092F8
:103520003403109235031092360310923703109231
:1035300038031092390310923A0310923B03109211
:103540003C0386E090E0909331038093300383E165
:1035500090E00E94730AC82F82E190E00E94730AF3
:10356000D82F81E190E00E94730A182F81E090E04B
:103570000E94730A21E030E0309321072093200756
:1035800030932307209322071092240710922807D4
:1035900010922A071092290780931B07212F205C85
:1035A000330BC9012D2F382FC90190931D0780932C
:1035B0001C07CF77C0931E0710921F078DE18093E1
:1035C000250762E070E08DE190E00E945225909323
:1035D0002707809326070097C9F0EC0110E0EE243E
:1035E000E394F12C8AE090E00E946E25FC01F282C7
:1035F000E182138214821682158217821186108648
:103600001083899399931F5F1D3161F766E08BE307
:1036100097E00E949A0664E385E397E00E949A0689
:1036200081E380939B07C2E0C0939D0710929E07A1
:10363000DFEFD0939C0710929F078BE997E00E94E1
:10364000241A89E280939607C093980781E08093BB
:103650009907D093970710929A0786E997E00E94FE
:10366000241A87E280939107C0939307C09394072D
:10367000D09392071092950781E997E00E94241A4F
:1036800089E180938C07C0938E0783E0E82EE09257
:103690008F07D0938D07109290078CE897E00E94D7
:1036A000241A88E180938707C093890794E0F92E54
:1036B000F0928A07D093880710928B0787E897E0EB
:1036C0000E94241A85E280938207C093840705E054
:1036D00000938507D09383071092860782E897E0CE
:1036E0000E94241A86E280937D07C0937F0786E0BC
:1036F00080938007D0937E07109281078DE797E033
:103700000E94241A1FE010937807C0937A0787E07D
:1037100080937B07D093790710927C0788E797E026
:103720000E94241A8DE280937307C093750788E086
:1037300080937607D09374071092770783E797E01A
:103740000E94241AE0926E07C093700789E080936C
:103750007107D0936F07109272078EE697E00E9470
:10376000241AF0926907C0936B078AE080936C0774
:10377000D0936A0710926D0789E697E00E94241A99
:1037800000936407C09366078BE080936707D0932C
:1037900065071092680784E697E00E94241A8CE07F
:1037A00080935F07C093610780936207D09360079F
:1037B000109263078FE597E00E94241A8DE08093B2
:1037C0005A07C0935C0780935D07D0935B07109204
:1037D0005E078AE597E00E94241A8EE080935507E1
:1037E000C093570780935807D093560710925907F4
:1037F00085E597E00E94241A82E380935007C093E6
:10380000520710935307D09351071092540780E545
:1038100097E00E94241A83E380934B07C0934D07DF
:1038200080E180934E07D0934C0710924F078BE4B2
:1038300097E00E94241A88E280934607C0934807C5
:1038400081E180934907D093470710924A0786E4A5
:1038500097E00E94241A80E380934107C0934307B6
:1038600082E180934407D09342071092450781E498
:1038700097E0DF91CF911F910F91FF90EF900C9403
:10388000241ACF93DF93CDB7DEB762970FB6F894C3
:10389000DEBF0FBECDBF789483B78C6483BF87B77C
:1038A000816087BF82E08EBD8EB581608EBD8FB591
:1038B00081608FBD85B5846085BD85B5806485BD1B
:1038C00080918A00836080938A0080918B00816060
:1038D00080938B0087E886B91AB80FB6F894A8953C
:1038E00081B5886181BD11BC0FBE61E08DE00E9491
:1038F0009A032FB7F89490E080E0FC01E15EFD4F61
:103900001082019683319105C1F780916200877F13
:1039100080936200DC98809162008F7B80936200CC
:10392000809162008F7D80936200C698C598C4988C
:103930001D981C981B98809162008E7F8093620076
:10394000C798DE98DF9896989798DD98DB988091D5
:1039500062008F7E809362002FBF9FB7F8948091A2
:103960006100886080936100D49A809161008064D6
:103970008093610080916100806280936100BE9AB3
:10398000BD9ABC9A159A149A139A8091610081602D
:1039900080936100BF9AD69AD79A8E9A8F9AD59AB9
:1039A000D39A809161008061809361009FBF1FBCAA
:1039B00089E08EBD8CE093E09BBD8ABD87B78061B6
:1039C00087BF1092320261E08FE10E949A0360E0AB
:1039D0008BE397E00E94E002E0913707F09138070F
:1039E000908180913607809589238083E091390703
:1039F000F0913A07808190913607892B8083D12CF2
:103A0000C12CBB24B394F601E454FE4FE4910E2F75
:103A100010E0C8010E94730AF82EC80101960E94A6
:103A2000730AE82EC80102960E94730AA82EC801E4
:103A300003960E94730A90912507F91638F5F6014E
:103A4000E45EFE4F00811181D8011196AC9211976E
:103A500014968C938F2DE11014C10E94B1014C017A
:103A600041E050E0B8010E94D715F40196838583A8
:103A70008F2D0E94B1017C0150E040E0B8010E940E
:103A8000D715D70119969C938E931897A895F2E0B5
:103A9000CF0ED11C46E2C416D10409F0B4CF61E0C8
:103AA00070E084E090E00E94522590932A07809372
:103AB0002907892B91F010E000E0E0902907F090B1
:103AC0002A07E00EF11E802F0E94B70AD7018C93BF
:103AD0000F5F1F4F0430110581F780E00E94A30A99
:103AE000082F10E081E00E94A30A282F30E0322F37
:103AF000222722273E7F000F111F202B312B3093CE
:103B00002C0720932B0780FF05C0216030932C07E2
:103B100020932B0789E695E190930F0280930E0284
:103B200089E696E0909311028093100210921C0295
:103B300010921B0210921A0210921902109218028F
:103B400081E0809317021092160261E083E10E94E7
:103B50006C0361E082E10E946C03809171008E7FB2
:103B600080937100809171008D7F8093710088E453
:103B70008093700085E4809374008AEA92E09093C9
:103B800015028093140286EB92E0909313028093C7
:103B9000120282E0809372008CE08093700060E0FB
:103BA0008AE10E949A03E0EAF2E08491EBE6F2E017
:103BB0000491E6E3F2E0149111117BC081E080935F
:103BC0004D0280914D0281119EC081E090E00E94E3
:103BD000730A21E030E030933A0220933902809357
:103BE0003B0281E190E00E94730A21E130E03093D2
:103BF0003D0220933C0280933E0282E190E00E94CD
:103C0000730A22E130E03093400220933F02809318
:103C100041028DE190E00E945D0B81FD5AC08DE173
:103C200090E090934302809342021092440286E017
:103C3000809368028093690260E00E949A0361E0C9
:103C400086E00E946C0360E089E00E94441388E1F2
:103C50009BE00FB6F894A89581BD0FBE91BD72E0B0
:103C6000472E512C80914D02882309F4A9C08091E0
:103C70003302909134020E94EE0DA8950E949302A7
:103C8000F1CF0E94B101FC01B382F0E8EF1609F414
:103C9000EFCEB1E8EB12FACE8F2D0E94B1017C017C
:103CA00041E050E0B8010E94D715F7019683858363
:103CB000EDCE81110E943703E12FF0E0EE0FFF1FE0
:103CC000E45FFD4FA591B491EC91E02309F476CF28
:103CD00078CF8DE190E00E945D0B85FD0DC0809155
:103CE000160190911701A0911801809342029093C0
:103CF0004302A09344029BCF8091190190911A0135
:103D0000A0911B01F2CF8FE190E00E946E258C0103
:103D100087E0F801818386E090E00E946E257C01B7
:103D200068E00E949A06D8015E96FC92EE925D973A
:103D3000109334020093330281E893E00E94730AE7
:103D4000F8018083843010F081E0808310931E029C
:103D500000931D0260E0D80111968C910E949A0395
:103D600060E0F801858D968D0E94E002D8011696DC
:103D70001C921E9215971B961C921E921A97509693
:103D80001C921E921F9755961C921E9254975A96FB
:103D90001C921E9259975C961C921E925B971196EC
:103DA0008C919CEF980F943020F08251843008F071
:103DB0008FEF42E050E067E971E10E94B40447CF21
:103DC0008091450281110DC00E94CB036093500287
:103DD00070935102809352029093530281E080933A
:103DE000450280915402909155028130910509F469
:103DF000B1C260F1029709F040CF8091280781118C
:103E000002C00E94080A80914E02882309F4E8C586
:103E100085E397E00E94850681117FC0809120078D
:103E200090912107019709F0D4C5109221071092B3
:103E3000200780912807811102C00E94080A85E3AB
:103E400097E00E9485068823D1F367C080915902CC
:103E50008823B1F00E94330400915A0210915B0252
:103E600020915C0230915D02601B710B820B930B01
:103E7000653171058105910518F080E00E94640AA2
:103E800080917402882309F448C0F89488E0EFE731
:103E9000F2E0ADE2B7E001900D928A95E1F7109261
:103EA0007402789430917F02E1E8F2E090E080E0E3
:103EB000391721F0219182279F5FFACF81112DC000
:103EC00080E090E0892B21F08DE297E00E940000D5
:103ED00080912F07811128C090913007911124C043
:103EE00080E090E0892B19F080E00E940000809132
:103EF00059028823A9F081E00E94AC08809128072C
:103F000081110E944A090E94CB0360935002709372
:103F1000510280935202909353020E949B13ADCEA4
:103F200081E00E94640AEACF90915902992309F432
:103F300086C08057803108F07FC081E00E94AC08C5
:103F400010912D078091600218130AC0412F50E094
:103F500062E672E08FE297E00E949326892B61F07F
:103F600010925F0288E0EDE2F7E0A0E6B2E0019097
:103F70000D928A95E1F7C2CF80915F028F5F8093A7
:103F80005F02133009F040C090912F07892F87708E
:103F9000F0903007853029F4F0925E020E942304ED
:103FA000ADCF0DE110E0843091F0282F30E0843067
:103FB000F0F400915E020023D1F00150110B000FCC
:103FC000111F000F111F020F131F0F5F1F4F93FFD1
:103FD00010C061E0C8010E94BA12882309F48ECF94
:103FE0006F2DC8010E942113F81288CFD7CF890105
:103FF000ECCF60E0C8010E94BA12882309F47ECF9A
:10400000C8010E94830BF0CF143009F077CF809164
:104010002F07682F70E0762F6627662773709091C0
:104020003007692B6F5F7F4F21E334E04091310708
:104030008C700E94091462CF80E00E94640AE091B3
:104040002F07EF3F61F480913007811157CF80E057
:1040500090E0892B09F452CF0E9400004FCFE7FD7A
:104060000DC000913207209131074091300770E078
:1040700060E08E2F90E00E94771440CFE03C08F083
:1040800058C13091570237FF39CF20913007822F26
:1040900090E08C0100951095000F111F000F111F6B
:1040A000007C1170EF730E2B95958795B82FB37028
:1040B000BB2E80912D07853041F52C782C3029F5C9
:1040C0000E94850B8017910721F00F3F114009F0E6
:1040D00015CF8091300790E0982F8827882793701C
:1040E00000913107080F192F111D0F5F1F4FF0901E
:1040F000320761E0C8010E94BA126F2D882309F4CB
:10410000FDCEC8010E942113F9CE6801F1E0CF1A5B
:10411000D108CC0CDD1CCC0CDD1CCB2876014FEF7C
:10412000E41AF40A80916C028823F9F036FF41C04A
:10413000C70160E071E00E942125682F81E090E0D6
:104140000E942113C701F7FE02C081509F4F692FC3
:1041500089E090E00E94211380E090E0892B19F023
:10416000C7010E94000010926C028091570280FDEE
:1041700039C080912D07843009F04FC080913007FD
:104180008978813009F0BACE6091310780E090E003
:10419000892B19F0C7010E94000080E090E0892B74
:1041A00009F4ACCE409131076B2DC7010E9400008D
:1041B000A5CEB8016F73772781E090E00E942113AC
:1041C000B801E6E075956795EA95E1F789E090E03A
:1041D0000E94211380E090E0892B29F2C8010E94FF
:1041E0000000C1CF86FF0DC00E94850B8E159F0574
:1041F00009F4BFCF5DEFE51657E0F5060CF0B9CF37
:104200007DCE0E94850B8017910709F4B2CF0F3F36
:1042100081E0180709F4ADCF71CE833069F5409184
:104220003007942F9170C92E43FBDD24D0F880E035
:1042300090E0892B31F047702D2DB801C7010E9405
:1042400000008091570286FF0BC080E090E0892B30
:1042500009F454CE4D2D6C2DC7010E9400004ECEA6
:1042600080E090E0892B09F449CE2D2D4C2D6B2D4B
:10427000C8010E94000042CE863009F03FCE8091F6
:104280003007982F9978913021F08F78803809F095
:1042900035CE8091570286FF28C00E94850B8E156F
:1042A0009F05E9F48091310790E0382F22272227DB
:1042B000337000913207020F132F111D0F5F1F4F34
:1042C000F0903307959587959595879583709927F5
:1042D0008230910599F0039709F40BCF0FCEADEF23
:1042E000EA16A7E0FA06F4F609CE0E94850B8017BD
:1042F0009107C1F20F3F1140A9F200CEF4FEFECDAE
:1043000061E0C8010E94BA12882309F4F7CDC80100
:104310000E94830B9F2D977061E070E001C0660FD3
:104320009A95EAF7F3FE02C0682BEBCE60956823FE
:10433000E8CEE83E08F0E2CDE05CFF0B809130076C
:1043400000913307209132074091310761E070E01E
:104350009E2F91CE0CE813E09AE0E92EF12CDD249B
:10436000D39423E6C22E33E0B32E42E0A42E5BE1C9
:10437000352EF80183859485019709F056C1E654DE
:10438000F10980819181329660807180680E791E7A
:10439000D80151961C92519752961C92529716969C
:1043A0001C9216971A961C921A971D961C921D978E
:1043B0001E961C921E971F961C921F9717961C9272
:1043C000179750961C92509753961C925397199694
:1043D0001C92199715961C921E921497930135956D
:1043E00027954801BCE58B1A9108F40161E070E063
:1043F00086899789A72FA69541E050E04C0F5D1F55
:104400004A0F511DDA0141E0281739070CF040E04E
:104410004C93713248F4408D518D840F951F8E5707
:104420009109C19708F460E07E5F3496743201F719
:10443000FE013196CE9C9001CF9C300D11244EE0B0
:1044400057E0421B530B90E080E0708171118FC0E8
:1044500071817111A6C0D401A80FB91F1D961C92BD
:10446000019632968930910581F7F801808191811A
:10447000A281B38185519540A109B10983359B4043
:10448000A105B10508F06EC1662309F46BC181E096
:1044900046E9641671040CF080E0D80151968C93C3
:1044A000F801EC54F109908131978081B9E08B9F3C
:1044B000802D1124939D800D112432979081890FB6
:1044C00031964081942F990F940F890FF8018683BC
:1044D000EB54F10946E9641671040CF42EC181E035
:1044E0009081913009F080E0D8011D968C938989E4
:1044F000880F9F85890F880F9D85890F880F9B8561
:10450000890F91E009F090E0F801968791E0813001
:1045100009F090E0D8011F969C9381118150F80119
:1045200087838289882309F456C08C85880F9E85ED
:10453000890F880F9889890F880F9A89890FEEEF64
:10454000E80FEE3008F047C0F0E0E755FD4D0C9461
:104550003525DE22DE22E622E62289238923EB228C
:10456000EB228E238E23922392239723972371305D
:10457000C1F42180A1E02A1206C0DA01A80FB91FF8
:104580001D962C926DCF21100CC0D401A80FB91F1D
:104590001D96AC92853008F463CFD80152967C9377
:1045A0005FCF853048F0DA01A80FB91F1D96BC9285
:1045B000D8015296DC9254CF60E057CFD8011996BB
:1045C000AC921997817053968C9305C041E050E0EE
:1045D000F8015583448389E090E0FAE0EF16F10496
:1045E00011F08E199F09D8011C965C924E921B9770
:1045F000C89EB001C99E700D1124FB01E956FC4F05
:1046000080819181029789F4635C7C4F49E050E09E
:104610008BE197E0821B930B0E949326892B29F450
:1046200043E050E0F80154874387F1E0EF1AF108C6
:104630000D591F4FE114F10409F09BCEE7E9F3E0B7
:1046400090E080E0208131812330310509F092C073
:1046500023E6289F8001299F100D1124F801E956B7
:10466000FC4F84E090E091838083035C1C4F011534
:10467000110509F452CC680145E5C40ED11CD601E0
:10468000EC91E0903B02F0E0F12CCF018E199F09F4
:104690008130910509F4D8C00CF074C0892B09F061
:1046A0002DCC80913802D801A45ABF4F9C919923F8
:1046B00009F48EC080618093380290913802D8014D
:1046C000A85ABF4F8C91823009F49DC008F082C077
:1046D000813009F48CC02091380241E050E070E054
:1046E00060E0CF010E94D50BF801ED5AFF4F8081A9
:1046F00091818130910509F09CC033960DE110E065
:1047000021E030E0408170E060E0C7010E94C80A0B
:10471000F5CBD8011996BC92199754CFF801558260
:10472000448259CFD8011996DC9219974BCF44E0B7
:10473000F80141878170838B4ECF8081811112C037
:104740008F85880F9D85890F880F9B85890FD801DC
:104750001A968C9381E09989913009F080E0F801F4
:10476000808B39CFE5E0F0E0D8011C96FC93EE9306
:104770001B975BCF0196ED59FF4F8A30910509F0E9
:1047800061CFCBCB8230910509F4AAC0039709F021
:10479000B5CB80E390E00E945D0B83FFAFCB8091AF
:1047A0003502F801E85AFF4F9081923009F4FBC0BE
:1047B00008F0E0C0913009F4EAC0F6018081209150
:1047C000350244E050E070E060E08350990B57C040
:1047D0008F7E71CF833009F1843009F07CCFD8010E
:1047E000AE59BF4F8C91882311F1986007C0D80152
:1047F000AE59BF4F8C91882321F09160909338027D
:104800006ACF9E7FFBCFD801AE59BF4F8C918823D2
:1048100011F09260F3CF9D7FF1CFD801AE59BF4F19
:104820008C91882311F09460E9CF9B7FE7CF977F2D
:10483000E5CF029709F062CBF801EA5AFF4F0DE18C
:1048400010E030E020E05ECF80E390E00E945D0B5E
:1048500081FF54CB80913702F801E85AFF4F9081D5
:10486000923041F178F49130C9F0F60180812091C5
:10487000370242E050E070E060E08150990B0E9406
:10488000D50B3CCB933001F1943079F7F801EE5918
:10489000FF4F9081992311F1886007C0F801EE590C
:1048A000FF4F9081992321F0816080933702DDCF03
:1048B0008E7FFBCFF801EE59FF4F9081992311F0C5
:1048C0008260F3CF8D7FF1CFF801EE59FF4F9081D9
:1048D000992311F08460E9CF8B7FE7CF877FE5CF05
:1048E00080E390E00E945D0B82FF08CB809136024E
:1048F000F801E85AFF4F9081923031F168F491301D
:10490000B9F0D6018C912091360243E050E070E07E
:1049100060E08250990BB3CF933001F1943089F766
:10492000F801EE59FF4F9081992311F1886007C07B
:10493000F801EE59FF4F9081992321F08160809317
:104940003602DFCF8E7FFBCFF801EE59FF4F90810B
:10495000992311F08260F3CF8D7FF1CFF801EE59EA
:10496000FF4F9081992311F08460E9CF8B7FE7CFCF
:10497000877FE5CF933009F1943009F01ECFF8011D
:10498000EE59FF4F9081992311F1886007C0F8011B
:10499000EE59FF4F9081992321F081608093350279
:1049A0000CCF8E7FFBCFF801EE59FF4F90819923FA
:1049B00011F08260F3CF8D7FF1CFF801EE59FF4FF8
:1049C0009081992311F08460E9CF8B7FE7CF877FB7
:1049D000E5CF81E090E0909321078093200729CADA
:1049E0008BE397E00E948506811107C081E090E08B
:1049F000909321078093200790CA1092210710926C
:104A000020078BCA60E085E397E00E94E00260E047
:104A10008BE397E00C94E002E199FECF9FBB8EBB45
:104A2000E09A99278DB30895262FE199FECF9FBB79
:104A30008EBB2DBB0FB6F894E29AE19A0FBE019699
:104A4000089597FB072E16F4009407D077FD09D040
:104A50000E943E2507FC05D03EF4909581959F4F1E
:104A60000895709561957F4F0895EE0FFF1F002404
:104A7000001C0BBE0790F691E02D0994AA1BBB1BEE
:104A800051E107C0AA1FBB1FA617B70710F0A61B4E
:104A9000B70B881F991F5A95A9F780959095BC016F
:104AA000CD0108950F931F93CF93DF93869F8001CD
:104AB000879F100D969F100D1124C8010E946E252E
:104AC000EC01009729F0A80170E060E00E94A026A8
:104AD000CE01DF91CF911F910F9108950F931F93F6
:104AE000CF93DF938230910510F482E090E0E09163
:104AF000A207F091A30730E020E0B0E0A0E03097FB
:104B000099F42115310509F44AC0281B390B2430CA
:104B10003105D8F58A819B816115710589F1FB0109
:104B200093838283FE0111C04081518102811381F0
:104B300048175907E0F04817590799F4109761F0A2
:104B400012960C93129713961C933296CF01DF9115
:104B5000CF911F910F9108950093A2071093A3077F
:104B6000F4CF2115310551F04217530738F0A90150
:104B7000DB019A01BD01DF01F801C1CFEF01F9CFDF
:104B80009093A3078093A207CDCFFE01E20FF31FFE
:104B9000819391932250310939832883D7CF209173
:104BA000A0073091A107232B41F4209112013091ED
:104BB00013013093A1072093A00720911001309199
:104BC00011012115310541F42DB73EB74091140173
:104BD00050911501241B350BE091A007F091A1071E
:104BE000E217F307A0F42E1B3F0B2817390778F0C4
:104BF000AC014E5F5F4F2417350748F04E0F5F1F23
:104C00005093A1074093A007819391939FCFF0E029
:104C1000E0E09CCFCF93DF930097E9F0FC0132975F
:104C200013821282A091A207B091A307ED0130E098
:104C300020E01097A1F420813181820F931F2091F1
:104C4000A0073091A1072817390709F061C0F09338
:104C5000A107E093A007DF91CF910895EA01CE1755
:104C6000DF07E8F54A815B819E0141155105B1F7E7
:104C7000E901FB83EA8349915991C40FD51FEC17D1
:104C8000FD0761F4808191810296840F951FE901EF
:104C900099838883828193819B838A83F0E0E0E01B
:104CA00012968D919C9113970097B9F52D913C9197
:104CB0001197CD010296820F931F2091A00730918A
:104CC000A1072817390739F6309751F51092A30735
:104CD0001092A207B093A107A093A007BCCFD383E3
:104CE000C28340815181840F951FC817D90761F491
:104CF0004E5F5F4F88819981480F591F51834083D0
:104D00008A819B81938382832115310509F0B0CF7D
:104D1000F093A307E093A2079ECFFD01DC01C0CF73
:104D200013821282D7CFFB01DC0104C08D91019068
:104D3000801921F441505040C8F7881B990B089501
:104D4000DC0101C06D9341505040E0F7089511E03F
:104D5000CFE5D1E004C0FE010E9435252196C03682
:084D6000D107C9F7F894FFCF59
:104D6800AC0100000000000000000000000000008E
:104D78000000A40780001D00021D00229B07960763
:104D880091078C07870782077D07780773076E07E7
:104D9800690764075F075A07550750074B07460717
:104DA80041070000000022020A03C4016902F5015C
:104DB800D301E7010000000071065E068206340692
:064DC80057064406350603
:00000001FF
