:100000000C9460010C94B21C0C94871C0C945C1C26
:100010000C94311C0C94061C0C94DB1B0C94B01B30
:100020000C94851B0C948A010C948A010C948A010F
:100030000C94101E0C948A010C948A010C948A0171
:100040000C943B1B0C948A010C94051B0C94DB1A3A
:100050000C948A010C948A010C948A010C948A01F4
:100060000C948A010C948A010C948A010C948A01E4
:100070000C948A010C94011E0C948A010C948A0140
:100080000C948A010C94DD1C0C948A013D03000041
:100090000000000B0D0000000000000101C0800006
:1000A000000000000000000000060000000000004A
:1000B0000000000000000000000000000000000040
:1000C0000000000000007F000000000000000000B1
:1000D0000000000000000000000000000000000020
:1000E0000000000000000000000000000000000010
:1000F0000000000000000000000000000000800080
:1001000000008000010080000100800001008000EC
:1001100001008000010080000200800003008000D8
:1001200003008000030080000300800003008000C3
:1001300003008000040080000400800005008000AF
:100140000680FF000681FF00FF000000FF000000A6
:10015000FF000000FF000000FF000000FF000000A3
:10016000FF000000FF000000FF000000FF00000093
:10017000FF000000FF000000FF000000FF00000083
:10018000FF000000FF000000FF000000FF00000073
:10019000FF000000FF000000FF00000000003A0028
:1001A00037003400310022006100640000003B0091
:1001B00038003500320023006200650070007400D2
:1001C00078007C008000840088008C0090009400FF
:1001D00098009C00A000A400A800AC00B000B400EF
:1001E000B800BC00C000C400C800CC00D000D400DF
:1001F000D800DC00E000E400E800EC00F000F400CF
:10020000F800FC000001040108010C0100003900A5
:10021000360033003000210020006300050505058D
:100220000505050502020202020202020707040494
:100230000404040404040707030303030303030380
:100240000701010101010101010606060606060675
:10025000060102040810204080010204081020401A
:1002600080081001020408102040800102010204ED
:100270000810204080048040201008040201010280
:100280000408102040800000000A0B0C0000000051
:10029000000001040506000000000000000000004E
:1002A000000000000000000000000000000000004E
:1002B000000000000000000000000000E61E98277B
:1002C00011241FBECFEFD0E1DEBFCDBF11E0A0E013
:1002D000B1E0E8EDF2E500E00BBF02C007900D923F
:1002E000AA36B107D9F727E0AAE6B1E001C01D920E
:1002F000AE3CB207E1F711E0CFE5D1E004C02197B1
:10030000FE010E94ED27CE35D107C9F70E94F620E5
:100310000C945F290C9400002091500730915107F4
:100320002115310549F090E0880F991F820F931F26
:10033000FC0180819181089590E080E00895089506
:1003400081E08093780208952091770281E0213244
:1003500008F044C0809153028111FCCF8091760255
:1003600092E09093530291E0909352029FEF90930A
:1003700051021092500220934F02A6E5B2E0EFE244
:10038000F2E090E0291331C010922E0290912E02DB
:10039000880F892B80932E0280912D02813049F5A0
:1003A00010922D0280912E02809373008091740030
:1003B00083FDF8CF85EC80937400809153028230E6
:1003C000E1F3809151028F3FB1F080915102803270
:1003D000A1F080915102803391F084E01092550297
:1003E000109277021092540208953D9131939F5FCD
:1003F000C9CF85EEE0CF80E0F1CF82E0EFCF83E0A0
:10040000EDCFFC01538D448D252F30E0842F90E0FB
:10041000821B930B541710F0CF96089501970895FF
:10042000FC01918D828D981761F0A28DAE0FBF2FC8
:10043000B11D5D968C91928D9F5F9F73928F90E01E
:1004400008958FEF9FEF0895FC01918D828D98178D
:1004500031F0828DE80FF11D858D90E008958FEFCA
:100460009FEF0895FC01918D228D892F90E0805C93
:100470009F4F821B91098F7399270895FC01A48DCA
:10048000A80FB92FB11DA35ABF4F2C91848D90E0B6
:1004900001968F739927848FA689B7892C93A08999
:1004A000B1898C9180648C93938D848D981306C050
:1004B0000288F389E02D80818F7D80830895EF92FB
:1004C000FF920F931F93CF93DF93EC0181E0888F0E
:1004D0009B8D8C8D981316C0E889F989808185FFE2
:1004E00011C0EE89FF896083E889F9898081806481
:1004F000808381E090E0DF91CF911F910F91FF9079
:10050000EF900895F62E0B8D10E00F5F1F4F0F73C5
:100510001127E02E8C8D8E110CC00FB607FCFACF80
:10052000E889F989808185FFF5CFCE010E943E02DE
:10053000F1CFEB8DEC0FFD2FF11DE35AFF4FF08251
:100540000B8FEA89FB8980818062D2CFCF93DF93C2
:10055000EC01888D8823B9F0AA89BB89E889F989DB
:100560008C9185FD03C0808186FD0DC00FB607FC10
:10057000F7CF8C9185FFF2CF808185FFEDCFCE0143
:100580000E943E02E9CFDF91CF91089581EB92E086
:100590000E94320221E0892B09F420E0822F089585
:1005A00080E090E0892B29F00E94C60281110E9410
:1005B000000080E090E0892B49F080E090E0892BFA
:1005C00029F00E94000081110C9400000895089504
:1005D000E091F401F091F501309729F01092550265
:1005E0001092770209940895CF93DF93AC01E091C4
:1005F000F601F091F7013097F1F09091F3018091BD
:10060000F2019817C0F090E0292F30E02617370745
:1006100054F4D901A459BE4F240F351FE901288194
:100620002C939F5FF1CF1092F3016093F201CB0105
:10063000DF91CF910994DF91CF910895DC0112965B
:10064000ED91FC91139711969C9111978081611106
:100650000EC09095982390831496ED91FC91159778
:10066000908111968C9180958923808308956230C2
:1006700061F49095982390831496ED91FC911597D1
:10068000808111969C91892BF0CF982B90830895AF
:10069000AF92BF92CF92DF92EF92FF920F931F9390
:1006A000CF93DF936C017B018B01040F151FEB01CE
:1006B0005E01AE18BF08C017D10759F06991D60185
:1006C000ED91FC910190F081E02DC6010995892BF7
:1006D00079F7C501DF91CF911F910F91FF90EF90B6
:1006E000DF90CF90BF90AF90089581508C3088F507
:1006F000E82FF0E0E258FC4F0C94ED27A603A60388
:10070000A9038A038E0391039403A903A903980301
:100710009E03A2038FB58F778FBD08958FB58F7D10
:10072000FBCF8FB5877FF8CF85B58F7D85BD0895C9
:1007300080918B008F7780938B00089580918B0040
:100740008F7DF9CF80918B00877FF5CF83B78F7D29
:1007500083BF08951F93CF93DF93282F30E0F901D3
:10076000EA57FD4F8491F901EF5AFD4FD491F901F9
:10077000E45EFD4FC491CC23A9F0162F81110E9495
:100780007503EC2FF0E0EE0FFF1FE455FE4FA5912F
:10079000B4918FB7F894EC91111108C0D095DE2375
:1007A000DC938FBFDF91CF911F910895DE2BF8CF9F
:1007B000CF93DF9390E0FC01EF5AFD4F2491845ECC
:1007C0009D4FFC0184918823D1F090E0880F991F00
:1007D000FC01E456FE4FA591B491FC01E455FE4F97
:1007E000C591D49161110EC09FB7F8948C91E22FFE
:1007F000E0958E238C932881E223E8839FBFDF91CD
:10080000CF9108958FB7F894EC91E22BEC938FBFC2
:10081000F6CF3FB7F8948091E8019091E901A0915B
:10082000EA01B091EB0122B706B600FE05C02F3FEA
:1008300019F00196A11DB11D3FBFBA2FA92F982F06
:100840008827BC01CD01620F711D811D911D42E001
:10085000660F771F881F991F4A95D1F708958F92C9
:100860009F92AF92BF92CF92DF92EF92FF924B0195
:100870005C010E9409046B017C010E9409046C194F
:100880007D098E099F09683E734081059105A8F393
:1008900021E0821A9108A108B10888EEC80E83E011
:1008A000D81EE11CF11C81149104A104B10429F7A4
:1008B000FF90EF90DF90CF90BF90AF909F908F9080
:1008C000089561E08FE10E94AA0364E070E080E097
:1008D00090E00E942F0460E08FE10C94AA030C9436
:1008E00061042FB7F8946091E4017091E501809163
:1008F000E6019091E7012FBF0895E82FF0E0DF01B6
:10090000AA0FBB1FA050BF4F11967C936E938830E7
:10091000A8F4E357FB4F0C94ED2795049F04AC0417
:10092000BA04C804CF04DA04E60480916A008C7F1C
:10093000482B40936A0089B7816089BF08958091F0
:100940006A00837F440F551F440F551F482B409367
:100950006A0089B78260F1CF80916A008F7C74E071
:10096000440F551F7A95E1F7482B40936A0089B7E9
:100970008460E3CF80916A008F7366E0440F551F57
:100980006A95E1F7482B40936A0089B78860D5CF14
:100990008AB78C7F482B4ABF89B78061CECF8AB790
:1009A000837F440F551F440F551F482B4ABF89B7FB
:1009B0008062C3CF8AB78F7C24E0440F551F2A95ED
:1009C000E1F7482B4ABF89B78064B7CF8AB78F73E6
:1009D00096E0440F551F9A95E1F7482B4ABF89B717
:1009E0008068ABCF883010F40C947D0408950E9489
:1009F00009042091E1013091E201FB01E21BF30BBC
:100A00002091980230919902E217F30708F438C157
:100A100020919A0230919B027093E2016093E10170
:100A200040919C0250919D024130510599F148F04E
:100A30004230510509F4B9C04330510509F4EFC003
:100A40000895E217F30708F0D4C080919F028F5FEA
:100A500080939F028B3008F413C181E090E0909363
:100A60009D0280939C0241E050E067EF74E080912A
:100A700092020E94F2041092E00182E590E09093CD
:100A80009B0280939A0283E290E090939902809374
:100A9000980208954091E0014130A9F038F04330C8
:100AA00009F449C0443009F47CC00895E217F30703
:100AB00030F491E09093E001E093DF01089584E049
:100AC0008093E0010895E217F30798F51092E00192
:100AD00090919F029F5F90939F028E2FEE0F990B34
:100AE0002091DF01821B910927FD939597FF03C099
:100AF00091958195910949970CF4C2C010929D027D
:100B000010929C0282E990E090939B0280939A025B
:100B100082E590E0909399028093980210929F0250
:100B20004091800250E067EF74E0809192020C9453
:100B3000F20483E0C5CFE217F30700F3809180024F
:100B4000833061F582E08093800282E090E09093B0
:100B50009D0280939C0282E990E090939B02809397
:100B60009A0282E590E09093990280939802109205
:100B7000A1021092A3021092A4021092A502109258
:100B8000A6021092A7021092A80280919F02809361
:100B9000A20210929F021092A002C2CF4093800244
:100BA000D4CFE217F30788F6A9CF50919F025F5F79
:100BB00050939F024091A002440FE217F307E0F028
:100BC0004093A002583009F05BC0E091A102E630EA
:100BD000A9F410929D0210929C0282E990E09093F9
:100BE0009B0280939A0282E590E090939902809311
:100BF000980210929F0208954160E2CF83E090E056
:100C000090939D0280939C028091A00291E09E0FA0
:100C10009093A102F0E0E456FD4F87830895E21718
:100C2000F307F8F410929D0210929C0210929F021A
:100C300082E990E090939B0280939A0282E590E093
:100C4000909399028093980288E0E1EAF2E0A9EAA1
:100C5000B2E001900D928A95E1F781E080939E02C7
:100C600008958091A102863009F4B3CF82E090E02C
:100C700090939D0280939C0210929F021092A0027A
:100C80000895809379020895CF93C82F80918302AD
:100C90008C1731F081E0C11101C080E080937902AE
:100CA000C093830260E070E0CB01C1110E94710427
:100CB00060938402709385028093860290938702EA
:100CC000809183028C1731F081E0C11101C080E076
:100CD00080937902CF91089580E090E0892B29F0EC
:100CE0008091970283FD0C9400000895E82FF0E0B6
:100CF000E650FE4F608308950F931F93CF93DF93C9
:100D0000FC018281813051F008F480C0823009F406
:100D100077C0DF91CF911F910F9108950181C02F6E
:100D2000D0E0108161E0812F0E94D803209741F428
:100D300060E0812FDF91CF911F910F910C94AA0356
:100D4000CF3FD10511F461E0F4CFE12FF0E0EA5795
:100D5000FD4FE491E150EC3008F04DC0F0E0ED546F
:100D6000F94F0C94ED27BF06BF06FB06C406CA0662
:100D7000D006D806FB06FB06DD06E706F10683B7BC
:100D8000806283BF01BFC5CF8FB580688FBDDBBDDB
:100D9000CABDBFCF8FB580628FBDD9BDC8BDB9CF29
:100DA0008FB588608FBDD0937900C0937800B1CFA4
:100DB00085B5806285BD03BDACCF80918B00806816
:100DC00080938B00D0938700C0938600A2CF809140
:100DD0008B00806280938B00D0938500C093840049
:100DE00098CF80918B00886080938B00D093830094
:100DF000C09382008ECFC038D1050CF0A4CF98CF1D
:100E00008181A381B0E0A650BE4F8C9361E08081C8
:100E100091CF0F931F93CF93DF93D62F8C01C0E018
:100E2000CD1741F0F801819191918F010E947C06CC
:100E3000CF5FF6CFDF91CF911F910F910895CF93A0
:100E4000DF93DC01EC91F0E0EE0FFF1FE45FFD4F5C
:100E5000C591D491988111968C91982381E009F4E1
:100E600080E0DF91CF910895DC0170E0FB01EF5A43
:100E7000FD4FE4911196EC931197645E7D4FFB0159
:100E800024912C9330E0220F331FF901E456FE4FDA
:100E90008591949113969C938E931297F901E45542
:100EA000FE4F8591949115969C938E931497089577
:100EB000FC018081813089F4CB018458934088976C
:100EC000C0F06138F3E07F07A1F06C5F734081E010
:100ED0006530710578F080E00895823021F4CB010F
:100EE0008C5A9340ECCF833061F7CB01845D934003
:100EF000E6CF81E00895CF93DF93FC0121812F3F5E
:100F0000F9F0EC0161E0858D968D0E941E03AD8D98
:100F1000BE8D1496ED91FC911597908111968C9150
:100F200080958923808361E070E080E090E00E94FA
:100F30002F0460E08D8D9E8DDF91CF910C941E0368
:100F400080E090E0892B21F0DF91CF910C9400009C
:100F5000DF91CF91089585ED8093740080917400A6
:100F600084FDFCCF1092530208952091AC01260F0E
:100F70003327331F21323105ECF420915302FC0159
:100F800090E080E0243069F082E00895A091AC0107
:100F90002191AC0144575E4FA40FB52FB11D2C9386
:100FA0000196861798F38091AC01680F6093AC01AD
:100FB00080E0089581E008950895E091F301809123
:100FC000F201E81730F4F0E0E459FE4F808190E040
:100FD00008958FEF9FEF08959091F3018091F201B2
:100FE0002FEF3FEF981748F4E92FF0E0E459FE4F58
:100FF000208130E09F5F9093F301C90108958091B3
:10100000F2019091F301891B990B0895CF92DF9221
:10101000EF92FF920F931F93CF93DF937C01CB014D
:101020008A0120915402222389F0EB016B01C40E46
:10103000D51ECC15DD0569F06991D701ED91FC91C4
:101040000190F081E02DC7010995F3CF642F0E9434
:10105000B507C801DF91CF911F910F91FF90EF90DD
:10106000DF90CF900895CF93DF931F92CDB7DEB777
:101070006983209154022223F9F0209177022032D3
:1010800058F021E030E0FC013383228390E080E0DF
:101090000F90DF91CF91089580915502E82FF0E0F5
:1010A000EA5AFD4F998190838F5F80935502809318
:1010B000770281E090E0ECCF61E0CE0101960E94E2
:1010C000B507F7CF90E080E008950F931F93CF937B
:1010D000DF9300D000D01F92CDB7DEB790912302EE
:1010E000992329F189836A834B8310E001E0809181
:1010F00023021817E0F4E0910E02F0910F02E10FC5
:10110000F11D808100935402809376021092550263
:101110001092770245E050E0BE016F5F7F4F8EE492
:1011200093E00E9406080E94A4011F5FE0CF0F9089
:101130000F900F900F900F90DF91CF911F910F9113
:1011400008959091230291110C94650808958F924F
:101150009F92AF92BF92CF92DF92EF92FF920F9346
:101160001F93CF930E940904AB01BC0180915C03E3
:1011700090915D03A0915E03B0915F038A019B0192
:10118000081B190B2A0B3B0B80916403882309F47D
:101190007FC08091660390916503E92FEE0FFF0BEE
:1011A000A82F082E000CBB0BC3E68C02E00DF11D2E
:1011B0001124E65AFC4F178B068B053F1140210581
:1011C000310508F054C09F5F9093650390916503CB
:1011D0009332C9F593E69A9F90019B9F300D11249D
:1011E000265A3C4FF901E45AFF4FC0906003D0905B
:1011F0006103E0906203F09063034A015B018C1885
:101200009D08AE08BF0875016401C082D182E282E8
:10121000F38229593F4FE1E0F0E0D901ED93FC93CF
:101220008F5F8A3094F580936603E0916603B3E69E
:10123000EB02F0011124EF53FC4F11821082109247
:1012400064031092650340935C0350935D036093C5
:101250005E0370935F03CF911F910F91FF90EF900A
:10126000DF90CF90BF90AF909F908F900895109295
:10127000650391E09093640340936003509361038E
:101280006093620370936303A1CF10926603CDCF86
:10129000053F114021053105B0F281E080936403E0
:1012A0004093600350936103609362037093630300
:1012B000CACFE82FF0E0E650FE4F60830895CF9349
:1012C000FC018281813029F098F0823061F0CF9169
:1012D0000895C08161E08C2F0E94D80360E08C2FBC
:1012E000CF910C94AA03A381B0E0A650BE4F1C92EC
:1012F00060E08081F5CFEF92FF920F931F93CF9321
:10130000DF938C01FC01C581D681209751F0E480E8
:10131000F12CEF1431F0899199910E945F09F394B7
:10132000F8CFF801C085D185209751F0078110E0F2
:10133000011731F0899199910E945F091F5FF8CFE1
:10134000DF91CF911F910F91FF90EF900895209121
:101350005007309151072115310551F090E0880F69
:10136000991F820F931FFC01808191810C947B094E
:101370000895CF9380915207882369F18091530794
:1013800090915407892B29F1C0E080914F07C8172D
:1013900000F58C2F86958695869590E0E091530711
:1013A000F0915407E80FF91F208130E043E0880FE7
:1013B000991F4A95E1F74C2F481B02C03595279598
:1013C0004A95E2F720FF03C08C2F0E94A709CF5F48
:1013D000DCCF10925207CF9108950F931F93CF93B4
:1013E000DF9320915007309151072115310571F19C
:1013F00090E0880F991F820F931FFC01C081D1815B
:101400008B81882391F000914A0710914B078981C5
:101410009A810817190729F0CE010E947B091A83C7
:10142000098389819A81019731F48D819E8100978A
:1014300069F06C8105C088859985009739F06F81C6
:10144000DF91CF911F910F910C940907DF91CF91FC
:101450001F910F910895CF9380915207811138C049
:10146000C0E080914F07C81728F48C2F0E94A7096D
:10147000CF5FF7CF8091530790915407892B29F1C3
:10148000C0E080914F07C81700F58C2F8695869590
:10149000869590E0E0915307F0915407E80FF91F0B
:1014A000208130E043E0880F991F4A95E1F74C2FE7
:1014B000481B02C0359527954A95E2F720FF03C0E7
:1014C0008C2F0E94ED09CF5FDCCF81E08093520723
:1014D000CF91089520914A0730914B07281739077B
:1014E00061F090934B0780934A07809152078823BD
:1014F00021F00E94B9090C942B0A08950F931F93B1
:10150000CF93DF9350912202511106C061157105EE
:1015100041F061307105D9F0DF91CF911F910F91AA
:101520000895509145075817190629F0509148071A
:101530005817190689F70D31110579F1642F0F3706
:101540001105B9F00F30110551F06FE712C060912D
:101550004607709147078617970769F3DDCF4E302E
:10156000E0F450E8459FC00111246EE070E00E9455
:10157000B7272223D9F06068132FD22FC42F40E061
:1015800085E20E946508C0934E078D2F912FDF9151
:10159000CF911F910F910C946A0A4C31B0F650E82C
:1015A000459FC00111246CE170E0E1CF6F77E4CF7B
:1015B000CF93C62F8230910509F456C020F40197CD
:1015C00069F1CF9108958330910509F48BC0049798
:1015D000C1F785E160FFC0C00E94ED0986E1C1FF4F
:1015E000BEC00E94ED0987E1C2FFBCC00E94ED09A8
:1015F00088E1C3FFBAC00E94ED0989E1C4FFB8C009
:101600000E94ED098AE1C5FFB6C00E94ED098BE199
:10161000C6FFB4C00E94ED098CE14AC080E064FFBF
:1016200017C00E94ED0981E0C0FF15C00E94ED09BE
:1016300082E0C1FF13C00E94ED0983E0C2FF11C028
:101640000E94ED0984E0C3FF35C0CF910C94ED09F1
:101650000E94A709E8CF0E94A709EACF0E94A70924
:10166000ECCF0E94A709EECF85E060FF26C00E9464
:10167000ED0986E0C1FF24C00E94ED0987E0C2FFAA
:1016800022C00E94ED0988E0C3FF20C00E94ED093E
:1016900089E0C4FF1EC00E94ED098AE0C5FF1CC09E
:1016A0000E94ED098BE0C6FF1AC00E94ED098CE094
:1016B000C7FDCBCFCF910C94A7090E94A709D9CF22
:1016C0000E94A709DBCF0E94A709DDCF0E94A709CE
:1016D000DFCF0E94A709E1CF0E94A709E3CF0E94B4
:1016E000A709E5CF8DE060FF22C00E94ED098EE0E2
:1016F000C1FF20C00E94ED098FE0C2FF1EC00E9402
:10170000ED0980E1C3FF1CC00E94ED0981E1C4FF27
:101710001AC00E94ED0982E1C5FF18C00E94ED09C0
:1017200083E1C6FF16C00E94ED0984E1C1CF0E948B
:10173000A709DDCF0E94A709DFCF0E94A709E1CF4B
:101740000E94A709E3CF0E94A709E5CF0E94A7093D
:10175000E7CF0E94A709E9CF0E94A7093FCF0E94C7
:10176000A70941CF0E94A70943CF0E94A70945CFEF
:101770000E94A70947CF0E94A70949CF0E94A70945
:101780004BCF0E944406E1E8F2E081E087831086B7
:10179000EAE8F2E088E0DF011D928A95E9F7089512
:1017A0000C94A227DF92EF92FF920F931F93CF9397
:1017B000DF93D82E7B0181E090E00E94D00B90E077
:1017C0000091450710E0C0914807D0E080179107CD
:1017D00021F08C179D0709F050C0D0924E07EA9473
:1017E000EF2809F04DC08DE190E00E94D00BF82E5B
:1017F00081E090E00E94D00B90E00817190721F0DB
:101800008C179D0799F4CE018C179D07B9F4809130
:101810004C0790914D07019749F080914907882323
:1018200009F44AC010924D0710924C07DF91CF91F6
:101830001F910F91FF90EF90DF90089580914A07DC
:1018400090914B07019791F3F0FE10C010924B0757
:1018500010924A07EBCF0C171D0711F180914A0730
:1018600090914B07892B11F3F0FEF0CF81E090E0CF
:1018700090934B0780934A07D9CFEA94EF28B1F2AF
:101880008DE190E00E94D00BF82E81E090E00E9464
:10189000D00B90E080179107F1F28C179D0731F67D
:1018A00080914C0790914D07892B09F4BFCF80910F
:1018B0004907882309F4B6CF81E090E090934D0763
:1018C00080934C07B3CFCF93863823E0920719F16A
:1018D00030F481389340D1F08FEFCF91089587385D
:1018E00023E09207D9F088389340B1F786E893E077
:1018F0000E94D00BC82F87E893E00E94D00B90E0A5
:101900002FEFC29F800D911D112402C081E893E04A
:10191000CF910C94D00B86E893E0FACF87E893E060
:10192000F7CFCF93C82F8FE290E00E94D00B8111A8
:1019300009C085E190E0CC2311F086E190E0CF91E1
:101940000C94D00B80E0CF910895CF93C82F8FE2F5
:1019500090E00E94D00B811106C08C2F90E0CA96B7
:10196000CF910C94D00B80E0CF9108951F93CF932B
:10197000DF93EC0180917902882359F08FE090E0A9
:101980000E94D00B182F80E190E00E94D00B18131A
:1019900006C0CE01DF91CF911F910C94D00BFFCFE9
:1019A0000C94B60CCF93DF93209194023091950262
:1019B0002F3F320721F0C901DF91CF910895809127
:1019C000970287FF2BC086FF0FC089E090E00E943E
:1019D000D00CC82F81E090E00E94D00C9C2F9093F7
:1019E00095028093940215C089E090E00E94D00C8B
:1019F000C82F81E090E00E94D00C90E4C99F900134
:101A00001124207C31708F73282B30939502209302
:101A100094028091940290919502CECF85FF0CC0E4
:101A200081E190E00E94D00CC82F82E190E00E94FA
:101A3000D00CC05CDD0BD2CF81E090E00E94D00CD6
:101A400090E0CDCFEF92FF920F931F93CF93DF9350
:101A500030912202311107C06115710559F06130D2
:101A6000710509F461C0DF91CF911F910F91FF9033
:101A7000EF900895309145073817190629F03091F5
:101A800048073817190679F7C22F4330510509F472
:101A900009C108F052C04130510509F472C042300A
:101AA000510509F7822F8170F82E85E020FFE6C0EE
:101AB0000E94ED090C2F027086E0C1FFE2C00E9477
:101AC000ED091C2F147087E0C2FFDEC00E94ED09F3
:101AD000DC2FD87088E0C3FFDAC00E94ED09809146
:101AE0006A01FF2009F4D6C0816080936A01809169
:101AF0006A01002309F4D0C0826080936A0180915A
:101B00006A01112309F4CAC0846080936A0180913C
:101B10006A01DD2309F4C4C0886080936A0140E053
:101B200060916A0181E621C0609146077091470784
:101B30008617970709F4A8CF96CF4530510509F4C9
:101B400041C108F4FBC04630510509F08CCFD0915B
:101B50006B0180E024FF11C00E94ED09D061D09399
:101B60006B0140E060916B0180E6DF91CF911F91A6
:101B70000F91FF90EF900C9465080E94A709DF7EFB
:101B8000EECF122F1071D0916B0180911F02811145
:101B900055C0112309F44DC00E94ED09D061D093C6
:101BA0006B0140E060916B0180E60E9465088C2F1C
:101BB0008170E82E81E0C0FF4BC00E94ED098C2FA0
:101BC0008270F82E82E0C1FF46C00E94ED090C2F02
:101BD000047083E0C2FF42C00E94ED09DC2FD87080
:101BE00084E0C3FF3EC00E94ED0980916B01112388
:101BF000D9F1806180936B0180916B01EE20B1F18E
:101C0000816080936B0180916B01FF2089F182607C
:101C100080936B0180916B01002361F1846080935C
:101C20006B0180916B01DD2339F1886080936B013A
:101C300098CF80E00E94A709DF7EB1CF8DE190E0D0
:101C40000E94D00C81FFB3CF80E0112399F3A4CF81
:101C50000E94A709B4CF0E94A709B9CF0E94A70983
:101C6000BDCF0E94A709C1CF8F7EC4CF8E7FC9CFC1
:101C70008D7FCECF8B7FD3CF877FD8CF0E94A70910
:101C800019CF0E94A7091DCF0E94A70921CF0E944A
:101C9000A70925CF8E7F29CF8D7F2FCF8B7F35CF83
:101CA000877F3BCF822F8170F82E89E020FF32C0E2
:101CB0000E94ED090C2F02708AE0C1FF2EC00E9425
:101CC000ED091C2F14708BE0C2FF2AC00E94ED09A1
:101CD000DC2FD8708CE0C3FF26C00E94ED098091F4
:101CE0006A01FF2019F1806180936A0180916A0185
:101CF0000023F1F0806280936A0180916A011123D0
:101D0000C9F0806480936A0180916A01DD23A1F0AB
:101D1000806803CF0E94A709CDCF0E94A709D1CF29
:101D20000E94A709D5CF0E94A709D9CF8F7EDCCF0B
:101D30008F7DE1CF8F7BE6CF8F77EFCE8DE020FFD9
:101D400029C00E94ED098EE0C1FF27C00E94ED0965
:101D50008FE0C2FF25C00E94ED0980E1C3FF23C0D0
:101D60000E94ED0981E1C4FF21C00E94ED0982E1DA
:101D7000C5FF1FC00E94ED0983E1C6FF1DC00E9480
:101D8000ED0984E1C7FF1BC00E94ED0940E06C2F04
:101D900082E6EBCE0E94A709D6CF0E94A709D8CF32
:101DA0000E94A709DACF0E94A709DCCF0E94A709E9
:101DB000DECF0E94A709E0CF0E94A709E2CF0E94D0
:101DC000A709E4CF85E120FF29C00E94ED0986E143
:101DD000C1FF27C00E94ED0987E1C2FF25C00E9414
:101DE000ED0988E1C3FF23C00E94ED0989E1C4FF2A
:101DF00021C00E94ED098AE1C5FF1FC00E94ED09C4
:101E00008BE1C6FF1DC00E94ED098CE1C7FF1BC01E
:101E10000E94ED0940E06C2F83E6A7CE0E94A7093F
:101E2000D6CF0E94A709D8CF0E94A709DACF0E9477
:101E3000A709DCCF0E94A709DECF0E94A709E0CF47
:101E40000E94A709E2CF0E94A709E4CF1F93CF9376
:101E5000DF93EC01162F0E94A227181721F0612FA3
:101E6000CE010E94AA27CE01DF91CF911F910C9441
:101E7000D00BCF93DF93863823E0920739F138F403
:101E800081389340E9F08FEFDF91CF910895873843
:101E900023E09207F1F088389340A9F7C62F86E82F
:101EA00093E00E94D00BD82F87E893E00E94D00BDC
:101EB00090E06C2F2FEFD29F800D911D112402C056
:101EC00081E893E0DF91CF910C94260F86E893E0B0
:101ED000F9CF87E893E0F6CF0F931F93CF93DF936B
:101EE0000FB7F8940FB6F894A89581B5886181BDB5
:101EF00011BC0FBED0E0C0E0FE01E457FF4F1491CB
:101F0000CE010E94A227181721F0612FCE010E9456
:101F1000AA272196C03181E0D80771F781E893E0C4
:101F20000E94A227813029F061E081E893E00E94BD
:101F3000AA27CCE1D1E01FEF89919991FC0111838F
:101F40000E947C06F1E0C234DF07B1F70FBF88E1E1
:101F50009BE00FB6F894A89581BD0FBE91BDDF91AF
:101F6000CF911F910F9108951F93CF93DF93EC01B1
:101F7000162F089779F4662319F10E946C0F80E000
:101F800090E0892BB9F0612FCE01DF91CF911F91A5
:101F90000C94000080E090E0892BA9F781E0C11546
:101FA00090E1D90708F080E0111105C0DF91CF91D1
:101FB0001F91089581E027972297C0F780E0F6CF20
:101FC00080E090E0892BF9F681E0F0CF2F923F92EC
:101FD0004F925F926F927F928F929F92AF92BF9239
:101FE000CF92DF92EF92FF920F931F93CF93DF93E5
:101FF00000D000D000D0CDB7DEB78C01E0E0AE2E2F
:10200000E0E0BE2EF0E02F2EF0E03F2E412C512CD0
:1020100032014394B0E08B2EB0E09B2E80E0C82EBE
:1020200080E0D82ED8015B96ED91FC91309709F4B1
:102030005BC24281618180810E94A108F801038C0A
:10204000F48DE02DFD83EC838081803409F45BC145
:1020500008F04BC0893209F4C4C108F5843209F490
:10206000A7C198F4813209F46FC1833209F478C1B1
:10207000811113C0E0E0F0E0EF2B79F0AC81BD817D
:1020800011968C910E94000008C0863209F47CC130
:1020900008F44DC0883209F498C180E015C28D3231
:1020A00009F4BFC170F48B3209F4B0C108F4A4C1C3
:1020B000C114D10491F3EC81FD81618185E090E050
:1020C0008DC18F3209F4C2C108F4B6C1803309F45E
:1020D000C8C1813311F7E0E0F0E0EF2BF1F2AC8101
:1020E000BD8111966C9182E0C6C1813609F4BCC0F5
:1020F00080F5803509F45CC188F4823409F41AC192
:1021000008F40DC1833449F6A114B10431F2AC8155
:10211000BD8111966C9184E090E0FEC08E3509F48B
:10212000ADC1803609F497C0813509F0B6CF81146E
:10213000910409F4B2CFAC81BD8111968C9170E00D
:1021400060E087FF03C061E070E080580E940000FB
:10215000A4CF8D3609F49BC0A0F4833609F491C056
:1021600008F488C08C3609F098CF80E090E0892B85
:1021700009F493CFAC81BD8111968C910E9400002F
:102180008CCF873709F491C108F58E3609F085CFD9
:10219000AC81BD811396ED91FC911497309709F4B1
:1021A000A3C180818F3609F078CF2114310409F45E
:1021B00074CF11962C91622F661F6627661F81814E
:1021C000B0E88B9FC0011124822B9AC08B3709F491
:1021D000DBC18F3709F061CFAC81BD811196EC90E6
:1021E000F12CBFEFEB1ABCEFFB0AB701C8010E944C
:1021F0005807882309F467C1E5E8EE16E3E0FE0618
:1022000009F461C1FDEAEF16F3E0FF0609F482C2AA
:1022100025EDE21623E0F20609F47CC234E8E31669
:1022200033E0F30659F04CEAE41643E0F40631F0EB
:1022300084EDE81683E0F80609F05EC2AC81BD814A
:1022400012968C91883009F057C20E946C0FC80119
:102250000E947B075FC2AC81BD8111966C9181E0C9
:1022600090E00E94D80A19CFEC81FD81618182E063
:1022700090E0F7CFAC81BD8111966C9183E090E046
:10228000F0CFEC81FD81618184E090E0EACFAC8108
:10229000BD8111966C911197862F8F7711968C9333
:1022A0002114310409F4F9CE661F6627661FD80190
:1022B0005B96ED91FC918181811121C081E0809339
:1022C000DE0161110EC08091DE0187FDE6CE60E087
:1022D00090E00E9400008091DE018F5F8093DE011C
:1022E000F2CF8091DE0187FDD8CE61E090E00E94C0
:1022F00000008091DE018F5F8093DE01F2CF90E0DD
:102300000E940000CACEA114B10409F4C6CEEC812B
:10231000FD81618181E090E00E940000BECEA114A9
:10232000B10409F4BACEAC81BD8111966C9182E002
:1023300090E0F2CFA114B10409F4AFCEEC81FD819D
:10234000618183E090E0E8CFE0E0F0E0EF2B09F47A
:10235000A4CEAC81BD8111968C910E9400009DCECF
:10236000E0E0F0E0EF2B09F498CEAC81BD8111964E
:102370008C9190E087FF05C0819590E091958195C3
:1023800091090E94000089CEE0E0F0E0EF2B09F413
:1023900084CEAC81BD8111968C9190E087FF05C001
:1023A000819590E09195819591090E94000075CEEC
:1023B000EC81FD81818170E060E087FF03C061E016
:1023C00070E080580E94D20B68CEC114D10409F489
:1023D00064CEEC81FD81618181E090E00E9400008B
:1023E0005CCEC114D10409F458CEAC81BD811196E4
:1023F0006C9182E090E0F2CFC114D10409F44DCE8B
:10240000EC81FD81618183E090E0E8CFC114D104CB
:1024100009F443CEAC81BD8111966C9184E090E0CB
:10242000DDCFC114D10409F438CEAC81BD81119641
:102430006C9186E090E0D2CFC114D10409F42DCE86
:10244000EC81FD81618187E090E0C8CFC114D104A7
:1024500009F423CEAC81BD8111966C9188E090E0A7
:10246000BDCFE0E0F0E0EF2B09F417CEAC81BD81E9
:1024700011966C9181E00E9400000FCEAC81BD816D
:102480001396ED91FC911497309771F180818F35FF
:1024900009F003CE20E030E0232B09F4FECD91813A
:1024A00011968C910E940000F8CDEC81FD81E180B5
:1024B000F12CFFEFEF1AFCEFFF0AB701C8010E94F1
:1024C000580781112AC081E0D8015B96ED91FC91FB
:1024D0005C9723813481148213825C963C932E9303
:1024E0005B97813009F49ECD26960FB6F894DEBF37
:1024F0000FBECDBFDF91CF911F910F91FF90EF9055
:10250000DF90CF90BF90AF909F908F907F906F9013
:102510005F904F903F902F90089521E8E21623E0BE
:10252000F20601F134E8E31633E0F30659F145E829
:10253000E41643E0F406A1F08CEAE81683E0F8061E
:1025400009F19DEAE91693E0F90651F0A4EDEA16C7
:10255000A3E0FA06B9F0B5EDEB16B3E0FB0671F4B3
:102560008AE002C0F8018081AC81BD8112969C9105
:102570009813A9CFC8010E947B07A5CFC7010E946D
:10258000630CF2CF8DE0F0CFEC81FD81F181F98316
:10259000EF2EF12C2FEFE21A2CEFF20AB701C8014F
:1025A0000E945807882309F48ECFAC81BD81129612
:1025B000BC91BA838B2F90E09C0144E03595279520
:1025C0004A95E1F7E22FE170EE83E093DD019C0193
:1025D00053E0359527955A95E1F7F22FF170FB837B
:1025E000F093DC019C0135952795422F4170440FF3
:1025F00095958795959587958170880F880F840F9D
:10260000B170B80FBC83B093DB0181E8E81683E0BA
:10261000F806B9F4D8018C918093DA01E130B1F178
:102620008091DA0190E00C8002C0959587950A941C
:10263000E2F781709927BB81B817190609F043CFDB
:1026400099CFE4E8EE16E3E0FE0651F0FCEAEF165F
:10265000F3E0FF0629F024EDE21623E0F20691F5FF
:102660008DE08093DA019E819130D1F6C7018458C4
:102670009340029708F427CF89818B5A823008F45F
:1026800022CF8981835D823008F41DCFD301C2013E
:102690000C8004C0880F991FAA1FBB1F0A94D2F791
:1026A0002091DA01EA81E3FF22C0822B8093DA01D4
:1026B0006091DA01C7010E94390F9091DA01891304
:1026C00002CF58CF35E8E31633E0F30651F04DEA78
:1026D000E41643E0F40629F085EDE81683E0F806F9
:1026E00011F48AE0BECFC7010E94630CBACF482F15
:1026F0004095822F8423DACFEC81FD816281C7016E
:102700000E94390FD8015B96ED91FC919281891757
:1027100009F49DCDB1E8EB16B3E0FB0609F0D3CE8A
:1027200081E893E00E94D00BF8018083CCCEAF9279
:10273000BF92CF92DF92EF92FF920F931F93CF93AE
:10274000DF93C091EC01D091ED011091D9011111ED
:102750001AC0FE0190E080E025813681232B09F02C
:102760005AC025E0289FF001299FF00D11243296D0
:10277000EC0FFD1FF093D801E093D701309709F4D7
:102780003FC014821382A090D701B090D801A11449
:10279000B104B1F10E947104C090D301D090D40172
:1027A000E090D501F090D6016C197D098E099F0942
:1027B0006A30710581059105C8F11092D9010E9416
:1027C00071046093D3017093D4018093D5019093E9
:1027D000D6018D8D9E8D0E941F07F5019081882363
:1027E00019F19160908381E08093D9010E940904DE
:1027F0006093CF017093D0018093D1019093D20167
:10280000DF91CF911F910F91FF90EF90DF90CF90CC
:10281000BF90AF900895019635968530910509F0E7
:102820009BCFF0E0E0E0A6CF9E7FDCCF0E940904C2
:10283000C090CF01D090D001E090D101F090D201B2
:102840006C197D098E099F09653171058105910516
:10285000B8F20E9409046C197D098E099F09643F32
:1028600071408105910560F68D8D9E8D212F277019
:10287000C12CD12C7601C39404C0CC0CDD1CEE1C01
:10288000FF1C2A95D2F7103108F049C00E941F079B
:10289000E12FE695E695E695EA0DFB2DF11D8823DF
:1028A000D1F18081C82AC08201E0010F0093D901D3
:1028B0000E9409046093CF017093D0018093D101ED
:1028C0009093D201177F173019F0083109F098CF93
:1028D0000E9471046093D3017093D4018093D50159
:1028E0009093D601003141F1083109F089CF0B8D69
:1028F0001C8D8091D7019091D8019C8F8B8FCE0138
:102900000E94E60FE091D701F091D8011482138262
:102910001C8F0B8F2CC0C0948081C822C4CF0E9412
:102920001F07F5019281882319F0C92AC282BCCF02
:10293000C0949C219283B8CFA091D701B091D801C7
:102940008C91982F977F973709F45ACF8B3709F4DA
:1029500057CFEB8DFC8D309721F4BC8FAB8F07C028
:10296000FC01838194810097D9F7B483A3831092EB
:10297000D90146CF0F931F93CF93DF932091790214
:10298000222329F08F30910541F48FE090E0DF9110
:10299000CF911F910F910C94260F162FEC018FE011
:1029A00090E00E94D00B082F80E190E00E94D00BB5
:1029B00008130DC0C730D10531F0C830D10521F45E
:1029C000183031F0FFCFFFCF612FCE01E0CFFFCF26
:1029D0000E946C0F88E0DF91CF911F910F910895B5
:1029E0008331910588F48131910530F4813091056E
:1029F00019F08930910531F42FEF3FEF30939502B4
:102A0000209394020C94BA148D319105D9F7677F05
:102A100060939702209181022F73362F307C232BF5
:102A200020938102E9CFCF93DF93ECE9F2E085E1D7
:102A3000DF011D928A95E9F782E990E090939B026D
:102A400080939A0282E590E0909399028093980295
:102A5000C1E8D2E0188219828FEF9FEF9C8B8B8B9D
:102A60001D8A83E08093800243E050E067EF74E0CA
:102A700089890E94F2048DE190E00E94D00C682FB9
:102A80006F738DE190E00E94F0148E8B6BE087E015
:102A900090E00E94F0146DE088E090E00E94F01455
:102AA00080E0DF91CF910C94C10B89B78F7B89BFF8
:102AB0008FE991E090930D0180930C010E94131512
:102AC00010927F0210927E0208950F931F930E942E
:102AD000090400917A0210917B0220917C023091CE
:102AE0007D02601B710B820B930B613F7944824026
:102AF000910508F456C08091790281110BC0809134
:102B00007E0290917F0281309105B1F188F00297A9
:102B100009F444C00E94090460937A0270937B0216
:102B200080937C0290937D0281E01F910F91089524
:102B300080E390E00E94B60C80FF0EC041E050E0C0
:102B400067EA78E086E00E947D0481E090E090935F
:102B50007F0280937E02DECF8DE190E00E94B60C72
:102B600082FFD8CF41E050E060EA71E086E00E9449
:102B70007D0482E090E0EBCF89B78F7B89BF8FE93E
:102B800091E090930D0180930C018DE190E00E9403
:102B9000B60C82FDE7CF0E945515BCCF109278028B
:102BA000FACF80E0C2CFBF92CF92DF92EF92FF9236
:102BB0000F931F93CF93DF938B01B42E690182FF94
:102BC00023C083FF17C061E0C8010E94B40F8823AF
:102BD000D9F16B2DC8010E94F0148B1135C0F6019C
:102BE000DF91CF911F910F91FF90EF90DF90CF90E9
:102BF000BF90099460E0C8010E94B40F882321F1BE
:102C0000C8010E94D00CE9CF842F8770C1E0D0E0CA
:102C10007E0101C0EE0C8A95EAF7D42FD870CB0163
:102C20000E94D00CC82FB4FE1CC061E0C8010E94F5
:102C3000B40F882349F0DD2389F0CE296C2FC80119
:102C40000E94F0148C1759F2DF91CF911F910F91D0
:102C5000FF90EF90DF90CF90BF900895E094CE2149
:102C6000EDCF60E0C8010E94B40F882369F3CE2144
:102C7000DD2319F0C111B3CFE7CFCC2309F4AFCFD7
:102C8000E3CFCF92DF92EF92FF920F931F93CF93F8
:102C9000DF937C016B01C42F122FD42FD07E809143
:102CA000810287FF2BC0D03EB9F5C0908202CC20B4
:102CB00099F1D12CC6010E94D00CD82FC6010196E3
:102CC0000E94D00C982F8D2FE816F90629F56C2F4D
:102CD00070E0762F662766277370612B6F5F7F4FDA
:102CE0002CE636E0402F8C2FDF91CF911F910F9172
:102CF000FF90EF90DF90CF900C94D31580FD32C001
:102D0000D03609F464C088F4D03209F447C0D03416
:102D100009F45DC0DD2379F1DF91CF911F910F910F
:102D2000FF90EF90DF90CF900895D03A09F483C0E0
:102D300090F42C2F2F7141E050E0D03869F7B601A4
:102D4000C701DF91CF911F910F91FF90EF90DF901E
:102D5000CF900C94220DD03C09F476C0D03E09F4FB
:102D6000B6CFDACF0E94D20C8E159F0549F2E1143E
:102D7000F10431F2D1CF8C2F8E7071F680E090E0AB
:102D8000892B51F28C2F8170DF91CF911F910F9180
:102D9000FF90EF90DF90CF900C940000CF71CF3177
:102DA00009F0BACF412F4F7771F0413071F0111F08
:102DB0001127111F212F30E00FE710E0B601C701E6
:102DC0000E947E0AA9CF41E0F2CF40E0F0CF2C2F45
:102DD00030E08C2F8F71813029F030F0803121F07C
:102DE0008131F9F440E001C041E025FB222720F9C0
:102DF0000DE110E030E0B601C7010E947E0A80E0DC
:102E000090E0892B09F488CF4C2FB601C701DF91E0
:102E1000CF911F910F91FF90EF90DF90CF900C9486
:102E20000000C901880F991F8E71C4FB442740F927
:102E3000482B4250DACF2C2F2F7043E050E0C4FFD4
:102E40007ECF42E050E07BCFCF71CE3139F0CF3131
:102E500009F062CF212F45E050E071CF212F44E0EF
:102E600050E06DCFDF92EF92FF920F931F93CF93BD
:102E7000DF93809183028823B1F00E947104009156
:102E80008402109185022091860230918702601B96
:102E9000710B820B930B653171058105910518F05B
:102EA00080E00E94C10B80919E02811109C080E0E8
:102EB000DF91CF911F910F91FF90EF90DF900895D8
:102EC000F89488E0E9EAF2E0A7E5B7E001900D9216
:102ED0008A95E1F710929E0278943091A902EBEA6C
:102EE000F2E090E080E0391721F0219182279F5F86
:102EF000FACF8111DCCF80E090E0892B21F087E5CB
:102F000097E00E94000080915907811118C09091AC
:102F10005A07911114C080E090E0892B19F080E0ED
:102F20000E94000080918302882329F081E00E94A2
:102F3000440681E0BDCF81E00E94C10BFACF9091A1
:102F40008302992309F482C08057803108F07BC046
:102F500081E00E944406C091570780918A02C813FD
:102F60000AC04C2F50E06CE872E089E597E00E94BF
:102F70004B29892B61F01092890288E0E7E5F7E0A0
:102F8000AAE8B2E001900D928A95E1F7D2CF809144
:102F900089028F5F80938902C330E9F52091590738
:102FA000822F877010915A07853029F41093880278
:102FB0000E946104BECFCDE1D0E0843089F0C82FFB
:102FC000D0E0843060F480918802882341F0815001
:102FD000990B880F991F880F991FC80FD91F219629
:102FE00023FF0EC061E0CE010E94B40F882309F4D4
:102FF000A0CF612FCE010E94F01418139ACFD8CF22
:1030000060E0CE010E94B40F882309F492CFCE0174
:103010000E94D00CF2CFC43009F08BCF80915907B9
:10302000682F70E0762F66276627737090915A0795
:10303000692B6F5F7F4F2FE634E040915B078C7008
:103040000E94D31576CF80E00E94C10BE091590712
:10305000EF3F61F480915A0781116BCF80E090E0DF
:10306000892B09F466CF0E94000063CFE7FD0DC0F5
:1030700000915C0720915B0740915A0770E060E087
:103080008E2F90E00E94411654CFE03C08F054C1CE
:103090009091810297FF4DCF80915A07682F70E081
:1030A000EB01C095D095CC0FDD1FCC0FDD1FC07C90
:1030B000D170EF73CE2B75956795262F2370D22E86
:1030C00020915707253039F58C788C3021F50E94F6
:1030D000D20C8C179D0721F0CF3FD14009F029CFAA
:1030E00080915A0790E0982F882788279370C09185
:1030F0005B07C80FD92FD11D219610915C0761E0A5
:10310000CE010E94B40F612F882309F412CFCE01A3
:103110000E94F0140ECF8E0101501109000F111FF3
:10312000000F111F0D2978012FEFE21AF20A80918A
:1031300096028823F9F096FF41C0C70160E071E074
:103140000E94B727682F81E090E00E94F014C70129
:10315000F7FE02C081509F4F692F89E090E00E94E6
:10316000F01480E090E0892B19F0C7010E94000064
:10317000109296028091810280FD39C0809157079C
:10318000843009F04FC080915A078978813009F066
:10319000D0CE80E090E0892B29F060915B07C701D9
:1031A0000E94000080E090E0892B09F4C2CE40919B
:1031B0005B076D2DC7010E940000BBCEBE016F737F
:1031C000772781E090E00E94F014BE0146E07595FB
:1031D00067954A95E1F789E090E00E94F01480E05D
:1031E00090E0892B29F2CE010E940000C1CF86FF1A
:1031F0000DC00E94D20C8E159F0509F4BFCF8DEF34
:10320000E81687E0F8060CF0B9CF93CE0E94D20CF6
:103210008C179D0709F4B2CFCF3F21E0D20709F404
:10322000ADCF87CE833061F540915A07042F0170EE
:1032300043FB112710F980E090E0892B31F04770B3
:10324000212FBE01C7010E9400008091810286FFEC
:103250000BC080E090E0892B09F46BCE412F602FEA
:10326000C7010E94000065CE80E090E0892B09F440
:1032700060CE212F402F6D2DCE010E94000059CE2F
:10328000863009F056CE80915A07982F9978913060
:1032900021F08F78803809F04CCE8091810286FF32
:1032A00027C00E94D20C8E159F05E1F480915B0728
:1032B00090E0382F222722273370C0915C07C20F7D
:1032C000D32FD11D219610915D07959587959595E2
:1032D0008795837099278230910599F0039709F4B7
:1032E0000ECF27CE8DEFE81687E0F806FCF621CE4C
:1032F0000E94D20C8C179D07C9F2CF3FD140B1F28A
:1033000018CE14FF16CE61E0CE010E94B40F8823C0
:1033100009F40FCECE010E94D00C912F977061E07E
:1033200070E001C0660F9A95EAF713FF02C0682BA0
:10333000EECE60956823EBCEE83E08F0FACDE05C77
:10334000FF0B80915A0700915D0720915C07409127
:103350005B0761E070E09E2F95CECF92DF92EF92F7
:10336000FF920F931F93CF93DF93EC017B014130CA
:103370005105F9F4CD80DE802496C114D104E9F41E
:1033800062E070E081E090E00E940A288C010097E2
:1033900031F0FC01F182E08288818F5F8883C8016F
:1033A000DF91CF911F910F91FF90EF90DF90CF9021
:1033B0000895C884D9842796E0CF88818F5F888359
:1033C000C82FD0E062E070E0CE010E940A288C0194
:1033D00020E0BE0161507109822F90E086179707A7
:1033E00074F4880F991FF601E80FF91F408151818D
:1033F000800F911FFC01518340832F5FEDCFC1509F
:10340000D048CC0FDD1FC00FD11FF982E882C60162
:103410000E94C228C4CF4F925F926F927F92AF9268
:10342000BF92CF92DF92EF92FF920F931F93CF93B1
:10343000DF93CDB7DEB7C154D1090FB6F894DEBF24
:103440000FBECDBF5C01F82E6E0182E2C80ED11C0A
:103450008601802F8C198F1540F48EE493E00E9432
:10346000EC07F80181938F01F4CFF12C8AE0482E0C
:10347000512C612C712CF5E0AF16B10409F064C039
:103480000091F8011091F90101151105A9F13CA174
:103490004BA12AA1F80190E080E065817681672B3D
:1034A00031F555E0589F7001599FF00C1124C70168
:1034B0000296800F911FE00EF11EF7011682158211
:1034C000228343833483F801C38CD48C322F377F1B
:1034D000373741F5F801948F838FC8010E94E60FBA
:1034E000F70116821582F801D48EC38E05C00196AD
:1034F00035968530910589F6CF5BDF4F0FB6F8948E
:10350000DEBF0FBECDBFDF91CF911F910F91FF9016
:10351000EF90DF90CF90BF90AF907F906F905F90D3
:103520004F9008952B37B1F2C114D10421F4948F38
:10353000838FE2CF6901F6012381348121153105A2
:10354000C9F794838383D8CF8F2D90E08A159B058C
:103550009CF68C0D9D1DFC01208130E050E040E088
:1035600019A28E010F5D1F4FCA01B901A30192017B
:103570000E94CB27605DF80162938F012115310510
:103580004105510589F7309761F001900020E9F776
:103590003197AF01401B510BB80181EB92E00E94C3
:1035A000480342E050E066E671E081EB92E00E9461
:1035B0004803F394C9CF1F920F920FB60F921124B4
:1035C0000BB60F922F933F934F935F936F937F931D
:1035D0008F939F93AF93BF93EF93FF9381EB92E011
:1035E0000E943E02FF91EF91BF91AF919F918F9109
:1035F0007F916F915F914F913F912F910F900BBEF3
:103600000F900FBE0F901F9018951F920F920FB63C
:103610000F9211240BB60F922F938F939F93EF93DA
:10362000FF93E091C102F091C2028081E091C70254
:10363000F091C80282FD1DC090818091CA028F5F07
:103640008F732091CB02821741F0E091CA02F0E023
:10365000EF54FD4F958F8093CA02FF91EF919F9198
:103660008F912F910F900BBE0F900FBE0F901F9058
:1036700018958081F2CF1F920F920FB60F921124EE
:103680002F933F938F939F93AF93BF938091E401C8
:103690009091E501A091E601B091E7013091E3013D
:1036A00023E0230F2D3768F126E8230F0296A11D92
:1036B000B11D2093E3018093E4019093E501A09371
:1036C000E601B093E7018091E8019091E901A091B2
:1036D000EA01B091EB010196A11DB11D8093E801B3
:1036E0009093E901A093EA01B093EB01BF91AF91F0
:1036F0009F918F913F912F910F900FBE0F901F9030
:1037000018950196A11DB11DD4CF1F920F920FB62F
:103710000F9211240BB60F922F933F934F935F9309
:103720006F937F938F939F93AF93BF93EF93FF9389
:10373000E0910E01F0910F010995FF91EF91BF917A
:10374000AF919F918F917F916F915F914F913F9139
:103750002F910F900BBE0F900FBE0F901F901895DA
:103760001F920F920FB60F9211240BB60F922F9348
:103770003F934F935F936F937F938F939F93AF93F9
:10378000BF93EF93FF93E0910C01F0910D01099528
:10379000FF91EF91BF91AF919F918F917F916F9129
:1037A0005F914F913F912F910F900BBE0F900FBEE5
:1037B0000F901F9018951F920F920FB60F92112421
:1037C0000BB60F922F933F934F935F936F937F931B
:1037D0008F939F93AF93BF93EF93FF93E0910A0171
:1037E000F0910B010995FF91EF91BF91AF919F91DE
:1037F0008F917F916F915F914F913F912F910F909A
:103800000BBE0F900FBE0F901F9018951F920F9236
:103810000FB60F9211240BB60F922F933F934F9335
:103820005F936F937F938F939F93AF93BF93EF9328
:10383000FF93E0910801F09109010995FF91EF9143
:10384000BF91AF919F918F917F916F915F914F91B8
:103850003F912F910F900BBE0F900FBE0F901F90B6
:1038600018951F920F920FB60F9211240BB60F925C
:103870002F933F934F935F936F937F938F939F9378
:10388000AF93BF93EF93FF93E0910601F09107018F
:103890000995FF91EF91BF91AF919F918F917F918A
:1038A0006F915F914F913F912F910F900BBE0F90B1
:1038B0000FBE0F901F9018951F920F920FB60F9288
:1038C00011240BB60F922F933F934F935F936F93F7
:1038D0007F938F939F93AF93BF93EF93FF93E09169
:1038E0000401F09105010995FF91EF91BF91AF910E
:1038F0009F918F917F916F915F914F913F912F9108
:103900000F900BBE0F900FBE0F901F9018951F9237
:103910000F920FB60F9211240BB60F922F933F9375
:103920004F935F936F937F938F939F93AF93BF93C7
:10393000EF93FF93E0910201F09103010995FF914C
:10394000EF91BF91AF919F918F917F916F915F9117
:103950004F913F912F910F900BBE0F900FBE0F9084
:103960001F9018951F920F920FB60F9211240BB64D
:103970000F922F933F934F935F936F937F938F9308
:103980009F93AF93BF93EF93FF93E0910001F0916A
:1039900001010995FF91EF91BF91AF919F918F9197
:1039A0007F916F915F914F913F912F910F900BBE3F
:1039B0000F900FBE0F901F9018951F920F920FB689
:1039C0000F9211240BB60F922F933F934F935F9357
:1039D0006F937F938F939F93AF93BF93EF93FF93D7
:1039E00080917100887F803609F44DC008F040C096
:1039F000883209F4A9C028F5803109F49DC0C8F4C3
:103A0000882309F4FBC0883009F496C0FF91EF9138
:103A1000BF91AF919F918F917F916F915F914F91E6
:103A20003F912F910F900BBE0F900FBE0F901F90E4
:103A30001895883109F488C0803241F7809351028B
:103A400014C0803409F49DC040F48033B9F3883346
:103A5000E9F68093510285ECB0C0803509F485C049
:103A6000883509F496C0883489F60E94AB07CECF1A
:103A7000883909F48CC038F5883729F050F4883635
:103A800011F0803719F683E0809353021092CE0133
:103A900057C0883809F47BC0803919F0803809F0A4
:103AA000B5CF8091CE01803208F071C0E091CE0197
:103AB00081E08E0F8093CE0180917300F0E0E2559B
:103AC000FE4F80833DC0803B39F0E0F4803A09F43A
:103AD00079C0883A09F09ACF84E08093530210921B
:103AE000AD011092AC01E091F001F091F101099566
:103AF0008091AC0181110FC081E08093AC011092E4
:103B00008C0109C0803C09F4A6CF883C09F4A3CFFE
:103B1000883B09F07BCFE091AD0181E08E0F80936F
:103B2000AD01F0E0E457FE4F8081809373009091E7
:103B3000AD018091AC0129C080912E028093730069
:103B400085EC8093740062CF9091500280914F0277
:103B5000981758F5E091500281E08E0F8093500243
:103B6000F0E0E15DFD4F8081E9CFE091500281E01E
:103B70008E0F8093500280917300F0E0E15DFD4F65
:103B800080839091500280914F029817C8F285E887
:103B9000D8CFE091500281E08E0F80935002809147
:103BA0007300F0E0E15DFD4F80838091520281114E
:103BB0005CCF81E080932D0284EA809374001092A0
:103BC000530224CF85EC80937400109253028091AD
:103BD000CE01803230F4E091CE01F0E0E255FE4FAC
:103BE00010826091CE0170E0E091EE01F091EF0162
:103BF0008EEA91E009951092CE0108CF1092510201
:103C000034CF1F920F920FB60F9211248F9381E041
:103C1000809324028F910F900FBE0F901F901895E4
:103C20001F920F920FB60F9211248F939F93789447
:103C300080910D0290910C02891708F08AC0909132
:103C4000620098609093620090910B02891708F0CF
:103C500084C0DC9A90910A02891708F080C0909184
:103C6000620090649093620090910902891708F0B5
:103C70007AC09091620090629093620090910802E5
:103C8000891708F074C0C69A90910702891708F046
:103C900070C0C59A90910602891708F06CC0C49A4A
:103CA00090910502891708F068C01D9A909104024E
:103CB000891708F064C01C9A90910302891708F0D4
:103CC00060C01B9A90910202891708F05CC0909125
:103CD000620091609093620090910102891708F050
:103CE00056C0C79A90910002891708F052C0DE9A18
:103CF0009091FF01891708F04EC0DF9A9091FE0164
:103D0000891708F04AC0969A9091FD01891708F02A
:103D100046C0979A9091FC01891708F042C0DD9A3D
:103D20009091FB01891708F03EC0DB9A9091FA014F
:103D30008917D8F5909162009061909362008F5F2F
:103D400080930D029F918F910F900FBE0F901F9047
:103D5000189590916200977F75CFDC987BCF9091FA
:103D600062009F7B7FCF909162009F7D85CFC69838
:103D70008BCFC5988FCFC49893CF1D9897CF1C98A1
:103D80009BCF1B989FCF909162009E7FA3CFC79837
:103D9000A9CFDE98ADCFDF98B1CF9698B5CF9798E1
:103DA000B9CFDD98BDCFDB98C1CF909162009F7EE7
:103DB000C4CFCF93DF93EC0161E088810E94D803E8
:103DC00060E08881DF91CF910C94AA03EF92FF927B
:103DD0000F931F93CF93DF931092B4021092B3020C
:103DE00088EE93E0A0E0B0E08093B5029093B60235
:103DF000A093B702B093B80226E431E03093B20248
:103E00002093B10220E930E03093BE022093BD023E
:103E100029E230E03093C0022093BF022BE230E071
:103E20003093C2022093C1022AE230E03093C402F0
:103E30002093C30225E930E03093C6022093C502E7
:103E40002CE230E03093C8022093C7021092CA02DD
:103E50001092CB021092CC021092CD02109251031C
:103E6000109250038093520390935303A0935403F2
:103E7000B093550388E591E090934F0380934E03F0
:103E800010925C0310925D0310925E0310925F0328
:103E90001092600310926103109262031092630308
:103EA00010926403109265031092660386E090E01E
:103EB00090935B0380935A0383E190E00E94D00BC0
:103EC000C82F82E190E00E94D00BD82F81E190E0D2
:103ED0000E94D00B182F81E090E00E94D00B21E0CF
:103EE00030E030934B0720934A0730934D072093DF
:103EF0004C0710924E0710925207109254071092DE
:103F0000530780934507212F205C330BC9012D2FC8
:103F1000382FC9019093470780934607CF77C09306
:103F20004807109249078DE180934F0762E070E0E7
:103F30008DE190E00E940A289093510780935007EA
:103F40000097C9F0EC0110E0EE24E394F12C8AE034
:103F500090E00E942628FC01F282E1821382148202
:103F60001682158217821186108610838993999381
:103F70001F5F1D3161F766E085E697E00E94340718
:103F800064E38FE597E00E94340781E38093C507DF
:103F9000C2E0C093C7071092C807DFEFD093C607EF
:103FA0001092C90785EC97E00E94D91E89E28093A0
:103FB000C007C093C20781E08093C307D093C107B5
:103FC0001092C40780EC97E00E94D91E87E280938C
:103FD000BB07C093BD07C093BE07D093BC07109228
:103FE000BF078BEB97E00E94D91E89E18093B6074B
:103FF000C093B80783E0E82EE092B907D093B707E3
:104000001092BA0786EB97E00E94D91E88E1809350
:10401000B107C093B30794E0F92EF092B407D093A0
:10402000B2071092B50781EB97E00E94D91E85E296
:104030008093AC07C093AE0705E00093AF07D09321
:10404000AD071092B0078CEA97E00E94D91E86E275
:104050008093A707C093A90786E08093AA07D0930F
:10406000A8071092AB0787EA97E00E94D91E1FE0CD
:104070001093A207C093A40787E08093A507D0936D
:10408000A3071092A60782EA97E00E94D91E8DE24C
:1040900080939D07C0939F0788E08093A007D093EB
:1040A0009E071092A1078DE997E00E94D91EE09229
:1040B0009807C0939A0789E080939B07D09399074C
:1040C00010929C0788E997E00E94D91EF09293070E
:1040D000C09395078AE080939607D0939407109237
:1040E000970783E997E00E94D91E00938E07C0933B
:1040F00090078BE080939107D0938F0710929207DF
:104100008EE897E00E94D91E8CE080938907C093C7
:104110008B0780938C07D0938A0710928D0789E8CC
:1041200097E00E94D91E8DE080938407C093860794
:1041300080938707D09385071092880784E897E0DB
:104140000E94D91E8EE080937F07C09381078093E1
:104150008207D0938007109283078FE797E00E9431
:10416000D91E82E380937A07C0937C0710937D0762
:10417000D0937B0710927E078AE797E00E94D91EB2
:1041800083E380937507C093770780E18093780776
:10419000D09376071092790785E797E00E94D91EA1
:1041A00088E280937007C093720781E18093730760
:1041B000D09371071092740780E797E00E94D91E90
:1041C00080E380936B07C0936D0782E180936E0755
:1041D000D0936C0710926F078BE697E0DF91CF9139
:1041E0001F910F91FF90EF900C94D91ECF93DF9306
:1041F000CDB7DEB762970FB6F894DEBF0FBECDBF66
:10420000789483B78C6483BF87B7816087BF82E06F
:104210008EBD8EB581608EBD8FB581608FBD85B539
:10422000846085BD85B5806485BD80918A0083608A
:1042300080938A0080918B00816080938B0087E857
:1042400086B91AB80FB6F894A89581B5886181BD72
:1042500011BC0FBEF8942FB7F89490E080E0FC01F9
:10426000E650FE4F1082019683319105C1F780918F
:104270006200877F80936200DC98809162008F7B70
:1042800080936200809162008F7D80936200C69867
:10429000C598C4981D981C981B98809162008E7FC9
:1042A00080936200C798DE98DF9896989798DD987B
:1042B000DB98809162008F7E809362002FBF9FB752
:1042C000F89480916100886080936100D49A809115
:1042D00061008064809361008091610080628093BE
:1042E0006100BE9ABD9ABC9A159A149A139A80914D
:1042F0006100816080936100BF9AD69AD79A8E9AA6
:104300008F9AD59AD39A80916100806180936100E1
:104310009FBF1FBC89E08EBD81E194E09BBD8ABD3B
:1043200087B7806187BF10920D0261E08FE10E9424
:10433000D80360E085E697E00E941E03E0916107E4
:10434000F091620790818091600780958923808336
:10435000E0916307F0916407808190916007892B59
:104360008083D12CC12CBB24B394F601E454FE4FBE
:10437000E4910E2F10E0C8010E94D00BF82EC80166
:1043800001960E94D00BE82EC80102960E94D00B25
:10439000A82EC80103960E94D00B90914F07F916E2
:1043A00038F5F601E45EFE4F00811181D8011196C7
:1043B000AC92119714968C938F2DE110CEC00E9471
:1043C0008C014C0141E050E0B8010E94AD19F401AC
:1043D000968385838F2D0E948C017C0150E040E004
:1043E000B8010E94AD19D70119969C938E93189726
:1043F000A895F2E0CF0ED11C26E2C216D10409F036
:10440000B4CF61E070E084E090E00E940A289093CD
:10441000540780935307892B91F010E000E0E0905F
:104420005307F0905407E00EF11E802F0E94A50C58
:10443000D7018C930F5F1F4F0430110581F780E087
:104440000E94910C082F10E081E00E94910C282F0F
:1044500030E0322F222722273E7F000F111F202B12
:10446000312B309356072093550780FF05C02160FC
:10447000309356072093550760E08AE10E94D803E5
:10448000E0EAF2E08491EBE6F2E00491E6E3F2E0A8
:10449000149111117AC0FF24F394F09222028FE15B
:1044A00090E00E9426288C0187E0F801818386E055
:1044B00090E00E9426286C0168E00E943407D80131
:1044C0005E96DC92CE925D971093210200932002BB
:1044D00081E893E00E94D00BF8018083843008F0DB
:1044E00077C1F80181818F3FF1F01093ED010093C6
:1044F000EC0160E00E94D80360E0D8015D968D91E8
:104500009C910E941E03F80181819CEF980F9430CA
:1045100020F08251843008F08FEF42E050E067E9EC
:1045200073E10E94F204D80116961C921E92159710
:104530001B961C921E921A9750961C921E921F97C1
:1045400055961C921E9254975A961C921E925997F9
:104550005C961C921E925B9727C00E948C01FC0106
:10456000B382F0E8EF1609F435CFB1E8EB1240CF93
:104570008F2D0E948C017C0141E050E0B8010E9427
:10458000AD19F7019683858333CF81110E9475039E
:10459000E12FF0E0EE0FFF1FE45FFD4FA591B49116
:1045A000EC91E02309F477CF81E090E00E94D00BFA
:1045B00021E030E03093150220931402809316021C
:1045C00081E190E00E94D00B21E130E030931802AD
:1045D000209317028093190282E190E00E94D00B91
:1045E00022E130E030931B0220931A0280931C02D8
:1045F0008DE190E00E94B60C81FDECC08DE190E071
:1046000090931E0280931D0210921F0286E08093F9
:1046100092028093930260E00E94D80361E086E0FA
:104620000E94AA030E9413158BE09AE19093F70170
:104630008093F60187EE92E09093F5018093F40168
:104640001092F3011092F20110925502109277022B
:104650001092530281E08093520210922D0261E089
:1046600083E10E94AA0361E082E10E94AA03809193
:1046700071008E7F80937100809171008D7F809397
:10468000710088E48093700085E48093740088EE64
:1046900092E09093F1018093F00184EF92E0909387
:1046A000EF018093EE0182E0809372008CE08093B2
:1046B00070001092F9011092F80110928800109287
:1046C000890010928A0010928B0080918A00846089
:1046D00080938A0080917D00846080937D0088E1D2
:1046E0009BE00FB6F894A89581BD0FBE91BD78945C
:1046F00062E0462E512C8091250281110DC00E944E
:10470000090460937A0270937B0280937C029093F9
:104710007D0281E08093250280912402882309F4A0
:1047200048C010E001E0009354021093760210920A
:104730005502109277020E94A401811105C0809158
:1047400023028F5F809323021F5F1F3761F78091E1
:104750002302882339F161E070E090E00E940A288A
:104760008C0190930F0280930E02E12CF12CDD243A
:10477000D394D0925402F092760210925502109285
:1047800077020E94A401811105C0F801EE0DF11D10
:10479000F082E394F394BFE7FB12EBCF10928A0010
:1047A00010927D00109288001092890010922402CD
:1047B000A89580912202882319F18091200290917E
:1047C00021020E94E60FA8950E943217A89593CF68
:1047D000F08287CE85FD0DC0809116019091170162
:1047E000A091180180931D0290931E02A0931F02B6
:1047F0000DCF8091190190911A01A0911B01F2CF68
:1048000080917E0290917F0281309105E9F148F11B
:104810000297E1F60E942B0A80917802882309F41E
:1048200075C38FE597E00E941F07182F81117EC383
:1048300080914A0790914B07019709F061C390E07E
:1048400080E00E946A0A0E942B0A8FE597E00E948E
:104850001F078823D1F340E0612F84E20E9465089E
:1048600010C00E943217882361F00E94B9090E948B
:10487000090460937A0270937B0280937C02909388
:104880007D020E946515A2CF06EB13E09AE0E92EA7
:10489000F12CDD24D39423E6C22E33E0B32E42E084
:1048A000A42E5BE1352EF80183859485019709F0EC
:1048B00056C1E654F1098081918132966080718001
:1048C000680E791ED80151961C92519752961C92EF
:1048D000529716961C9216971A961C921A971D9626
:1048E0001C921D971E961C921E971F961C921F9736
:1048F00017961C92179750961C92509753961C929D
:10490000539719961C92199715961C921E921497FC
:104910009301359527954801BCE58B1A9108F40160
:1049200061E070E086899789A72FA69541E050E065
:104930004C0F5D1F4A0F511DDA0141E0281739075E
:104940000CF040E04C93713248F4408D518D840F4F
:10495000951F8E579109C19708F460E07E5F3496E9
:10496000743201F7FE013196CE9C9001CF9C300D40
:10497000112448E357E0421B530B90E080E0708124
:1049800071118FC071817111A6C0D401A80FB91F18
:104990001D961C92019632968930910581F7F80197
:1049A00080819181A281B38185519540A109B1098E
:1049B00083359B40A105B10508F06EC1662309F45B
:1049C0006BC181E046E9641671040CF080E0D80107
:1049D00051968C93F801EC54F109908131978081C4
:1049E000B9E08B9F802D1124939D800D1124329767
:1049F0009081890F31964081942F990F940F890FE0
:104A0000F8018683EB54F10946E9641671040CF44D
:104A10002EC181E09081913009F080E0D8011D968F
:104A20008C938989880F9F85890F880F9D85890FB1
:104A3000880F9B85890F91E009F090E0F801968737
:104A400091E0813009F090E0D8011F969C9381118C
:104A50008150F80187838289882309F456C08C85A8
:104A6000880F9E85890F880F9889890F880F9A89EA
:104A7000890FEEEFE80FEE3008F047C0F0E0ED5B95
:104A8000FA4D0C94ED27782578258025802523265E
:104A9000232685258525282628262C262C263126E2
:104AA00031267130C1F42180A1E02A1206C0DA015A
:104AB000A80FB91F1D962C926DCF21100CC0D401E8
:104AC000A80FB91F1D96AC92853008F463CFD801AA
:104AD00052967C935FCF853048F0DA01A80FB91F5A
:104AE0001D96BC92D8015296DC9254CF60E057CF0D
:104AF000D8011996AC921997817053968C9305C082
:104B000041E050E0F8015583448389E090E0FAE009
:104B1000EF16F10411F08E199F09D8011C965C92D2
:104B20004E921B97C89EB001C99E700D1124FB01C7
:104B3000EF53FC4F80819181029789F469597C4F32
:104B400049E050E085E497E0821B930B0E944B29DB
:104B5000892B29F423E030E0F80134872387F1E042
:104B6000EF1AF1080D591F4FE114F10409F09BCE23
:104B7000E1ECF3E090E080E02081318123303105E9
:104B800009F092C023E6289F8001299F100D11246F
:104B9000F801EF53FC4F84E090E091838083095942
:104BA0001C4F0115110509F46CCEF801EB5AFF4FAB
:104BB000E080F12C809116029701281B3109C90170
:104BC0002130310509F4DBC00CF076C0892B09F0E7
:104BD0004CCE80911302F801E45AFF4F9081992343
:104BE00009F48FC080618093130280911302F80151
:104BF000E85AFF4F9081923009F49EC008F083C0BC
:104C0000913009F48DC02091130241E050E070E032
:104C100060E0C7010E94220DF801ED5AFF4F80812C
:104C200091818130910509F09DC0339680911602E3
:104C30000DE110E021E030E0408170E060E090E0C4
:104C40000E947E0A12CED8011996BC92199754CFB1
:104C5000F8015582448259CFD8011996DC921997F0
:104C60004BCF44E0F80141878170838B4ECF808128
:104C7000811112C08F85880F9D85890F880F9B85B4
:104C8000890FD8011A968C9381E09989913009F0A7
:104C900080E0F801808B39CFE5E0F0E0D8011C9688
:104CA000FC93EE931B975BCF0196ED59FF4F8A3033
:104CB000910509F061CFE5CD2230310509F4A9C095
:104CC0002330310509F0D1CD80E390E00E94D00B74
:104CD00083FFCBCD80911002F801E85AFF4F9081FD
:104CE000923009F4F7C008F0DCC0913009F4E6C056
:104CF0002091100244E050E070E060E0C7010397AB
:104D000057C08F7E70CF933009F1943009F07BCF7C
:104D1000F801EE59FF4F9081992311F1886007C087
:104D2000F801EE59FF4F9081992321F08160809323
:104D3000130269CF8E7FFBCFF801EE59FF4F9081B0
:104D4000992311F08260F3CF8D7FF1CFF801EE59F6
:104D5000FF4F9081992311F08460E9CF8B7FE7CFDB
:104D6000877FE5CF029709F080CDF801EA5AFF4F1F
:104D7000809116020DE110E030E020E05DCF80E38D
:104D800090E00E94D00B81FF70CD80911202F8015B
:104D9000E85AFF4F9081923031F168F49130B9F0C8
:104DA0002091120242E050E070E060E0C7010197FC
:104DB0000E94220D5ACD933001F1943089F7F80109
:104DC000EE59FF4F9081992311F1886007C0F801D7
:104DD000EE59FF4F9081992321F081608093120258
:104DE000DFCF8E7FFBCFF801EE59FF4F90819923E3
:104DF00011F08260F3CF8D7FF1CFF801EE59FF4FB4
:104E00009081992311F08460E9CF8B7FE7CF877F72
:104E1000E5CF80E390E00E94D00B82FF26CD809109
:104E20001102F801E85AFF4F9081923021F158F4B5
:104E30009130A9F02091110243E050E070E060E071
:104E4000C7010297B5CF933001F1943099F7F8017B
:104E5000EE59FF4F9081992311F1886007C0F80146
:104E6000EE59FF4F9081992321F0816080931102C8
:104E7000E1CF8E7FFBCFF801EE59FF4F9081992350
:104E800011F08260F3CF8D7FF1CFF801EE59FF4F23
:104E90009081992311F08460E9CF8B7FE7CF877FE2
:104EA000E5CF933009F1943009F022CFF801EE59A3
:104EB000FF4F9081992311F1886007C0F801EE59E6
:104EC000FF4F9081992321F081608093100210CFD1
:104ED0008E7FFBCFF801EE59FF4F9081992311F09F
:104EE0008260F3CF8D7FF1CFF801EE59FF4F9081B3
:104EF000992311F08460E9CF8B7FE7CF877FE5CFDF
:104F000081E090E00E946A0A10E89DCC85E697E077
:104F10000E941F07811106C081E090E00E946A0A8A
:104F200010E899CC90E080E00E946A0A10E093CCEF
:104F300060E08FE597E00E941E0360E085E697E061
:104F40000C941E03E199FECF9FBB8EBBE09A99277C
:104F50008DB30895262FE199FECF9FBB8EBB2DBB4D
:104F60000FB6F894E29AE19A0FBE0196089597FB66
:104F7000072E16F4009407D077FD09D00E94F6277B
:104F800007FC05D03EF4909581959F4F089570954C
:104F900061957F4F0895A1E21A2EAA1BBB1BFD014C
:104FA0000DC0AA1FBB1FEE1FFF1FA217B307E40708
:104FB000F50720F0A21BB30BE40BF50B661F771F60
:104FC000881F991F1A9469F7609570958095909540
:104FD0009B01AC01BD01CF010895EE0FFF1F00241E
:104FE000001C0BBE0790F691E02D0994AA1BBB1B79
:104FF00051E107C0AA1FBB1FA617B70710F0A61BD9
:10500000B70B881F991F5A95A9F780959095BC01F9
:10501000CD0108950F931F93CF93DF93869F800157
:10502000879F100D969F100D1124C8010E942628FD
:10503000EC01009729F0A80170E060E00E94582977
:10504000CE01DF91CF911F910F9108950F931F9380
:10505000CF93DF938230910510F482E090E0E091ED
:10506000CC07F091CD0730E020E0B0E0A0E0309731
:1050700099F42115310509F44AC0281B390B243055
:105080003105D8F58A819B816115710589F1FB0194
:1050900093838283FE0111C040815181028113817B
:1050A00048175907E0F04817590799F4109761F02D
:1050B00012960C93129713961C933296CF01DF91A0
:1050C000CF911F910F9108950093CC071093CD07B6
:1050D000F4CF2115310551F04217530738F0A901DB
:1050E000DB019A01BD01DF01F801C1CFEF01F9CF6A
:1050F0009093CD078093CC07CDCFFE01E20FF31F35
:10510000819391932250310939832883D7CF2091FD
:10511000CA073091CB07232B41F420911201309123
:1051200013013093CB072093CA07209110013091CF
:1051300011012115310541F42DB73EB740911401FD
:1051400050911501241B350BE091CA07F091CB0754
:10515000E217F307A0F42E1B3F0B2817390778F04E
:10516000AC014E5F5F4F2417350748F04E0F5F1FAD
:105170005093CB074093CA07819391939FCFF0E060
:10518000E0E09CCFCF93DF930097E9F0FC013297EA
:1051900013821282A091CC07B091CD07ED0130E0CF
:1051A00020E01097A1F420813181820F931F20917C
:1051B000CA073091CB072817390709F061C0F0936F
:1051C000CB07E093CA07DF91CF910895EA01CE178C
:1051D000DF07E8F54A815B819E0141155105B1F772
:1051E000E901FB83EA8349915991C40FD51FEC175C
:1051F000FD0761F4808191810296840F951FE9017A
:1052000099838883828193819B838A83F0E0E0E0A5
:1052100012968D919C9113970097B9F52D913C9121
:105220001197CD010296820F931F2091CA073091EA
:10523000CB072817390739F6309751F51092CD076B
:105240001092CC07B093CB07A093CA07BCCFD383EF
:10525000C28340815181840F951FC817D90761F41B
:105260004E5F5F4F88819981480F591F518340835A
:105270008A819B81938382832115310509F0B0CF08
:10528000F093CD07E093CC079ECFFD01DC01C0CFAA
:1052900013821282D7CFFB01DC0104C08D910190F3
:1052A000801921F441505040C8F7881B990B08958C
:1052B000DC0101C06D9341505040E0F7089511E0CA
:1052C000CFE5D1E004C0FE010E94ED272196C03653
:0852D000D107C9F7F894FFCFE4
:1052D8009F01000000000000000000000000000026
:1052E8000000CE0780001D00021D0022C507C00770
:1052F800BB07B607B107AC07A707A2079D07980722
:1053080093078E07890784077F077A077507700751
:105318006B07000000005F0248030102A602320288
:105328001002240200000000330806086208DC07A7
:0A533800FF07EC07DD070D0A000077
:00000001FF
