:100000000C9460010C94C9180C949E180C947318ED
:100010000C9448180C941D180C94F2170C94C717E4
:100020000C949C170C948A010C948A010C948A01FC
:100030000C94181A0C948A010C948A010C948A016D
:100040000C9452170C948A010C948A010C948A0126
:100050000C948A010C948A010C948A010C948A01F4
:100060000C948A010C948A010C948A010C948A01E4
:100070000C948A010C948A010C948A010C948A01D4
:100080000C948A010C94F4180C948A013D0300002E
:100090000000000A0D0000000000000101C0800007
:1000A000000000000000000000060000000000004A
:1000B0000000000000000000000000000000000040
:1000C0000000000000007F000000000000000000B1
:1000D0000000000000000000000000000000000020
:1000E0000000000000000000000000000000000010
:1000F0000000000000000000000000000000800080
:1001000000008000010080000100800001008000EC
:1001100001008000010080000200800003008000D8
:1001200003008000030080000300800003008000C3
:1001300003008000040080000400800005008000AF
:100140000680FF000681FF00FF000000FF000000A6
:10015000FF000000FF000000FF000000FF000000A3
:10016000FF000000FF000000FF000000FF00000093
:10017000FF000000FF000000FF000000FF00000083
:10018000FF000000FF000000FF000000FF00000073
:10019000FF000000FF000000FF00000000003A0028
:1001A00037003400310022006100640000003B0091
:1001B00038003500320023006200650070007400D2
:1001C00078007C008000840088008C0090009400FF
:1001D00098009C00A000A400A800AC00B000B400EF
:1001E000B800BC00C000C400C800CC00D000D400DF
:1001F000D800DC00E000E400E800EC00F000F400CF
:10020000F800FC000001040108010C0100003900A5
:10021000360033003000210020006300050505058D
:100220000505050502020202020202020707040494
:100230000404040404040707030303030303030380
:100240000701010101010101010606060606060675
:10025000060102040810204080010204081020401A
:1002600080081001020408102040800102010204ED
:100270000810204080048040201008040201010280
:100280000408102040800000000A0B0C0000000051
:10029000000001040506000000000000000000004E
:1002A000000000000000000000000000000000004E
:1002B000000000000000000000000000EE1A8B2586
:1002C00011241FBECFEFD0E1DEBFCDBF11E0A0E013
:1002D000B1E0EAE7FEE400E00BBF02C007900D9238
:1002E000A435B107D9F727E0A4E5B1E001C01D921C
:1002F000AA31B207E1F711E0CFE5D1E004C02197C0
:10030000FE010E94BE25CE35D107C9F70E94C01C50
:100310000C9430270C9400002091680281E0213277
:1003200008F044C0809144028111FCCF80916702A3
:1003300092E09093440291E0909343029FEF909358
:1003400042021092410220934002A7E4B2E0E0E2B0
:10035000F2E090E0291331C010921F0290911F0229
:10036000880F892B80931F0280911E02813049F5EE
:1003700010921E0280911F0280937300809174007E
:1003800083FDF8CF85EC8093740080914402823025
:10039000E1F3809142028F3FB1F0809142028032BE
:1003A000A1F080914202803391F084E010924602E5
:1003B000109268021092450208953D9131939F5F1B
:1003C000C9CF85EEE0CF80E0F1CF82E0EFCF83E0D0
:1003D000EDCF20919C0630919D062115310549F005
:1003E00090E0880F991F820F931FFC0180819181FB
:1003F000089590E080E008959C016115710529F051
:100400006130710571F080E0089580919106821746
:10041000130681F09091940681E09217130699F7E4
:10042000089581E040919206509193064217530738
:1004300051F7F6CF81E0F4CFFF920F931F93CF9344
:10044000DF938C01F42EE9010E94FC018823B1F0B6
:10045000809194068017110619F580919806909165
:1004600099068C179D0751F080919506882399F085
:10047000219751F41092990610929806DF91CF912E
:100480001F910F91FF90089581E090E0909399065D
:1004900080939806F3CFD0939906C0939806EECF39
:1004A0008091960690919706C817D90739F3F0FE08
:1004B0000EC0219729F41092970610929606DECF6F
:1004C00081E090E09093970680939606D7CFD093E3
:1004D0009706C0939606D2CF089581E080931602C6
:1004E0000895E091E101F091E201309729F0109236
:1004F00046021092680209940895CF93DF93AC01ED
:10050000E091E301F091E4013097F1F09091E00186
:100510008091DF019817C0F090E0292F30E0261776
:10052000370754F4D901A45ABE4F240F351FE901EF
:1005300028812C939F5FF1CF1092E0016093DF013F
:10054000CB01DF91CF910994DF91CF910895DC0128
:100550001296ED91FC91139711969C9111978081C1
:1005600061110EC09095982390831496ED91FC91A3
:100570001597908111968C91809589238083089599
:10058000623061F49095982390831496ED91FC91DC
:100590001597808111969C91892BF0CF982B908391
:1005A000089581508C3088F5E82FF0E0E652FD4F39
:1005B0000C94BE25020302030503E602EA02ED02E3
:1005C000F00205030503F402FA02FE028FB58F77ED
:1005D0008FBD08958FB58F7DFBCF8FB5877FF8CF07
:1005E00085B58F7D85BD089580918B008F77809331
:1005F0008B00089580918B008F7DF9CF80918B00C7
:10060000877FF5CF83B78F7D83BF08951F93CF93E7
:10061000DF93282F30E0F901EA57FD4F8491F9016B
:10062000EF5AFD4FD491F901E45EFD4FC491CC2304
:10063000A9F0162F81110E94D102EC2FF0E0EE0FED
:10064000FF1FE455FE4FA591B4918FB7F894EC913C
:10065000111108C0D095DE23DC938FBFDF91CF91BD
:100660001F910895DE2BF8CFCF93DF9390E0FC012C
:10067000EF5AFD4F2491845E9D4FFC0184918823A5
:10068000D1F090E0880F991FFC01E456FE4FA59130
:10069000B491FC01E455FE4FC591D49161110EC097
:1006A0009FB7F8948C91E22FE0958E238C9328814C
:1006B000E223E8839FBFDF91CF9108958FB7F8942D
:1006C000EC91E22BEC938FBFF6CF3FB7F89480917B
:1006D000D4019091D501A091D601B091D70122B754
:1006E00006B600FE05C02F3F19F00196A11DB11DF1
:1006F0003FBFBA2FA92F982F8827BC01CD01620FC9
:10070000711D811D911D42E0660F771F881F991F83
:100710004A95D1F708958F929F92AF92BF92CF9250
:10072000DF92EF92FF924B015C010E9465036B0127
:100730007C010E9465036C197D098E099F09683E42
:10074000734081059105A8F321E0821A9108A10860
:10075000B10888EEC80E83E0D81EE11CF11C81149C
:100760009104A104B10429F7FF90EF90DF90CF909E
:10077000BF90AF909F908F90089561E08FE10E94AD
:10078000060364E070E080E090E00E948B0360E08C
:100790008FE10C9406030C94BD032FB7F89460917D
:1007A000D0017091D1018091D2019091D3012FBFDE
:1007B0000895E82FF0E0DF01AA0FBB1FA050BF4F44
:1007C00011967C936E938830A8F4E751FC4F0C94FB
:1007D000BE25F103FB030804160424042B0436048D
:1007E000420480916A008C7F482B40936A0089B74D
:1007F000816089BF089580916A00837F440F551FEF
:10080000440F551F482B40936A0089B78260F1CF8F
:1008100080916A008F7C74E0440F551F7A95E1F750
:10082000482B40936A0089B78460E3CF80916A00C7
:100830008F7366E0440F551F6A95E1F7482B40938C
:100840006A0089B78860D5CF8AB78C7F482B4ABFAA
:1008500089B78061CECF8AB7837F440F551F440F7D
:10086000551F482B4ABF89B78062C3CF8AB78F7C98
:1008700024E0440F551F2A95E1F7482B4ABF89B75A
:100880008064B7CF8AB78F7396E0440F551F9A954F
:10089000E1F7482B4ABF89B78068ABCF883010F4A6
:1008A0000C94D90308950E94650320915A01309158
:1008B0005B01FB01E21BF30B20918102309182026C
:1008C000E217F30708F438C12091830230918402C3
:1008D00070935B0160935A014091850250918602AA
:1008E0004130510599F148F04230510509F4B9C041
:1008F0004330510509F4EFC00895E217F30708F0FB
:10090000D4C0809188028F5F809388028B3008F476
:1009100013C181E090E0909386028093850241E0CC
:1009200050E063E574E080917B020E944E041092D7
:10093000590182E590E0909384028093830283E2E0
:1009400090E0909382028093810208954091590132
:100950004130A9F038F0433009F449C0443009F47B
:100960007CC00895E217F30730F491E090935901A9
:10097000E0935801089584E0809359010895E217A7
:10098000F30798F510925901909188029F5F909318
:1009900088028E2FEE0F990B20915801821B91092E
:1009A00027FD939597FF03C09195819591094997EC
:1009B0000CF4C2C0109286021092850282E990E087
:1009C000909384028093830282E590E09093820268
:1009D00080938102109288024091690250E063E5A1
:1009E00074E080917B020C944E0483E0C5CFE21743
:1009F000F30700F380916902833061F582E0809310
:100A0000690282E090E0909386028093850282E9F9
:100A100090E0909384028093830282E590E090932B
:100A200082028093810210928A0210928C021092AC
:100A30008D0210928E0210928F02109290021092EC
:100A400091028091880280938B021092880210920A
:100A50008902C2CF40936902D4CFE217F30788F628
:100A6000A9CF509188025F5F50938802409189021C
:100A7000440FE217F307E0F040938902583009F081
:100A80005BC0E0918A02E630A9F4109286021092CF
:100A9000850282E990E0909384028093830282E54C
:100AA00090E09093820280938102109288020895D0
:100AB0004160E2CF83E090E09093860280938502CC
:100AC00081E08E0F80938A02F0E0EB57FD4F80911A
:100AD000890287830895E217F307F8F410928602DB
:100AE000109285021092880282E990E0909384022D
:100AF0008093830282E590E090938202809381024A
:100B000088E0EAE8F2E0A2E9B2E001900D928A956D
:100B1000E1F781E080938702089580918A02863010
:100B200009F4B3CF82E090E090938602809385022F
:100B300010928802109289020895CF93DF93DC010E
:100B4000EC91F0E0EE0FFF1FE45FFD4FC591D491F3
:100B5000988111968C91982381E009F480E0DF91CF
:100B6000CF910895DC0170E0FB01EF5AFD4FE49155
:100B70001196EC931197645E7D4FFB0124912C93A9
:100B800030E0220F331FF901E456FE4F8591949116
:100B900013969C938E931297F901E455FE4F85911D
:100BA000949115969C938E9314970895FC018081DF
:100BB000813089F4CB01845893408897C0F0613824
:100BC000F3E07F07A1F06C5F734081E06530710551
:100BD00078F080E00895823021F4CB018C5A934064
:100BE000ECCF833061F7CB01845D9340E6CF81E0A9
:100BF0000895CF93DF93EC0161E08D8D9E8D0E946F
:100C0000A702AD8DBE8D1496ED91FC911597908144
:100C100011968C9180958923808361E070E080E05B
:100C200090E00E948B0360E08D8D9E8DDF91CF91CF
:100C30000C94A70285ED809374008091740084FD6C
:100C4000FCCF10924402089520919C01260F332777
:100C5000331F21323105ECF420914402FC0190E075
:100C600080E0243069F082E00895A0919C012191F8
:100C7000AC0144585E4FA40FB52FB11D2C930196C3
:100C8000861798F380919C01680F60939C0180E027
:100C9000089581E008950895E091E0018091DF01D9
:100CA000E81730F4F0E0E45AFE4F808190E00895B8
:100CB0008FEF9FEF08959091E0018091DF012FEF7A
:100CC0003FEF981748F4E92FF0E0E45AFE4F2081F7
:100CD00030E09F5F9093E001C90108958091DF01AA
:100CE0009091E001891B990B0895CF92DF92EF92CA
:100CF000FF920F931F93CF93DF937C01CB018A0167
:100D000020914502222389F0EB016B01C40ED51E10
:100D1000CC15DD0569F06991D701ED91FC91019049
:100D2000F081E02DC7010995F3CF642F0E942406BE
:100D3000C801DF91CF911F910F91FF90EF90DF904D
:100D4000CF90089544E050E064E571E08AE992E0D4
:100D50000C947506CF93DF931F92CDB7DEB76983EE
:100D6000209145022223F9F020916802203258F0A8
:100D700021E030E0FC013383228390E080E00F909B
:100D8000DF91CF91089580914602E82FF0E0E95B72
:100D9000FD4F998190838F5F809346028093680214
:100DA00081E090E0ECCF61E0CE0101960E94240644
:100DB000F7CF90E080E0089580E090E0892B29F063
:100DC0008091800283FD0C9400000895E82FF0E0EC
:100DD000E951FE4F608308950F931F93CF93DF93E4
:100DE000FC018281813089F040F0823009F47AC0C0
:100DF000DF91CF911F910F91089561E08081DF9184
:100E0000CF911F910F910C9406030181C02FD0E068
:100E1000108161E0812F0E943403209719F460E073
:100E2000812FEDCFCF3FD10511F461E0F9CFE12F54
:100E3000F0E0EA57FD4FE491E150EC3008F04DC08E
:100E4000F0E0EB5DF84F0C94BE25310731076D07DC
:100E500036073C0742074A076D076D074F075907DA
:100E6000630783B7806283BF01BFC2CF8FB580683D
:100E70008FBDDBBDCABDBCCF8FB580628FBDD9BD74
:100E8000C8BDB6CF8FB588608FBDD0937900C093B1
:100E90007800AECF85B5806285BD03BDA9CF8091B6
:100EA0008B00806880938B00D0938700C09386006E
:100EB0009FCF80918B00806280938B00D0938500C0
:100EC000C093840095CF80918B00886080938B00C5
:100ED000D0938300C09382008BCFC038D1050CF033
:100EE000A4CF9DCF8181E381F0E0E951FE4F808363
:100EF0007FCF0F931F93CF93DF93D62F8C01C0E04A
:100F0000CD1741F0F801819191918F010E94EC067B
:100F1000CF5FF6CFDF91CF911F910F9108950F937F
:100F20001F93CF93DF9300D000D01F92CDB7DEB7D1
:100F300089837B836A835D834C8310E001E0809129
:100F4000DA01181708F5E091D801F091D901E10F05
:100F5000F11D808100934502809367021092460242
:100F60001092680262E08AE992E00E94AA0645E0D7
:100F700050E0BE016F5F7F4F8AE992E00E947506E4
:100F80000E948C011F5FDBCF0F900F900F900F908E
:100F90000F90DF91CF911F910F9108950F931F93A1
:100FA000CF93DF93162F082FEC018AE992E00E947D
:100FB0005B0689938C2F801B8117B8F3812FDF91FB
:100FC000CF911F910F9108958F929F92AF92BF92F0
:100FD000CF92DF92EF92FF920F931F93CF930E94D5
:100FE0006503AB01BC018091A8029091A902A09178
:100FF000AA02B091AB028A019B01081B190B2A0BB4
:101000003B0B8091B002882309F47FC08091B2022B
:101010009091B102E92FEE0FFF0BA82F082E000CC4
:10102000BB0BC3E68C02E00DF11D1124EA55FD4F08
:10103000178B068B053F11402105310508F054C080
:101040009F5F9093B1029091B1029332C9F593E6FC
:101050009A9F90019B9F300D11242A553D4FF90115
:10106000E45AFF4FC090AC02D090AD02E090AE02C7
:10107000F090AF024A015B018C189D08AE08BF08D2
:1010800075016401C082D182E282F38229593F4F07
:10109000E1E0F0E0D901ED93FC938F5F8A3094F5A5
:1010A0008093B202E091B202B3E6EB02F0011124A8
:1010B000E35FFC4F118210821092B0021092B102D5
:1010C0004093A8025093A9026093AA027093AB02C6
:1010D000CF911F910F91FF90EF90DF90CF90BF9035
:1010E000AF909F908F9008951092B10291E09093ED
:1010F000B0024093AC025093AD026093AE02709385
:10110000AF02A1CF1092B202CDCF053F1140210511
:101110003105B0F281E08093B0024093AC0250936D
:10112000AD026093AE027093AF02CACFE82FF0E039
:10113000E951FE4F60830895CF93FC018281813095
:1011400051F020F0823079F0CF91089560E08081F5
:10115000CF910C940603C08161E08C2F0E94340370
:1011600060E08C2FF5CFE381F0E0E951FE4F108273
:10117000EBCF80931702882361F00FB6F894A895FF
:1011800081B5886181BD11BC0FBE81E197E00C94EF
:10119000EC0681E197E00E949C0888E19BE00FB695
:1011A000F894A89581BD0FBE91BD0895CF93C82F27
:1011B00080916C028C1731F081E0C11101C080E098
:1011C0000E94B908C0936C0260E070E0CB01C111CD
:1011D0000E94CD0360936D0270936E0280936F0244
:1011E0009093700280916C028C1739F081E0C111EC
:1011F00001C080E0CF910C94B908CF910895EF928F
:10120000FF920F931F93CF93DF938C01FC01C58155
:10121000D681209751F0E480F12CEF1431F08991C0
:1012200099910E949C08F394F8CFF801C085D1856C
:10123000209751F0078110E0011731F089919991C1
:101240000E949C081F5FF8CFDF91CF911F910F91F3
:10125000FF90EF90089520919C0630919D062115F6
:10126000310551F090E0880F991F820F931FFC0108
:10127000808191810C94FF080895CF9380919E0600
:10128000882369F180919F069091A006892B29F10E
:10129000C0E080919B06C81700F58C2F8695869537
:1012A000869590E0E0919F06F091A006E80FF91F67
:1012B000208130E043E0880F991F4A95E1F74C2FD9
:1012C000481B02C0359527954A95E2F720FF03C0D9
:1012D0008C2F0E942B09CF5FDCCF10929E06CF91FE
:1012E00008950F931F93CF938C01C42F0E94FC018C
:1012F0008823E1F180919406482F50E0C03128F511
:10130000882319F12C2F30E08091A1069091A2063C
:101310000C2E02C0969587950A94E2F780FF15C0BF
:101320000417150719F580919C0690919D0600976A
:10133000E9F0220F331F820F931FFC0180819181FE
:10134000CF911F910F910C94FF080417150771F0AE
:1013500080919C0690919D06009741F04C2F50E0A3
:10136000440F551F480F591FFA01E8CFCF911F9125
:101370000F9108950F931F93CF93DF93EC018B810F
:10138000882379F08B0189819A818617970729F044
:10139000CE010E94FF081A83098389819A810197EF
:1013A00031F48D819E81009769F06C8105C088853C
:1013B0009985009739F06F81DF91CF911F910F913F
:1013C0000C947907DF91CF911F910F91089520918F
:1013D0009C0630919D062115310571F060919606AD
:1013E0007091970690E0880F991F820F931FFC0160
:1013F000808191810C94BA090895CF9380919E06C3
:10140000811138C0C0E080919B06C81728F48C2F4A
:101410000E942B09CF5FF7CF80919F069091A00685
:10142000892B29F1C0E080919B06C81700F58C2F0D
:1014300086958695869590E0E0919F06F091A006AE
:10144000E80FF91F208130E043E0880F991F4A958B
:10145000E1F74C2F481B02C0359527954A95E2F7D6
:1014600020FF03C08C2F0E94E709CF5FDCCF81E013
:1014700080939E06CF91089520919606309197060D
:101480002817390761F0909397068093960680910C
:101490009E06882321F00E943D090C94FD090895C1
:1014A0000F931F93CF938C01C42F0E94FC018823BC
:1014B00009F444C080919406482F50E0C03148F5AB
:1014C000882339F12C2F30E08091A1069091A2065B
:1014D0000C2E02C0969587950A94E2F780FF19C0FA
:1014E0000417150759F580919C0690919D06009769
:1014F00029F16091980670919906220F331F820F8F
:10150000931FFC0180819181CF911F910F910C94C9
:10151000BA090417150791F080919C0690919D06D9
:10152000009761F060919606709197064C2F50E0FD
:10153000440F551F480F591FFA01E4CFCF911F9157
:101540000F9108950E94D608EAE6F2E081E08783D1
:101550001086E3E7F2E088E0DF011D928A95E9F763
:1015600008950C949525CF93C62F8230910509F4E8
:1015700056C020F4019769F1CF9108958330910509
:1015800009F48BC00497C1F785E160FFC0C00E94D9
:10159000E70986E1C1FFBEC00E94E70987E1C2FFFB
:1015A000BCC00E94E70988E1C3FFBAC00E94E709F6
:1015B00089E1C4FFB8C00E94E7098AE1C5FFB6C04F
:1015C0000E94E7098BE1C6FFB4C00E94E7098CE1E5
:1015D0004AC080E064FF17C00E94E70981E0C0FFB5
:1015E00015C00E94E70982E0C1FF13C00E94E7090D
:1015F00083E0C2FF11C00E94E70984E0C3FF35C049
:10160000CF910C94E7090E942B09E8CF0E942B0987
:10161000EACF0E942B09ECCF0E942B09EECF85E088
:1016200060FF26C00E94E70986E0C1FF24C00E9437
:10163000E70987E0C2FF22C00E94E70988E0C3FFF4
:1016400020C00E94E70989E0C4FF1EC00E94E7098C
:101650008AE0C5FF1CC00E94E7098BE0C6FF1AC0E4
:101660000E94E7098CE0C7FDCBCFCF910C942B09EA
:101670000E942B09D9CF0E942B09DBCF0E942B0996
:10168000DDCF0E942B09DFCF0E942B09E1CF0E9402
:101690002B09E3CF0E942B09E5CF8DE060FF22C02C
:1016A0000E94E7098EE0C1FF20C00E94E7098FE099
:1016B000C2FF1EC00E94E70980E1C3FF1CC00E9458
:1016C000E70981E1C4FF1AC00E94E70982E1C5FF72
:1016D00018C00E94E70983E1C6FF16C00E94E7090F
:1016E00084E1C1CF0E942B09DDCF0E942B09DFCFFF
:1016F0000E942B09E1CF0E942B09E3CF0E942B0906
:10170000E5CF0E942B09E7CF0E942B09E9CF0E9469
:101710002B093FCF0E942B0941CF0E942B0943CFB9
:101720000E942B0945CF0E942B0947CF0E942B090D
:1017300049CF0E942B094BCF0F931F93CF93DF9379
:10174000C82F8B0181E090E00E94B10A90E02091C7
:1017500091062817190629F02091940628171906D2
:1017600011F4C0939A068DE190E00E94B10AD82F3F
:1017700081E090E00E94B10A90E00130110519F576
:1017800021E030E04D2F70E060E00E941C0281E01B
:1017900090E00E94B10A90E0209191062817190666
:1017A00029F0209194062817190641F48091DA0156
:1017B0004FE750E061E070E0811123C0DF91CF91ED
:1017C0001F910F91089530E020E04D2F70E060E010
:1017D0000E941C0281E090E00E94B10A90E02091FA
:1017E00091062817190629F0209194062817190642
:1017F00029F78091DA01882309F34FE750E070E080
:1018000060E08C2FDF91CF911F910F910C948F0787
:10181000CF93863823E0920719F130F48138934052
:10182000D1F08FEFCF910895873823E09207D9F058
:1018300088389340B1F786E893E00E94B10AC82F38
:1018400087E893E00E94B10A90E02FEFC29F800DDD
:10185000911D112402C081E893E0CF910C94B10A4C
:1018600086E893E0FACF87E893E0F7CFCF93C82FCD
:101870008FE290E00E94B10A811109C085E190E0F9
:10188000CC2311F086E190E0CF910C94B10A80E076
:10189000CF910895CF93C82F8FE290E00E94B10AB4
:1018A000811106C08C2F90E0CA96CF910C94B10A9A
:1018B00080E0CF9108951F93CF93DF93EC01809147
:1018C0001702882359F08FE090E00E94B10A182F88
:1018D00080E190E00E94B10A181306C0CE01DF91AA
:1018E000CF911F910C94B10A81E197E00E949C086E
:1018F000FFCF0C945B0CCF93DF9320917D0230914E
:101900007E022F3F320721F0C901DF91CF91089568
:101910008091800287FF2BC086FF0FC089E090E096
:101920000E94790CC82F81E090E00E94790C9C2FD6
:1019300090937E0280937D0215C089E090E00E9422
:10194000790CC82F81E090E00E94790C90E4C99F47
:1019500090011124207C31708F73282B30937E02EC
:1019600020937D0280917D0290917E02CECF85FFF3
:101970000CC081E190E00E94790CC82F82E190E0D8
:101980000E94790CC05CDD0BD2CF81E090E00E9418
:10199000790C90E0CDCFBF92CF92DF92EF92FF9281
:1019A0000F931F93CF93DF9300D01F92CDB7DEB775
:1019B00030910D02311165C1B22E6A017B018C019B
:1019C0004330510509F4ACC008F03FC04130510527
:1019D00009F44CC04230510509F483C0B701C80175
:1019E0000E94FC01882309F44CC18091DA0188230C
:1019F00009F447C1DA82C982BB8210E001E080911C
:101A0000DA01181708F03DC1E091D801F091D90131
:101A1000E10FF11D808100934502809367021092CF
:101A200046021092680262E08AE992E00E94AA06E9
:101A300043E050E0BE016F5F7F4F8AE992E00E9471
:101A400075060E948C011F5FDACF4530510509F4FD
:101A5000D1C008F484C04630510509F0BFCF40E042
:101A6000C80124FF28C00E94500AB8CF80910A0202
:101A7000811127C040E0B701C801B4FE1FC00E9419
:101A8000500A41E0B701C801B0FE22C00E94500ACE
:101A900042E0B701C801B1FE1EC00E94500A43E0F7
:101AA000B701C801B2FE1AC00E94500A44E0B70153
:101AB000C801B3FCD8CF0E94710990CF0E94710970
:101AC000E0CF8DE190E00E94790C81FDD3CFD9CF9A
:101AD0000E947109DDCF0E947109E1CF0E94710956
:101AE000E5CF45E0C80120FF12C00E94500A46E041
:101AF000B701C801B1FE0EC00E94500A47E0B7010D
:101B0000C801B2FE0AC00E94500A48E0D0CF0E942D
:101B10007109EDCF0E947109F1CF0E947109F5CFD3
:101B200049E0C80120FF12C00E94500A4AE0B701F4
:101B3000C801B1FE0EC00E94500A4BE0B701C801B7
:101B4000B2FE0AC00E94500A4CE0B1CF0E94710957
:101B5000EDCF0E947109F1CF0E947109F5CF4DE0E0
:101B6000C80120FF32C00E94500A4EE0B701C801F0
:101B7000B1FE2EC00E94500A4FE0B701C801B2FE6C
:101B80002AC00E94500A40E1B701C801B3FE26C036
:101B90000E94500A41E1B701C801B4FE22C00E9470
:101BA000500A42E1B701C801B5FE1EC00E94500AAA
:101BB00043E1B701C801B6FE1AC00E94500A44E1D1
:101BC000B701C801B7FE77CF4ECF0E947109CDCFC4
:101BD0000E947109D1CF0E947109D5CF0E9471096D
:101BE000D9CF0E947109DDCF0E947109E1CF0E9417
:101BF0007109E5CF45E1C80120FF2EC00E94500ABF
:101C000046E1B701C801B1FE2AC00E94500A47E16F
:101C1000B701C801B2FE26C00E94500A48E1B701D0
:101C2000C801B3FE22C00E94500A49E1B701C801B1
:101C3000B4FE1EC00E94500A4AE1B701C801B5FEB9
:101C40001AC00E94500A4BE1B701C801B6FE16C087
:101C50000E94500A4CE1B4CF0E947109D1CF0E947A
:101C60007109D5CF0E947109D9CF0E947109DDCFCA
:101C70000E947109E1CF0E947109E5CF0E947109AC
:101C8000E9CF0F900F900F90DF91CF911F910F919F
:101C9000FF90EF90DF90CF90BF900895AF92BF92EA
:101CA000CF92DF92EF92FF920F931F93CF93DF9328
:101CB00050910D0251112DC058016901142F7B0163
:101CC000EC010E94FC01811110939A068DE190E0D5
:101CD0000E94B10A9601482FB701CE010E941C0252
:101CE000B701CE010E94FC01882399F08091DA01AE
:101CF000882379F0A501B601812FDF91CF911F9143
:101D00000F91FF90EF90DF90CF90BF90AF900C9429
:101D10008F07DF91CF911F910F91FF90EF90DF9090
:101D2000CF90BF90AF9008951F93CF93DF93EC01B6
:101D3000162F0E949525181721F0612FCE010E94C1
:101D40009D25CE01DF91CF911F910C94B10ACF93C5
:101D5000DF93863823E0920739F138F481389340D5
:101D6000E9F08FEFDF91CF910895873823E0920754
:101D7000F1F088389340A9F7C62F86E893E00E94D7
:101D8000B10AD82F87E893E00E94B10A90E06C2F47
:101D90002FEFD29F800D911D112402C081E893E0A6
:101DA000DF91CF910C94940E86E893E0F9CF87E809
:101DB00093E0F6CF0F931F93CF93DF930FB7F89471
:101DC000D0E0C0E0FE01E457FF4F1491CE010E9425
:101DD0009525181721F0612FCE010E949D2521968F
:101DE000C03181E0D80771F781E893E00E94952522
:101DF000813029F061E081E893E00E949D25CCE1EB
:101E0000D1E01FEF89919991FC0111830E94EC06AA
:101E1000F1E0C234DF07B1F70FBFDF91CF911F911F
:101E20000F9108952F923F924F925F926F927F92FF
:101E30008F929F92AF92BF92CF92DF92EF92FF92DA
:101E40000F931F93CF93DF9300D000D000D0CDB776
:101E5000DEB78C01E0E0AE2EE0E0BE2EF0E02F2EEB
:101E6000F0E03F2E412C512C32014394B0E08B2EF8
:101E7000B0E09B2E80E0C82E80E0D82ED8015B9683
:101E80000D90BC91A02DBD83AC83109709F454C272
:101E90008C91803409F45AC108F04BC0893209F49E
:101EA000C8C108F5843209F4A6C198F4813209F456
:101EB0006EC1833209F477C1811113C0E0E0F0E014
:101EC000EF2B79F0AC81BD8111968C910E940000BE
:101ED00008C0863209F47BC108F44DC0883209F489
:101EE0009CC180E019C28D3209F4C3C170F48B32F9
:101EF00009F4B4C108F4A8C1C114D10491F3EC8170
:101F0000FD81618185E090E091C18F3209F4C6C105
:101F100008F4BAC1803309F4CCC1813311F7E0E091
:101F2000F0E0EF2BF1F2AC81BD8111966C9182E073
:101F3000CAC1813609F4B8C068F5803509F45BC1BF
:101F400088F4823409F419C108F40CC1833449F6C9
:101F5000A114B10431F2AC81BD8111966C9184E081
:101F600090E0FDC08E3509F4B1C1803609F494C00B
:101F7000813509F0B6CFAC81BD8111969C9180E886
:101F8000890F61E070E097FD02C070E060E00E94A0
:101F90009C0BA7CF8D3609F49BC0A0F4833609F4BF
:101FA00090C008F488C08C3609F09BCF80E090E0A8
:101FB000892B09F496CFAC81BD8111968C910E943A
:101FC00000008FCF873709F498C108F58E3609F0E5
:101FD00088CFAC81BD811396ED91FC911497309719
:101FE00009F4AAC180818F3609F07BCF2114310416
:101FF00009F477CF11962C91622F661F6627661F12
:102000008181B0E88B9FC0011124822B9CC08B374B
:1020100009F4E2C18F3709F064CFAC81BD8111961C
:10202000EC90F12CBFEFEB1ABCEFFB0AB701C80133
:102030000E94D605882309F46EC1E5E8EE16E3E0B8
:10204000FE0609F468C1FDEAEF16F3E0FF0609F4A5
:1020500089C225EDE21623E0F20609F483C234E8D2
:10206000E31633E0F30659F04CEAE41643E0F406D5
:1020700031F084EDE81683E0F80609F065C2AC8122
:10208000BD8112968C91883009F05EC20E94DA0EF2
:10209000C8010E94F90566C2EC81FD81618181E081
:1020A00090E00E94B30A1DCFAC81BD8111966C9166
:1020B00082E090E0F6CFEC81FD81618183E090E0E9
:1020C000F0CFAC81BD8111966C9184E090E0E9CFB6
:1020D000EC81FD816181862F8F778183D8015B96AA
:1020E000ED91FC915C9781832114310409F4F9CEC0
:1020F000661F6627661F5B96ED91FC9181818111B9
:1021000021C081E08093CE0161110EC08091CE018B
:1021100087FDE7CE60E090E00E9400008091CE0154
:102120008F5F8093CE01F2CF8091CE0187FDD9CE13
:1021300061E090E00E9400008091CE018F5F80936B
:10214000CE01F2CF90E00E940000CBCEA114B104EA
:1021500009F4C7CEEC81FD81618181E090E00E94AD
:102160000000BFCEA114B10409F4BBCEAC81BD8187
:1021700011966C9182E090E0F2CFA114B10409F4C1
:10218000B0CEEC81FD81618183E090E0E8CFE0E0BA
:10219000F0E0EF2B09F4A5CEAC81BD8111968C91B6
:1021A0000E9400009ECEE0E0F0E0EF2B09F499CE13
:1021B000AC81BD8111968C9190E087FF05C081951F
:1021C00090E09195819591090E9400008ACEE0E00F
:1021D000F0E0EF2B09F485CEAC81BD8111968C9196
:1021E00090E087FF05C0819590E0919581959109D8
:1021F0000E94000076CE8114910409F472CEEC8125
:10220000FD81918180E8890F61E070E097FD02C057
:1022100070E060E00E94000064CEC114D10409F4B3
:1022200060CEEC81FD81618181E090E00E94000040
:1022300058CEC114D10409F454CEAC81BD8111969D
:102240006C9182E090E0F2CFC114D10409F449CE40
:10225000EC81FD81618183E090E0E8CFC114D1047D
:1022600009F43FCEAC81BD8111966C9184E090E081
:10227000DDCFC114D10409F434CEAC81BD811196F7
:102280006C9186E090E0D2CFC114D10409F429CE3C
:10229000EC81FD81618187E090E0C8CFC114D10459
:1022A00009F41FCEAC81BD8111966C9188E090E05D
:1022B000BDCFE0E0F0E0EF2B09F413CEAC81BD819F
:1022C00011966C9181E00E9400000BCEAC81BD8123
:1022D0001396ED91FC911497309771F180818F35B1
:1022E00009F0FFCD20E030E0232B09F4FACD9181F5
:1022F00011968C910E940000F4CDEC81FD81E1806B
:10230000F12CFFEFEF1AFCEFFF0AB701C8010E94A2
:10231000D60581112AC081E0D8015B96ED91FC9130
:102320005C9723813481148213825C963C932E93B4
:102330005B97813009F4A2CD26960FB6F894DEBFE4
:102340000FBECDBFDF91CF911F910F91FF90EF9006
:10235000DF90CF90BF90AF909F908F907F906F90C5
:102360005F904F903F902F90089521E8E21623E070
:10237000F20601F134E8E31633E0F30659F145E8DB
:10238000E41643E0F406A1F08CEAE81683E0F806D0
:1023900009F19DEAE91693E0F90651F0A4EDEA1679
:1023A000A3E0FA06B9F0B5EDEB16B3E0FB0671F465
:1023B0008AE002C0F8018081AC81BD8112969C91B7
:1023C0009813A9CFC8010E94F905A5CFC7010E94A3
:1023D000080CF2CF8DE0F0CFEC81FD81F181F98323
:1023E000EF2EF12C2FEFE21A2CEFF20AB701C80101
:1023F0000E94D605882309F48ECFAC81BD81129648
:10240000BC91BA838B2F90E09C0144E035952795D1
:102410004A95E1F7E22FE170EE83E093CD019C0154
:1024200053E0359527955A95E1F7F22FF170FB832C
:10243000F093CC019C0135952795422F4170440FB4
:1024400095958795959587958170880F880F840F4E
:10245000B170B80FBC83B093CB0181E8E81683E07C
:10246000F806B9F4D8018C918093CA01E130B1F13A
:102470008091CA0190E00C8002C0959587950A94DE
:10248000E2F781709927BB81B817190609F043CF8D
:1024900099CFE4E8EE16E3E0FE0651F0FCEAEF1611
:1024A000F3E0FF0629F024EDE21623E0F20691F5B1
:1024B0008DE08093CA019E819130D1F6C701845886
:1024C0009340029708F427CF89818B5A823008F411
:1024D00022CF8981835D823008F41DCFD301C201F0
:1024E0000C8004C0880F991FAA1FBB1F0A94D2F743
:1024F0002091CA01EA81E3FF22C0822B8093CA01A6
:102500006091CA01C7010E94A70E9091CA01891368
:1025100002CF58CF35E8E31633E0F30651F04DEA29
:10252000E41643E0F40629F085EDE81683E0F806AA
:1025300011F48AE0BECFC7010E94080CBACF482F21
:102540004095822F8423DACFEC81FD816281C7011F
:102550000E94A70ED8015B96ED91FC91928189179C
:1025600009F496CDB1E8EB16B3E0FB0609F0D3CE43
:1025700081E893E00E94B10AF8018083CCCEAF924B
:10258000BF92CF92DF92EF92FF920F931F93CF9360
:10259000DF93C091E501D091E6011091C9011111BD
:1025A0001AC0FE0190E080E025813681232B09F0DE
:1025B0005AC025E0289FF001299FF00D1124329682
:1025C000EC0FFD1FF093C801E093C701309709F4A9
:1025D0003FC014821382A090C701B090C801A1141B
:1025E000B104B1F10E94CD03C090C301D090C401E9
:1025F000E090C501F090C6016C197D098E099F0914
:102600006A30710581059105C8F11092C9010E94D7
:10261000CD036093C3017093C4018093C50190936F
:10262000C6018D8D9E8D0E949D05F50190818823A8
:1026300019F19160908381E08093C9010E94650344
:102640006093BF017093C0018093C1019093C20158
:10265000DF91CF911F910F91FF90EF90DF90CF907E
:10266000BF90AF900895019635968530910509F099
:102670009BCFF0E0E0E0A6CF9E7FDCCF0E94650319
:10268000C090BF01D090C001E090C101F090C201A4
:102690006C197D098E099F096531710581059105C8
:1026A000B8F20E9465036C197D098E099F09643F89
:1026B00071408105910560F68D8D9E8D212F2770CB
:1026C000C12CD12C7601C39404C0CC0CDD1CEE1CB3
:1026D000FF1C2A95D2F7103108F049C00E949D05D1
:1026E000E12FE695E695E695EA0DFB2DF11D882391
:1026F000D1F18081C82AC08201E0010F0093C90195
:102700000E9465036093BF017093C0018093C10173
:102710009093C201177F173019F0083109F098CF54
:102720000E94CD036093C3017093C4018093C501DF
:102730009093C601003141F1083109F089CF0B8D2A
:102740001C8D8091C7019091C8019C8F8B8FCE0109
:102750000E94120FE091C701F091C8011482138208
:102760001C8F0B8F2CC0C0948081C822C4CF0E94C4
:102770009D05F5019281882319F0C92AC282BCCF38
:10278000C0949C219283B8CFA091C701B091C80199
:102790008C91982F977F973709F45ACF8B3709F48C
:1027A00057CFEB8DFC8D309721F4BC8FAB8F07C0DA
:1027B000FC01838194810097D9F7B483A38310929D
:1027C000C90146CF1F93CF93DF93EC01162F0897D3
:1027D00079F4662319F10E94DA0E80E090E0892BEB
:1027E000B9F0612FCE01DF91CF911F910C940000C1
:1027F00080E090E0892BA9F781E0C11590E1D9072D
:1028000008F080E0111105C0DF91CF911F9108956C
:1028100081E027972297C0F780E0F6CF80E090E034
:10282000892BF9F681E0F0CF0F931F93CF93DF93BD
:1028300020911702222329F08F30910541F48FE077
:1028400090E0DF91CF911F910F910C94940E162F71
:10285000EC018FE090E00E94B10A082F80E190E047
:102860000E94B10A08130DC0C730D10531F0C8303D
:10287000D10521F4183031F0FFCFFFCF612FCE0109
:10288000E0CFFFCF0E94DA0E88E0DF91CF911F9159
:102890000F9108958331910588F48131910530F4C9
:1028A0008130910519F08930910531F42FEF3FEF18
:1028B00030937E0220937D020C9414148D31910587
:1028C000D9F7677F6093800220916A022F73362FB9
:1028D000307C232B20936A02E9CFCF93DF93E5E886
:1028E000F2E095E1DF011D929A95E9F722E930E0E7
:1028F000309384022093830222E530E030938202F9
:1029000020938102CAE6D2E0888319828FEF9FEF7D
:102910009C8B8B8B1D8A83E08093690243E050E09F
:1029200063E574E089890E944E048DE190E00E9485
:10293000790C682F6F738DE190E00E944A148E8BA2
:102940006AE087E090E00E944A146DE088E090E041
:102950000E944A1480E0DF91CF910C94A20A89B7BB
:102960008F7B89BF8CE692E090930D0180930C01E0
:1029700081E00E946D1410921D0210921C020895B5
:102980000F931F930E946503009118021091190282
:1029900020911A0230911B02601B710B820B930B6A
:1029A000613F79448240910508F456C08091170236
:1029B00081110BC080911C0290911D028130910504
:1029C000B1F188F0029709F444C00E946503609356
:1029D00018027093190280931A0290931B0281E0EF
:1029E0001F910F91089580E390E00E945B0C80FF9F
:1029F0000EC041E050E064EE77E086E00E94D9032B
:102A000081E090E090931D0280931C02DECF8DE167
:102A100090E00E945B0C82FFD8CF41E050E06DE671
:102A200072E086E00E94D90382E090E0EBCF89B7A4
:102A30008F7B89BF8CE692E090930D0180930C010F
:102A40008DE190E00E945B0C82FDE7CF0E94AF1405
:102A5000BCCF10921602FACF80E0C2CFBF92CF92C5
:102A6000DF92EF92FF920F931F93CF93DF938B012F
:102A7000B42E690182FF23C083FF17C061E0C80143
:102A80000E94E2138823D9F16B2DC8010E944A14D9
:102A90008B1135C0F601DF91CF911F910F91FF90FF
:102AA000EF90DF90CF90BF90099460E0C8010E9442
:102AB000E213882321F1C8010E94790CE9CF842F09
:102AC0008770C1E0D0E07E0101C0EE0C8A95EAF784
:102AD000D42FD870CB010E94790CC82FB4FE1CC033
:102AE00061E0C8010E94E213882349F0DD2389F0E8
:102AF000CE296C2FC8010E944A148C1759F2DF911D
:102B0000CF911F910F91FF90EF90DF90CF90BF90EA
:102B10000895E094CE21EDCF60E0C8010E94E21359
:102B2000882369F3CE21DD2319F0C111B3CFE7CF9C
:102B3000CC2309F4AFCFE3CFCF92DF92EF92FF9295
:102B40000F931F93CF93DF937C016B01C42F122F40
:102B5000D42FD07E80916A0287FF2CC0D03EC1F571
:102B600080916B028823A1F190E00E94790CD82F0C
:102B700080916B0290E001960E94790C982F8D2F26
:102B8000E816F90629F56C2F70E0762F6627662780
:102B90007370612B6F5F7F4F2CED36E0402F8C2FD1
:102BA000DF91CF911F910F91FF90EF90DF90CF9029
:102BB0000C942E1580FD32C0D03609F464C088F420
:102BC000D03209F447C0D03409F45DC0DD2379F177
:102BD000DF91CF911F910F91FF90EF90DF90CF90F9
:102BE0000895D03A09F483C090F42C2F2F7141E05E
:102BF00050E0D03869F7B601C701DF91CF911F913E
:102C00000F91FF90EF90DF90CF900C94CB0CD03CC5
:102C100009F476C0D03E09F4B6CFDACF0E947B0C1F
:102C20008E159F0549F2E114F10431F2D1CF8C2FBA
:102C30008E7071F680E090E0892B51F28C2F8170BC
:102C4000DF91CF911F910F91FF90EF90DF90CF9088
:102C50000C940000CF71CF3109F0BACF412F4F77DC
:102C600071F0413071F0111F1127111F212F30E039
:102C70000FE710E0B601C7010E944E0EA9CF41E058
:102C8000F2CF40E0F0CF2C2F30E08C2F8F718130CD
:102C900029F030F0803121F08131F9F440E001C0B9
:102CA00041E025FB222720F90DE110E030E0B601DC
:102CB000C7010E944E0E80E090E0892B09F488CF76
:102CC0004C2FB601C701DF91CF911F910F91FF905B
:102CD000EF90DF90CF900C940000C901880F991FEE
:102CE0008E71C4FB442740F9482B4250DACF2C2F79
:102CF0002F7043E050E0C4FF7ECF42E050E07BCF36
:102D0000CF71CE3139F0CF3109F062CF212F45E0BC
:102D100050E071CF212F44E050E06DCFCF93DF938F
:102D200000D000D01F92CDB7DEB7181619069CF55B
:102D30008AE992E00E945B06992782309105D9F0DA
:102D40008330910581F1019759F464E084E591E0C5
:102D50000E94CE07809157018823A1F18130D9F1DB
:102D60009091DF018091E0019817A9F08AE992E043
:102D70000E945B06F5CF65E0CE0101960E94CE076A
:102D800080E090E0892B39F04C815D816A817B8104
:102D900089810E9400000F900F900F900F900F906C
:102DA000DF91CF91089563E0CE0101960E94CE0796
:102DB00080E090E0892B79F36B8189819A810E9470
:102DC0000000E9CF80915501909156010E945B0C63
:102DD00080935401C5CF6091540180915501909129
:102DE00056010E941414F4CFCF92DF92EF92FF921B
:102DF0000F931F93CF93DF93EC017B01413051057B
:102E0000F9F4CD80DE802496C114D104E9F462E0A7
:102E100070E081E090E00E94DB258C01009731F0AA
:102E2000FC01F182E08288818F5F8883C801DF9195
:102E3000CF911F910F91FF90EF90DF90CF90089569
:102E4000C884D9842796E0CF88818F5F8883C82F74
:102E5000D0E062E070E0CE010E94DB258C0120E032
:102E6000BE0161507109822F90E08617970774F4B4
:102E7000880F991FF601E80FF91F40815181800FDB
:102E8000911FFC01518340832F5FEDCFC150D0488B
:102E9000CC0FDD1FC00FD11FF982E882C6010E944E
:102EA0009326C4CF1F920F920FB60F9211242F9327
:102EB0003F938F939F93AF93BF938091D001909155
:102EC000D101A091D201B091D3013091CF0123E083
:102ED000230F2D3768F126E8230F0296A11DB11D9F
:102EE0002093CF018093D0019093D101A093D20180
:102EF000B093D3018091D4019091D501A091D601D6
:102F0000B091D7010196A11DB11D8093D40190937A
:102F1000D501A093D601B093D701BF91AF919F91F6
:102F20008F913F912F910F900FBE0F901F9018958A
:102F30000196A11DB11DD4CF1F920F920FB60F9213
:102F400011240BB60F922F933F934F935F936F9380
:102F50007F938F939F93AF93BF93EF93FF93E091F2
:102F60000E01F0910F010995FF91EF91BF91AF9183
:102F70009F918F917F916F915F914F913F912F9191
:102F80000F900BBE0F900FBE0F901F9018951F92C1
:102F90000F920FB60F9211240BB60F922F933F93FF
:102FA0004F935F936F937F938F939F93AF93BF9351
:102FB000EF93FF93E0910C01F0910D010995FF91C2
:102FC000EF91BF91AF919F918F917F916F915F91A1
:102FD0004F913F912F910F900BBE0F900FBE0F900E
:102FE0001F9018951F920F920FB60F9211240BB6D7
:102FF0000F922F933F934F935F936F937F938F9392
:103000009F93AF93BF93EF93FF93E0910A01F091E9
:103010000B010995FF91EF91BF91AF919F918F9116
:103020007F916F915F914F913F912F910F900BBEC8
:103030000F900FBE0F901F9018951F920F920FB612
:103040000F9211240BB60F922F933F934F935F93E0
:103050006F937F938F939F93AF93BF93EF93FF9360
:10306000E0910801F09109010995FF91EF91BF915D
:10307000AF919F918F917F916F915F914F913F9110
:103080002F910F900BBE0F900FBE0F901F901895B1
:103090001F920F920FB60F9211240BB60F922F931F
:1030A0003F934F935F936F937F938F939F93AF93D0
:1030B000BF93EF93FF93E0910601F091070109950B
:1030C000FF91EF91BF91AF919F918F917F916F9100
:1030D0005F914F913F912F910F900BBE0F900FBEBC
:1030E0000F901F9018951F920F920FB60F921124F8
:1030F0000BB60F922F933F934F935F936F937F93F2
:103100008F939F93AF93BF93EF93FF93E09104014D
:10311000F09105010995FF91EF91BF91AF919F91BA
:103120008F917F916F915F914F913F912F910F9070
:103130000BBE0F900FBE0F901F9018951F920F920D
:103140000FB60F9211240BB60F922F933F934F930C
:103150005F936F937F938F939F93AF93BF93EF93FF
:10316000FF93E0910201F09103010995FF91EF9126
:10317000BF91AF919F918F917F916F915F914F918F
:103180003F912F910F900BBE0F900FBE0F901F908D
:1031900018951F920F920FB60F9211240BB60F9233
:1031A0002F933F934F935F936F937F938F939F934F
:1031B000AF93BF93EF93FF93E0910001F091010172
:1031C0000995FF91EF91BF91AF919F918F917F9161
:1031D0006F915F914F913F912F910F900BBE0F9088
:1031E0000FBE0F901F9018951F920F920FB60F925F
:1031F00011240BB60F922F933F934F935F936F93CE
:103200007F938F939F93AF93BF93EF93FF9380919F
:103210007100887F803609F44DC008F040C08832C4
:1032200009F4A9C028F5803109F49DC0C8F48823A9
:1032300009F4FBC0883009F496C0FF91EF91BF916B
:10324000AF919F918F917F916F915F914F913F913E
:103250002F910F900BBE0F900FBE0F901F901895DF
:10326000883109F488C0803241F78093420214C04B
:10327000803409F49DC040F48033B9F38833E9F613
:103280008093420285ECB0C0803509F485C0883552
:1032900009F496C0883489F60E941A06CECF883980
:1032A00009F48CC038F5883729F050F4883611F0CD
:1032B000803719F683E0809344021092BE0157C014
:1032C000883809F47BC0803919F0803809F0B5CF0F
:1032D0008091BE01803208F071C0E091BE0181E0B2
:1032E0008E0F8093BE0180917300F0E0E256FE4F96
:1032F00080833DC0803B39F0E0F4803A09F479C026
:10330000883A09F09ACF84E08093440210929D019C
:1033100010929C01E091DD01F091DE010995809110
:103320009C0181110FC081E080939C0110927C016F
:1033300009C0803C09F4A6CF883C09F4A3CF883BA0
:1033400009F07BCFE0919D0181E08E0F80939D017C
:10335000F0E0E458FE4F80818093730090919D01CE
:1033600080919C0129C080911F028093730085EC9D
:103370008093740062CF909141028091400298172F
:1033800058F5E091410281E08E0F80934102F0E018
:10339000E05EFD4F8081E9CFE091410281E08E0F38
:1033A0008093410280917300F0E0E05EFD4F8083E6
:1033B00090914102809140029817C8F285E8D8CFD9
:1033C000E091410281E08E0F809341028091730071
:1033D000F0E0E05EFD4F80838091430281115CCF7D
:1033E00081E080931E0284EA80937400109244026C
:1033F00024CF85EC80937400109244028091BE012A
:10340000803230F4E091BE01F0E0E256FE4F1082CF
:103410006091BE0170E0E091DB01F091DC018EE98A
:1034200091E009951092BE0108CF1092420234CF6C
:103430001F920F920FB60F9211248F939F9378943F
:103440008091FA019091F901891708F08AC0909152
:1034500062009860909362009091F801891708F0DB
:1034600084C0DC9A9091F701891708F080C0909190
:1034700062009064909362009091F601891708F0C1
:103480007AC0909162009062909362009091F501F1
:10349000891708F074C0C69A9091F401891708F052
:1034A00070C0C59A9091F301891708F06CC0C49A56
:1034B0009091F201891708F068C01D9A9091F1016E
:1034C000891708F064C01C9A9091F001891708F0E0
:1034D00060C01B9A9091EF01891708F05CC0909131
:1034E00062009160909362009091EE01891708F05C
:1034F00056C0C79A9091ED01891708F052C0DE9A24
:103500009091EC01891708F04EC0DF9A9091EB0181
:10351000891708F04AC0969A9091EA01891708F035
:1035200046C0979A9091E901891708F042C0DD9A48
:103530009091E801891708F03EC0DB9A9091E7016D
:103540008917D8F5909162009061909362008F5F27
:103550008093FA019F918F910F900FBE0F901F9053
:10356000189590916200977F75CFDC987BCF9091F2
:1035700062009F7B7FCF909162009F7D85CFC69830
:103580008BCFC5988FCFC49893CF1D9897CF1C9899
:103590009BCF1B989FCF909162009E7FA3CFC7982F
:1035A000A9CFDE98ADCFDF98B1CF9698B5CF9798D9
:1035B000B9CFDD98BDCFDB98C1CF909162009F7EDF
:1035C000C4CFCF93DF93EC0161E088810E94340384
:1035D00060E08881DF91CF910C940603EF92FF9217
:1035E0000F931F93CF93DF9310929D0210929C0232
:1035F00088EE93E0A0E0B0E080939E0290939F025B
:10360000A093A002B093A10286E491E090939B0264
:1036100080939A021092A8021092A9021092AA0214
:103620001092AB021092AC021092AD021092AE0258
:103630001092AF021092B0021092B1021092B20238
:1036400086E090E09093A7028093A60283E190E049
:103650000E94B10AC82F82E190E00E94B10AD82FDF
:1036600081E190E00E94B10A182F81E090E00E9471
:10367000B10A21E030E0309397062093960630930C
:1036800099062093980610929A0610929E06109220
:10369000A00610929F0680939106212F205C330B89
:1036A000C9012D2F382FC90190939306809392065C
:1036B000CF77C0939406109295068DE180939B0678
:1036C00062E070E08DE190E00E94DB2590939D0622
:1036D00080939C060097C9F0EC0110E0EE24E3947F
:1036E000F12C8AE090E00E94F725FC01F282E18251
:1036F0001382148216821582178211861086108317
:10370000899399931F5F1D3161F766E081EB96E025
:103710000E94B20564E38BEA96E00E94B20581E361
:1037200080931107C2E0C093130710921407DFEFD4
:10373000D09312071092150781E197E00E94E11AD9
:1037400089E280930C07C0930E0781E080930F07F6
:10375000D0930D07109210078CE097E00E94E11AB9
:1037600087E280930707C0930907C0930A07D093A5
:10377000080710920B0787E097E00E94E11A89E1A1
:1037800080930207C093040783E0E82EE0920507C8
:10379000D09303071092060782E097E00E94E11A97
:1037A00088E18093FD06C093FF0694E0F92EF09225
:1037B0000007D093FE06109201078DEF96E00E945D
:1037C000E11A85E28093F806C093FA0605E00093BB
:1037D000FB06D093F9061092FC0688EF96E00E9453
:1037E000E11A86E28093F306C093F50686E08093A3
:1037F000F606D093F4061092F70683EF96E00E9447
:10380000E11A1FE01093EE06C093F00687E0809364
:10381000F106D093EF061092F2068EEE96E00E942B
:10382000E11A8DE28093E906C093EB0688E080936D
:10383000EC06D093EA061092ED0689EE96E00E941F
:10384000E11AE092E406C093E60689E08093E70679
:10385000D093E5061092E80684EE96E00E94E11A05
:10386000F092DF06C093E1068AE08093E206D093EF
:10387000E0061092E3068FED96E00E94E11A0093B5
:10388000DA06C093DC068BE08093DD06D093DB067E
:103890001092DE068AED96E00E94E11A8CE0809399
:1038A000D506C093D7068093D806D093D60610923B
:1038B000D90685ED96E00E94E11A8DE08093D0064E
:1038C000C093D2068093D306D093D1061092D4062B
:1038D00080ED96E00E94E11A8EE08093CB06C093C3
:1038E000CD068093CE06D093CC061092CF068BECFB
:1038F00096E00E94E11A82E38093C606C093C80650
:103900001093C906D093C7061092CA0686EC96E0BB
:103910000E94E11A83E38093C106C093C30680E14D
:103920008093C406D093C2061092C50681EC96E03F
:103930000E94E11A88E28093BC06C093BE0681E132
:103940008093BF06D093BD061092C0068CEB96E024
:103950000E94E11A80E38093B706C093B90682E122
:103960008093BA06D093B8061092BB0687EB96E018
:10397000DF91CF911F910F91FF90EF900C94E11A7E
:10398000CF93DF93CDB7DEB762970FB6F894DEBF63
:103990000FBECDBF789483B78C6483BF87B7816037
:1039A00087BF82E08EBD8EB581608EBD8FB5816090
:1039B0008FBD85B5846085BD85B5806485BD8091EA
:1039C0008A00836080938A0080918B00816080935D
:1039D0008B0087E886B91AB80FB6F894A89581B518
:1039E000886181BD11BC0FBE61E08DE00E9434038F
:1039F0002FB7F89490E080E0FC01E951FE4F10826F
:103A0000019683319105C1F780916200877F809391
:103A10006200DC98809162008F7B809362008091CD
:103A200062008F7D80936200C698C598C4981D98E7
:103A30001C981B98809162008E7F80936200C798CB
:103A4000DE98DF9896989798DD98DB9880916200D1
:103A50008F7E809362002FBF9FB7F89480916100A2
:103A6000886080936100D49A809161008064809323
:103A7000610080916100806280936100BE9ABD9A6E
:103A8000BC9A159A149A139A809161008160809370
:103A90006100BF9AD69AD79A8E9A8F9AD59AD39A5E
:103AA000809161008061809361009FBF1FBC89E0AD
:103AB0008EBD8CE093E09BBD8ABD87B7806187BFD8
:103AC0001092FA0161E08FE10E94340360E081EB23
:103AD00096E00E94A702E091AD06F091AE069081BB
:103AE0008091AC06809589238083E091AF06F091A8
:103AF000B00680819091AC06892B80832CEBC22E7E
:103B000021E0D22E3CE1E32E31E0F32E42E4842E7C
:103B100041E0942E77247394F601049110E0C801DB
:103B20000E94B10A682EC80101960E94B10AB82EFF
:103B3000C80102960E94B10AA82EC80103960E94ED
:103B4000B10A90919B06691610F5D7010D911C9151
:103B5000F801A1828483862DB11042C10E94E9013F
:103B60005C0141E050E0B8010E94F416D5011696C0
:103B70009C938E931597862D0E94E9015C0150E07D
:103B800040E0B8010E94F416F50191878087A8955E
:103B9000B2E0CB0ED11CE2E0EE0EF11C8E149F04BD
:103BA00009F0BACF61E070E084E090E00E94DB258C
:103BB0009093A00680939F06892B91F010E000E07F
:103BC000E0909F06F090A006E00EF11E802F0E946C
:103BD0004A0CD7018C930F5F1F4F0430110581F7FA
:103BE00080E00E94360C082F10E081E00E94360C25
:103BF000282F30E0322F222722273E7F000F111F6F
:103C0000202B312B3093A2062093A10680FF05C004
:103C100021603093A2062093A1068EE896E190934E
:103C2000E4018093E30182EA96E09093E2018093BD
:103C3000E1011092E0011092DF0110924602109211
:103C400068021092440281E08093430210921E02A7
:103C500061E083E10E94060361E082E10E940603C5
:103C6000809171008E7F80937100809171008D7FB3
:103C70008093710088E48093700085E480937400E1
:103C800081E792E09093DE018093DD018DE792E081
:103C90009093DC018093DB0182E0809372008CE0E2
:103CA0008093700010E001E00093450210936702DA
:103CB00010924602109268020E948C019091DA01E3
:103CC000811103C09F5F9093DA011F5F1F3761F777
:103CD0008091DA01882311F161E070E090E00E94A8
:103CE000DB257C019093D9018093D80100E010E09E
:103CF000DD24D394D09245021093670210924602BD
:103D0000109268020E948C01811105C0F701E00F3A
:103D1000F11D10830F5F1F5F1F3761F760E08AE1BD
:103D20000E943403E0EAF2E08491EBE6F2E00491D1
:103D3000E6E3F2E0149111116EC0FF24F394F092C7
:103D40000D028FE190E00E94F7258C0187E0F801D9
:103D5000818386E090E00E94F7256C0168E00E9474
:103D6000B205D8015E96DC92CE925D9710930C025C
:103D700000930B0281E893E00E94B10AF80180836E
:103D8000843008F0CDC01093E6010093E50160E0B7
:103D9000F80181810E94340360E0D8015D968D9125
:103DA0009C910E94A702F801168215821386128642
:103DB000108A1786158A148A128E118E148E138E0D
:103DC00081819CEF980F943020F08251843008F06C
:103DD0008FEF42E050E06FEB72E10E944E042AC088
:103DE0000E94E901DC0113967C92B0E8BB1609F44D
:103DF000C2CEF1E8BF12CBCE862D0E94E9015C0154
:103E000041E050E0B8010E94F416D50116969C934B
:103E10008E931597BCCE81110E94D102E12FF0E064
:103E2000EE0FFF1FE45FFD4FA591B491EC91E023ED
:103E300009F483CF81E090E00E94B10A21E030E0F4
:103E4000309300022093FF018093010281E190E012
:103E50000E94B10A21E130E0309303022093020274
:103E60008093040282E190E00E94B10A22E130E0F6
:103E70003093060220930502809307028DE190E0C3
:103E80000E945B0C81FD4EC08DE190E09093090291
:103E90008093080210920A0286E080937B0280934E
:103EA0007C0260E00E94340361E086E00E94060329
:103EB00080E00E946D1488E19BE00FB6F894A8950D
:103EC00081BD0FBE91BD72E0472E512C80910E0234
:103ED00081110DC00E94650360931802709319024E
:103EE00080931A0290931B0281E080930E028091CE
:103EF0001C0290911D028130910509F4AEC260F15F
:103F0000029709F4D8C5A89580910D028823F1F293
:103F100080910B0290910C020E94120FA895D6CFAF
:103F2000F08231CF8DE190E00E945B0C85FD0DC0E9
:103F30008091160190911701A091180180930802B9
:103F400090930902A0930A02A7CF80911901909142
:103F50001A01A0911B01F2CF80916C028823B1F06D
:103F60000E94CD0300916D0210916E0220916F02AC
:103F700030917002601B710B820B930B65317105E0
:103F80008105910518F080E00E94A20A80918702C5
:103F9000882309F445C0F89488E0E2E9F2E0A3EA56
:103FA000B6E001900D928A95E1F71092870278941D
:103FB00030919202E4E9F2E090E080E0391721F0DC
:103FC000219182279F5FFACF81112AC080E090E083
:103FD000892B21F083EA96E00E9400008091A506DB
:103FE000811125C09091A606911121C080E090E03A
:103FF000892B19F080E00E94000080916C028823D8
:1040000091F081E00E94D6080E943D090E9465035C
:10401000609318027093190280931A0290931B0206
:104020000E94C01470CF81E00E94A20AEDCF90914F
:104030006C02992309F486C08057803108F07FC054
:1040400081E00E94D6081091A30680917302181394
:104050000AC0412F50E065E772E085EA96E00E94D1
:104060001C27892B61F01092720288E0E3EAF6E0E7
:10407000A3E7B2E001900D928A95E1F7C5CF809158
:1040800072028F5F80937202133009F040C09091EA
:10409000A506892F8770F090A606853029F4F09246
:1040A00071020E94BD03B0CF0DE110E0843091F0A9
:1040B000282F30E08430F0F4009171020023D1F019
:1040C0000150110B000F111F000F111F020F131FC2
:1040D0000F5F1F4F93FF10C061E0C8010E94E21301
:1040E000882309F491CF6F2DC8010E944A14F81259
:1040F0008BCFD7CF8901ECCF60E0C8010E94E213DB
:10410000882309F481CFC8010E94790CF0CF1430C4
:1041100009F07ACF8091A506682F70E0762F662788
:10412000662773709091A606692B6F5F7F4F2BEC0B
:1041300033E04091A7068C700E942E1565CF80E079
:104140000E94A20AE091A506EF3F61F48091A606C5
:1041500081115ACF80E090E0892B09F455CF0E945D
:10416000000052CFE7FD0DC00091A8062091A706E0
:104170004091A60670E060E08E2F90E00E949C15B2
:1041800043CFE03C08F058C130916A0237FF3CCF82
:104190002091A606822F90E08C0100951095000FCB
:1041A000111F000F111F007C1170EF730E2B9595DE
:1041B0008795F82FF370BF2E8091A306853041F5C7
:1041C0002C782C3029F50E947B0C8017910721F068
:1041D0000F3F114009F018CF8091A60690E0982F6C
:1041E0008827882793700091A706080F192F111DA3
:1041F0000F5F1F4FF090A80661E0C8010E94E21314
:104200006F2D882309F400CFC8010E944A14FCCE08
:10421000680141E0C41AD108CC0CDD1CCC0CDD1CBB
:10422000CB2876015FEFE51AF50A80917F0288239B
:10423000F9F036FF41C0C70160E071E00E94AA2595
:10424000682F81E090E00E944A14C701F7FE02C087
:1042500081509F4F692F89E090E00E944A1480E0CE
:1042600090E0892B19F0C7010E94000010927F0294
:1042700080916A0280FD39C08091A306843009F0E4
:104280004FC08091A6068978813009F0BDCE60913B
:10429000A70680E090E0892B19F0C7010E9400007A
:1042A00080E090E0892B09F4AFCE4091A7066B2DFA
:1042B000C7010E940000A8CEB8016F73772781E084
:1042C00090E00E944A14B801E6E075956795EA957A
:1042D000E1F789E090E00E944A1480E090E0892BA9
:1042E00029F2C8010E940000C1CF86FF0DC00E94C4
:1042F0007B0C8E159F0509F4BFCF8DEFE81687E084
:10430000F8060CF0B9CF80CE0E947B0C8017910785
:1043100009F4B2CF0F3F91E0190709F4ADCF74CE85
:10432000833069F54091A606A42FA170CA2E43FBE5
:10433000DD24D0F880E090E0892B31F047702D2DFE
:10434000B801C7010E94000080916A0286FF0BC07D
:1043500080E090E0892B09F457CE4D2D6C2DC701DC
:104360000E94000051CE80E090E0892B09F44CCEF1
:104370002D2D4C2D6B2DC8010E94000045CE86309E
:1043800009F042CE8091A606982F9978913021F0BD
:104390008F78803809F038CE80916A0286FF28C075
:1043A0000E947B0C8E159F05E9F48091A70690E092
:1043B000382F2227222733700091A806020F132FCF
:1043C000111D0F5F1F4FF090A90695958795959544
:1043D0008795837099278230910599F0039709F4A6
:1043E0000BCF12CEBDEFEB16B7E0FB06F4F60CCE0A
:1043F0000E947B0C80179107C1F20F3F1140A9F278
:1044000003CEF4FE01CE61E0C8010E94E2138823CE
:1044100009F4FACDC8010E94790C9F2D977061E0D4
:1044200070E001C0660F9A95EAF7F3FE02C0682BB0
:10443000EBCE60956823E8CEE83E08F0E5CDE05C81
:10444000FF0B8091A6060091A9062091A806409135
:10445000A70661E070E09E2F91CE02E013E09AE0A3
:10446000E92EF12CDD24D39423E6C22E33E0B32EC3
:1044700042E0A42E5BE1352ED8011B968D919C91D4
:10448000019709F03FC1F801E654F109808191815B
:10449000329660807180680E791EF801118A128A46
:1044A000168212861586168617861782108A138A38
:1044B0001186158214829301359527954801FCE5F4
:1044C0008F1A9108F40161E070E086899789A72F1F
:1044D000A69541E050E04C0F5D1F4A0F511DDA01D7
:1044E00041E0281739070CF040E04C93713248F452
:1044F000408D518D840F951F8E579109C19708F4F7
:1045000060E07E5F3496743201F7FE013196CE9CF6
:104510009001CF9C300D112444E856E0421B530B10
:1045200090E080E0708171118FC071817111A6C01F
:10453000D401A80FB91F1D961C920196329689309E
:10454000910581F7F80180819181A281B381855124
:104550009540A109B10983359B40A105B10508F03B
:1045600070C1662309F46DC181E046E964167104E7
:104570000CF080E0D80151968C93F801EC54F109CD
:10458000908131978081B9E08B9F802D1124939D7C
:10459000800D112432979081890F31964081942F9C
:1045A000990F940F890FF8018683EB54F10946E9BE
:1045B000641671040CF430C181E09081913009F0EF
:1045C00080E0D8011D968C938989880F9F85890F7B
:1045D000880F9D85890F880F9B85890F91E009F0D1
:1045E00090E0F801968791E0813009F090E0D801E1
:1045F0001F969C9381118150F801878382898823BB
:1046000009F456C08C85880F9E85890F880F98897C
:10461000890F880F9A89890FEEEFE80FEE3008F0C6
:1046200047C0F0E0EA5EFC4D0C94BE254B234B23C3
:1046300053235323F823F82358235823FD23FD2322
:1046400001240124062406247130C1F42180A1E054
:104650002A1206C0DA01A80FB91F1D962C926DCF41
:1046600021100CC0D401A80FB91F1D96AC92853043
:1046700008F463CFD80152967C935FCF853048F021
:10468000DA01A80FB91F1D96BC92D8015296DC9290
:1046900054CF60E057CFD8011996AC92199781702A
:1046A00053968C9305C041E050E0F8015583448354
:1046B00089E090E0FAE0EF16F10411F08E199F09FD
:1046C000D8011C965C924E921B97C89EB001C99E61
:1046D000700D1124FB01E35FFC4F808191810297F3
:1046E00089F46D547D4F49E050E081E996E0821BEA
:1046F000930B0E941C27892B29F423E030E0F8015A
:1047000034872387F1E0EF1AF1080D591F4FE114A8
:10471000F10409F0B1CEEDE0F3E090E080E020811B
:1047200031812330310509F094C023E6289F8001B0
:10473000299F100D1124F801E35FFC4F84E090E005
:10474000918380830D541D4F0115110509F468CC28
:10475000780125E5E20EF11CD701EC91F0E08091A3
:1047600001029F01281B3109C9012130310509F4DB
:10477000DDC00CF076C0892B09F046CC8091FE019B
:10478000D801A45ABF4F9C91992309F491C080612C
:104790008093FE019091FE01D801A85ABF4F8C91E1
:1047A000823009F4A0C008F085C0813009F48FC0C0
:1047B0002091FE0141E050E070E060E0CF010E94F6
:1047C000CB0CF801ED5AFF4F80819181813091052A
:1047D00009F09FC03396809101020DE110E021E0C5
:1047E00030E0408170E060E090E00E944E0E0CCC22
:1047F000D8011996BC92199752CFF801558244827C
:1048000057CFD8011996DC92199749CF44E0F801A7
:1048100041878170838B4CCF8081811112C08F853D
:10482000880F9D85890F880F9B85890FD8011A965F
:104830008C9381E09989913009F080E0F801808BB8
:1048400037CFE5E0F0E0D8011C96FC93EE931B9780
:1048500059CF0196ED59FF4F8A30910509F05FCF8E
:10486000DFCB2230310509F4ADC02330310509F02A
:10487000CBCB80E390E00E945B0C83FFC5CB8091A3
:10488000FB01F801E85AFF4F9081923009F4FDC016
:1048900008F0E2C0913009F4ECC0D7018C9120916E
:1048A000FB0144E050E070E060E08350990B59C098
:1048B0008F7E6ECF833009F1843009F079CFD80133
:1048C000AE59BF4F8C91882311F1986007C0D80171
:1048D000AE59BF4F8C91882321F091609093FE01D7
:1048E00067CF9E7FFBCFD801AE59BF4F8C918823F5
:1048F00011F09260F3CF9D7FF1CFD801AE59BF4F39
:104900008C91882311F09460E9CF9B7FE7CF977F4C
:10491000E5CF029709F078CBF801EA5AFF4F809172
:1049200001020DE110E030E020E05BCF80E390E099
:104930000E945B0C81FF68CB8091FD01F801E85A71
:10494000FF4F9081923041F178F49130C9F0D70156
:104950008C912091FD0142E050E070E060E08150D8
:10496000990B0E94CB0C50CB933001F1943079F726
:10497000F801EE59FF4F9081992311F1886007C02B
:10498000F801EE59FF4F9081992321F081608093C7
:10499000FD01DDCF8E7FFBCFF801EE59FF4F9081F7
:1049A000992311F08260F3CF8D7FF1CFF801EE599A
:1049B000FF4F9081992311F08460E9CF8B7FE7CF7F
:1049C000877FE5CF80E390E00E945B0C82FF1CCBE9
:1049D0008091FC01F801E85AFF4F9081923031F14B
:1049E00068F49130B9F0F70180812091FC0143E037
:1049F00050E070E060E08250990BB3CF933001F14A
:104A0000943089F7F801EE59FF4F9081992311F105
:104A1000886007C0F801EE59FF4F9081992321F07B
:104A200081608093FC01DFCF8E7FFBCFF801EE59D0
:104A3000FF4F9081992311F08260F3CF8D7FF1CFEA
:104A4000F801EE59FF4F9081992311F08460E9CF6E
:104A50008B7FE7CF877FE5CF933009F1943009F062
:104A60001CCFF801EE59FF4F9081992311F1886016
:104A700007C0F801EE59FF4F9081992321F0816022
:104A80008093FB010ACF8E7FFBCFF801EE59FF4FD9
:104A90009081992311F08260F3CF8D7FF1CFF801DF
:104AA000EE59FF4F9081992311F08460E9CF8B7FFD
:104AB000E7CF877FE5CF0E94FD098091160288230A
:104AC000E1F08BEA96E00E949D058111A9CA8091D0
:104AD000960690919706019769F490E080E00E9415
:104AE0003C0A0E94FD098BEA96E00E949D058823FE
:104AF000D1F396CA81E090E0F2CF81EB96E00E947C
:104B00009D05811105C081E090E00E943C0A88CAA1
:104B100090E080E0FACF60E08BEA96E00E94A70286
:104B200060E081EB96E00C94A702E199FECF9FBB79
:104B30008EBBE09A99278DB30895262FE199FECF79
:104B40009FBB8EBB2DBB0FB6F894E29AE19A0FBEC5
:104B50000196089597FB072E16F4009407D077FD71
:104B600009D00E94C72507FC05D03EF49095819599
:104B70009F4F0895709561957F4F0895EE0FFF1F29
:104B80000024001C0BBE0790F691E02D0994AA1B8F
:104B9000BB1B51E107C0AA1FBB1FA617B70710F028
:104BA000A61BB70B881F991F5A95A9F7809590955A
:104BB000BC01CD0108950F931F93CF93DF93869F80
:104BC0008001879F100D969F100D1124C8010E942F
:104BD000F725EC01009729F0A80170E060E00E9441
:104BE0002927CE01DF91CF911F910F9108950F9347
:104BF0001F93CF93DF938230910510F482E090E011
:104C0000E0911807F091190730E020E0B0E0A0E053
:104C1000309799F42115310509F44AC0281B390B46
:104C200024303105D8F58A819B816115710589F1A0
:104C3000FB0193838283FE0111C040815181028177
:104C4000138148175907E0F04817590799F410974E
:104C500061F012960C93129713961C933296CF0123
:104C6000DF91CF911F910F91089500931807109332
:104C70001907F4CF2115310551F04217530738F0C9
:104C8000A901DB019A01BD01DF01F801C1CFEF01EC
:104C9000F9CF9093190780931807CDCFFE01E20F4B
:104CA000F31F819391932250310939832883D7CF01
:104CB0002091160730911707232B41F42091120100
:104CC000309113013093170720931607209110019C
:104CD000309111012115310541F42DB73EB74091B6
:104CE000140150911501241B350BE0911607F0912A
:104CF0001707E217F307A0F42E1B3F0B28173907FD
:104D000078F0AC014E5F5F4F2417350748F04E0F27
:104D10005F1F5093170740931607819391939FCF7E
:104D2000F0E0E0E09CCFCF93DF930097E9F0FC0147
:104D3000329713821282A0911807B0911907ED01E2
:104D400030E020E01097A1F420813181820F931F81
:104D500020911607309117072817390709F061C00D
:104D6000F0931707E0931607DF91CF910895EA01BA
:104D7000CE17DF07E8F54A815B819E014115510599
:104D8000B1F7E901FB83EA8349915991C40FD51F1B
:104D9000EC17FD0761F4808191810296840F951FC5
:104DA000E90199838883828193819B838A83F0E0E0
:104DB000E0E012968D919C9113970097B9F52D9193
:104DC0003C911197CD010296820F931F20911607F7
:104DD000309117072817390739F6309751F5109297
:104DE000190710921807B0931707A0931607BCCFA6
:104DF000D383C28340815181840F951FC817D9077F
:104E000061F44E5F5F4F88819981480F591F51832C
:104E100040838A819B81938382832115310509F028
:104E2000B0CFF0931907E09318079ECFFD01DC0186
:104E3000C0CF13821282D7CFFB01DC0104C08D9159
:104E40000190801921F441505040C8F7881B990BFC
:104E50000895DC0101C06D9341505040E0F7089582
:104E600011E0CFE5D1E004C0FE010E94BE252196ED
:0A4E7000C036D107C9F7F894FFCF50
:104E7A006C020000000000000000000000000000BA
:104E8A0000001A0780001D00021D002211070C07EE
:104E9A0007070207FD06F806F306EE06E906E4062A
:104EAA00DF06DA06D506D006CB06C606C106BC065C
:104EBA00B70600000000AA067506D9064B066E065C
:044ECA005B064C0631
:00000001FF
