:100000000C943D010C944E110C9423110C94F81097
:100010000C94CD100C94A2100C9477100C944C10EE
:100020000C9421100C9467010C9467010C946701E7
:100030000C9499120C9467010C9467010C9467015D
:100040000C94D70F0C9467010C94A10F0C94770FAC
:100050000C9467010C9467010C9467010C94670180
:100060000C9467010C9467010C9467010C94670170
:100070000C9467010C9467010C9467010C94670160
:100080000C9467010C9479110C9467013C030000F7
:10009000000000080D0000000000000101C0800009
:1000A000000000000000000000060000000000004A
:1000B0000000000000000000000000000000000040
:1000C000000000000000FF3F0000000000000000F2
:1000D0000000000000000000000000000000000020
:1000E0000000000000000000000000000000000010
:1000F0000000000000000000000000000000800080
:1001000000008000020080000100800003008000E9
:1001100003008000030080000300800003008000D3
:10012000030080000480FF000481FF00FF00000046
:10013000FF000000FF000000FF000000FF000000C3
:10014000FF000000FF000000FF000000FF000000B3
:10015000FF000000FF000000FF000000FF000000A3
:10016000FF000000FF000000FF000000FF00000093
:10017000FF000000FF000000FF000000FF00000083
:10018000FF000000FF000000FF000000FF00000073
:10019000FF000000FF000000FF0000000000000062
:1001A000000000000000000000000000000000004F
:1001B0000000000000000000000000000A0B0C001E
:1001C000000000000001040506000000000000001F
:1001D000000000000000000000000000000000001F
:1001E000000000000000000000000000000000000F
:1001F0003B0038003500320023006200650000003B
:100200003A00370034003100220061006400050527
:1002100005050505050502020202020202020707A2
:10022000040404040404040407070303030303038E
:10023000030307010101010101010106060606068B
:10024000060606010204081020408001020408107E
:1002500020408008100102040810204080010201A3
:10026000020408102040800480402010080402018D
:1002700001020408102040801D1311241FBECFEF7F
:10028000D0E1DEBFCDBF11E0A0E0B1E0EAE6FDE2E3
:1002900000E00BBF02C007900D92A034B107D9F760
:1002A00026E0A0E4B1E001C01D92AB3FB207E1F748
:1002B00011E0CDE3D1E004C02197FE010E94621558
:1002C000CC33D107C9F70E94AC140C94B3160C942C
:1002D000000090E0FC01ED5BFD4F2491825F9D4F9B
:1002E000FC018491882399F090E0880F991FFC010C
:1002F000E250FE4FA591B491FC01E251FE4F859171
:1003000094918FB7F894EC91E22BEC938FBF089502
:100310009C016115710529F06130710571F080E073
:1003200008958091A9068217130681F09091AC067A
:1003300081E09217130699F7089581E04091AA068B
:100340005091AB064217530751F7F6CF81E0F4CF37
:10035000089581E08093D10108952091A702213072
:1003600099F49C012458334028323105C8F0813873
:1003700023E09207A9F09C012C5F334081E02530F7
:10038000310578F080E00895223021F49C012C5A48
:100390003340EACF233059F79C01245D3340E4CF4A
:1003A00081E00895FC01538D448D252F30E0842F8A
:1003B00090E0821B930B541710F0CF96089501978D
:1003C0000895FC01918D828D981761F0A28DAE0F7A
:1003D000BF2FB11D5D968C91928D9F5F9F73928F01
:1003E00090E008958FEF9FEF0895FC01918D828D2D
:1003F000981731F0828DE80FF11D858D90E00895FA
:100400008FEF9FEF0895FC01918D228D892F90E051
:10041000805C9F4F821B91098F7399270895FC017F
:10042000A48DA80FB92FB11DA35ABF4F2C91848D55
:1004300090E001968F739927848FA689B7892C93B2
:10044000A089B1898C9180648C93938D848D98134D
:1004500006C00288F389E02D80818F7D8083089516
:10046000EF92FF920F931F93CF93DF93EC0181E004
:10047000888F9B8D8C8D981316C0E889F9898081AF
:1004800085FF11C0EE89FF896083E889F989808141
:100490008064808381E090E0DF91CF911F910F9184
:1004A000FF90EF900895F62E0B8D10E00F5F1F4F19
:1004B0000F731127E02E8C8D8E110CC00FB607FC28
:1004C000FACFE889F989808185FFF5CFCE010E94B6
:1004D0000F02F1CFEB8DEC0FFD2FF11DE35AFF4F13
:1004E000F0820B8FEA89FB8980818062D2CFCF9323
:1004F000DF93EC01888D8823B9F0AA89BB89E8894C
:10050000F9898C9185FD03C0808186FD0DC00FB6F1
:1005100007FCF7CF8C9185FFF2CF808185FFEDCF6F
:10052000CE010E940F02E9CFDF91CF9108958AE0BA
:1005300092E00E94030221E0892B09F420E0822F3F
:10054000089580E090E0892B29F00E9497028111A4
:100550000E94000080E090E0892B49F080E090E06C
:10056000892B29F00E94000081110C94000008954D
:10057000AF92BF92CF92DF92EF92FF920F931F93B1
:10058000CF93DF936C017B018B01040F151FEB01EF
:100590005E01AE18BF08C017D10759F06991D601A6
:1005A000ED91FC910190F081E02DC6010995892B18
:1005B00079F7C501DF91CF911F910F91FF90EF90D7
:1005C000DF90CF90BF90AF90089590E0FC01E7548A
:1005D000FE4F2491FC01ED5BFD4F3491825F9D4FF6
:1005E000FC018491882359F12223C1F021502C3041
:1005F000A8F4E22FF0E0E150FD4F0C9462153803AF
:1006000038030E030B032003230326030E030E03FC
:100610002A03300334039FB59F779FBDE82FF0E096
:10062000EE0FFF1FE251FE4FA591B4918FB7F894E2
:10063000EC91611121C030953E233C938FBF08950A
:100640009FB59F7DEACF9FB5977FE7CF95B59F7DFB
:1006500095BDE4CF90918B009F7790938B00DECF78
:1006600090918B009F7DF9CF90918B00977FF5CF74
:1006700093B79F7D93BFD2CF3E2BDFCF3FB7F89488
:100680008091B0019091B101A091B201B091B301FC
:1006900022B706B600FE05C02F3F19F00196A11D36
:1006A000B11D3FBFBA2FA92F982F8827BC01CD01BC
:1006B000620F711D811D911D42E0660F771F881F1B
:1006C000991F4A95D1F708958F929F92AF92BF924A
:1006D000CF92DF92EF92FF924B015C010E943E03AA
:1006E0006B017C010E943E036C197D098E099F09F4
:1006F000683E734081059105A8F321E0821A9108B4
:10070000A108B10888EEC80E83E0D81EE11CF11CD8
:1007100081149104A104B10429F7FF90EF90DF90B8
:10072000CF90BF90AF909F908F900895CF93DF931D
:10073000C7EAD2E0EC81FD8180819B81892B808397
:10074000EE81FF8190818B8180958923808361E098
:1007500070E080E090E00E946403EE81FF81808180
:100760009B81892B8083AC81BD81EE81FF819C912F
:100770008B81809598239C93908189238083DF913E
:10078000CF91089561E087E10E94E50264E070E0A6
:1007900080E090E00E94640360E087E10C94E50251
:1007A0000C94C203E82FF0E0DF01AA0FBB1FA0509A
:1007B000BF4F11967C936E938830A8F4EE51FC4F96
:1007C0000C946215EA03F40301040F041D042404CD
:1007D0002F043B0480916A008C7F482B40936A0071
:1007E00089B7816089BF089580916A00837F440F33
:1007F000551F440F551F482B40936A0089B78260EC
:10080000F1CF80916A008F7C74E0440F551F7A9578
:10081000E1F7482B40936A0089B78460E3CF809169
:100820006A008F7366E0440F551F6A95E1F7482B05
:1008300040936A0089B78860D5CF8AB78C7F482BF0
:100840004ABF89B78061CECF8AB7837F440F551FD7
:10085000440F551F482B4ABF89B78062C3CF8AB760
:100860008F7C24E0440F551F2A95E1F7482B4ABF9F
:1008700089B78064B7CF8AB78F7396E0440F551F4E
:100880009A95E1F7482B4ABF89B78068ABCF88308B
:1008900010F40C94D20308950E943E03209142016B
:1008A00030914301FB01E21BF30B2091EF013091EA
:1008B000F001E217F30708F438C12091F1013091FB
:1008C000F20170934301609342014091F301509112
:1008D000F4014130510599F148F04230510509F4D5
:1008E000B9C04330510509F4EFC00895E217F3078A
:1008F00008F0D4C08091F6018F5F8093F6018B30B1
:1009000008F413C181E090E09093F4018093F30127
:1009100041E050E06CE474E08091E9010E944704FA
:100920001092410182E590E09093F2018093F101F1
:1009300083E290E09093F0018093EF01089540915D
:1009400041014130A9F038F0433009F449C0443046
:1009500009F47CC00895E217F30730F491E0909316
:100960004101E0934001089584E08093410108959E
:10097000E217F30798F5109241019091F6019F5FFD
:100980009093F6018E2FEE0F990B20914001821B60
:10099000910927FD939597FF03C091958195910942
:1009A00049970CF4C2C01092F4011092F30182E94D
:1009B00090E09093F2018093F10182E590E09093B2
:1009C000F0018093EF011092F6014091D70150E0C1
:1009D0006CE474E08091E9010C94470483E0C5CF96
:1009E000E217F30700F38091D701833061F582E0CD
:1009F0008093D70182E090E09093F4018093F3011B
:100A000082E990E09093F2018093F10182E590E019
:100A10009093F0018093EF011092F8011092FA0187
:100A20001092FB011092FC011092FD011092FE0148
:100A30001092FF018091F6018093F9011092F60166
:100A40001092F701C2CF4093D701D4CFE217F3073A
:100A500088F6A9CF5091F6015F5F5093F60140915F
:100A6000F701440FE217F307E0F04093F701583025
:100A700009F05BC0E091F801E630A9F41092F401AE
:100A80001092F30182E990E09093F2018093F101DA
:100A900082E590E09093F0018093EF011092F601CF
:100AA00008954160E2CF83E090E09093F401809359
:100AB000F30181E08E0F8093F801F0E0ED50FE4FDE
:100AC0008091F70187830895E217F307F8F41092F5
:100AD000F4011092F3011092F60182E990E09093F4
:100AE000F2018093F10182E590E09093F001809310
:100AF000EF0188E0E8EFF1E0A0E0B2E001900D92B4
:100B00008A95E1F781E08093F50108958091F801DD
:100B1000863009F4B3CF82E090E09093F4018093A3
:100B2000F3011092F6011092F701089585ED80937C
:100B300074008091740084FDFCCF109289010895A7
:100B400020916501260F3327331F21323105ECF444
:100B500020918901FC0190E080E0243069F082E07E
:100B60000895A09165012191AC014B5B5E4FA40FEC
:100B7000B52FB11D2C930196861798F380916501CE
:100B8000680F6093650180E0089581E008950895FD
:100B90008FEF9FEF08958FEF9FEF089580914401AD
:100BA00090E09195819591090895CF93DF93CB01C2
:100BB000EA01642F0E94A005CE01DF91CF91089534
:100BC000CF93DF931F92CDB7DEB7698361E0CE018B
:100BD00001960E94A00581E090E00F90DF91CF91F7
:100BE000089590E080E00895DB0190E0FC01ED5B6A
:100BF000FD4FE4911196EC931197825F9D4FFC019C
:100C000084918C9390E0880F991FFC01E250FE4F75
:100C10002591349113963C932E931297FC01E25147
:100C2000FE4F8591949115969C938E9314970895F9
:100C300080E090E0892B29F08091EE0183FD0C94F7
:100C400000000895E82FF0E0EC54FE4F6083089513
:100C50000F931F93CF93DF93FC018281813089F042
:100C600040F0823009F479C0DF91CF911F910F914C
:100C7000089561E08081DF91CF911F910F910C94D5
:100C8000E5020181C02FD0E01081812F0E9469010F
:100C9000209719F460E0812FEECFCF3FD10511F4FA
:100CA00061E0F9CFE12FF0E0E754FE4FE491E1502D
:100CB000EC3008F04DC0F0E0E05AF94F0C946215AA
:100CC0006C066C06A806710677067D068506A806E2
:100CD000A8068A0694069E0683B7806283BF01BF7A
:100CE000C3CF8FB580688FBDDBBDCABDBDCF8FB50B
:100CF00080628FBDD9BDC8BDB7CF8FB588608FBDAD
:100D0000D0937900C0937800AFCF85B5806285BD60
:100D100003BDAACF80918B00806880938B00D09315
:100D20008700C0938600A0CF80918B008062809363
:100D30008B00D0938500C093840096CF80918B0068
:100D4000886080938B00D0938300C09382008CCF07
:100D5000C038D1050CF0A4CF9DCF8181E381F0E0B4
:100D6000EC54FE4F808380CF0F931F93CF93DF937C
:100D7000D62F8C01C0E0CD1741F0F80181919191FF
:100D80008F010E942806CF5FF6CFDF91CF911F9190
:100D90000F9108958F929F92AF92BF92CF92DF9260
:100DA000EF92FF920F931F93CF930E943E03AB01EC
:100DB000BC018091C0029091C102A091C202B09189
:100DC000C3028A019B01081B190B2A0B3B0B809164
:100DD000C802882309F47FC08091CA029091C90299
:100DE000E92FEE0FFF0BA82F082E000CBB0BC3E65C
:100DF0008C02E00DF11D1124E254FD4F178B068B80
:100E0000053F11402105310508F054C09F5F9093C4
:100E1000C9029091C9029332C9F593E69A9F900155
:100E20009B9F300D112422543D4FF901E45AFF4F8E
:100E3000C090C402D090C502E090C602F090C702F4
:100E40004A015B018C189D08AE08BF08750164015A
:100E5000C082D182E282F38229593F4FE1E0F0E083
:100E6000D901ED93FC938F5F8A3094F58093CA0289
:100E7000E091CA02B3E6EB02F0011124EB5DFC4FF6
:100E8000118210821092C8021092C9024093C002CF
:100E90005093C1026093C2027093C302CF911F911D
:100EA0000F91FF90EF90DF90CF90BF90AF909F9009
:100EB0008F9008951092C90291E09093C8024093D8
:100EC000C4025093C5026093C6027093C702A1CFBB
:100ED0001092CA02CDCF053F114021053105B0F275
:100EE00081E08093C8024093C4025093C50260938E
:100EF000C6027093C702CACF1F93CF93DF93C6E198
:100F0000D1E01FEF89919991FC0111830E9428067D
:100F1000F1E0CE32DF07B1F7DF91CF911F91089555
:100F2000E82FF0E0EC54FE4F60830895CF93FC016E
:100F30008281813051F020F0823071F0CF9108959C
:100F400060E08081CF910C94E502C0818C2F0E94DB
:100F5000690160E08C2FF6CFE381F0E0EC54FE4FA6
:100F60001082ECCF8093D201882321F082EF96E0AB
:100F70000C94280682EF96E00C949607CF93C82F26
:100F80008091DA018C1731F081E0C11101C080E05D
:100F90000E94B207C093DA01CC2311F12FB7F89465
:100FA0008091C1019091C201A091C301B091C4018F
:100FB0002FBF482F392F2A2F8B2F4093DB013093DF
:100FC000DC012093DD018093DE018091DA018C1732
:100FD00061F081E0C11101C080E0CF910C94B207B3
:100FE00040E030E020E080E0E8CFCF9108950E941B
:100FF000BE07E8EDF1E081E087831086E1EEF1E0E5
:1010000088E0DF011D928A95E9F70895EF92FF923B
:101010000F931F93CF93DF938C01FC01C581D68181
:10102000209751F0E480F12CEF1431F089919991DF
:101030000E949607F394F8CFF801C085D1852097D8
:1010400051F0078110E0011731F0899199910E94C8
:1010500096071F5FF8CFDF91CF911F910F91FF90FF
:10106000EF9008950F931F93CF938C01C42F0E948C
:1010700088018823E1F18091AC06482F50E0C0310F
:1010800028F5882319F12C2F30E08091B906909132
:10109000BA060C2E02C0969587950A94E2F780FF57
:1010A00015C00417150719F58091B4069091B5067F
:1010B0000097E9F0220F331F820F931FFC018081FC
:1010C0009181CF911F910F910C9406080417150779
:1010D00071F08091B4069091B506009741F04C2FC5
:1010E00050E0440F551F480F591FFA01E8CFCF9128
:1010F0001F910F910895CF938091B7069091B806F4
:10110000892BA1F1C0E08091B306C81778F58C2F28
:1011100086958695869590E0E091B706F091B806A1
:10112000E80FF91F208130E04C2F50E063E0880F7A
:10113000991F6A95E1F7BA01681B790B02C03595D2
:1011400027956A95E2F720FF0FC08091B406909131
:10115000B506009749F0440F551F840F951FFC01F9
:10116000808191810E940608CF5FCDCF1092B60694
:10117000CF9108950F931F93CF93DF93EC018B8151
:10118000882379F08B0189819A818617970729F046
:10119000CE010E9406081A83098389819A810197EA
:1011A00031F48D819E81009769F06C8105C088853E
:1011B0009985009739F06F81DF91CF911F910F9141
:1011C0000C94B406DF91CF911F910F9108950F9366
:1011D0001F93CF938C01C42F0E948801882309F4A8
:1011E00044C08091AC06482F50E0C03148F58823B8
:1011F00039F12C2F30E08091B9069091BA060C2E6F
:1012000002C0969587950A94E2F780FF19C00417EB
:10121000150759F58091B4069091B506009729F10C
:101220006091B0067091B106220F331F820F931F99
:10123000FC0180819181CF911F910F910C94BA088C
:101240000417150791F08091B4069091B5060097A8
:1012500061F06091AE067091AF064C2F50E0440FE4
:10126000551F480F591FFA01E4CFCF911F910F91DD
:101270000895CF93C0E08091B306C81798F4809189
:10128000B4069091B506009759F02C2F30E0220F4C
:10129000331F820F931FFC01808191810E940608F9
:1012A000CF5FE9CF8091B7069091B806892BC1F145
:1012B000C0E08091B306C81798F58C2F8695869567
:1012C000869590E0E091B706F091B806E80FF91F17
:1012D000208130E04C2F50E063E0880F991F6A9521
:1012E000E1F7BA01681B790B02C0359527956A951D
:1012F000E2F720FF13C08091B4069091B5060097E5
:1013000069F06091AE067091AF06440F551F840FCF
:10131000951FFC01808191810E94BA08CF5FC9CFDF
:1013200081E08093B606CF9108950C944D15CF932C
:10133000863823E0920719F130F481389340D1F0D8
:101340008FEFCF910895873823E09207D9F088383E
:101350009340B1F786E893E00E949509C82F87E88B
:1013600093E00E94950990E02FEFC29F800D911DA0
:10137000112402C081E893E0CF910C94950986E88E
:1013800093E0FACF87E893E0F7CFDF92EF92FF92F6
:101390000F931F93CF93DF938C017B01D42EE90130
:1013A0000E9488018111D092B2068DE190E00E94E6
:1013B0009509D82EB701C8010E9488018823B1F091
:1013C0008091AC068017110629F58091B0069091A6
:1013D000B106C817D90751F08091AD068823A9F04E
:1013E000219761F41092B1061092B006DF91CF916F
:1013F0001F910F91FF90EF90DF90089581E090E0B2
:101400009093B1068093B006F1CFD093B106C0930C
:10141000B006ECCF8091AE069091AF06C817D90701
:1014200029F3D0FE0EC0219729F41092AF06109236
:10143000AE06DCCF81E090E09093AF068093AE06DD
:10144000D5CFD093AF06C093AE06D0CF0F931F93E6
:10145000CF93C82F81E090E00E9495090FE710E03C
:1014600021E030E04C2F70E060E090E00E94C50980
:10147000CF911F910F9108950F931F93CF936130D8
:10148000710529F4CF911F910F910C94260AC82F52
:1014900081E090E00E9495090FE710E030E020E045
:1014A0004C2F70E060E090E00E94C509CF911F9141
:1014B0000F9108951F93CF93DF93EC018091D20198
:1014C000882359F08FE090E00E949509182F80E161
:1014D00090E00E949509181306C0CE01DF91CF91CC
:1014E0001F910C94950982EF96E00E9496070FB623
:1014F000F894A89581B5886181BD11BC0FBEFFCF5E
:101500000C945A0ACF93DF932091EB013091EC01B8
:101510002F3F320721F0C901DF91CF9108958091CB
:10152000EE0187FF2BC086FF0FC089E090E00E948C
:10153000800AC82F81E090E00E94800A9C2F90933F
:10154000EC018093EB0115C089E090E00E94800AD5
:10155000C82F81E090E00E94800A90E4C99F90012A
:101560001124207C31708F73282B3093EC01209351
:10157000EB018091EB019091EC01CECF85FF0CC087
:1015800081E190E00E94800AC82F82E190E00E94F1
:10159000800AC05CDD0BD2CF81E090E00E94800A1F
:1015A00090E0CDCFFF920F931F93CF93DF93EC0189
:1015B0008B01F22E4330510509F471C068F44130BB
:1015C0005105E9F04230510509F44BC0DF91CF914C
:1015D0001F910F91FF9008954530510509F4C7C040
:1015E00008F47BC04630510589F740E024FF26C04F
:1015F000DF91CF911F910F91FF900C94E70840E08D
:1016000024FF23C00E94E70841E0B801CE01F0FEAC
:101610001FC00E94E70842E0B801CE01F1FE1BC0E6
:101620000E94E70843E0B801CE01F2FE17C00E9415
:10163000E70844E0B801CE01F3FCDACFDF91CF91A7
:101640001F910F91FF900C9432080E943208DCCF5A
:101650000E943208E0CF0E943208E4CF0E94320894
:10166000E8CF45E020FF12C00E94E70846E0B8013D
:10167000CE01F1FE0EC00E94E70847E0B801CE019E
:10168000F2FE0AC00E94E70848E0D4CF0E94320868
:10169000EDCF0E943208F1CF0E943208F5CF49E029
:1016A00020FF12C00E94E7084AE0B801CE01F1FE17
:1016B0000EC00E94E7084BE0B801CE01F2FE0AC05E
:1016C0000E94E7084CE0B6CF0E943208EDCF0E949E
:1016D0003208F1CF0E943208F5CF4DE020FF32C032
:1016E0000E94E7084EE0B801CE01F1FE2EC00E9434
:1016F000E7084FE0B801CE01F2FE2AC00E94E708D9
:1017000040E1B801CE01F3FE26C00E94E70841E1A6
:10171000B801CE01F4FE22C00E94E70842E1B80100
:10172000CE01F5FE1EC00E94E70843E1B801CE01DC
:10173000F6FE1AC00E94E70844E1B801CE01F7FEA8
:101740007DCF56CF0E943208CDCF0E943208D1CF34
:101750000E943208D5CF0E943208D9CF0E943208A9
:10176000DDCF0E943208E1CF0E943208E5CF45E18B
:1017700020FF2EC00E94E70846E1B801CE01F1FE2D
:101780002AC00E94E70847E1B801CE01F2FE26C058
:101790000E94E70848E1B801CE01F3FE22C00E9492
:1017A000E70849E1B801CE01F4FE1EC00E94E70837
:1017B0004AE1B801CE01F5FE1AC00E94E7084BE1EC
:1017C000B801CE01F6FE16C00E94E7084CE1B5CF85
:1017D0000E943208D1CF0E943208D5CF0E94320831
:1017E000D9CF0E943208DDCF0E943208E1CF0E949B
:1017F0003208E5CF0E943208E9CFCF93C82F81E0AD
:1018000090E00E9495092C2F42E050E070E060E0EB
:1018100090E00E94D20A81E090E00E9495092C2F6E
:1018200030E094E0359527959A95E1F743E050E054
:1018300070E060E090E0CF910C94D20ACF938230B8
:10184000910511F1C62F8330910520F4019779F0AD
:10185000CF91089583309105D9F00497C9F781E0BD
:1018600090E00E9495092C2F45E050E007C081E0F0
:1018700090E00E9495092C2F41E050E070E060E07C
:1018800090E0CF910C94D20A862FCF910C94FD0B4F
:1018900081E090E00E9495092C2F44E050E0EECFCB
:1018A0001F93CF93DF93EC01162F0E944D1518174D
:1018B00021F0612FCE010E945515CE01DF91CF910D
:1018C0001F910C949509CF93DF93863823E09207FC
:1018D00039F138F481389340E9F08FEFDF91CF91FF
:1018E0000895873823E09207F1F088389340A9F7EC
:1018F000C62F86E893E00E949509D82F87E893E0E9
:101900000E94950990E06C2F2FEFD29F800D911DC2
:10191000112402C081E893E0DF91CF910C94500C28
:1019200086E893E0F9CF87E893E0F6CF1F93CF9353
:10193000DF930FB6F894A89581B5886181BD11BC7D
:101940000FBED0E0C0E0FE01E457FF4F1491CE017E
:101950000E944D15181721F0612FCE010E945515D8
:101960002196CD3281E0D80771F781E893E00E949B
:101970004D15813029F061E081E893E00E94551512
:101980000E947C0788E19BE00FB6F894A89581BD82
:101990000FBE91BDDF91CF911F9108951F93CF93FB
:1019A000DF93EC01162F089779F4662319F10E9452
:1019B000960C80E090E0892BB9F0612FCE01DF9189
:1019C000CF911F910C94000080E090E0892BA9F743
:1019D00081E0C11590E1D90708F080E0111105C040
:1019E000DF91CF911F91089581E027972297C0F74B
:1019F00080E0F6CF80E090E0892BF9F681E0F0CF2F
:101A00000F931F93CF93DF932091D201222329F0CC
:101A10008F30910541F48FE090E0DF91CF911F91DD
:101A20000F910C94500C162FEC018FE090E00E9467
:101A30009509082F80E190E00E94950908130CC0D9
:101A4000C730D10529F0C830D10519F4183029F074
:101A5000FFCF612FCE01E1CFFFCF0E94960C88E02F
:101A6000DF91CF911F910F9108958331910588F4F3
:101A70008131910530F48130910519F0893091055B
:101A800031F42FEF3FEF3093EC012093EB010C94F6
:101A9000000D8D319105D9F7677F6093EE0120919C
:101AA000D8012F73362F307C232B2093D801E9CF18
:101AB000CF93DF9389B78F7B89BF88EA91E09093BA
:101AC0000D0180930C01E3EFF1E085E1DF011D9250
:101AD0008A95E9F782E990E09093F2018093F10111
:101AE00082E590E09093F0018093EF01C8EDD1E0A2
:101AF00081E0888319828FEF9FEF9C8B8B8B1D8AEF
:101B000083E08093D70143E050E06CE474E089897E
:101B10000E9447048DE190E00E94800A682F6F7355
:101B20008DE190E00E94350D8E8B6AE087E090E0B9
:101B30000E94350D6DE088E090E00E94350D80E058
:101B40000E94F7071092090210920802DF91CF91CC
:101B500008950F931F930E943E030091D3011091AB
:101B6000D4012091D5013091D601601B710B820BFD
:101B7000930B613F79448240910508F456C08091EF
:101B8000D20181110BC0809108029091090281302D
:101B90009105B1F188F0029709F444C00E943E0318
:101BA0006093D3017093D4018093D5019093D601B3
:101BB00081E01F910F91089580E390E00E945A0AFE
:101BC00080FF0EC041E050E06AEC76E086E00E94C3
:101BD000D20381E090E09093090280930802DECF67
:101BE0008DE190E00E945A0A82FFD8CF41E050E098
:101BF00069EA71E086E00E94D20382E090E0EBCFD8
:101C000089B78F7B89BF88EA91E090930D0180931B
:101C10000C018DE190E00E945A0A82FDE7CF0E94FC
:101C2000580DBCCF1092D101FACF80E0C2CFBF9245
:101C3000CF92DF92EF92FF920F931F93CF93DF9398
:101C40008B01B42E690182FF23C083FF17C061E0BE
:101C5000C8010E94CE0C8823D9F16B2DC8010E94C7
:101C6000350D8B1135C0F601DF91CF911F910F918A
:101C7000FF90EF90DF90CF90BF90099460E0C80193
:101C80000E94CE0C882321F1C8010E94800AE9CF6E
:101C9000842F8770C1E0D0E07E0101C0EE0C8A95F0
:101CA000EAF7D42FD870CB010E94800AC82FB4FE67
:101CB0001CC061E0C8010E94CE0C882349F0DD23DE
:101CC00089F0CE296C2FC8010E94350D8C1759F26E
:101CD000DF91CF911F910F91FF90EF90DF90CF9008
:101CE000BF900895E094CE21EDCF60E0C8010E943E
:101CF000CE0C882369F3CE21DD2319F0C111B3CFB7
:101D0000E7CFCC2309F4AFCFE3CFCF92DF92EF92AE
:101D1000FF920F931F93CF93DF937C016B01C42F2E
:101D2000122FD42FD07E8091D80187FF2CC0D03EB7
:101D3000C1F58091D9018823A1F190E00E94800A29
:101D4000D82F8091D90190E001960E94800A982FA7
:101D50008D2FE816F90629F56C2F70E0762F66278F
:101D600066277370612B6F5F7F4F28E136E0402F4D
:101D70008C2FDF91CF911F910F91FF90EF90DF900B
:101D8000CF900C94170E80FD32C0D03609F464C099
:101D900088F4D03209F447C0D03409F45DC0DD23A3
:101DA00079F1DF91CF911F910F91FF90EF90DF902C
:101DB000CF900895D03A09F483C090F42C2F2F715E
:101DC00041E050E0D03869F7B601C701DF91CF910B
:101DD0001F910F91FF90EF90DF90CF900C94D20A5B
:101DE000D03C09F476C0D03E09F4B6CFDACF0E94D9
:101DF000820A8E159F0549F2E114F10431F2D1CF28
:101E00008C2F8E7071F680E090E0892B51F28C2F30
:101E10008170DF91CF911F910F91FF90EF90DF9034
:101E2000CF900C940000CF71CF3109F0BACF412F81
:101E30004F7771F0413071F0111F1127111F212FC1
:101E400030E00FE710E0B601C7010E94C509A9CF35
:101E500041E0F2CF40E0F0CF2C2F30E08C2F8F719B
:101E6000813029F030F0803121F08131F9F440E007
:101E700001C041E025FB222720F90DE110E030E010
:101E8000B601C7010E94C50980E090E0892B09F4E2
:101E900088CF4C2FB601C701DF91CF911F910F91D1
:101EA000FF90EF90DF90CF900C940000C901880F55
:101EB000991F8E71C4FB442740F9482B4250DACF5A
:101EC0002C2F2F7043E050E0C4FF7ECF42E050E063
:101ED0007BCFCF71CE3139F0CF3109F062CF212FD6
:101EE00045E050E071CF212F44E050E06DCF1F92CC
:101EF0000F920FB60F9211240BB60F922F933F93B0
:101F00004F935F936F937F938F939F93AF93BF9301
:101F1000EF93FF938AE092E00E940F02FF91EF910E
:101F2000BF91AF919F918F917F916F915F914F91F1
:101F30003F912F910F900BBE0F900FBE0F901F90EF
:101F400018951F920F920FB60F9211240BB60F9295
:101F50002F938F939F93EF93FF93E0911A02F09149
:101F60001B028081E0912002F091210282FD1DC0C0
:101F70009081809123028F5F8F73209124028217BA
:101F800041F0E0912302F0E0E65FFD4F958F8093F2
:101F90002302FF91EF919F918F912F910F900BBE94
:101FA0000F900FBE0F901F9018958081F2CF1F9257
:101FB0000F920FB60F9211242F933F938F939F93FD
:101FC000AF93BF938091C1019091C201A091C301D1
:101FD000B091C4013091AF0123E0230F2D3768F198
:101FE00026E8230F0296A11DB11D2093AF01809317
:101FF000C1019093C201A093C301B093C401809129
:10200000B0019091B101A091B201B091B3010196DC
:10201000A11DB11D8093B0019093B101A093B201B5
:10202000B093B301BF91AF919F918F913F912F9149
:102030000F900FBE0F901F9018950196A11DB11D16
:10204000D4CF1F920F920FB60F9211240BB60F929E
:102050002F933F934F935F936F937F938F939F93B0
:10206000AF93BF93EF93FF93E0910E01F0910F01B7
:102070000995FF91EF91BF91AF919F918F917F91C2
:102080006F915F914F913F912F910F900BBE0F90E9
:102090000FBE0F901F9018951F920F920FB60F92C0
:1020A00011240BB60F922F933F934F935F936F932F
:1020B0007F938F939F93AF93BF93EF93FF93E091A1
:1020C0000C01F0910D010995FF91EF91BF91AF9136
:1020D0009F918F917F916F915F914F913F912F9140
:1020E0000F900BBE0F900FBE0F901F9018951F9270
:1020F0000F920FB60F9211240BB60F922F933F93AE
:102100004F935F936F937F938F939F93AF93BF93FF
:10211000EF93FF93E0910A01F0910B010995FF9174
:10212000EF91BF91AF919F918F917F916F915F914F
:102130004F913F912F910F900BBE0F900FBE0F90BC
:102140001F9018951F920F920FB60F9211240BB685
:102150000F922F933F934F935F936F937F938F9340
:102160009F93AF93BF93EF93FF93E0910801F0919A
:1021700009010995FF91EF91BF91AF919F918F91C7
:102180007F916F915F914F913F912F910F900BBE77
:102190000F900FBE0F901F9018951F920F920FB6C1
:1021A0000F9211240BB60F922F933F934F935F938F
:1021B0006F937F938F939F93AF93BF93EF93FF930F
:1021C000E0910601F09107010995FF91EF91BF9110
:1021D000AF919F918F917F916F915F914F913F91BF
:1021E0002F910F900BBE0F900FBE0F901F90189560
:1021F0001F920F920FB60F9211240BB60F922F93CE
:102200003F934F935F936F937F938F939F93AF937E
:10221000BF93EF93FF93E0910401F09105010995BD
:10222000FF91EF91BF91AF919F918F917F916F91AE
:102230005F914F913F912F910F900BBE0F900FBE6A
:102240000F901F9018951F920F920FB60F921124A6
:102250000BB60F922F933F934F935F936F937F93A0
:102260008F939F93AF93BF93EF93FF93E0910201FE
:10227000F09103010995FF91EF91BF91AF919F916B
:102280008F917F916F915F914F913F912F910F901F
:102290000BBE0F900FBE0F901F9018951F920F92BC
:1022A0000FB60F9211240BB60F922F933F934F93BB
:1022B0005F936F937F938F939F93AF93BF93EF93AE
:1022C000FF93E0910001F09101010995FF91EF91D9
:1022D000BF91AF919F918F917F916F915F914F913E
:1022E0003F912F910F900BBE0F900FBE0F901F903C
:1022F00018951F920F920FB60F9211240BB60F92E2
:102300002F933F934F935F936F937F938F939F93FD
:10231000AF93BF93EF93FF9380917100887F8036D6
:1023200009F44DC008F040C0883209F4A7C028F570
:10233000803109F49BC0C8F4882309F4F7C08830C1
:1023400009F494C0FF91EF91BF91AF919F918F914C
:102350007F916F915F914F913F912F910F900BBEA5
:102360000F900FBE0F901F901895883109F486C00A
:10237000803241F78093880114C0803409F49BC0F7
:1023800040F48033B9F38833E9F68093880185EC13
:10239000AEC0803509F483C0883509F494C0883410
:1023A00089F60E949605CECF883909F48AC038F59F
:1023B000883729F050F4883611F0803719F683E019
:1023C000809389011092870155C0883809F479C03B
:1023D000803919F0803809F0B5CF809187018032BB
:1023E00008F06FC0E091870181E08E0F8093870134
:1023F00080917300F0E0E959FE4F80833BC0803B41
:1024000039F0D0F4803A09F477C0883A09F09ACFCD
:1024100084E0809389011092660110926501F0E0DA
:10242000E0E009958091650181110FC081E0809302
:1024300065011092450109C0803C09F4A8CF883C91
:1024400009F4A5CF883B09F07DCFE091660181E0DA
:102450008E0F80936601F0E0EB5BFE4F80818093EE
:102460007300909166018091650129C08091AE0151
:102470008093730085EC8093740064CF9091AD01DC
:102480008091AC01981758F5E091AD0181E08E0F75
:102490008093AD01F0E0E457FE4F8081E9CFE091F9
:1024A000AD0181E08E0F8093AD0180917300F0E06B
:1024B000E457FE4F80839091AD018091AC01981755
:1024C000C8F285E8D8CFE091AD0181E08E0F80930E
:1024D000AD0180917300F0E0E457FE4F808380915E
:1024E0008B0181115ECF81E080938A0184EA809321
:1024F00074001092890126CF85EC809374001092AD
:10250000890180918701803230F4E0918701F0E009
:10251000E959FE4F10826091870170E087E691E0F3
:10252000F0E0E0E00995109287010CCF109288014D
:1025300038CF1F920F920FB60F9211248F939F9353
:1025400078948091C0019091BF01891708F04DC027
:10255000909162009160909362009091BE01891702
:1025600008F047C090916500986090936500909145
:10257000BD01891708F041C0C49A9091BC01891728
:1025800008F03DC0DB9A9091BB018917D0F5DA9A2B
:102590009091BA018917B8F5D99A9091B901891724
:1025A000A0F5D89A9091B801891788F51B9A909157
:1025B000B701891770F51D9A9091B601891758F5E2
:1025C000C69A9091B501891740F51C9A9091B40173
:1025D000891728F5C59A8F5F8093C0019F918F91CD
:1025E0000F900FBE0F901F901895909162009E7FE4
:1025F000B2CF90916500977FB8CFC498BECFDB98DB
:10260000C2CFDA98C5CFD998C8CFD898CBCF1B986E
:10261000CECF1D98D1CFC698D4CF1C98D7CFC59810
:10262000DACFCF93DF93EC0188810E94690160E0EB
:102630008881DF91CF910C94E502EF92FF920F9386
:102640001F93CF93DF9310920D0210920C0288EE2D
:1026500093E0A0E0B0E080930E0290930F02A0936D
:102660001002B093110282E391E090930B028093E9
:102670000A0280E990E0909317028093160289E2A3
:1026800090E090931902809318028BE290E090936F
:102690001B0280931A028AE290E090931D028093BD
:1026A0001C0285E990E090931F0280931E028CE249
:1026B00090E09093210280932002109223021092C6
:1026C0002402109225021092260287E08093A8022D
:1026D00069EA72E088E00E94F4051092C00210924C
:1026E000C1021092C2021092C3021092C402109250
:1026F000C5021092C6021092C7021092C802109230
:10270000C9021092CA0286E090E09093BF028093C3
:10271000BE0283E190E00E949509C82F82E190E01B
:102720000E949509D82F81E190E00E949509182F09
:1027300081E090E00E94950921E030E03093AF06FF
:102740002093AE063093B1062093B0061092B206E5
:102750001092B6061092B8061092B7068093A9069A
:10276000212F205C330BC9012D2F382FC9019093E5
:10277000AB068093AA06CF77C093AC061092AD0645
:102780008DE18093B30662E070E08DE190E00E94FD
:102790006B159093B5068093B4060097C9F0EC01D1
:1027A00010E0EE24E394F12C8AE090E00E9487157B
:1027B000FC01F282E1821382148216821582178252
:1027C000118610861083899399931F5F1D3161F7DD
:1027D0008DE08093F206C2E0C093F4061092F506F5
:1027E000DFEFD093F3061092F60682EF96E00E9498
:1027F000111304E00093ED06C093EF0681E080938F
:10280000F006D093EE061092F1068DEE96E00E944F
:1028100011138EE08093E806C093EA06C093EB069E
:10282000D093E9061092EC0688EE96E00E94111310
:1028300015E01093E306C093E50683E0F82EF092CE
:10284000E606D093E4061092E70683EE96E00E9437
:102850001113F092DE06C093E0060093E106D093D8
:10286000DF061092E2068EED96E00E9411138CE2D4
:102870008093D906C093DB061093DC06D093DA066A
:102880001092DD0689ED96E00E9411138BE2809391
:10289000D406C093D60686E08093D706D093D5069B
:1028A0001092D80684ED96E00E9411138AE280937C
:1028B000CF06C093D10687E08093D206D093D0068E
:1028C0001092D3068FEC96E00E94111389E2809358
:1028D000CA06C093CC0688E08093CD06D093CB0681
:1028E0001092CE068AEC96E00E9411138CE0809341
:1028F000C506C093C70689E08093C806D093C60674
:102900001092C90685EC96E00E94111380E1809335
:10291000C006C093C2068AE08093C306D093C10666
:102920001092C40680EC96E00E9411138DE2809311
:10293000BB06C093BD068BE08093BE06D093BC0659
:102940001092BF068BEB96E0DF91CF911F910F9114
:10295000FF90EF900C941113789483B78C6483BF2D
:1029600087B7816087BF82E08EBD8EB581608EBDE6
:102970008FB581608FBD85B5846085BD85B5806468
:1029800085BD80918A00836080938A0080918B004E
:10299000816080938B0087E886B91AB80FB6F894E7
:1029A000A89581B5886181BD11BC0FBE2FB7F89481
:1029B00090E080E0FC01EC54FE4F108201968C30D8
:1029C0009105C1F7809162008E7F809362008091B3
:1029D0006500877F80936500C498DB98DA98D99862
:1029E000D8981B981D98C6981C98C5982FBF9FB75C
:1029F000F89480916100816080936100809164000F
:102A0000886080936400BC9AD39AD29AD19AD09A63
:102A1000139A159ABE9A149ABD9A9FBF1FBC89E05B
:102A20008EBD8CE093E09BBD8ABD87B7806187BF78
:102A30001092C00187E10E94690165EC71E086E0B7
:102A40000E94F405A091C701B091C801E091C901AD
:102A5000F091CA019C918091C601809598239C9326
:102A60009081892380836BEC71E08EE10E94F405F4
:102A70002091CC01A091CD01B091CE01E091CF0188
:102A8000F091D0018C91922F909598239C93808106
:102A9000822B80830E947C07FFCFE199FECF9FBBF2
:102AA0008EBBE09A99278DB30895262FE199FECF2A
:102AB0009FBB8EBB2DBB0FB6F894E29AE19A0FBE76
:102AC00001960895EE0FFF1F0024001C0BBE079017
:102AD000F691E02D09940F931F93CF93DF93869F78
:102AE0008001879F100D969F100D1124C8010E9430
:102AF0008715EC01009729F0A80170E060E00E94C2
:102B0000AC16CE01DF91CF911F910F9108950F93D5
:102B10001F93CF93DF938230910510F482E090E011
:102B2000E091F906F091FA0630E020E0B0E0A0E094
:102B3000309799F42115310509F44AC0281B390B47
:102B400024303105D8F58A819B816115710589F1A1
:102B5000FB0193838283FE0111C040815181028178
:102B6000138148175907E0F04817590799F410974F
:102B700061F012960C93129713961C933296CF0124
:102B8000DF91CF911F910F9108950093F906109353
:102B9000FA06F4CF2115310551F04217530738F0EA
:102BA000A901DB019A01BD01DF01F801C1CFEF01ED
:102BB000F9CF9093FA068093F906CDCFFE01E20F8C
:102BC000F31F819391932250310939832883D7CF02
:102BD0002091F7063091F806232B41F42091120141
:102BE000309113013093F8062093F70620911001DD
:102BF000309111012115310541F42DB73EB74091B7
:102C0000140150911501241B350BE091F706F0914A
:102C1000F806E217F307A0F42E1B3F0B281739071D
:102C200078F0AC014E5F5F4F2417350748F04E0F28
:102C30005F1F5093F8064093F706819391939FCFBF
:102C4000F0E0E0E09CCFCF93DF930097E9F0FC0148
:102C5000329713821282A091F906B091FA06ED0123
:102C600030E020E01097A1F420813181820F931F82
:102C70002091F7063091F8062817390709F061C04E
:102C8000F093F806E093F706DF91CF910895EA01FB
:102C9000CE17DF07E8F54A815B819E01411551059A
:102CA000B1F7E901FB83EA8349915991C40FD51F1C
:102CB000EC17FD0761F4808191810296840F951FC6
:102CC000E90199838883828193819B838A83F0E0E1
:102CD000E0E012968D919C9113970097B9F52D9194
:102CE0003C911197CD010296820F931F2091F70618
:102CF0003091F8062817390739F6309751F51092B8
:102D0000FA061092F906B093F806A093F706BCCF26
:102D1000D383C28340815181840F951FC817D9077F
:102D200061F44E5F5F4F88819981480F591F51832D
:102D300040838A819B81938382832115310509F029
:102D4000B0CFF093FA06E093F9069ECFFD01DC01C7
:102D5000C0CF13821282D7CFDC0101C06D934150E6
:0A2D60005040E0F70895F894FFCF0B
:102D6A00A8010000000000000000000000000000B0
:102D7A000000FB068000F206ED06E806E306DE0622
:102D8A00D906D406CF06CA06C506C006BB06000089
:102D9A0000003002B802D20177020302E101F50114
:00000001FF
