:100000000C946D010C94C0130C9495130C946A130A
:100010000C943F130C9414130C94E9120C94BE121C
:100020000C9493120C9497010C9497010C949701E3
:100030000C940F150C9497010C9497010C94970154
:100040000C9449120C9497010C9413120C94E9111E
:100050000C9497010C9497010C9497010C949701C0
:100060000C9497010C9497010C9497010C949701B0
:100070000C9497010C9497010C9497010C949701A0
:100080000C9497010C94EB130C9497013C03000023
:10009000000000080D0000000000000101C0800009
:1000A000000000000000000000060000000000004A
:1000B0000000000000000000000000000000000040
:1000C000000000000000FF3F0000000000000000F2
:1000D0000000000000000000000000000000000020
:1000E0000000000000000000000000000000000010
:1000F0000000000000000000000000000000800080
:1001000000008000020080000100800003008000E9
:1001100003008000030080000300800003008000D3
:10012000030080000480FF000481FF00FF00000046
:10013000FF000000FF000000FF000000FF000000C3
:10014000FF000000FF000000FF000000FF000000B3
:10015000FF000000FF000000FF000000FF000000A3
:10016000FF000000FF000000FF000000FF00000093
:10017000FF000000FF000000FF000000FF00000083
:10018000FF000000FF000000FF000000FF00000073
:10019000FF000000FF000000FF0000000000000062
:1001A000000000000000000000000000000000004F
:1001B00000000000000000000000003A003700349A
:1001C00000310022006100640000003B003800356F
:1001D0000032002300620065007000740078007C2B
:1001E000008000840088008C009000940098009C9F
:1001F00000A000A400A800AC00B000B400B800BC8F
:1002000000C000C400C800CC00D000D400D800DC7E
:1002100000E000E400E800EC00F000F400F800FC6E
:10022000000001040108010C01050505050505058F
:100230000502020202020202020707040404040487
:100240000404040707030303030303030307010173
:100250000101010101010606060606060606010265
:10026000040810204080010204081020408008107B
:10027000010204081020408001020102040810203D
:10028000408004804020100804020101020408108C
:100290002040800000000A0B0C000000000000015C
:1002A000040506000000000000000000000000003F
:1002B000000000000000000000000000000000003E
:1002C000000000000000000000003900360033008C
:1002D0003000210020006300941511241FBECFEFD1
:1002E000D0E1DEBFCDBF11E0A0E0B1E0E4EEF8E484
:1002F00000E00BBF02C007900D92A835B107D9F7F7
:1003000027E0A8E5B1E001C01D92AB37B207E1F7E5
:1003100011E0CDE6D1E004C02197FE010E94FE224B
:10032000CC36D107C9F70E9435170C9470240C9471
:1003300000009C016115710529F06130710571F0B3
:1003400080E00895809121078217130681F0909133
:10035000240781E09217130699F7089581E04091F0
:100360002207509123074217530751F7F6CF81E038
:10037000F4CF089581E080933D02089520912C07E9
:1003800030912D072115310549F090E0880F991F14
:10039000820F931FFC0180819181089590E080E09D
:1003A000089520911F03213099F49C012458334073
:1003B00028323105C8F0813823E09207A9F09C016A
:1003C0002C5F334081E02530310578F080E00895DE
:1003D000223021F49C012C5A3340EACF233059F7C4
:1003E0009C01245D3340E4CF81E00895FC01538DEE
:1003F000448D252F30E0842F90E0821B930B5417FF
:1004000010F0CF96089501970895FC01918D828D8B
:10041000981761F0A28DAE0FBF2FB11D5D968C9124
:10042000928D9F5F9F73928F90E008958FEF9FEF63
:100430000895FC01918D828D981731F0828DE80F1F
:10044000F11D858D90E008958FEF9FEF0895FC01D9
:10045000918D228D892F90E0805C9F4F821B9109A6
:100460008F7399270895FC01A48DA80FB92FB11D92
:10047000A35ABF4F2C91848D90E001968F739927DA
:10048000848FA689B7892C93A089B1898C918064C7
:100490008C93938D848D981306C00288F389E02D88
:1004A00080818F7D80830895EF92FF920F931F9339
:1004B000CF93DF93EC0181E0888F9B8D8C8D981317
:1004C00016C0E889F989808185FF11C0EE89FF890E
:1004D0006083E889F98980818064808381E090E08D
:1004E000DF91CF911F910F91FF90EF900895F62E1D
:1004F0000B8D10E00F5F1F4F0F731127E02E8C8DB7
:100500008E110CC00FB607FCFACFE889F9898081FB
:1005100085FFF5CFCE010E943302F1CFEB8DEC0FBA
:10052000FD2FF11DE35AFF4FF0820B8FEA89FB8903
:1005300080818062D2CFCF93DF93EC01888D8823B6
:10054000B9F0AA89BB89E889F9898C9185FD03C036
:10055000808186FD0DC00FB607FCF7CF8C9185FF1B
:10056000F2CF808185FFEDCFCE010E943302E9CF2B
:10057000DF91CF91089586E792E00E94270221E063
:10058000892B09F420E0822F089580E090E0892BE8
:1005900029F00E94BB0281110E94000080E090E0DF
:1005A000892B49F080E090E0892B29F00E9400001F
:1005B00081110C9400000895E091F201F091F30193
:1005C000309729F01092FC011092FB0109940895D4
:1005D000CF93DF93AC01E091F001F091F1013097FE
:1005E000F1F09091FE018091FD019817C0F090E02C
:1005F000292F30E02617370754F4D901A05ABE4FEF
:10060000240F351FE90128812C939F5FF1CF1092B1
:10061000FE016093FD01CB01DF91CF910994DF9141
:10062000CF910895AF92BF92CF92DF92EF92FF9257
:100630000F931F93CF93DF936C017B018B01040F0A
:10064000151FEB015E01AE18BF08C017D10759F0A6
:100650006991D601ED91FC910190F081E02DC601E8
:100660000995892B79F7C501DF91CF911F910F91E2
:10067000FF90EF90DF90CF90BF90AF9008958150A2
:100680008C3088F5E82FF0E0E85BFC4F0C94FE22FC
:10069000700370037303540358035B035E03730317
:1006A0007303620368036C038FB58F778FBD089562
:1006B0008FB58F7DFBCF8FB5877FF8CF85B58F7DC9
:1006C00085BD089580918B008F7780938B0008956E
:1006D00080918B008F7DF9CF80918B00877FF5CF44
:1006E00083B78F7D83BF08951F93CF93DF93282F08
:1006F00030E0F901ED56FD4F8491F901E25AFD4FCA
:10070000D491F901E75DFD4FC491CC23A9F0162FD8
:1007100081110E943F03EC2FF0E0EE0FFF1FE75323
:10072000FE4FA591B4918FB7F894EC91111108C0C8
:10073000D095DE23DC938FBFDF91CF911F91089579
:10074000DE2BF8CFCF93DF9390E0FC01E25AFD4F10
:100750002491875D9D4FFC0184918823D1F090E026
:10076000880F991FFC01E754FE4FA591B491FC013D
:10077000E753FE4FC591D49161110EC09FB7F89415
:100780008C91E22FE0958E238C932881E223E883DD
:100790009FBFDF91CF9108958FB7F894EC91E22B32
:1007A000EC938FBFF6CF3FB7F8948091EC01909116
:1007B000ED01A091EE01B091EF0122B706B600FE67
:1007C00005C02F3F19F00196A11DB11D3FBFBA2FE3
:1007D000A92F982F8827BC01CD01620F711D811DA3
:1007E000911D42E0660F771F881F991F4A95D1F728
:1007F00008958F929F92AF92BF92CF92DF92EF9225
:10080000FF924B015C010E94D3036B017C010E94AB
:10081000D3036C197D098E099F09683E73408105D9
:100820009105A8F321E0821A9108A108B10888EE89
:10083000C80E83E0D81EE11CF11C81149104A104B0
:10084000B10429F7FF90EF90DF90CF90BF90AF9069
:100850009F908F900895CF93DF93CFE1D3E0EC8109
:10086000FD8180819B81892B8083EE81FF81908136
:100870008B8180958923808361E070E080E090E047
:100880000E94F903EE81FF8180819B81892B808307
:10089000AC81BD81EE81FF819C918B8180959823F5
:1008A0009C93908189238083DF91CF91089561E0AB
:1008B00087E10E94740364E070E080E090E00E94B1
:1008C000F90360E087E10C9474030C9457042FB78C
:1008D000F8946091E8017091E9018091EA019091AA
:1008E000EB012FBF0895E82FF0E0DF01AA0FBB1F37
:1008F000A050BF4F11967C936E938830A8F4ED57AB
:10090000FB4F0C94FE228B049504A204B004BE0499
:10091000C504D004DC0480916A008C7F482B40938E
:100920006A0089B7816089BF089580916A00837FDA
:10093000440F551F440F551F482B40936A0089B739
:100940008260F1CF80916A008F7C74E0440F551F64
:100950007A95E1F7482B40936A0089B78460E3CF2A
:1009600080916A008F7366E0440F551F6A95E1F726
:10097000482B40936A0089B78860D5CF8AB78C7FAF
:10098000482B4ABF89B78061CECF8AB7837F440F97
:10099000551F440F551F482B4ABF89B78062C3CFEC
:1009A0008AB78F7C24E0440F551F2A95E1F7482B26
:1009B0004ABF89B78064B7CF8AB78F7396E0440F78
:1009C000551F9A95E1F7482B4ABF89B78068ABCF8E
:1009D000883010F40C94730408950E94D30320917E
:1009E0005E0130915F01FB01E21BF30B20915D0280
:1009F00030915E02E217F30708F438C120915F02DC
:100A00003091600270935F0160935E0140916102DA
:100A1000509162024130510599F148F04230510540
:100A200009F4B9C04330510509F4EFC00895E21745
:100A3000F30708F0D4C0809164028F5F8093640252
:100A40008B3008F413C181E090E0909362028093B0
:100A5000610241E050E06DEE74E0809157020E9427
:100A6000E80410925D0182E590E09093600280932B
:100A70005F0283E290E090935E0280935D020895AE
:100A800040915D014130A9F038F0433009F449C08C
:100A9000443009F47CC00895E217F30730F491E084
:100AA00090935D01E0935C01089584E080935D0183
:100AB0000895E217F30798F510925D019091640292
:100AC0009F5F909364028E2FEE0F990B20915C0133
:100AD000821B910927FD939597FF03C091958195FE
:100AE000910949970CF4C2C01092620210926102FF
:100AF00082E990E09093600280935F0282E590E04B
:100B000090935E0280935D021092640240914502D0
:100B100050E06DEE74E0809157020C94E80483E09D
:100B2000C5CFE217F30700F380914502833061F5EA
:100B300082E08093450282E090E09093620280938D
:100B4000610282E990E09093600280935F0282E507
:100B500090E090935E0280935D0210926602109284
:100B600068021092690210926A0210926B0210924F
:100B70006C0210926D028091640280936702109261
:100B8000640210926502C2CF40934502D4CFE217AF
:100B9000F30788F6A9CF509164025F5F5093640217
:100BA00040916502440FE217F307E0F040936502BD
:100BB000583009F05BC0E0916602E630A9F410926B
:100BC00062021092610282E990E090936002809349
:100BD0005F0282E590E090935E0280935D02109246
:100BE000640208954160E2CF83E090E09093620256
:100BF0008093610281E08E0F80936602F0E0EF59EE
:100C0000FD4F8091650287830895E217F307F8F49A
:100C100010926202109261021092640282E990E0E6
:100C20009093600280935F0282E590E090935E0271
:100C300080935D0288E0E6E6F2E0AEE6B2E0019085
:100C40000D928A95E1F781E0809363020895809187
:100C50006602863009F4B3CF82E090E0909362029E
:100C6000809361021092640210926502089585EDEE
:100C7000809374008091740084FDFCCF1092FA017F
:100C800008952091A001260F3327331F213231050B
:100C9000ECF42091FA01FC0190E080E0243069F04E
:100CA00082E00895A091A0012191AC0140585E4FCF
:100CB000A40FB52FB11D2C930196861798F3809140
:100CC000A001680F6093A00180E0089581E008957D
:100CD0000895E091FE018091FD01E81730F4F0E005
:100CE000E05AFE4F808190E008958FEF9FEF0895C6
:100CF0009091FE018091FD012FEF3FEF981748F48E
:100D0000E92FF0E0E05AFE4F208130E09F5F9093A2
:100D1000FE01C90108958091FD019091FE01891B9A
:100D2000990B0895CF93DF93CB01EA01642F0E94C2
:100D30004106CE01DF91CF91089544E050E068E58F
:100D400071E083E193E00C949206CF93DF931F92BE
:100D5000CDB7DEB7698361E0CE0101960E944106FE
:100D600081E090E00F90DF91CF91089590E080E0D6
:100D70000895DB0190E0FC01E25AFD4FE4911196E9
:100D8000EC931197875D9D4FFC0184918C9390E0CB
:100D9000880F991FFC01E754FE4F2591349113965B
:100DA0003C932E931297FC01E753FE4F859194914B
:100DB00015969C938E9314970895CF93DF93EC012F
:100DC000EA81F0E0EE0FFF1FE853FD4FA591B491CB
:100DD0004C91ED89EC0FFD2FF11D30892C8981E0BC
:100DE00090E0A0E0B0E0022E04C0880F991FAA1F77
:100DF000BB1F0A94D2F75B81452369F0832B808B5C
:100E00002F5F2C8B0E94D3036C877D878E879F87F3
:100E1000DF91CF91089580958323F1CF0F931F9396
:100E2000CF93DF93C091FF01D09100028E89811191
:100E30004EC00E946704088519852A853B85601B82
:100E4000710B820B930B6A3071058105910578F067
:100E50001C8A1D8A0E946704688779878A879B8716
:100E6000CE01DF91CF911F910F910C94DD060E946E
:100E7000D3030C851D852E853F85601B710B820B6E
:100E8000930B6B3071058105910508F10E94D30326
:100E90000C851D852E853F85601B710B820B930B86
:100EA000643F71408105910590F4CE010E94DD06FA
:100EB0008C89883061F40E946704688779878A8703
:100EC0009B871C8A8D89811107C081E08D8BDF9102
:100ED000CF911F910F910895813081F488898E36CA
:100EE00011F08E3511F482E0F1CF982F977F97376C
:100EF000D1F38B37C1F381E08E8BE9CF8230D9F704
:100F000088898E3611F08E35B1F783E0DFCF80E02F
:100F100090E0892B29F080915C0283FD0C94000005
:100F20000895E82FF0E0EF5FFD4F608308950F9381
:100F30001F93CF93DF93FC018281813089F040F0D1
:100F4000823009F47AC0DF91CF911F910F910895FB
:100F500061E08081DF91CF911F910F910C94740318
:100F60000181C02FD0E0108161E0812F0E94A20397
:100F7000209719F460E0812FEDCFCF3FD10511F418
:100F800061E0F9CFE12FF0E0ED56FD4FE491E15043
:100F9000EC3008F04DC0F0E0E053F84F0C94FE2226
:100FA000DC07DC071808E107E707ED07F507180875
:100FB0001808FA0704080E0883B7806283BF01BFD0
:100FC000C2CF8FB580688FBDDBBDCABDBCCF8FB52A
:100FD00080628FBDD9BDC8BDB6CF8FB588608FBDCB
:100FE000D0937900C0937800AECF85B5806285BD7F
:100FF00003BDA9CF80918B00806880938B00D09334
:101000008700C09386009FCF80918B008062809381
:101010008B00D0938500C093840095CF80918B0086
:10102000886080938B00D0938300C09382008BCF25
:10103000C038D1050CF0A4CF9DCF8181E381F0E0D1
:10104000EF5FFD4F80837FCF0F931F93CF93DF938D
:10105000D62F8C01C0E0CD1741F0F801819191911C
:101060008F010E949707CF5FF6CFDF91CF911F913D
:101070000F9108950F931F93CF93DF93162F082F8F
:10108000EC0183E193E00E94780689938C2F801B0A
:101090008117B8F3812FDF91CF911F910F910895A0
:1010A0008F929F92AF92BF92CF92DF92EF92FF9278
:1010B0000F931F93CF930E94D303AB01BC01809188
:1010C000380390913903A0913A03B0913B038A0110
:1010D0009B01081B190B2A0B3B0B809140038823B3
:1010E00009F47FC08091420390914103E92FEE0FF4
:1010F000FF0BA82F082E000CBB0BC3E68C02E00DE3
:10110000F11D1124EA5CFC4F178B068B053F114043
:101110002105310508F054C09F5F909341039091E1
:1011200041039332C9F593E69A9F90019B9F300D3E
:1011300011242A5C3C4FF901E45AFF4FC0903C0354
:10114000D0903D03E0903E03F0903F034A015B01E5
:101150008C189D08AE08BF0875016401C082D18259
:10116000E282F38229593F4FE1E0F0E0D901ED93AB
:10117000FC938F5F8A3094F580934203E0914203A1
:10118000B3E6EB02F0011124E356FC4F118210820A
:101190001092400310924103409338035093390357
:1011A00060933A0370933B03CF911F910F91FF908F
:1011B000EF90DF90CF90BF90AF909F908F90089569
:1011C0001092410391E09093400340933C0350936D
:1011D0003D0360933E0370933F03A1CF10924203FF
:1011E000CDCF053F114021053105B0F281E080935C
:1011F000400340933C0350933D0360933E03709340
:101200003F03CACFE82FF0E0EF5FFD4F6083089502
:10121000CF93FC018281813051F020F0823079F04F
:10122000CF91089560E08081CF910C947403C081C8
:1012300061E08C2F0E94A20360E08C2FF5CFE38148
:10124000F0E0EF5FFD4F1082EBCF80933E028823EA
:1012500021F082E797E00C94970782E797E00C94DF
:101260000809CF93C82F809148028C1731F081E094
:10127000C11101C080E00E942509C093480260E0CE
:1012800070E0CB01C1110E94670460934902709322
:101290004A0280934B0290934C02809148028C1733
:1012A00039F081E0C11101C080E0CF910C94250993
:1012B000CF9108950E943109E6E4F2E081E087834E
:1012C0001086EFE4F2E088E0DF011D928A95E9F7ED
:1012D0000895EF92FF920F931F93CF93DF938C01AA
:1012E000FC01C581D681209751F0E480F12CEF14E8
:1012F00031F0899199910E940809F394F8CFF8018F
:10130000C085D185209751F0078110E0011731F099
:10131000899199910E9408091F5FF8CFDF91CF91C1
:101320001F910F91FF90EF9008950F931F93CF930C
:101330008C01C42F0E9499018823E1F18091240738
:10134000482F50E0C03128F5882319F12C2F30E0C8
:1013500080913107909132070C2E02C096958795A7
:101360000A94E2F780FF15C00417150719F580915C
:101370002C0790912D070097E9F0220F331F820F61
:10138000931FFC0180819181CF911F910F910C944B
:1013900069090417150771F080912C0790912D07AA
:1013A000009741F04C2F50E0440F551F480F591F34
:1013B000FA01E8CFCF911F910F910895CF938091BB
:1013C0002F0790913007892BA1F1C0E080912B0766
:1013D000C81778F58C2F86958695869590E0E091D4
:1013E0002F07F0913007E80FF91F208130E04C2FD4
:1013F00050E063E0880F991F6A95E1F7BA01681B16
:10140000790B02C0359527956A95E2F720FF0FC04A
:1014100080912C0790912D07009749F0440F551F9C
:10142000840F951FFC01808191810E946909CF5F23
:10143000CDCF10922E07CF9108950F931F93CF9386
:10144000DF93EC018B81882379F08B0189819A816C
:101450008617970729F0CE010E9469091A8309832C
:1014600089819A81019731F48D819E81009769F07D
:101470006C8105C088859985009739F06F81DF916F
:10148000CF911F910F910C942408DF91CF911F9160
:101490000F9108950F931F93CF938C01C42F0E9437
:1014A0009901882309F444C080912407482F50E013
:1014B000C03148F5882339F12C2F30E08091310775
:1014C000909132070C2E02C0969587950A94E2F708
:1014D00080FF19C00417150759F580912C079091CA
:1014E0002D07009729F16091280770912907220F95
:1014F000331F820F931FFC0180819181CF911F9137
:101500000F910C941D0A0417150791F080912C0778
:1015100090912D07009761F0609126077091270741
:101520004C2F50E0440F551F480F591FFA01E4CFCC
:10153000CF911F910F910895CF93C0E080912B0719
:10154000C81798F480912C0790912D07009759F0B7
:101550002C2F30E0220F331F820F931FFC0180815C
:1015600091810E946909CF5FE9CF80912F07909107
:101570003007892BC1F1C0E080912B07C81798F57F
:101580008C2F86958695869590E0E0912F07F091B7
:101590003007E80FF91F208130E04C2F50E063E066
:1015A000880F991F6A95E1F7BA01681B790B02C091
:1015B000359527956A95E2F720FF13C080912C0797
:1015C00090912D07009769F0609126077091270789
:1015D000440F551F840F951FFC01808191810E944B
:1015E0001D0ACF5FC9CF81E080932E07CF91089568
:1015F0000C94D522CF93863823E0920719F130F46A
:1016000081389340D1F08FEFCF910895873823E050
:101610009207D9F088389340B1F786E893E00E94AA
:10162000F80AC82F87E893E00E94F80A90E02FEFAD
:10163000C29F800D911D112402C081E893E0CF91DB
:101640000C94F80A86E893E0FACF87E893E0F7CFA6
:10165000CF93C82F8FE290E00E94F80A811109C051
:1016600085E190E0CC2311F086E190E0CF910C94DD
:10167000F80A80E0CF910895CF93C82F8FE290E0D1
:101680000E94F80A811106C08C2F90E0CA96CF9173
:101690000C94F80A80E0CF910895DF92EF92FF92C8
:1016A0000F931F93CF93DF938C017B01D42EE9011D
:1016B0000E9499018111D0922A078DE190E00E9449
:1016C000F80AD82EB701C8010E9499018823B1F009
:1016D000809124078017110629F5809128079091A1
:1016E0002907C817D90751F0809125078823A9F049
:1016F000219761F41092290710922807DF91CF916A
:101700001F910F91FF90EF90DF90089581E090E09E
:101710009093290780932807F1CFD0932907C0938E
:101720002807ECCF8091260790912707C817D90783
:1017300029F3D0FE0EC0219729F4109227071092AA
:101740002607DCCF81E090E090932707809326075F
:10175000D5CFD0932707C0932607D0CF0F931F93E1
:10176000CF93C82F81E090E00E94F80A0FE710E0C5
:1017700021E030E04C2F70E060E090E00E944D0BE3
:10178000CF911F910F9108950F931F93CF936130C5
:10179000710529F4CF911F910F910C94AE0BC82FB6
:1017A00081E090E00E94F80A0FE710E030E020E0CE
:1017B0004C2F70E060E090E00E944D0BCF911F91A4
:1017C0000F9108951F93CF93DF93EC0180913E0218
:1017D000882359F08FE090E00E94F80A182F80E1EA
:1017E00090E00E94F80A181306C0CE01DF91CF9155
:1017F0001F910C94F80A82E797E00E9408090FB63F
:10180000F894A89581B5886181BD11BC0FBEFFCF4A
:101810000C94E20BCF93DF932091590230915A023E
:101820002F3F320721F0C901DF91CF9108958091B8
:101830005C0287FF2BC086FF0FC089E090E00E940A
:10184000080CC82F81E090E00E94080C9C2F909318
:101850005A028093590215C089E090E00E94080C5A
:10186000C82F81E090E00E94080C90E4C99F90018D
:101870001124207C31708F73282B30935A022093CF
:1018800059028091590290915A02CECF85FF0CC027
:1018900081E190E00E94080CC82F82E190E00E9454
:1018A000080CC05CDD0BD2CF81E090E00E94080CF8
:1018B00090E0CDCFFF920F931F93CF93DF93EC0176
:1018C0008B01F22E4330510509F47EC068F441309B
:1018D0005105E9F04230510509F458C0DF91CF912C
:1018E0001F910F91FF9008954530510509F4D4C020
:1018F00008F488C04630510589F740E024FF2CC029
:10190000DF91CF911F910F91FF900C944A0A809123
:10191000270281112BC040E0B801CE01F4FE23C0A4
:101920000E944A0A41E0B801CE01F0FE26C00E94A2
:101930004A0A42E0B801CE01F1FE22C00E944A0AE2
:1019400043E0B801CE01F2FE1EC00E944A0A44E004
:10195000B801CE01F3FCD4CFDF91CF911F910F914D
:10196000FF900C9495090E949509DCCF8DE190E0E1
:101970000E94080C81FDCFCFD5CF0E949509D9CF09
:101980000E949509DDCF0E949509E1CF45E020FF37
:1019900012C00E944A0A46E0B801CE01F1FE0EC014
:1019A0000E944A0A47E0B801CE01F2FE0AC00E9436
:1019B0004A0A48E0CDCF0E949509EDCF0E949509D3
:1019C000F1CF0E949509F5CF49E020FF12C00E9497
:1019D0004A0A4AE0B801CE01F1FE0EC00E944A0A4E
:1019E0004BE0B801CE01F2FE0AC00E944A0A4CE068
:1019F000AFCF0E949509EDCF0E949509F1CF0E94CB
:101A00009509F5CF4DE020FF32C00E944A0A4EE012
:101A1000B801CE01F1FE2EC00E944A0A4FE0B80183
:101A2000CE01F2FE2AC00E944A0A40E1B801CE016E
:101A3000F3FE26C00E944A0A41E1B801CE01F4FE3D
:101A400022C00E944A0A42E1B801CE01F5FE1EC042
:101A50000E944A0A43E1B801CE01F6FE1AC00E9474
:101A60004A0A44E1B801CE01F7FE76CF49CF0E9481
:101A70009509CDCF0E949509D1CF0E949509D5CF68
:101A80000E949509D9CF0E949509DDCF0E94950942
:101A9000E1CF0E949509E5CF45E120FF2EC00E94CD
:101AA0004A0A46E1B801CE01F1FE2AC00E944A0A64
:101AB00047E1B801CE01F2FE26C00E944A0A48E181
:101AC000B801CE01F3FE22C00E944A0A49E1B801E2
:101AD000CE01F4FE1EC00E944A0A4AE1B801CE01BE
:101AE000F5FE1AC00E944A0A4BE1B801CE01F6FE8B
:101AF00016C00E944A0A4CE1B5CF0E949509D1CF89
:101B00000E949509D5CF0E949509D9CF0E949509C9
:101B1000DDCF0E949509E1CF0E949509E5CF0E9493
:101B20009509E9CFCF93C82F81E090E00E94F80A91
:101B30002C2F42E050E070E060E090E00E945A0CF0
:101B400081E090E00E94F80A2C2F30E094E0359577
:101B500027959A95E1F743E050E070E060E090E06F
:101B6000CF910C945A0CCF938230910511F1C62F6E
:101B70008330910520F4019779F0CF910895833057
:101B80009105D9F00497C9F781E090E00E94F80A26
:101B90002C2F45E050E007C081E090E00E94F80A59
:101BA0002C2F41E050E070E060E090E0CF910C9489
:101BB0005A0C862FCF910C94920D81E090E00E94F8
:101BC000F80A2C2F44E050E0EECF1F93CF93DF9321
:101BD000EC01162F0E94D522181721F0612FCE019B
:101BE0000E94DD22CE01DF91CF911F910C94F80A63
:101BF000CF93DF93863823E0920739F138F48138A8
:101C00009340E9F08FEFDF91CF910895873823E07B
:101C10009207F1F088389340A9F7C62F86E893E041
:101C20000E94F80AD82F87E893E00E94F80A90E013
:101C30006C2F2FEFD29F800D911D112402C081E8DF
:101C400093E0DF91CF910C94E50D86E893E0F9CF16
:101C500087E893E0F6CF1F93CF93DF930FB6F89406
:101C6000A89581B5886181BD11BC0FBED0E0C0E0F0
:101C7000FE01E457FF4F1491CE010E94D5221817A0
:101C800021F0612FCE010E94DD222196CD3281E02C
:101C9000D80771F781E893E00E94D522813029F0BE
:101CA00061E081E893E00E94DD22CCE1D1E01FEF0A
:101CB00089919991FC0111830E949707F1E0C43347
:101CC000DF07B1F788E19BE00FB6F894A89581BDD6
:101CD0000FBE91BDDF91CF911F9108951F93CF93B8
:101CE000DF93EC01162F089779F4662319F10E940F
:101CF0002B0E80E090E0892BB9F0612FCE01DF91AF
:101D0000CF911F910C94000080E090E0892BA9F7FF
:101D100081E0C11590E1D90708F080E0111105C0FC
:101D2000DF91CF911F91089581E027972297C0F707
:101D300080E0F6CF80E090E0892BF9F681E0F0CFEB
:101D40000F931F93CF93DF9320913E02222329F01C
:101D50008F30910541F48FE090E0DF91CF911F919A
:101D60000F910C94E50D162FEC018FE090E00E948E
:101D7000F80A082F80E190E00E94F80A08130CC0CE
:101D8000C730D10529F0C830D10519F4183029F031
:101D9000FFCF612FCE01E1CFFFCF0E942B0E88E055
:101DA000DF91CF911F910F9108958331910588F4B0
:101DB0008131910530F48130910519F08930910518
:101DC00031F42FEF3FEF30935A02209359020C94D5
:101DD000A00E8D319105D9F7677F60935C02209149
:101DE00046022F73362F307C232B20934602E9CFF7
:101DF0001F93CF93DF93182FE1E6F2E085E1DF0137
:101E00001D928A95E9F782E990E0909360028093B1
:101E10005F0282E590E090935E0280935D02C6E4EB
:101E2000D2E0688319828FEF9FEF9C8B8B8B1D8A8A
:101E300083E08093450243E050E06DEE74E08989D1
:101E40000E94E8048DE190E00E94080C682F6F73F7
:101E50008DE190E00E94D50E8E8B612F87E090E09F
:101E60000E94D50E6DE088E090E00E94D50E80E0E3
:101E7000DF91CF911F910C945A0989B78F7B89BF4D
:101E800089EB91E090930D0180930C0161E08AE071
:101E90000E94F80E109244021092430208950F938C
:101EA0001F930E94D30300913F02109140022091A2
:101EB000410230914202601B710B820B930B613F18
:101EC00079448240910508F456C080913E02811108
:101ED0000BC0809143029091440281309105B1F191
:101EE00088F0029709F444C00E94D30360933F0234
:101EF00070934002809341029093420281E01F91CF
:101F00000F91089580E390E00E94E20B80FF0EC0E5
:101F100041E050E060E578E086E00E94730481E0F3
:101F200090E09093440280934302DECF8DE190E0F5
:101F30000E94E20B82FFD8CF41E050E06AEB71E0F3
:101F400086E00E94730482E090E0EBCF89B78F7B3C
:101F500089BF89EB91E090930D0180930C018DE195
:101F600090E00E94E20B82FDE7CF0E943D0FBCCFC4
:101F700010923D02FACF80E0C2CFBF92CF92DF92A3
:101F8000EF92FF920F931F93CF93DF938B01B42EA9
:101F9000690182FF23C083FF17C061E0C8010E946E
:101FA0006E0E8823D9F16B2DC8010E94D50E8B11BE
:101FB00035C0F601DF91CF911F910F91FF90EF9007
:101FC000DF90CF90BF90099460E0C8010E946E0E30
:101FD000882321F1C8010E94080CE9CF842F877063
:101FE000C1E0D0E07E0101C0EE0C8A95EAF7D42F63
:101FF000D870CB010E94080CC82FB4FE1CC061E051
:10200000C8010E946E0E882349F0DD2389F0CE2995
:102010006C2FC8010E94D50E8C1759F2DF91CF9119
:102020001F910F91FF90EF90DF90CF90BF90089598
:10203000E094CE21EDCF60E0C8010E946E0E8823AF
:1020400069F3CE21DD2319F0C111B3CFE7CFCC2343
:1020500009F4AFCFE3CFCF92DF92EF92FF920F93CD
:102060001F93CF93DF937C016B01C42F122FD42FCA
:10207000D07E8091460287FF2CC0D03EC1F5809172
:1020800047028823A1F190E00E94080CD82F80918C
:10209000470290E001960E94080C982F8D2FE816B9
:1020A000F90629F56C2F70E0762F66276627737086
:1020B000612B6F5F7F4F27E837E0402F8C2FDF9138
:1020C000CF911F910F91FF90EF90DF90CF900C94E4
:1020D000BD0F80FD32C0D03609F464C088F4D03220
:1020E00009F447C0D03409F45DC0DD2379F1DF91F4
:1020F000CF911F910F91FF90EF90DF90CF900895B7
:10210000D03A09F483C090F42C2F2F7141E050E0B5
:10211000D03869F7B601C701DF91CF911F910F91B8
:10212000FF90EF90DF90CF900C945A0CD03C09F4C4
:1021300076C0D03E09F4B6CFDACF0E940A0C8E15D5
:102140009F0549F2E114F10431F2D1CF8C2F8E704A
:1021500071F680E090E0892B51F28C2F8170DF9135
:10216000CF911F910F91FF90EF90DF90CF900C9443
:102170000000CF71CF3109F0BACF412F4F7771F006
:10218000413071F0111F1127111F212F30E00FE78F
:1021900010E0B601C7010E944D0BA9CF41E0F2CF7C
:1021A00040E0F0CF2C2F30E08C2F8F71813029F060
:1021B00030F0803121F08131F9F440E001C041E09C
:1021C00025FB222720F90DE110E030E0B601C70120
:1021D0000E944D0B80E090E0892B09F488CF4C2FB2
:1021E000B601C701DF91CF911F910F91FF90EF9042
:1021F000DF90CF900C940000C901880F991F8E7159
:10220000C4FB442740F9482B4250DACF2C2F2F70C3
:1022100043E050E0C4FF7ECF42E050E07BCFCF717F
:10222000CE3139F0CF3109F062CF212F45E050E0B7
:1022300071CF212F44E050E06DCF0F931F93CF93C8
:10224000DF93CDB7DEB729970FB6F894DEBF0FBE88
:10225000CDBF181619069CF583E193E00E9478061D
:10226000992782309105D9F08330910599F1019732
:1022700059F464E088E591E00E943A0880915B019E
:102280008823B9F18130F1F19091FD018091FE0137
:102290009817A9F083E193E00E947806F5CF69E0F2
:1022A000CE0101960E943A08088519852E813F814A
:1022B0006B817C814D8189819A810E944D0B299689
:1022C0000FB6F894DEBF0FBECDBFDF91CF911F9147
:1022D0000F91089567E0CE0101960E943A084D8162
:1022E0005E816B817C812F8189819A810E945A0C49
:1022F000E6CF8091590190915A010E94E20B8093A0
:102300005801C2CF609158018091590190915A01B2
:102310000E94A00EF4CFCF92DF92EF92FF920F9324
:102320001F93CF93DF93EC017B0141305105F9F40A
:10233000CD80DE802496C114D104E9F462E070E01F
:1023400081E090E00E941B238C01009731F0FC019A
:10235000F182E08288818F5F8883C801DF91CF910D
:102360001F910F91FF90EF90DF90CF900895C88458
:10237000D9842796E0CF88818F5F8883C82FD0E0EB
:1023800062E070E0CE010E941B238C0120E0BE01C0
:1023900061507109822F90E08617970774F4880FB7
:1023A000991FF601E80FF91F40815181800F911F9D
:1023B000FC01518340832F5FEDCFC150D048CC0F3B
:1023C000DD1FC00FD11FF982E882C6010E94D3230E
:1023D000C4CF1F920F920FB60F9211240BB60F921B
:1023E0002F933F934F935F936F937F938F939F931D
:1023F000AF93BF93EF93FF9386E792E00E9433027F
:10240000FF91EF91BF91AF919F918F917F916F91CC
:102410005F914F913F912F910F900BBE0F900FBE88
:102420000F901F9018951F920F920FB60F921124C4
:102430000BB60F922F938F939F93EF93FF93E0919F
:102440008602F09187028081E0918C02F0918D02EA
:1024500082FD1DC0908180918F028F5F8F732091CC
:102460009002821741F0E0918F02F0E0EA58FD4FB0
:10247000958F80938F02FF91EF919F918F912F9174
:102480000F900BBE0F900FBE0F901F90189580817C
:10249000F2CF1F920F920FB60F9211242F933F93FA
:1024A0008F939F93AF93BF938091E8019091E9013F
:1024B000A091EA01B091EB013091E70123E0230FF5
:1024C0002D3768F126E8230F0296A11DB11D209338
:1024D000E7018093E8019093E901A093EA01B093AA
:1024E000EB018091EC019091ED01A091EE01B09192
:1024F000EF010196A11DB11D8093EC019093ED01B8
:10250000A093EE01B093EF01BF91AF919F918F9196
:102510003F912F910F900FBE0F901F90189501962D
:10252000A11DB11DD4CF1F920F920FB60F9211248F
:102530000BB60F922F933F934F935F936F937F93BD
:102540008F939F93AF93BF93EF93FF93E0910E010F
:10255000F0910F010995FF91EF91BF91AF919F917C
:102560008F917F916F915F914F913F912F910F903C
:102570000BBE0F900FBE0F901F9018951F920F92D9
:102580000FB60F9211240BB60F922F933F934F93D8
:102590005F936F937F938F939F93AF93BF93EF93CB
:1025A000FF93E0910C01F0910D010995FF91EF91DE
:1025B000BF91AF919F918F917F916F915F914F915B
:1025C0003F912F910F900BBE0F900FBE0F901F9059
:1025D00018951F920F920FB60F9211240BB60F92FF
:1025E0002F933F934F935F936F937F938F939F931B
:1025F000AF93BF93EF93FF93E0910A01F0910B012A
:102600000995FF91EF91BF91AF919F918F917F912C
:102610006F915F914F913F912F910F900BBE0F9053
:102620000FBE0F901F9018951F920F920FB60F922A
:1026300011240BB60F922F933F934F935F936F9399
:102640007F938F939F93AF93BF93EF93FF93E0910B
:102650000801F09109010995FF91EF91BF91AF91A8
:102660009F918F917F916F915F914F913F912F91AA
:102670000F900BBE0F900FBE0F901F9018951F92DA
:102680000F920FB60F9211240BB60F922F933F9318
:102690004F935F936F937F938F939F93AF93BF936A
:1026A000EF93FF93E0910601F09107010995FF91E7
:1026B000EF91BF91AF919F918F917F916F915F91BA
:1026C0004F913F912F910F900BBE0F900FBE0F9027
:1026D0001F9018951F920F920FB60F9211240BB6F0
:1026E0000F922F933F934F935F936F937F938F93AB
:1026F0009F93AF93BF93EF93FF93E0910401F09109
:1027000005010995FF91EF91BF91AF919F918F9135
:102710007F916F915F914F913F912F910F900BBEE1
:102720000F900FBE0F901F9018951F920F920FB62B
:102730000F9211240BB60F922F933F934F935F93F9
:102740006F937F938F939F93AF93BF93EF93FF9379
:10275000E0910201F09103010995FF91EF91BF9182
:10276000AF919F918F917F916F915F914F913F9129
:102770002F910F900BBE0F900FBE0F901F901895CA
:102780001F920F920FB60F9211240BB60F922F9338
:102790003F934F935F936F937F938F939F93AF93E9
:1027A000BF93EF93FF93E0910001F0910101099530
:1027B000FF91EF91BF91AF919F918F917F916F9119
:1027C0005F914F913F912F910F900BBE0F900FBED5
:1027D0000F901F9018951F920F920FB60F92112411
:1027E0000BB60F922F933F934F935F936F937F930B
:1027F0008F939F93AF93BF93EF93FF93809171005B
:10280000887F803609F44DC008F040C0883209F452
:10281000A9C028F5803109F49DC0C8F4882309F4C3
:10282000FBC0883009F496C0FF91EF91BF91AF9142
:102830009F918F917F916F915F914F913F912F91D8
:102840000F900BBE0F900FBE0F901F901895883100
:1028500009F488C0803241F78093C30114C08034EA
:1028600009F49DC040F48033B9F38833E9F68093CE
:10287000C30185ECB0C0803509F485C0883509F402
:1028800096C0883489F60E943706CECF883909F47D
:102890008CC038F5883729F050F4883611F080372D
:1028A00019F683E08093FA011092C20157C088386C
:1028B00009F47BC0803919F0803809F0B5CF8091D8
:1028C000C201803208F071C0E091C20181E08E0F38
:1028D0008093C20180917300F0E0EE55FE4F80833B
:1028E0003DC0803B39F0E0F4803A09F479C0883A81
:1028F00009F09ACF84E08093FA011092A10110921E
:10290000A001E091F601F091F70109958091A001F5
:1029100081110FC081E08093A0011092800109C055
:10292000803C09F4A6CF883C09F4A3CF883B09F08A
:102930007BCFE091A10181E08E0F8093A101F0E0B7
:10294000E058FE4F8081809373009091A1018091A7
:10295000A00129C08091E6018093730085EC8093EB
:10296000740062CF9091E5018091E401981758F5C9
:10297000E091E50181E08E0F8093E501F0E0EC53FA
:10298000FE4F8081E9CFE091E50181E08E0F8093D9
:10299000E50180917300F0E0EC53FE4F808390914D
:1029A000E5018091E4019817C8F285E8D8CFE0915D
:1029B000E50181E08E0F8093E50180917300F0E0E6
:1029C000EC53FE4F80838091F90181115CCF81E04F
:1029D0008093F80184EA809374001092FA0124CF66
:1029E00085EC809374001092FA018091C2018032CC
:1029F00030F4E091C201F0E0EE55FE4F108260919C
:102A0000C20170E0E091F401F091F50182EA91E0F9
:102A100009951092C20108CF1092C30134CF1F92C2
:102A20000F920FB60F9211248F939F9378948091F9
:102A30000D0290910C02891708F04DC09091620030
:102A400091609093620090910B02891708F047C043
:102A50009091650098609093650090910A028917A3
:102A600008F041C0C49A90910902891708F03DC04E
:102A7000DB9A909108028917D0F5DA9A90910702B3
:102A80008917B8F5D99A909106028917A0F5D89AB6
:102A900090910502891788F51B9A90910402891775
:102AA00070F51D9A90910302891758F5C69A909176
:102AB0000202891740F51C9A90910102891728F5A6
:102AC000C59A8F5F80930D029F918F910F900FBEDB
:102AD0000F901F901895909162009E7FB2CF9091B9
:102AE0006500977FB8CFC498BECFDB98C2CFDA9885
:102AF000C5CFD998C8CFD898CBCF1B98CECF1D982B
:102B0000D1CFC698D4CF1C98D7CFC598DACFCF9362
:102B1000DF93EC0161E088810E94A20360E088817C
:102B2000DF91CF910C947403EF92FF920F931F9358
:102B3000CF93DF93109279021092780288EE93E09F
:102B4000A0E0B0E080937A0290937B02A0937C0295
:102B5000B0937D0228E331E0309377022093760230
:102B600020E930E0309383022093820229E230E0B2
:102B700030938502209384022BE230E03093870269
:102B8000209386022AE230E0309389022093880263
:102B900025E930E030938B0220938A022CE230E06A
:102BA00030938D0220938C0210928F02109290022B
:102BB0001092910210929202109216031092150335
:102BC0008093170390931803A0931903B0931A03EB
:102BD0008AE491E0909314038093130387E0809339
:102BE000200361E273E088E00E94B9061092380386
:102BF0001092390310923A0310923B0310923C0357
:102C000010923D0310923E0310923F031092400336
:102C1000109241031092420386E090E090933703B4
:102C20008093360383E190E00E94F80AC82F82E186
:102C300090E00E94F80AD82F81E190E00E94F80A03
:102C4000182F81E090E00E94F80A21E030E03093F4
:102C500027072093260730932907209328071092EF
:102C60002A0710922E071092300710922F07809398
:102C70002107212F205C330BC9012D2F382FC901CB
:102C80009093230780932207CF77C0932407109255
:102C900025078DE180932B0762E070E08DE190E0E5
:102CA0000E941B2390932D0780932C070097C9F057
:102CB000EC0110E0EE24E394F12C8AE090E00E9415
:102CC0003723FC01F282E18213821482168215827C
:102CD0001782118610861083899399931F5F1D3187
:102CE00061F78DE080937207C2E0C0937407109281
:102CF0007507DFEFD09373071092760782E797E0AE
:102D00000E94871504E000936D07C0936F0781E070
:102D100080937007D0936E07109271078DE697E04D
:102D20000E9487158EE080936807C0936A07C0935E
:102D30006B07D093690710926C0788E697E00E94B2
:102D4000871515E010936307C093650783E0F82E9D
:102D5000F0926607D09364071092670783E697E0C6
:102D60000E948715F0925E07C09360070093610789
:102D7000D0935F07109262078EE597E00E94871557
:102D80008CE280935907C0935B0710935C07D09344
:102D90005A0710925D0789E597E00E9487158BE23C
:102DA00080935407C093560786E080935707D093CB
:102DB00055071092580784E597E00E9487158AE22C
:102DC00080934F07C093510787E080935207D093B9
:102DD0005007109253078FE497E00E94871589E20D
:102DE00080934A07C0934C0788E080934D07D093A7
:102DF0004B0710924E078AE497E00E9487158CE0FB
:102E000080934507C093470789E080934807D09394
:102E100046071092490785E497E00E94871580E1F4
:102E200080934007C09342078AE080934307D09382
:102E300041071092440780E497E00E9487158DE2D5
:102E400080933B07C0933D078BE080933E07D09370
:102E50003C0710923F078BE397E0DF91CF911F91E2
:102E60000F91FF90EF900C948715CF93DF93CDB720
:102E7000DEB762970FB6F894DEBF0FBECDBF789471
:102E800083B78C6483BF87B7816087BF82E08EBDC4
:102E90008EB581608EBD8FB581608FBD85B5846034
:102EA00085BD85B5806485BD80918A0083608093EF
:102EB0008A0080918B00816080938B0087E886B9BF
:102EC0001AB80FB6F894A89581B5886181BD11BC78
:102ED0000FBE2FB7F89490E080E0FC01EF5FFD4F4C
:102EE000108201968C309105C1F7809162008E7F2F
:102EF0008093620080916500877F80936500C4980D
:102F0000DB98DA98D998D8981B981D98C6981C9881
:102F1000C5982FBF9FB7F89480916100816080931E
:102F2000610080916400886080936400BC9AD39AA9
:102F3000D29AD19AD09A139A159ABE9A149ABD9A97
:102F40009FBF1FBC89E08EBD8CE093E09BBD8ABD16
:102F500087B7806187BF10920D0261E087E10E9410
:102F6000A20368E272E086E00E94B906A0912A02FC
:102F7000B0912B02E0912C02F0912D029C91809156
:102F80002902809598239C939081892380836EE207
:102F900072E08EE10E94B90620912F02A0913002CA
:102FA000B0913102E0913202F09133028C91922F74
:102FB000909598239C938081822B8083D12CC12C67
:102FC000BB24B394F601E752FE4FE4910E2F10E0BC
:102FD000C8010E94F80AF82EC80101960E94F80A5A
:102FE000E82EC80102960E94F80AA82EC80103968E
:102FF0000E94F80A90912B07F91638F5F601E45E65
:10300000FE4F00811181D8011196AC921197149650
:103010008C938F2DE11079C10E94BE014C0141E0DB
:1030200050E0B8010E948B11F401968385838F2DA7
:103030000E94BE017C0150E040E0B8010E948B116B
:10304000D70119969C938E931897A895F2E0CF0E0E
:10305000D11C28E1C216D10409F0B4CF61E070E0C0
:1030600084E090E00E941B239093300780932F0709
:10307000892B91F010E000E0E0902F07F0903007EE
:10308000E00EF11E802F0E943C0BD7018C930F5F46
:103090001F4F0430110581F780E00E94280B082F94
:1030A00010E081E00E94280B282F30E0322F2227E9
:1030B00022273E7F000F111F202B312B3093320728
:1030C0002093310780FF05C02160309332072093A1
:1030D00031078DE191E19093F1018093F0018DE949
:1030E00096E09093F3018093F2011092FE0110920A
:1030F000FD011092FC011092FB011092FA0181E097
:103100008093F9011092F80161E083E10E94740359
:1031100061E082E10E947403809171008E7F809350
:103120007100809171008D7F8093710088E480939D
:10313000700085E4809374008CED92E09093F70129
:103140008093F60188EE92E09093F5018093F4016C
:1031500082E0809372008CE08093700060E086E1F2
:103160000E94A203E9EAF2E08491E4E7F2E004912C
:10317000EFE3F2E014911111E0C081E080933C0292
:1031800080913C02811103C181E090E00E94F80A25
:1031900021E030E030931D0220931C0280931E0238
:1031A00081E190E00E94F80A21E130E030932002B2
:1031B00020931F028093210282E190E00E94F80A8E
:1031C00022E130E0309323022093220280932402F4
:1031D0008DE190E00E94E20B81FDBFC08DE190E0A7
:1031E00090932602809325021092270286E0809316
:1031F00057028093580260E00E94A20361E086E0DB
:103200000E94740360E088E00E94F80E88E19BE071
:103210000FB6F894A89581BD0FBE91BD62E0462E11
:10322000512C80913C02882309F497C38091350387
:10323000882309F40CC1E0912F03E152EF3508F027
:1032400000C1F0E0EA5DF64E0C94FE22AB1A211AA2
:10325000B51AD91AEB1AC71A211AF91A051B0F1B2E
:10326000191B231B2D1B371B411B4B1B561B211AE4
:10327000211A211A211A211A211A211A211A211A76
:10328000211A211A211A211A211A811A8D1A971A24
:10329000A11A211A211A211A211A211A211A211AD6
:1032A000211A211A211A211A211AD91AEB1A211AC4
:1032B000211A211A211A211A211A211A211A211A36
:1032C000211A211A211A5F1B211A161A1D1A2B1AEC
:1032D000301A211A211A211A211A211A211A211A07
:1032E000211A701B351A691A211A211A211A211A5A
:1032F000211A211A211A211A7A1B211A211A211A9C
:10330000B51B211A211A211A621C0E94BE01FC0160
:10331000B382F0E8EF1609F48ACEB1E8EB1295CE4D
:103320008F2D0E94BE017C0141E050E0B8010E9457
:103330008B11F7019683858388CE81110E943F030C
:10334000E12FF0E0EE0FFF1FE853FD4FA591B49180
:10335000EC91E02309F411CF13CF8DE190E00E94AE
:10336000E20B85FD0DC08091160190911701A0918F
:1033700018018093250290932602A093270236CF4E
:103380008091190190911A01A0911B01F2CF81E85F
:1033900093E00E94F80A80931F038150833018F055
:1033A00081E080931F038FE193E09093000280936C
:1033B000FF0160E0809120030E94A203A0912303FB
:1033C000B0912403E0912503F09126039C91809114
:1033D0002203809598239C93908189238083109267
:1033E0003303109234031092350310922B03109282
:1033F0002C0310922D0310922E031092270310928B
:1034000028031092290310922A03809120039CEF35
:10341000980F943020F08251843008F08FEF42E012
:1034200050E06EE077E00E94E804F0CE6091300357
:1034300081E090E00E94B30D04C0809130030E94AF
:10344000920D109233031092340310923503A89515
:103450000E94C502E6CE6091300383E090E0EACF9F
:103460006091300384E090E0E5CF60913003862FD7
:103470008F778093300320E030E0232B11F3661F19
:103480006627661F811121C081E0809317026111B8
:103490000EC08091170287FDD4CF60E090E00E94BB
:1034A0000000809117028F5F80931702F2CF809106
:1034B000170287FDC6CF61E090E00E940000809176
:1034C00017028F5F80931702F2CF90E00E940000F6
:1034D000B8CF809131038F3609F0B3CF80E090E010
:1034E000892B09F4AECF20913003622F661F662727
:1034F000661F80913203B0E88B9FC0011124822B9C
:10350000E5CF80E090E0892B09F49BCF60913003F8
:1035100081E090E00E94000094CF80E090E0892B51
:1035200009F48FCF6091300382E090E0F3CF80E028
:1035300090E0892B09F485CF6091300383E090E01F
:10354000E9CF80E090E0892B09F47BCF60913003D4
:1035500084E090E0DFCF80E090E0892B09F471CF28
:10356000809130030E9400006CCF80E090E0892BB6
:1035700009F467CF8091300390E087FF05C0819503
:1035800090E09195819591090E9400005ACF80E0CA
:1035900090E0892B09F455CF8091300390E087FFAC
:1035A00005C0819590E09195819591090E94000058
:1035B00048CF80E090E0892B09F443CF909130030D
:1035C00080E8890F61E070E097FD02C070E060E084
:1035D0000E94000036CF9091300380E8890F97FF5A
:1035E00003C00E94AE0B2DCF70E060E00E94C40BC0
:1035F00028CF80E090E0892B09F423CF609130033D
:1036000081E090E00E9400001CCF80E090E0892BD8
:1036100009F417CF6091300382E090E0F3CF80E0AF
:1036200090E0892B09F40DCF6091300383E090E0A6
:10363000E9CF80E090E0892B09F403CF609130035B
:1036400084E090E0DFCF80E090E0892B09F4F9CEB0
:103650006091300385E090E0D5CF80E090E0892B49
:1036600009F4EFCE6091300386E090E0CBCF80E0AC
:1036700090E0892B09F4E5CE6091300387E090E07B
:10368000C1CF80E090E0892B09F4DBCE609130035C
:1036900088E090E0B7CF80E090E0892B09F4D1CEAC
:1036A0006091300381E00E940000CBCE80E090E08A
:1036B000892B09F4C6CE6091300382E0F4CF80916B
:1036C00031038F3509F0BDCE80E090E0892B09F4FD
:1036D000B8CE90913203809130030E940000B1CEA9
:1036E00080E090E0892B09F4ACCE809130030E94F9
:1036F0000000A7CE0091300310E00F5F1C4FC801FF
:103700000E94D101882309F49CCE80911F030138C7
:10371000E3E01E07D9F00438F3E01F07B1F00538E5
:1037200023E0120781F00C3A33E0130771F00D3AF1
:1037300043E0140741F0043D53E0150731F0053D27
:1037400083E0180771F48AE001C08DE080931602CF
:103750009091310380911602981373CE0E942B042E
:1037600070CEC8010E94FA0AF1CFE09030030E2D0E
:1037700010E00F5F1C4F1093150200931402C80154
:103780000E94D101882309F45CCEB09031038B2DC7
:1037900090E09C01A4E035952795AA95E1F7A22F2A
:1037A000A170DA2EA09313029C01B3E03595279502
:1037B000BA95E1F7B22FB170CB2EB09312029C01F3
:1037C000359527952170F22EFF0C95958795959547
:1037D00087958170880F880F8F0D9B2D9170F82E23
:1037E000F90EF09211020138E3E01E07B1F4809166
:1037F0001F0380931002F1E0AF1789F1809110024E
:1038000090E002C095958795FA94E2F78170992728
:10381000C816190609F015CEA1CF043823E0120707
:1038200041F00C3A33E0130721F0043D43E0140764
:1038300091F58DE080931002A1E0DA12DFCFC8018C
:1038400084589340029708F4FCCD85E58E0D8230B4
:1038500008F4F7CD8DE28E0D823008F4F2CD81E0D0
:1038600090E0A0E0B0E004C0880F991FAA1FBB1F22
:10387000FA94D2F720911002B3FE1FC0822B8093DE
:10388000100260911002C8010E94F80D9091100280
:103890008913D7CD63CF053853E0150741F00D3AB2
:1038A00083E0180721F0053D93E0190711F48AE041
:1038B000C1CFC8010E94FA0ABDCF482F4095822F80
:1038C0008423DDCF0091300310E00F5F1C4F109375
:1038D0000F0200930E02C8010E94D101882309F44F
:1038E000B0CD0538B3E01B0709F4ABCD0D3AE3E0EA
:1038F0001E0709F4A6CD053DF3E01F0709F4A1CD8D
:10390000043823E0120741F00C3A33E0130721F0AA
:10391000043D43E0140749F480913103883029F4D1
:103920000E942B0E0E942B0409C060913103C80134
:103930000E94F80D909131038917A1F380910E0236
:1039400090910F028138934009F07BCD81E893E09C
:103950000E94F80A80931F0374CD80913402811174
:103960000DC00E94D30360933F0270934002809386
:1039700041029093420281E080933402809143029D
:10398000909144028130910509F4C5C208F43FC00A
:10399000029709F05CCD80912E07811102C00E9430
:1039A0009C0A80913D02882309F4E5C5E0912E022E
:1039B000F0E0EE0FFF1FE853FD4FA591B4918C91FD
:1039C00090912F02892309F089C080912607909158
:1039D0002707019709F0C8C51092270710922607FC
:1039E00080912E07811102C00E949C0A40912F02F3
:1039F00080912E0290E0880F991F9C0128533D4F23
:103A0000F901A591B4919C919423D1F367C0809161
:103A100048028823B1F00E94670400914902109186
:103A20004A0220914B0230914C02601B710B820BB9
:103A3000930B653171058105910518F080E00E94B6
:103A40005A0980916302882309F448C0F89488E0F9
:103A5000EEE6F2E0A3E3B7E001900D928A95E1F77C
:103A600010926302789430916E02E0E7F2E090E009
:103A700080E0391721F0219182279F5FFACF8111D1
:103A80002DC080E090E0892B21F083E397E00E9435
:103A9000000080913507811128C09091360791115F
:103AA00024C080E090E0892B19F080E00E940000A3
:103AB000809148028823A9F081E00E943109809119
:103AC0002E0781110E94DE090E94D30360933F02FA
:103AD0007093400280934102909342020E944F0FE4
:103AE000B6CC81E00E945A09EACF9091480299230E
:103AF00009F486C08057803108F07FC081E00E94C1
:103B000031091091330780914F0218130AC0412FD9
:103B100050E061E572E085E397E00E945C24892B28
:103B200061F010924E0288E0E3E3F7E0AFE4B2E028
:103B300001900D928A95E1F7C2CF80914E028F5F7E
:103B400080934E02133009F040C090913507892FC1
:103B50008770F0903607853029F4F0924D020E946C
:103B60005704ADCF0DE110E0843091F0282F30E004
:103B70008430F0F400914D020023D1F00150110B7C
:103B8000000F111F000F111F020F131F0F5F1F4F98
:103B900093FF10C061E0C8010E946E0E882309F4F3
:103BA0008ECF6F2DC8010E94D50EF81288CFD7CFC7
:103BB0008901ECCF60E0C8010E946E0E882309F4F1
:103BC0007ECFC8010E94080CF0CF143009F077CFE7
:103BD00080913507682F70E0762F6627662773700F
:103BE00090913607692B6F5F7F4F25E634E0409157
:103BF00037078C700E94BD0F62CF80E00E945A0987
:103C0000E0913507EF3F61F480913607811157CF7E
:103C100080E090E0892B09F452CF0E9400004FCF42
:103C2000E7FD0DC000913807209137074091360716
:103C300070E060E08E2F90E00E942B1040CFE03CBF
:103C400008F058C13091460237FF39CF209136072E
:103C5000822F90E08C0100951095000F111F000F2E
:103C6000111F007C1170EF730E2B95958795A82F6F
:103C7000A370BA2E80913307853041F52C782C3013
:103C800029F50E940A0C8017910721F00F3F11407F
:103C900009F015CF8091360790E0982F8827882764
:103CA000937020913707820F911D8C010F5F1F4F7A
:103CB000F090380761E0C8010E946E0E6F2D8823D6
:103CC00009F4FDCEC8010E94D50EF9CE6801E1E0ED
:103CD000CE1AD108CC0CDD1CCC0CDD1CCB28760117
:103CE000FFEFEF1AFF0A80915B028823F9F036FF9D
:103CF00041C0C70160E071E00E94EA22682F81E0C4
:103D000090E00E94D50EC701F7FE02C081509F4F80
:103D1000692F89E090E00E94D50E80E090E0892B29
:103D200019F0C7010E94000010925B0280914602C8
:103D300080FD39C080913307843009F04FC08091F5
:103D400036078978813009F0BACE6091370780E074
:103D500090E0892B19F0C7010E94000080E090E0FC
:103D6000892B09F4ACCE409137076B2DC7010E9417
:103D70000000A5CEB8016F73772781E090E00E9424
:103D8000D50EB80186E0759567958A95E1F789E0CB
:103D900090E00E94D50E80E090E0892B29F2C801C6
:103DA0000E940000C1CF86FF0DC00E940A0C8E1534
:103DB0009F0509F4BFCF2DEFE21627E0F2060CF0C5
:103DC000B9CF7DCE0E940A0C8017910709F4B2CFBB
:103DD0000F3F31E0130709F4ADCF71CE833069F5A1
:103DE00040913607542F5170C52E43FBDD24D0F887
:103DF00080E090E0892B31F047702D2DB801C7018C
:103E00000E9400008091460286FF0BC080E090E097
:103E1000892B09F454CE4D2D6C2DC7010E94000052
:103E20004ECE80E090E0892B09F449CE2D2D4C2D0B
:103E30006B2DC8010E94000042CE863009F03FCEB3
:103E400080913607982F9978913021F08F788038BB
:103E500009F035CE8091460286FF28C00E940A0CE8
:103E60008E159F05E9F48091370790E0382F2227BF
:103E70002227337000913807020F132F111D0F5F97
:103E80001F4FF09039079595879595958795837085
:103E900099278230910599F0039709F40BCF0FCE43
:103EA0008DEFE81687E0F806F4F609CE0E940A0CBA
:103EB00080179107C1F20F3F1140A9F200CEF4FE26
:103EC000FECD61E0C8010E946E0E882309F4F7CD93
:103ED000C8010E94080C9F2D977061E070E001C03E
:103EE000660F9A95EAF7F3FE02C0682BEBCE609559
:103EF0006823E8CEE83E08F0E2CDE05CFF0B80915D
:103F0000360700913907209138074091370761E063
:103F100070E09E2F91CE02E913E05AE0E52EF12CDD
:103F2000DD24D39463E6C62E73E0B72EE2E0AE2E16
:103F3000FBE13F2ED8011B968D919C91019709F0D2
:103F40003FC1F801E654F109808191813296608089
:103F50007180680E791EF801118A128A1682128603
:103F60001586168617861782108A138A118615827F
:103F700014829301359527954801FCE58F1A910825
:103F8000F40161E070E086899789A72FA69541E04A
:103F900050E04C0F5D1F4A0F511DDA0141E0281718
:103FA00039070CF040E04C93713248F4408D518D4C
:103FB000840F951F8E579109C19708F460E07E5FCA
:103FC0003496743201F7FE013196CE9C9001CF9C5D
:103FD000300D112444E157E0421B530B90E080E088
:103FE000708171118FC071817111A6C0D401A80FA9
:103FF000B91F1D961C92019632968930910581F762
:10400000F80180819181A281B38185519540A109F8
:10401000B10983359B40A105B10508F06EC1662347
:1040200009F46BC181E046E9641671040CF080E08C
:10403000D80151968C93F801EC54F1099081319795
:104040008081B9E08B9F802D1124939D800D1124D8
:1040500032979081890F31964081942F990F940F58
:10406000890FF8018683EB54F10946E9641671045F
:104070000CF42EC181E09081913009F080E0D801EC
:104080001D968C938989880F9F85890F880F9D8540
:10409000890F880F9B85890F91E009F090E0F80166
:1040A000968791E0813009F090E0D8011F969C93AB
:1040B00081118150F80187838289882309F456C0D1
:1040C0008C85880F9E85890F880F9889890F880FA6
:1040D0009A89890FEEEFE80FEE3008F047C0F0E064
:1040E000EC58FF4D0C94FE22A920A920B120B1204C
:1040F00054215421B620B620592159215D215D213A
:10410000622162217130C1F42180A1E02A1206C02F
:10411000DA01A80FB91F1D962C926DCF21100CC08B
:10412000D401A80FB91F1D96AC92853008F463CF57
:10413000D80152967C935FCF853048F0DA01A80F02
:10414000B91F1D96BC92D8015296DC9254CF60E004
:1041500057CFD8011996AC921997817053968C93CA
:1041600005C041E050E0F8015583448389E090E0C8
:10417000FAE0EF16F10411F08E199F09D8011C9690
:104180005C924E921B97C89EB001C99E700D11247F
:10419000FB01E356FC4F80819181029789F46D5BAE
:1041A0007C4F49E050E081E297E0821B930B0E9434
:1041B0005C24892B29F423E030E0F801348723873D
:1041C000F1E0EF1AF1080D591F4FE114F10409F065
:1041D000B1CEEDE9F3E090E080E020813181233041
:1041E000310509F092C023E6289F8001299F100D18
:1041F0001124F801E356FC4F84E090E09183808322
:104200000D5B1C4F0115110509F468CC680125E50B
:10421000C20ED11CD601EC91E0901E02F0E0F12C10
:10422000CF018E199F098130910509F4D8C00CF097
:1042300074C0892B09F043CC80911B02D801A45A89
:10424000BF4F9C91992309F48EC0806180931B021B
:1042500090911B02D801A85ABF4F8C91823009F46B
:104260009DC008F082C0813009F48CC020911B02EF
:1042700041E050E070E060E0CF010E945A0CF8018C
:10428000ED5AFF4F808191818130910509F09CC0EA
:1042900033960DE110E021E030E0408170E060E015
:1042A000C7010E944D0B0BCCD8011996BC921997EF
:1042B00054CFF8015582448259CFD8011996DC9227
:1042C00019974BCF44E0F80141878170838B4ECF23
:1042D0008081811112C08F85880F9D85890F880F7D
:1042E0009B85890FD8011A968C9381E0998991302A
:1042F00009F080E0F801808B39CFE5E0F0E0D801EB
:104300001C96FC93EE931B975BCF0196ED59FF4FE4
:104310008A30910509F061CFE1CB8230910509F433
:10432000AAC0039709F0CBCB80E390E00E94E20B98
:1043300083FFC5CB80911802F801E85AFF4F9081A6
:10434000923009F4FBC008F0E0C0913009F4EAC0F3
:10435000F60180812091180244E050E070E060E0B6
:104360008350990B57C08F7E71CF833009F1843011
:1043700009F07CCFD801AE59BF4F8C91882311F141
:10438000986007C0D801AE59BF4F8C91882321F0A7
:10439000916090931B026ACF9E7FFBCFD801AE59EC
:1043A000BF4F8C91882311F09260F3CF9D7FF1CFA6
:1043B000D801AE59BF4F8C91882311F09460E9CF9A
:1043C0009B7FE7CF977FE5CF029709F078CBF80185
:1043D000EA5AFF4F0DE110E030E020E05ECF80E3CD
:1043E00090E00E94E20B81FF6ACB80911A02F801F3
:1043F000E85AFF4F9081923041F178F49130C9F042
:10440000F601808120911A0242E050E070E060E005
:104410008150990B0E945A0C52CB933001F1943089
:1044200079F7F801EE59FF4F9081992311F18860D7
:1044300007C0F801EE59FF4F9081992321F0816068
:1044400080931A02DDCF8E7FFBCFF801EE59FF4F2C
:104450009081992311F08260F3CF8D7FF1CFF80125
:10446000EE59FF4F9081992311F08460E9CF8B7F43
:10447000E7CF877FE5CF80E390E00E94E20B82FFE9
:104480001ECB80911902F801E85AFF4F90819230BB
:1044900031F168F49130B9F0D6018C912091190274
:1044A00043E050E070E060E08250990BB3CF93306E
:1044B00001F1943089F7F801EE59FF4F908199236B
:1044C00011F1886007C0F801EE59FF4F90819923E0
:1044D00021F0816080931902DFCF8E7FFBCFF8013E
:1044E000EE59FF4F9081992311F08260F3CF8D7FB9
:1044F000F1CFF801EE59FF4F9081992311F08460BC
:10450000E9CF8B7FE7CF877FE5CF933009F19430F8
:1045100009F01ECFF801EE59FF4F9081992311F158
:10452000886007C0F801EE59FF4F9081992321F070
:104530008160809318020CCF8E7FFBCFF801EE597B
:10454000FF4F9081992311F08260F3CF8D7FF1CFDF
:10455000F801EE59FF4F9081992311F08460E9CF63
:104560008B7FE7CF877FE5CF81E090E090932707AF
:104570008093260735CAE0912802F0E0EE0FFF1F76
:10458000E853FD4FA591B4918C9190912902892314
:1045900039F481E090E090932707809326079ECA24
:1045A000109227071092260799CAE199FECF9FBB68
:1045B0008EBBE09A99278DB30895262FE199FECFFF
:1045C0009FBB8EBB2DBB0FB6F894E29AE19A0FBE4B
:1045D0000196089597FB072E16F4009407D077FDF7
:1045E00009D00E94072307FC05D03EF490958195E1
:1045F0009F4F0895709561957F4F0895EE0FFF1FAF
:104600000024001C0BBE0790F691E02D0994AA1B14
:10461000BB1B51E107C0AA1FBB1FA617B70710F0AD
:10462000A61BB70B881F991F5A95A9F780959095DF
:10463000BC01CD0108950F931F93CF93DF93869F05
:104640008001879F100D969F100D1124C8010E94B4
:104650003723EC01009729F0A80170E060E00E9488
:104660006924CE01DF91CF911F910F9108950F938F
:104670001F93CF93DF938230910510F482E090E096
:10468000E0917907F0917A0730E020E0B0E0A0E017
:10469000309799F42115310509F44AC0281B390BCC
:1046A00024303105D8F58A819B816115710589F126
:1046B000FB0193838283FE0111C0408151810281FD
:1046C000138148175907E0F04817590799F41097D4
:1046D00061F012960C93129713961C933296CF01A9
:1046E000DF91CF911F910F91089500937907109357
:1046F0007A07F4CF2115310551F04217530738F0EE
:10470000A901DB019A01BD01DF01F801C1CFEF0171
:10471000F9CF90937A0780937907CDCFFE01E20F0E
:10472000F31F819391932250310939832883D7CF86
:104730002091770730917807232B41F420911201C3
:10474000309113013093780720937707209110015F
:10475000309111012115310541F42DB73EB740913B
:10476000140150911501241B350BE0917707F0914E
:104770007807E217F307A0F42E1B3F0B2817390721
:1047800078F0AC014E5F5F4F2417350748F04E0FAD
:104790005F1F5093780740937707819391939FCF42
:1047A000F0E0E0E09CCFCF93DF930097E9F0FC01CD
:1047B000329713821282A0917907B0917A07ED01A6
:1047C00030E020E01097A1F420813181820F931F07
:1047D00020917707309178072817390709F061C0D1
:1047E000F0937807E0937707DF91CF910895EA017E
:1047F000CE17DF07E8F54A815B819E01411551051F
:10480000B1F7E901FB83EA8349915991C40FD51FA0
:10481000EC17FD0761F4808191810296840F951F4A
:10482000E90199838883828193819B838A83F0E065
:10483000E0E012968D919C9113970097B9F52D9118
:104840003C911197CD010296820F931F209177071B
:10485000309178072817390739F6309751F51092BB
:104860007A0710927907B0937807A0937707BCCFA7
:10487000D383C28340815181840F951FC817D90704
:1048800061F44E5F5F4F88819981480F591F5183B2
:1048900040838A819B81938382832115310509F0AE
:1048A000B0CFF0937A07E09379079ECFFD01DC014A
:1048B000C0CF13821282D7CFFB01DC0104C08D91DF
:1048C0000190801921F441505040C8F7881B990B82
:1048D0000895DC0101C06D9341505040E0F7089508
:0448E000F894FFCF7A
:1048E400B90100000000000000000000000000000A
:1048F40000007B0780001D00021D002272076D0767
:10490400680763075E07590754074F074A074507B7
:1049140040073B070000000054021203F6019B020B
:1049240027020502190200000000A5069206B60639
:0849340068068B06780669068F
:00000001FF
