:100000000C9460010C94DA130C94AF130C948413C9
:100010000C9459130C942E130C9403130C94D812B3
:100020000C94AD120C948A010C948A010C948A01F0
:100030000C9429150C948A010C948A010C948A0161
:100040000C9463120C948A010C942D120C940312DC
:100050000C948A010C948A010C948A010C948A01F4
:100060000C948A010C948A010C948A010C948A01E4
:100070000C948A010C948A010C948A010C948A01D4
:100080000C948A010C9405140C948A013D03000021
:10009000000000080D0000000000000101C0800009
:1000A000000000000000000000060000000000004A
:1000B0000000000000000000000000000000000040
:1000C0000000000000007F000000000000000000B1
:1000D0000000000000000000000000000000000020
:1000E0000000000000000000000000000000000010
:1000F0000000000000000000000000000000800080
:1001000000008000010080000100800001008000EC
:1001100001008000010080000200800003008000D8
:1001200003008000030080000300800003008000C3
:1001300003008000040080000400800005008000AF
:100140000680FF000681FF00FF000000FF000000A6
:10015000FF000000FF000000FF000000FF000000A3
:10016000FF000000FF000000FF000000FF00000093
:10017000FF000000FF000000FF000000FF00000083
:10018000FF000000FF000000FF000000FF00000073
:10019000FF000000FF000000FF00000000003A0028
:1001A00037003400310022006100640000003B0091
:1001B00038003500320023006200650070007400D2
:1001C00078007C008000840088008C0090009400FF
:1001D00098009C00A000A400A800AC00B000B400EF
:1001E000B800BC00C000C400C800CC00D000D400DF
:1001F000D800DC00E000E400E800EC00F000F400CF
:10020000F800FC000001040108010C0100003900A5
:10021000360033003000210020006300050505058D
:100220000505050502020202020202020707040494
:100230000404040404040707030303030303030380
:100240000701010101010101010606060606060675
:10025000060102040810204080010204081020401A
:1002600080081001020408102040800102010204ED
:100270000810204080048040201008040201010280
:100280000408102040800000000A0B0C0000000051
:10029000000001040506000000000000000000004E
:1002A000000000000000000000000000000000004E
:1002B0000000000000000000000000002316CD2315
:1002C00011241FBECFEFD0E1DEBFCDBF11E0A0E013
:1002D000B1E0ECE9FBE400E00BBF02C007900D9237
:1002E000A636B107D9F727E0A6E6B1E001C01D9216
:1002F000AF3AB207E1F711E0CFE5D1E004C02197B2
:10030000FE010E944F24CE35D107C9F70E94421842
:100310000C94C1250C94000008959C016115710591
:1003200029F06130710571F080E008958091130724
:100330008217130681F09091160781E09217130639
:1003400099F7089581E040911407509115074217DD
:10035000530751F7F6CF81E0F4CF81E08093460256
:10036000089520911E0730911F072115310549F08E
:1003700090E0880F991F820F931FFC01808191816B
:10038000089590E080E0089520919807213099F435
:100390009C012458334028323105C8F0813823E0CD
:1003A0009207A9F09C012C5F334081E02530310594
:1003B00078F080E00895223021F49C012C5A3340DB
:1003C000EACF233059F79C01245D3340E4CF81E02C
:1003D0000895FC01538D448D252F30E0842F90E04B
:1003E000821B930B541710F0CF9608950197089530
:1003F000FC01918D828D981761F0A28DAE0FBF2FF9
:10040000B11D5D968C91928D9F5F9F73928F90E04E
:1004100008958FEF9FEF0895FC01918D828D9817BD
:1004200031F0828DE80FF11D858D90E008958FEFFA
:100430009FEF0895FC01918D228D892F90E0805CC3
:100440009F4F821B91098F7399270895FC01A48DFA
:10045000A80FB92FB11DA35ABF4F2C91848D90E0E6
:1004600001968F739927848FA689B7892C93A089C9
:10047000B1898C9180648C93938D848D981306C080
:100480000288F389E02D80818F7D80830895EF922B
:10049000FF920F931F93CF93DF93EC0181E0888F3E
:1004A0009B8D8C8D981316C0E889F989808185FF12
:1004B00011C0EE89FF896083E889F98980818064B1
:1004C000808381E090E0DF91CF911F910F91FF90A9
:1004D000EF900895F62E0B8D10E00F5F1F4F0F73F6
:1004E0001127E02E8C8D8E110CC00FB607FCFACFB1
:1004F000E889F989808185FFF5CFCE010E94260227
:10050000F1CFEB8DEC0FFD2FF11DE35AFF4FF08281
:100510000B8FEA89FB8980818062D2CFCF93DF93F2
:10052000EC01888D8823B9F0AA89BB89E889F9890B
:100530008C9185FD03C0808186FD0DC00FB607FC40
:10054000F7CF8C9185FFF2CF808185FFEDCFCE0173
:100550000E942602E9CFDF91CF9108958FE792E0C4
:100560000E941A0221E0892B09F420E0822F0895CD
:1005700080E090E0892B29F00E94AE0281110E9458
:10058000000080E090E0892B49F080E090E0892B2A
:1005900029F00E94000081110C9400000895E09160
:1005A0000002F0910102309729F010920A02109295
:1005B000090209940895CF93DF93AC01E091FE0105
:1005C000F091FF013097F1F090910C0280910B02B5
:1005D0009817C0F090E0292F30E02617370754F421
:1005E000D901A259BE4F240F351FE90128812C9350
:1005F0009F5FF1CF10920C0260930B02CB01DF9151
:10060000CF910994DF91CF910895DC011296ED917D
:10061000FC91139711969C911197808161110EC0E6
:100620009095982390831496ED91FC911597908165
:1006300011968C918095892380830895623061F4AE
:100640009095982390831496ED91FC911597808155
:1006500011969C91892BF0CF982B90830895AF929F
:10066000BF92CF92DF92EF92FF920F931F93CF939F
:10067000DF936C017B018B01040F151FEB015E0101
:10068000AE18BF08C017D10759F06991D601ED9196
:10069000FC910190F081E02DC6010995892B79F735
:1006A000C501DF91CF911F910F91FF90EF90DF90E7
:1006B000CF90BF90AF90089581508C3088F5E82F8F
:1006C000F0E0EB59FC4F0C944F248D038D03900305
:1006D0007103750378037B03900390037F03850305
:1006E00089038FB58F778FBD08958FB58F7DFBCF31
:1006F0008FB5877FF8CF85B58F7D85BD08958091B3
:100700008B008F7780938B00089580918B008F7D75
:10071000F9CF80918B00877FF5CF83B78F7D83BF23
:1007200008951F93CF93DF93282F30E0F901EA5704
:10073000FD4F8491F901EF5AFD4FD491F901E45E28
:10074000FD4FC491CC23A9F0162F81110E945C03A8
:10075000EC2FF0E0EE0FFF1FE455FE4FA591B49192
:100760008FB7F894EC91111108C0D095DE23DC937B
:100770008FBFDF91CF911F910895DE2BF8CFCF93DC
:10078000DF9390E0FC01EF5AFD4F2491845E9D4F72
:10079000FC0184918823D1F090E0880F991FFC011F
:1007A000E456FE4FA591B491FC01E455FE4FC5916E
:1007B000D49161110EC09FB7F8948C91E22FE0950F
:1007C0008E238C932881E223E8839FBFDF91CF9112
:1007D00008958FB7F894EC91E22BEC938FBFF6CF8E
:1007E0003FB7F8948091FA019091FB01A091FC0130
:1007F000B091FD0122B706B600FE05C02F3F19F0EB
:100800000196A11DB11D3FBFBA2FA92F982F882790
:10081000BC01CD01620F711D811D911D42E0660F6B
:10082000771F881F991F4A95D1F708958F929F923D
:10083000AF92BF92CF92DF92EF92FF924B015C0199
:100840000E94F0036B017C010E94F0036C197D098A
:100850008E099F09683E734081059105A8F321E048
:10086000821A9108A108B10888EEC80E83E0D81E4C
:10087000E11CF11C81149104A104B10429F7FF903B
:10088000EF90DF90CF90BF90AF909F908F900895A2
:1008900061E08FE10E94910364E070E080E090E00D
:1008A0000E94160460E08FE10C9491030C944804BC
:1008B0002FB7F8946091F6017091F7018091F801DB
:1008C0009091F9012FBF0895E82FF0E0DF01AA0F02
:1008D000BB1FA050BF4F11967C936E938830A8F435
:1008E000EC58FB4F0C944F247C0486049304A10421
:1008F000AF04B604C104CD0480916A008C7F482BFC
:1009000040936A0089B7816089BF089580916A0029
:10091000837F440F551F440F551F482B40936A0097
:1009200089B78260F1CF80916A008F7C74E0440FB8
:10093000551F7A95E1F7482B40936A0089B7846088
:10094000E3CF80916A008F7366E0440F551F6A956C
:10095000E1F7482B40936A0089B78860D5CF8AB702
:100960008C7F482B4ABF89B78061CECF8AB7837FFF
:10097000440F551F440F551F482B4ABF89B780624B
:10098000C3CF8AB78F7C24E0440F551F2A95E1F727
:10099000482B4ABF89B78064B7CF8AB78F7396E078
:1009A000440F551F9A95E1F7482B4ABF89B78068D5
:1009B000ABCF883010F40C94640408950E94F003C7
:1009C00020916C0130916D01FB01E21BF30B209132
:1009D000660230916702E217F30708F438C12091EC
:1009E00068023091690270936D0160936C014091CF
:1009F0006A0250916B024130510599F148F0423042
:100A0000510509F4B9C04330510509F4EFC0089508
:100A1000E217F30708F0D4C080916D028F5F8093D6
:100A20006D028B3008F413C181E090E090936B026B
:100A300080936A0241E050E06EED74E080916002C4
:100A40000E94D90410926B0182E590E090936902B4
:100A50008093680283E290E090936702809366023D
:100A6000089540916B014130A9F038F0433009F40A
:100A700049C0443009F47CC00895E217F30730F40C
:100A800091E090936B01E0936A01089584E0809374
:100A90006B010895E217F30798F510926B0190919E
:100AA0006D029F5F90936D028E2FEE0F990B209138
:100AB0006A01821B910927FD939597FF03C09195C9
:100AC0008195910949970CF4C2C010926B02109263
:100AD0006A0282E990E0909369028093680282E55D
:100AE00090E0909367028093660210926D024091AD
:100AF0004E0250E06EED74E0809160020C94D904D7
:100B000083E0C5CFE217F30700F380914E028330F4
:100B100061F582E080934E0282E090E090936B0258
:100B200080936A0282E990E0909369028093680260
:100B300082E590E0909367028093660210926F02C4
:100B4000109271021092720210927302109274024B
:100B5000109275021092760280916D02809370025D
:100B600010926D0210926E02C2CF40934E02D4CF0B
:100B7000E217F30788F6A9CF50916D025F5F50939B
:100B80006D0240916E02440FE217F307E0F04093CC
:100B90006E02583009F05BC0E0916F02E630A9F4B4
:100BA00010926B0210926A0282E990E090936902BF
:100BB0008093680282E590E09093670280936602DA
:100BC00010926D0208954160E2CF83E090E090932F
:100BD0006B0280936A0281E08E0F80936F02F0E0D7
:100BE000E659FD4F80916E0287830895E217F3075F
:100BF000F8F410926B0210926A0210926D0282E970
:100C000090E0909369028093680282E590E090936F
:100C100067028093660288E0EFE6F2E0A7E7B2E0C1
:100C200001900D928A95E1F781E080936C0208951E
:100C300080916F02863009F4B3CF82E090E0909308
:100C40006B0280936A0210926D0210926E020895F8
:100C500085ED809374008091740084FDFCCF109228
:100C6000080208952091AE01260F3327331F213249
:100C70003105ECF420910802FC0190E080E0243082
:100C800069F082E00895A091AE012191AC01425734
:100C90005E4FA40FB52FB11D2C930196861798F3C4
:100CA0008091AE01680F6093AE0180E0089581E00D
:100CB00008950895E0910C0280910B02E81730F43A
:100CC000F0E0E259FE4F808190E008958FEF9FEFB2
:100CD000089590910C0280910B022FEF3FEF98172F
:100CE00048F4E92FF0E0E259FE4F208130E09F5FA9
:100CF00090930C02C901089580910B0290910C020F
:100D0000891B990B0895CF93DF93CB01EA01642FE0
:100D10000E943206CE01DF91CF91089544E050E069
:100D200066E671E08CE193E00C948306CF93DF9349
:100D30001F92CDB7DEB7698361E0CE0101960E94B4
:100D4000320681E090E00F90DF91CF91089590E01E
:100D500080E00895CF93DF93DC01EC91F0E0EE0F9B
:100D6000FF1FE45FFD4FC591D491988111968C913E
:100D7000982381E009F480E0DF91CF910895CF932B
:100D8000DF93EC018A819B810E94AA06E989288968
:100D9000EC0FFD2FF11D8823D1F081E090E0A0E061
:100DA000B0E004C0880F991FAA1FBB1F2A95D2F775
:100DB0002485822B848788898F5F888B0E94F0032B
:100DC000688779878A879B87DF91CF91089581E033
:100DD00090E0A0E0B0E004C0880F991FAA1FBB1FDD
:100DE0002A95D2F7809594858923E4CF0F931F939A
:100DF000CF93DF93C0910D02D0910E028A898111A9
:100E00004EC00E9458040C811D812E813F81601BC1
:100E1000710B820B930B6A3071058105910578F097
:100E2000188A198A0E9458046C837D838E839F835D
:100E3000CE01DF91CF911F910F910C94BF060E94BC
:100E4000F003088519852A853B85601B710B820B91
:100E5000930B6B3071058105910508F10E94F00339
:100E6000088519852A853B85601B710B820B930BC6
:100E7000643F71408105910590F4CE010E94BF0648
:100E80008889883061F40E9458046C837D838E8346
:100E90009F83188A8989811107C081E0898BDF913E
:100EA000CF911F910F910895813081F48C858E36FA
:100EB00011F08E3511F482E0F1CF982F977F97379C
:100EC000D1F38B37C1F381E08A8BE9CF8230D9F738
:100ED0008C858E3611F08E35B1F783E0DFCF80E060
:100EE00090E0892B29F08091650283FD0C9400002D
:100EF0000895E82FF0E0E15FFD4F608308950F93C0
:100F00001F93CF93DF93FC018281813089F040F001
:100F1000823009F47AC0DF91CF911F910F9108952B
:100F200061E08081DF91CF911F910F910C9491032B
:100F30000181C02FD0E0108161E0812F0E94BF03AA
:100F4000209719F460E0812FEDCFCF3FD10511F448
:100F500061E0F9CFE12FF0E0EA57FD4FE491E15075
:100F6000EC3008F04DC0F0E0E854F84F0C944F24FA
:100F7000C407C4070008C907CF07D507DD07000865
:100F80000008E207EC07F60783B7806283BF01BF62
:100F9000C2CF8FB580688FBDDBBDCABDBCCF8FB55A
:100FA00080628FBDD9BDC8BDB6CF8FB588608FBDFB
:100FB000D0937900C0937800AECF85B5806285BDAF
:100FC00003BDA9CF80918B00806880938B00D09364
:100FD0008700C09386009FCF80918B0080628093B2
:100FE0008B00D0938500C093840095CF80918B00B7
:100FF000886080938B00D0938300C09382008BCF56
:10100000C038D1050CF0A4CF9DCF8181E381F0E001
:10101000E15FFD4F80837FCF0F931F93CF93DF93CB
:10102000D62F8C01C0E0CD1741F0F801819191914C
:101030008F010E947F07CF5FF6CFDF91CF911F9185
:101040000F9108950F931F93CF93DF93162F082FBF
:10105000EC018CE193E00E94690689938C2F801B40
:101060008117B8F3812FDF91CF911F910F910895D0
:101070008F929F92AF92BF92CF92DF92EF92FF92A8
:101080000F931F93CF930E94F003AB01BC0180919B
:101090002A0390912B03A0912C03B0912D038A0178
:1010A0009B01081B190B2A0B3B0B809132038823F1
:1010B00009F47FC08091340390913303E92FEE0F40
:1010C000FF0BA82F082E000CBB0BC3E68C02E00D13
:1010D000F11D1124E85DFC4F178B068B053F114075
:1010E0002105310508F054C09F5F90933303909120
:1010F00033039332C9F593E69A9F90019B9F300D7D
:101100001124285D3C4FF901E45AFF4FC0902E0393
:10111000D0902F03E0903003F09031034A015B013F
:101120008C189D08AE08BF0875016401C082D18289
:10113000E282F38229593F4FE1E0F0E0D901ED93DB
:10114000FC938F5F8A3094F580933403E0913403ED
:10115000B3E6EB02F0011124E157FC4F118210823B
:10116000109232031092330340932A0350932B03BF
:1011700060932C0370932D03CF911F910F91FF90DB
:10118000EF90DF90CF90BF90AF909F908F90089599
:101190001092330391E09093320340932E035093C7
:1011A0002F036093300370933103A1CF1092340367
:1011B000CDCF053F114021053105B0F281E080938C
:1011C000320340932E0350932F03609330037093A8
:1011D0003103CACFE82FF0E0E15FFD4F608308954F
:1011E000CF93DF93C8E9D7E061E08A819B810E94B9
:1011F0000503AA81BB811496ED91FC91159790810E
:1012000011968C9180958923808361E070E080E065
:1012100090E00E941604AA81BB811496ED91FC9186
:101220001597808111969C91892B808360E08A813B
:101230009B81DF91CF910C940503CF93FC018281B8
:10124000813051F020F0823079F0CF91089560E044
:101250008081CF910C949103C08161E08C2F0E941A
:10126000BF0360E08C2FF5CFE381F0E0E15FFD4F3D
:101270001082EBCF80934702882321F087E897E024
:101280000C947F0787E897E00C941D09CF93C82F33
:10129000809151028C1731F081E0C11101C080E0D2
:1012A0000E943A09C093510260E070E0CB01C11185
:1012B0000E94580460935202709353028093540228
:1012C00090935502809151028C1739F081E0C11141
:1012D00001C080E0CF910C943A09CF910895EF922C
:1012E000FF920F931F93CF93DF938C01FC01C58175
:1012F000D681209751F0E480F12CEF1431F08991E0
:1013000099910E941D09F394F8CFF801C085D18509
:10131000209751F0078110E0011731F089919991E0
:101320000E941D091F5FF8CFDF91CF911F910F9190
:10133000FF90EF9008950F931F93CF938C01C42FCC
:101340000E948D018823E1F180911607482F50E01B
:10135000C03128F5882319F12C2F30E08091230724
:10136000909124070C2E02C0969587950A94E2F777
:1013700080FF15C00417150719F580911E0790917D
:101380001F070097E9F0220F331F820F931FFC0104
:1013900080819181CF911F910F910C946F09041757
:1013A000150771F080911E0790911F07009741F07B
:1013B0004C2F50E0440F551F480F591FFA01E8CF3A
:1013C000CF911F910F910895CF9380912107909114
:1013D0002207892BA1F1C0E080911D07C81778F57D
:1013E0008C2F86958695869590E0E0912107F09167
:1013F0002207E80FF91F208130E04C2F50E063E016
:10140000880F991F6A95E1F7BA01681B790B02C032
:10141000359527956A95E2F720FF0FC080911E074A
:1014200090911F07009749F0440F551F840F951F97
:10143000FC01808191810E946F09CF5FCDCF109216
:101440002007CF9108950F931F93CF93DF93EC0163
:101450008B81882379F08B0189819A818617970780
:1014600029F0CE010E946F091A83098389819A812C
:10147000019731F48D819E81009769F06C8105C0E0
:1014800088859985009739F06F81DF91CF911F9101
:101490000F910C940C08DF91CF911F910F9108953B
:1014A0000F931F93CF938C01C42F0E948D0188232B
:1014B00009F444C080911607482F50E0C03148F528
:1014C000882339F12C2F30E0809123079091240755
:1014D0000C2E02C0969587950A94E2F780FF19C0FA
:1014E0000417150759F580911E0790911F07009763
:1014F00029F160911A0770911B07220F331F820F89
:10150000931FFC0180819181CF911F910F910C94C9
:10151000230A0417150791F080911E0790911F0769
:10152000009761F060911807709119074C2F50E0F7
:10153000440F551F480F591FFA01E4CFCF911F9157
:101540000F910895CF93C0E080911D07C81798F4BC
:1015500080911E0790911F07009759F02C2F30E0C3
:10156000220F331F820F931FFC01808191810E9403
:101570006F09CF5FE9CF8091210790912207892BD6
:10158000C1F1C0E080911D07C81798F58C2F869592
:101590008695869590E0E0912107F0912207E80F6B
:1015A000F91F208130E04C2F50E063E0880F991F35
:1015B0006A95E1F7BA01681B790B02C0359527954A
:1015C0006A95E2F720FF13C080911E0790911F07D4
:1015D000009769F06091180770911907440F551F23
:1015E000840F951FFC01808191810E94230ACF5FA7
:1015F000C9CF81E080932007CF910895CF92DF92E9
:10160000EF92FF920F931F93CF93DF93EC017B0137
:1016100041305105F9F4CD80DE802496C114D10407
:10162000E9F462E070E081E090E00E946C248C01BB
:10163000009731F0FC01F182E08288818F5F88831E
:10164000C801DF91CF911F910F91FF90EF90DF9034
:10165000CF900895C884D9842796E0CF88818F5F82
:101660008883C82FD0E062E070E0CE010E946C2435
:101670008C0120E0BE0161507109822F90E0861735
:10168000970774F4880F991FF601E80FF91F40813E
:101690005181800F911FFC01518340832F5FEDCF5B
:1016A000C150D048CC0FDD1FC00FD11FF982E88296
:1016B000C6010E942425C4CF0E944609EFE4F2E04F
:1016C00081E087831086E8E5F2E088E0DF011D9283
:1016D0008A95E9F708950C942624CF93863823E061
:1016E000920719F130F481389340D1F08FEFCF9108
:1016F0000895873823E09207D9F088389340B1F7EE
:1017000086E893E00E946B0BC82F87E893E00E9465
:101710006B0B90E02FEFC29F800D911D112402C032
:1017200081E893E0CF910C946B0B86E893E0FACFBD
:1017300087E893E0F7CFCF93C82F8FE290E00E9425
:101740006B0B811109C085E190E0CC2311F086E19B
:1017500090E0CF910C946B0B80E0CF910895CF93E4
:10176000C82F8FE290E00E946B0B811106C08C2F76
:1017700090E0CA96CF910C946B0B80E0CF910895C6
:10178000DF92EF92FF920F931F93CF93DF938C0121
:101790007B01D42EE9010E948D018111D0921C079A
:1017A0008DE190E00E946B0BD82EB701C8010E941A
:1017B0008D018823B1F0809116078017110629F555
:1017C00080911A0790911B07C817D90751F0809193
:1017D00017078823A9F0219761F410921B07109234
:1017E0001A07DF91CF911F910F91FF90EF90DF903B
:1017F000089581E090E090931B0780931A07F1CF42
:10180000D0931B07C0931A07ECCF809118079091D3
:101810001907C817D90729F3D0FE0EC0219729F45C
:101820001092190710921807DCCF81E090E0909396
:10183000190780931807D5CFD0931907C0931807BD
:10184000D0CF0F931F93CF93C82F81E090E00E94D9
:101850006B0B0FE710E021E030E04C2F70E060E010
:1018600090E00E94C00BCF911F910F9108950F93AC
:101870001F93CF936130710529F4CF911F910F9180
:101880000C94210CC82F81E090E00E946B0B0FE7B5
:1018900010E030E020E04C2F70E060E090E00E942B
:1018A000C00BCF911F910F9108951F93CF93DF939A
:1018B000EC0180914702882359F08FE090E00E946C
:1018C0006B0B182F80E190E00E946B0B181306C081
:1018D000CE01DF91CF911F910C946B0B87E897E0BD
:1018E0000E941D090FB6F894A89581B5886181BD45
:1018F00011BC0FBEFFCF0C94550CCF93DF932091FA
:101900006202309163022F3F320721F0C901DF915B
:10191000CF9108958091650287FF2BC086FF0FC08D
:1019200089E090E00E947B0CC82F81E090E00E944B
:101930007B0C9C2F909363028093620215C089E018
:1019400090E00E947B0CC82F81E090E00E947B0C0D
:1019500090E4C99F90011124207C31708F73282B53
:10196000309363022093620280916202909163023D
:10197000CECF85FF0CC081E190E00E947B0CC82F88
:1019800082E190E00E947B0CC05CDD0BD2CF81E055
:1019900090E00E947B0C90E0CDCFFF920F931F93BD
:1019A000CF93DF93EC018B01F22E4330510509F404
:1019B0007EC068F441305105E9F04230510509F428
:1019C00058C0DF91CF911F910F91FF90089545303E
:1019D000510509F4D4C008F488C04630510589F790
:1019E00040E024FF2CC0DF91CF911F910F91FF9019
:1019F0000C94500A80913C0281112BC040E0B80148
:101A0000CE01F4FE23C00E94500A41E0B801CE018D
:101A1000F0FE26C00E94500A42E0B801CE01F1FE5D
:101A200022C00E94500A43E0B801CE01F2FE1EC05F
:101A30000E94500A44E0B801CE01F3FCD4CFDF91FC
:101A4000CF911F910F91FF900C949B090E949B09CD
:101A5000DCCF8DE190E00E947B0C81FDCFCFD5CF14
:101A60000E949B09D9CF0E949B09DDCF0E949B0950
:101A7000E1CF45E020FF12C00E94500A46E0B801C5
:101A8000CE01F1FE0EC00E94500A47E0B801CE011F
:101A9000F2FE0AC00E94500A48E0CDCF0E949B0986
:101AA000EDCF0E949B09F1CF0E949B09F5CF49E041
:101AB00020FF12C00E94500A4AE0B801CE01F1FE98
:101AC0000EC00E94500A4BE0B801CE01F2FE0AC0DF
:101AD0000E94500A4CE0AFCF0E949B09EDCF0E94BC
:101AE0009B09F1CF0E949B09F5CF4DE020FF32C04A
:101AF0000E94500A4EE0B801CE01F1FE2EC00E94B5
:101B0000500A4FE0B801CE01F2FE2AC00E94500AEE
:101B100040E1B801CE01F3FE26C00E94500A41E127
:101B2000B801CE01F4FE22C00E94500A42E1B80181
:101B3000CE01F5FE1EC00E94500A43E1B801CE015D
:101B4000F6FE1AC00E94500A44E1B801CE01F7FE29
:101B500076CF49CF0E949B09CDCF0E949B09D1CF60
:101B60000E949B09D5CF0E949B09D9CF0E949B0957
:101B7000DDCF0E949B09E1CF0E949B09E5CF45E1A3
:101B800020FF2EC00E94500A46E1B801CE01F1FEAE
:101B90002AC00E94500A47E1B801CE01F2FE26C0D9
:101BA0000E94500A48E1B801CE01F3FE22C00E9413
:101BB000500A49E1B801CE01F4FE1EC00E94500A4D
:101BC0004AE1B801CE01F5FE1AC00E94500A4BE16D
:101BD000B801CE01F6FE16C00E94500A4CE1B5CF06
:101BE0000E949B09D1CF0E949B09D5CF0E949B09DF
:101BF000D9CF0E949B09DDCF0E949B09E1CF0E94B3
:101C00009B09E5CF0E949B09E9CFCF93C82F81E0C4
:101C100090E00E946B0B2C2F42E050E070E060E0FF
:101C200090E00E94CD0C81E090E00E946B0B2C2F85
:101C300030E094E0359527959A95E1F743E050E040
:101C400070E060E090E0CF910C94CD0CCF938230A7
:101C5000910511F1C62F8330910520F4019779F099
:101C6000CF91089583309105D9F00497C9F781E0A9
:101C700090E00E946B0B2C2F45E050E007C081E004
:101C800090E00E946B0B2C2F41E050E070E060E090
:101C900090E0CF910C94CD0C862FCF910C94050E33
:101CA00081E090E00E946B0B2C2F44E050E0EECFDF
:101CB0001F93CF93DF93EC01162F0E942624181751
:101CC00021F0612FCE010E942E24CE01DF91CF9111
:101CD0001F910C946B0BCF93DF93863823E0920710
:101CE00039F138F481389340E9F08FEFDF91CF91EB
:101CF0000895873823E09207F1F088389340A9F7D8
:101D0000C62F86E893E00E946B0BD82F87E893E0FC
:101D10000E946B0B90E06C2F2FEFD29F800D911DD6
:101D2000112402C081E893E0DF91CF910C94580E0A
:101D300086E893E0F9CF87E893E0F6CF0F931F93FF
:101D4000CF93DF930FB6F894A89581B5886181BDD4
:101D500011BC0FBE0FB7F894D0E0C0E0FE01E4570D
:101D6000FF4F1491CE010E942624181721F0612FF5
:101D7000CE010E942E242196C03181E0D80771F750
:101D800081E893E00E942624813029F061E081E817
:101D900093E00E942E24CCE1D1E01FEF899199912C
:101DA000FC0111830E947F07F1E0C234DF07B1F725
:101DB0000FBF88E19BE00FB6F894A89581BD0FBED8
:101DC00091BDDF91CF911F910F9108951F93CF93F4
:101DD000DF93EC01162F089779F4662319F10E941E
:101DE0009E0E80E090E0892BB9F0612FCE01DF914B
:101DF000CF911F910C94000080E090E0892BA9F70F
:101E000081E0C11590E1D90708F080E0111105C00B
:101E1000DF91CF911F91089581E027972297C0F716
:101E200080E0F6CF80E090E0892BF9F681E0F0CFFA
:101E30000F931F93CF93DF9320914702222329F022
:101E40008F30910541F48FE090E0DF91CF911F91A9
:101E50000F910C94580E162FEC018FE090E00E9429
:101E60006B0B082F80E190E00E946B0B08130CC0F5
:101E7000C730D10529F0C830D10519F4183029F040
:101E8000FFCF612FCE01E1CFFFCF0E949E0E88E0F1
:101E9000DF91CF911F910F9108958331910588F4BF
:101EA0008131910530F48130910519F08930910527
:101EB00031F42FEF3FEF30936302209362020C94D2
:101EC000180F8D319105D9F7677F609365022091D6
:101ED0004F022F73362F307C232B20934F02E9CFF4
:101EE0001F93CF93DF93182FEAE6F2E085E1DF013D
:101EF0001D928A95E9F782E990E0909369028093B8
:101F0000680282E590E09093670280936602CFE4D6
:101F1000D2E0688319828FEF9FEF9C8B8B8B1D8A99
:101F200083E080934E0243E050E06EED74E08989D7
:101F30000E94D9048DE190E00E947B0C682F6F73A2
:101F40008DE190E00E944D0F8E8B612F87E090E035
:101F50000E944D0F6DE088E090E00E944D0F80E000
:101F6000DF91CF911F910C945C0B89B78F7B89BF58
:101F70008CE891E090930D0180930C0161E08AE080
:101F80000E94700F10924D0210924C0208950F9310
:101F90001F930E94F0030091480210914902209182
:101FA0004A0230914B02601B710B820B930B613F15
:101FB00079448240910508F456C08091470281110E
:101FC0000BC080914C0290914D0281309105B1F18E
:101FD00088F0029709F444C00E94F003609348021D
:101FE0007093490280934A0290934B0281E01F91C3
:101FF0000F91089580E390E00E94550C80FF0EC081
:1020000041E050E068E378E086E00E94640481E00B
:1020100090E090934D0280934C02DECF8DE190E0F2
:102020000E94550C82FFD8CF41E050E06DEA71E08C
:1020300086E00E94640482E090E0EBCF89B78F7B5A
:1020400089BF8CE891E090930D0180930C018DE1A4
:1020500090E00E94550C82FDE7CF0E94B50FBCCFE7
:1020600010924602FACF80E0C2CFBF92CF92DF92A9
:10207000EF92FF920F931F93CF93DF938B01B42EB8
:10208000690182FF23C083FF17C061E0C8010E947D
:10209000E60E8823D9F16B2DC8010E944D0F8B11DC
:1020A00035C0F601DF91CF911F910F91FF90EF9016
:1020B000DF90CF90BF90099460E0C8010E94E60EC7
:1020C000882321F1C8010E947B0CE9CF842F8770FF
:1020D000C1E0D0E07E0101C0EE0C8A95EAF7D42F72
:1020E000D870CB010E947B0CC82FB4FE1CC061E0ED
:1020F000C8010E94E60E882349F0DD2389F0CE292D
:102100006C2FC8010E944D0F8C1759F2DF91CF91AF
:102110001F910F91FF90EF90DF90CF90BF900895A7
:10212000E094CE21EDCF60E0C8010E94E60E882346
:1021300069F3CE21DD2319F0C111B3CFE7CFCC2352
:1021400009F4AFCFE3CFCF92DF92EF92FF920F93DC
:102150001F93CF93DF937C016B01C42F122FD42FD9
:10216000D07E80914F0287FF2CC0D03EC1F5809178
:1021700050028823A1F190E00E947B0CD82F80911F
:10218000500290E001960E947B0C982F8D2FE8164C
:10219000F90629F56C2F70E0762F66276627737095
:1021A000612B6F5F7F4F2FE637E0402F8C2FDF9141
:1021B000CF911F910F91FF90EF90DF90CF900C94F3
:1021C000351080FD32C0D03609F464C088F4D032B6
:1021D00009F447C0D03409F45DC0DD2379F1DF9103
:1021E000CF911F910F91FF90EF90DF90CF900895C6
:1021F000D03A09F483C090F42C2F2F7141E050E0C5
:10220000D03869F7B601C701DF91CF911F910F91C7
:10221000FF90EF90DF90CF900C94CD0CD03C09F460
:1022200076C0D03E09F4B6CFDACF0E947D0C8E1571
:102230009F0549F2E114F10431F2D1CF8C2F8E7059
:1022400071F680E090E0892B51F28C2F8170DF9144
:10225000CF911F910F91FF90EF90DF90CF900C9452
:102260000000CF71CF3109F0BACF412F4F7771F015
:10227000413071F0111F1127111F212F30E00FE79E
:1022800010E0B601C7010E94C00BA9CF41E0F2CF18
:1022900040E0F0CF2C2F30E08C2F8F71813029F06F
:1022A00030F0803121F08131F9F440E001C041E0AB
:1022B00025FB222720F90DE110E030E0B601C7012F
:1022C0000E94C00B80E090E0892B09F488CF4C2F4E
:1022D000B601C701DF91CF911F910F91FF90EF9051
:1022E000DF90CF900C940000C901880F991F8E7168
:1022F000C4FB442740F9482B4250DACF2C2F2F70D3
:1023000043E050E0C4FF7ECF42E050E07BCFCF718E
:10231000CE3139F0CF3109F062CF212F45E050E0C6
:1023200071CF212F44E050E06DCF0F931F93CF93D7
:10233000DF93CDB7DEB729970FB6F894DEBF0FBE97
:10234000CDBF181619069CF58CE193E00E94690632
:10235000992782309105D9F08330910599F1019741
:1023600059F464E086E691E00E94220880916901B8
:102370008823B9F18130F1F190910B0280910C0228
:102380009817A9F08CE193E00E946906F5CF69E007
:10239000CE0101960E942208088519852E813F8171
:1023A0006B817C814D8189819A810E94C00B299625
:1023B0000FB6F894DEBF0FBECDBFDF91CF911F9156
:1023C0000F91089567E0CE0101960E9422084D8189
:1023D0005E816B817C812F8189819A810E94CD0CE5
:1023E000E6CF80916701909168010E94550C80931F
:1023F0006601C2CF6091660180916701909168018A
:102400000E94180FF4CF1F920F920FB60F92112453
:102410000BB60F922F933F934F935F936F937F93DE
:102420008F939F93AF93BF93EF93FF938FE792E0C8
:102430000E942602FF91EF91BF91AF919F918F91E2
:102440007F916F915F914F913F912F910F900BBEB4
:102450000F900FBE0F901F9018951F920F920FB6FE
:102460000F9211240BB60F922F938F939F93EF939C
:10247000FF93E0918F02F09190028081E0919502AC
:10248000F091960282FD1DC09081809198028F5F2D
:102490008F7320919902821741F0E0919802F0E049
:1024A000E158FD4F958F80939802FF91EF919F9196
:1024B0008F912F910F900BBE0F900FBE0F901F901A
:1024C00018958081F2CF1F920F920FB60F921124B0
:1024D0002F933F938F939F93AF93BF938091F60178
:1024E0009091F701A091F801B091F9013091F501B7
:1024F00023E0230F2D3768F126E8230F0296A11D54
:10250000B11D2093F5018093F6019093F701A093FC
:10251000F801B093F9018091FA019091FB01A0912B
:10252000FC01B091FD010196A11DB11D8093FA013E
:102530009093FB01A093FC01B093FD01BF91AF917B
:102540009F918F913F912F910F900FBE0F901F90F1
:1025500018950196A11DB11DD4CF1F920F920FB6F1
:102560000F9211240BB60F922F933F934F935F93CB
:102570006F937F938F939F93AF93BF93EF93FF934B
:10258000E0910E01F0910F010995FF91EF91BF913C
:10259000AF919F918F917F916F915F914F913F91FB
:1025A0002F910F900BBE0F900FBE0F901F9018959C
:1025B0001F920F920FB60F9211240BB60F922F930A
:1025C0003F934F935F936F937F938F939F93AF93BB
:1025D000BF93EF93FF93E0910C01F0910D010995EA
:1025E000FF91EF91BF91AF919F918F917F916F91EB
:1025F0005F914F913F912F910F900BBE0F900FBEA7
:102600000F901F9018951F920F920FB60F921124E2
:102610000BB60F922F933F934F935F936F937F93DC
:102620008F939F93AF93BF93EF93FF93E0910A0132
:10263000F0910B010995FF91EF91BF91AF919F919F
:102640008F917F916F915F914F913F912F910F905B
:102650000BBE0F900FBE0F901F9018951F920F92F8
:102660000FB60F9211240BB60F922F933F934F93F7
:102670005F936F937F938F939F93AF93BF93EF93EA
:10268000FF93E0910801F09109010995FF91EF9105
:10269000BF91AF919F918F917F916F915F914F917A
:1026A0003F912F910F900BBE0F900FBE0F901F9078
:1026B00018951F920F920FB60F9211240BB60F921E
:1026C0002F933F934F935F936F937F938F939F933A
:1026D000AF93BF93EF93FF93E0910601F091070151
:1026E0000995FF91EF91BF91AF919F918F917F914C
:1026F0006F915F914F913F912F910F900BBE0F9073
:102700000FBE0F901F9018951F920F920FB60F9249
:1027100011240BB60F922F933F934F935F936F93B8
:102720007F938F939F93AF93BF93EF93FF93E0912A
:102730000401F09105010995FF91EF91BF91AF91CF
:102740009F918F917F916F915F914F913F912F91C9
:102750000F900BBE0F900FBE0F901F9018951F92F9
:102760000F920FB60F9211240BB60F922F933F9337
:102770004F935F936F937F938F939F93AF93BF9389
:10278000EF93FF93E0910201F09103010995FF910E
:10279000EF91BF91AF919F918F917F916F915F91D9
:1027A0004F913F912F910F900BBE0F900FBE0F9046
:1027B0001F9018951F920F920FB60F9211240BB60F
:1027C0000F922F933F934F935F936F937F938F93CA
:1027D0009F93AF93BF93EF93FF93E0910001F0912C
:1027E00001010995FF91EF91BF91AF919F918F9159
:1027F0007F916F915F914F913F912F910F900BBE01
:102800000F900FBE0F901F9018951F920F920FB64A
:102810000F9211240BB60F922F933F934F935F9318
:102820006F937F938F939F93AF93BF93EF93FF9398
:1028300080917100887F803609F44DC008F040C057
:10284000883209F4A9C028F5803109F49DC0C8F484
:10285000882309F4FBC0883009F496C0FF91EF91FA
:10286000BF91AF919F918F917F916F915F914F91A8
:102870003F912F910F900BBE0F900FBE0F901F90A6
:102880001895883109F488C0803241F78093D101CE
:1028900014C0803409F49DC040F48033B9F3883308
:1028A000E9F68093D10185ECB0C0803509F485C08C
:1028B000883509F496C0883489F60E942806CECF60
:1028C000883909F48CC038F5883729F050F48836F7
:1028D00011F0803719F683E0809308021092D0013E
:1028E00057C0883809F47BC0803919F0803809F066
:1028F000B5CF8091D001803208F071C0E091D00155
:1029000081E08E0F8093D00180917300F0E0E0555C
:10291000FE4F80833DC0803B39F0E0F4803A09F4FB
:1029200079C0883A09F09ACF84E080930802109227
:10293000AF011092AE01E0910402F09105020995F9
:102940008091AE0181110FC081E08093AE011092A1
:102950008E0109C0803C09F4A6CF883C09F4A3CFBE
:10296000883B09F07BCFE091AF0181E08E0F80932F
:10297000AF01F0E0E257FE4F8081809373009091A9
:10298000AF018091AE0129C08091F4018093730062
:1029900085EC8093740062CF9091F3018091F201F5
:1029A000981758F5E091F30181E08E0F8093F301C1
:1029B000F0E0EE52FE4F8081E9CFE091F30181E03B
:1029C0008E0F8093F30180917300F0E0EE52FE4F82
:1029D00080839091F3018091F2019817C8F285E805
:1029E000D8CFE091F30181E08E0F8093F3018091C5
:1029F0007300F0E0EE52FE4F808380910702811158
:102A00005CCF81E08093060284EA80937400109288
:102A1000080224CF85EC8093740010920802809104
:102A2000D001803230F4E091D001F0E0E055FE4F6B
:102A300010826091D00170E0E0910202F0910302F7
:102A400080EB91E009951092D00108CF1092D1014E
:102A500034CF1F920F920FB60F9211248F939F9332
:102A600078948091220290912102891708F08AC0FF
:102A70009091620098609093620090912002891773
:102A800008F084C0DC9A90911F02891708F080C07A
:102A90009091620090649093620090911E02891759
:102AA00008F07AC0909162009062909362009091D9
:102AB0001D02891708F074C0C69A90911C028917EC
:102AC00008F070C0C59A90911B02891708F06CC07D
:102AD000C49A90911A02891708F068C01D9A9091C3
:102AE0001902891708F064C01C9A9091180289177E
:102AF00008F060C01B9A90911702891708F05CC01B
:102B000090916200916090936200909116028917F3
:102B100008F056C0C79A90911502891708F052C064
:102B2000DE9A90911402891708F04EC0DF9A9091B6
:102B30001302891708F04AC0969A909112028917D9
:102B400008F046C0979A90911102891708F042C088
:102B5000DD9A90911002891708F03EC0DB9A90919F
:102B60000F028917D8F590916200906190936200EE
:102B70008F5F809322029F918F910F900FBE0F90D5
:102B80001F90189590916200977F75CFDC987BCF4E
:102B9000909162009F7B7FCF909162009F7D85CF57
:102BA000C6988BCFC5988FCFC49893CF1D9897CFD9
:102BB0001C989BCF1B989FCF909162009E7FA3CFC4
:102BC000C798A9CFDE98ADCFDF98B1CF9698B5CF93
:102BD0009798B9CFDD98BDCFDB98C1CF90916200B7
:102BE0009F7EC4CFDC0170E0FB01EF5AFD4FE49102
:102BF0001196EC931197645E7D4FFB0124912C9309
:102C000030E0220F331FF901E456FE4F8591949175
:102C100013969C938E931297F901E455FE4F85917C
:102C2000949115969C938E9314970895CF93DF9368
:102C3000EC0161E088810E94BF0360E08881DF9140
:102C4000CF910C949103EF92FF920F931F93CF9328
:102C5000DF93109282021092810288EE93E0A0E04E
:102C6000B0E08093830290938402A0938502B09396
:102C7000860226E431E03093800220937F0220E92F
:102C800030E030938C0220938B0229E230E03093C5
:102C90008E0220938D022BE230E03093900220933D
:102CA0008F022AE230E0309392022093910225E9CC
:102CB00030E030939402209393022CE230E0309382
:102CC0009602209395021092980210929902109207
:102CD0009A0210929B0210921F0310921E0380937F
:102CE000200390932103A0932203B093230388E54C
:102CF00091E090931D0380931C0387E080939907D4
:102D000086E090E00E948824EC0168E00E94F215C1
:102D1000D0939B07C0939A0710922A0310922B031B
:102D200010922C0310922D0310922E0310922F0359
:102D30001092300310923103109232031092330339
:102D40001092340386E090E0909329038093280347
:102D500083E190E00E946B0BC82F82E190E00E941B
:102D60006B0BD82F81E190E00E946B0B182F81E054
:102D700090E00E946B0B21E030E030931907209324
:102D8000180730931B0720931A0710921C07109204
:102D90002007109222071092210780931307212FFA
:102DA000205C330BC9012D2F382FC90190931507D3
:102DB00080931407CF77C0931607109217078DE101
:102DC00080931D0762E070E08DE190E00E946C242A
:102DD00090931F0780931E070097C9F0EC0110E045
:102DE000EE24E394F12C8AE090E00E948824FC0118
:102DF000F282E18213821482168215821782118672
:102E000010861083899399931F5F1D3161F766E0E7
:102E10008CE897E00E94F21564E382E997E00E9453
:102E2000F21581E380938707C2E0C093890710926F
:102E30008A07DFEFD093880710928B0787E897E027
:102E40000E94161689E280938207C093840781E06E
:102E500080938507D09383071092860782E897E0D6
:102E60000E94161687E280937D07C0937F07C09368
:102E70008007D0937E07109281078DE797E00E942C
:102E8000161689E180937807C0937A0783E0E82ECD
:102E9000E0927B07D093790710927C0788E797E050
:102EA0000E94161688E180937307C093750794E01B
:102EB000F92EF0927607D09374071092770783E784
:102EC00097E00E94161685E280936E07C093700704
:102ED00005E000937107D0936F07109272078EE69A
:102EE00097E00E94161686E280936907C0936B07ED
:102EF00086E080936C07D0936A0710926D0789E68D
:102F000097E00E9416161FE010936407C0936607AF
:102F100087E080936707D09365071092680784E67F
:102F200097E00E9416168DE280935F07C0936107B9
:102F300088E080936207D0936007109263078FE563
:102F400097E00E941616E0925A07C0935C0789E04A
:102F500080935D07D0935B0710925E078AE597E048
:102F60000E941616F0925507C09357078AE0809387
:102F70005807D09356071092590785E597E00E94AD
:102F8000161600935007C09352078BE080935307A7
:102F9000D09351071092540780E597E00E941616CF
:102FA0008CE080934B07C0934D0780934E07D093DE
:102FB0004C0710924F078BE497E00E9416168DE0A5
:102FC00080934607C093480780934907D0934707EB
:102FD00010924A0786E497E00E9416168EE08093CE
:102FE0004107C093430780934407D0934207109250
:102FF000450781E497E00E94161682E380933C0720
:10300000C0933E0710933F07D0933D0710924007AF
:103010008CE397E00E94161683E380933707C093F2
:10302000390780E180933A07D093380710923B0725
:1030300087E397E00E94161688E280933207C093D8
:10304000340781E180933507D09333071092360718
:1030500082E397E00E94161680E380932D07C093C9
:103060002F0782E180933007D0932E07109231070B
:103070008DE297E0DF91CF911F910F91FF90EF903C
:103080000C941616CF93DF93CDB7DEB762970FB6C9
:10309000F894DEBF0FBECDBF789483B78C6483BF36
:1030A00087B7816087BF82E08EBD8EB581608EBD9F
:1030B0008FB581608FBD85B5846085BD85B5806421
:1030C00085BD80918A00836080938A0080918B0007
:1030D000816080938B0087E886B91AB80FB6F894A0
:1030E000A89581B5886181BD11BC0FBE2FB7F8943A
:1030F00090E080E0FC01E15FFD4F1082019683319A
:103100009105C1F780916200877F80936200DC980F
:10311000809162008F7B80936200809162008F7D3E
:1031200080936200C698C598C4981D981C981B98F7
:10313000809162008E7F80936200C798DE98DF984E
:1031400096989798DD98DB98809162008F7E8093A7
:1031500062002FBF9FB7F8948091610088608093D0
:103160006100D49A809161008064809361008091B5
:103170006100806280936100BE9ABD9ABC9A159AE4
:10318000149A139A80916100816080936100BF9AC4
:10319000D69AD79A8E9A8F9AD59AD39A80916100AF
:1031A0008061809361009FBF1FBC89E08EBD8CE071
:1031B00093E09BBD8ABD87B7806187BF10922202D2
:1031C00061E08FE10E94BF0360E08CE897E00E941D
:1031D0000503E0919407F091950790818091930702
:1031E000809589238083E0919607F09197078081ED
:1031F00090919307892B8083D12CC12CBB24B3944D
:10320000F601E454FE4FE4910E2F10E0C8010E9435
:103210006B0BF82EC80101960E946B0BE82EC801BB
:1032200002960E946B0BA82EC80103960E946B0B9E
:1032300090911D07F91638F5F601E45EFE4F008106
:103240001181D8011196AC92119714968C938F2D01
:10325000E11079C10E94B1014C0141E050E0B80198
:103260000E94FE0AF401968385838F2D0E94B1018E
:103270007C0150E040E0B8010E94FE0AD701199697
:103280009C938E931897A895F2E0CF0ED11C26E25E
:10329000C216D10409F0B4CF61E070E084E090E0A0
:1032A0000E946C249093220780932107892B91F030
:1032B00010E000E0E0902107F0902207E00EF11E00
:1032C000802F0E94AF0BD7018C930F5F1F4F0430EC
:1032D000110581F780E00E949B0B082F10E081E030
:1032E0000E949B0B282F30E0322F222722273E7F7F
:1032F000000F111F202B312B30932407209323071D
:1033000080FF05C02160309324072093230785E9BF
:1033100091E19093FF018093FE018EE896E09093F7
:1033200001028093000210920C0210920B02109284
:103330000A02109209021092080281E080930702AB
:103340001092060261E083E10E94910361E082E154
:103350000E949103809171008E7F80937100809113
:1033600071008D7F8093710088E48093700085E404
:10337000809374008FEC92E0909305028093040296
:103380008BED92E0909303028093020282E080939F
:1033900072008CE08093700060E08AE10E94BF03BD
:1033A000E0EAF2E08491EBE6F2E00491E6E3F2E099
:1033B00014911111E0C081E0809345028091450293
:1033C000811103C181E090E00E946B0B21E030E0AD
:1033D00030933202209331028093330281E190E0F6
:1033E0000E946B0B21E130E03093350220933402D0
:1033F0008093360282E190E00E946B0B22E130E084
:103400003093380220933702809339028DE190E0A7
:103410000E94550C81FDBFC08DE190E090933B026E
:1034200080933A0210923C0286E08093600280937F
:10343000610260E00E94BF0361E086E00E949103A8
:1034400060E088E00E94700F88E19BE00FB6F8947E
:10345000A89581BD0FBE91BDB2E04B2E512C80913D
:103460004502882309F48DC38091AA07882309F4B3
:1034700002C1E091A407E152EF3508F0F6C0F0E098
:10348000EC5BF54E0C944F24BF1B351BC91BED1B89
:10349000FF1BDB1B351B0D1C191C231C2D1C371C93
:1034A000411C4B1C551C5F1C6A1C351B351B351BF6
:1034B000351B351B351B351B351B351B351B351B8C
:1034C000351B351B351B951BA11BAB1BB51B351BBA
:1034D000351B351B351B351B351B351B351B351B6C
:1034E000351B351B351BED1BFF1B351B351B351BDA
:1034F000351B351B351B351B351B351B351B351B4C
:10350000351B731C351B2A1B311B3F1B441B351BF2
:10351000351B351B351B351B351B351B351B841CDB
:10352000491B7D1B351B351B351B351B351B351BBF
:10353000351B351B8E1C351B351B351BC91C351B1C
:10354000351B351B761D0E94B101FC01B382F0E8EA
:10355000EF1609F48ACEB1E8EB1295CE8F2D0E94BA
:10356000B1017C0141E050E0B8010E94FE0AF70180
:103570009683858388CE81110E945C03E12FF0E061
:10358000EE0FFF1FE45FFD4FA591B491EC91E02396
:1035900009F411CF13CF8DE190E00E94550C85FD09
:1035A0000DC08091160190911701A0911801809390
:1035B0003A0290933B02A0933C0236CF80911901CE
:1035C00090911A01A0911B01F2CF81E893E00E9433
:1035D0006B0B809398078150833018F081E08093C3
:1035E000980788E997E090930E0280930D0260E0BF
:1035F000809199070E94BF0360E080919A079091A3
:103600009B070E9405031092A8071092A907109229
:10361000AA071092A0071092A1071092A207109279
:10362000A30710929C0710929D0710929E0710927C
:103630009F07809199079CEF980F943020F082515A
:10364000843008F08FEF42E050E066EF76E00E94B1
:10365000D904FACE6091A50781E090E00E94260E81
:1036600004C08091A5070E94050E1092A807109231
:10367000A9071092AA07A8950E94B802F0CE6091FF
:10368000A50783E090E0EACF6091A50784E090E091
:10369000E5CF6091A507862F8F778093A50720E05F
:1036A00030E0232B11F3661F6627661F811121C0AE
:1036B00081E080932C0261110EC080912C0287FD65
:1036C000D4CF60E090E00E94000080912C028F5FD8
:1036D00080932C02F2CF80912C0287FDC6CF61E04F
:1036E00090E00E94000080912C028F5F80932C025A
:1036F000F2CF90E00E940000B8CF8091A6078F36ED
:1037000009F0B3CF80E090E0892B09F4AECF20918F
:10371000A507622F661F6627661F8091A707B0E87E
:103720008B9FC0011124822BE5CF80E090E0892B94
:1037300009F49BCF6091A50781E090E00E94000012
:1037400094CF80E090E0892B09F48FCF6091A5079A
:1037500082E090E0F3CF80E090E0892B09F485CF00
:103760006091A50783E090E0E9CF80E090E0892BAD
:1037700009F47BCF6091A50784E090E0DFCF80E083
:1037800090E0892B09F471CF8091A5070E94000079
:103790006CCF80E090E0892B09F467CF8091A5077A
:1037A00090E087FF05C0819590E091958195910902
:1037B0000E9400005ACF80E090E0892B09F455CF99
:1037C0008091A50790E087FF05C0819590E09195D5
:1037D000819591090E94000048CF80E090E0892BFC
:1037E00009F443CF9091A50780E8890F61E070E06C
:1037F00097FD02C070E060E00E94000036CF90911B
:10380000A50780E8890F97FF03C00E94210C2DCFE8
:1038100070E060E00E94370C28CF80E090E0892BB8
:1038200009F423CF6091A50781E090E00E94000099
:103830001CCF80E090E0892B09F417CF6091A50799
:1038400082E090E0F3CF80E090E0892B09F40DCF87
:103850006091A50783E090E0E9CF80E090E0892BBC
:1038600009F403CF6091A50784E090E0DFCF80E00A
:1038700090E0892B09F4F9CE6091A50785E090E0EE
:10388000D5CF80E090E0892B09F4EFCE6091A507B9
:1038900086E090E0CBCF80E090E0892B09F4E5CE84
:1038A0006091A50787E090E0C1CF80E090E0892B90
:1038B00009F4DBCE6091A50788E090E0B7CF80E007
:1038C00090E0892B09F4D1CE6091A50781E00E9498
:1038D0000000CBCE80E090E0892B09F4C6CE609149
:1038E000A50782E0F4CF8091A6078F3509F0BDCE01
:1038F00080E090E0892B09F4B8CE9091A7078091E1
:10390000A5070E940000B1CE80E090E0892B09F469
:10391000ACCE8091A5070E940000A7CE0091A5071C
:1039200010E00F5F1C4FC8010E94C401882309F4F6
:103930009CCE809198070138E3E01E07D9F0043847
:10394000F3E01F07B1F0053823E0120781F00C3ACD
:1039500033E0130771F00D3A43E0140741F0043DE2
:1039600053E0150731F0053D83E0180771F48AE054
:1039700001C08DE080932B029091A60780912B02CD
:10398000981373CE0E94F00870CEC8010E946D0B90
:10399000F1CFE090A5070E2D10E00F5F1C4F1093A4
:1039A0002A0200932902C8010E94C401882309F455
:1039B0005CCEB090A6078B2D90E09C0174E035950D
:1039C00027957A95E1F7A22FA170DA2EA09328020D
:1039D0009C01E3E035952795EA95E1F7B22FB170A8
:1039E000CB2EB09327029C01359527952170F22E9E
:1039F000FF0C95958795959587958170880F880F11
:103A00008F0D9B2D9170F82EF90EF0922602013841
:103A1000E3E01E07B1F48091980780932502F1E05E
:103A2000DF1689F18091250290E002C09595879577
:103A3000FA94E2F781709927C816190609F015CE95
:103A4000A1CF043823E0120741F00C3A33E013070A
:103A500021F0043D43E0140791F58DE080932502A9
:103A6000A1E0DA12DFCFC80184589340029708F42E
:103A7000FCCD85E58E0D823008F4F7CD8DE28E0DFC
:103A8000823008F4F2CD81E090E0A0E0B0E004C024
:103A9000880F991FAA1FBB1FFA94D2F72091250205
:103AA000B3FE1FC0822B8093250260912502C801BE
:103AB0000E946B0E909125028913D7CD63CF0538F4
:103AC00053E0150741F00D3A83E0180721F0053D5A
:103AD00093E0190711F48AE0C1CFC8010E946D0B71
:103AE000BDCF482F4095822F8423DDCF0091A507BD
:103AF00010E00F5F1C4F1093240200932302C801B3
:103B00000E94C401882309F4B0CD0538B3E01B0737
:103B100009F4ABCD0D3AE3E01E0709F4A6CD053D4F
:103B2000F3E01F0709F4A1CD043823E0120741F0A8
:103B30000C3A33E0130721F0043D43E0140749F445
:103B40008091A607883029F40E949E0E0E94F008FA
:103B500009C06091A607C8010E946B0E9091A6074C
:103B60008917A1F380912302909124028138934018
:103B700009F07BCD81E893E00E946B0B809398075E
:103B800074CD80913D0281110DC00E94F0036093BD
:103B900048027093490280934A0290934B0281E05D
:103BA00080933D0280914C0290914D0281309105AD
:103BB00009F4B1C260F1029709F05DCD8091200750
:103BC000811102C00E94A20A80914602882309F452
:103BD000D2C582E997E00E94AA0681117FC0809138
:103BE000180790911907019709F0BEC5109219079F
:103BF0001092180780912007811102C00E94A20A2A
:103C000082E997E00E94AA068823D1F367C08091D9
:103C100051028823B1F00E94580400915202109181
:103C200053022091540230915502601B710B820B9C
:103C3000930B653171058105910518F080E00E94B4
:103C40005C0B80916C02882309F448C0F89488E0EA
:103C5000E7E7F2E0A5E2B7E001900D928A95E1F77F
:103C600010926C02789430917702E9E7F2E090E0EC
:103C700080E0391721F0219182279F5FFACF8111CF
:103C80002DC080E090E0892B21F085E297E00E9432
:103C9000000080912707811128C090912807911179
:103CA00024C080E090E0892B19F080E00E940000A1
:103CB000809151028823A9F081E00E9446098091F9
:103CC000200781110E94E4090E94F00360934802DA
:103CD0007093490280934A0290934B020E94C70F4F
:103CE000CACC81E00E945C0BEACF909151029923EB
:103CF00009F486C08057803108F07FC081E00E94BF
:103D00004609109125078091580218130AC0412FC7
:103D100050E06AE572E087E297E00E94AD25892BCA
:103D200061F01092570288E0E5E2F7E0A8E5B2E022
:103D300001900D928A95E1F7C2CF809157028F5F73
:103D400080935702133009F040C090912707892FC4
:103D50008770F0902807853029F4F09256020E946F
:103D60004804ADCF0DE110E0843091F0282F30E011
:103D70008430F0F4009156020023D1F00150110B71
:103D8000000F111F000F111F020F131F0F5F1F4F96
:103D900093FF10C061E0C8010E94E60E882309F479
:103DA0008ECF6F2DC8010E944D0FF81288CFD7CF4C
:103DB0008901ECCF60E0C8010E94E60E882309F477
:103DC0007ECFC8010E947B0CF0CF143009F077CF72
:103DD00080912707682F70E0762F6627662773701B
:103DE00090912807692B6F5F7F4F26E534E0409163
:103DF00029078C700E94351062CF80E00E945C0B16
:103E0000E0912707EF3F61F480912807811157CF98
:103E100080E090E0892B09F452CF0E9400004FCF40
:103E2000E7FD0DC000912A0720912907409128073E
:103E300070E060E08E2F90E00E94A31040CFE03C45
:103E400008F058C130914F0237FF39CF2091280731
:103E5000822F90E08C0100951095000F111F000F2C
:103E6000111F007C1170EF730E2B95958795A82F6D
:103E7000A370BA2E80912507853041F52C782C301F
:103E800029F50E947D0C8017910721F00F3F11400A
:103E900009F015CF8091280790E0982F8827882770
:103EA000937020912907820F911D8C010F5F1F4F86
:103EB000F0902A0761E0C8010E94E60E6F2D88236A
:103EC00009F4FDCEC8010E944D0FF9CE6801E1E072
:103ED000CE1AD108CC0CDD1CCC0CDD1CCB28760115
:103EE000FFEFEF1AFF0A809164028823F9F036FF92
:103EF00041C0C70160E071E00E943B24682F81E06F
:103F000090E00E944D0FC701F7FE02C081509F4F05
:103F1000692F89E090E00E944D0F80E090E0892BAE
:103F200019F0C7010E9400001092640280914F02B4
:103F300080FD39C080912507843009F04FC0809101
:103F400028078978813009F0BACE6091290780E08E
:103F500090E0892B19F0C7010E94000080E090E0FA
:103F6000892B09F4ACCE409129076B2DC7010E9423
:103F70000000A5CEB8016F73772781E090E00E9422
:103F80004D0FB801E6E075956795EA95E1F789E090
:103F900090E00E944D0F80E090E0892B29F2C8014B
:103FA0000E940000C1CF86FF0DC00E947D0C8E15BF
:103FB0009F0509F4BFCF2DEFE21627E0F2060CF0C3
:103FC000B9CF7DCE0E947D0C8017910709F4B2CF46
:103FD0000F3F31E0130709F4ADCF71CE833069F59F
:103FE00040912807542F5170C52E43FBDD24D0F893
:103FF00080E090E0892B31F047702D2DB801C7018A
:104000000E94000080914F0286FF0BC080E090E08C
:10401000892B09F454CE4D2D6C2DC7010E94000050
:104020004ECE80E090E0892B09F449CE2D2D4C2D09
:104030006B2DC8010E94000042CE863009F03FCEB1
:1040400080912807982F9978913021F08F788038C7
:1040500009F035CE80914F0286FF28C00E947D0C6A
:104060008E159F05E9F48091290790E0382F2227CB
:104070002227337000912A07020F132F111D0F5FA3
:104080001F4FF0902B079595879595958795837091
:1040900099278230910599F0039709F40BCF0FCE41
:1040A0008DEFE81687E0F806F4F609CE0E947D0C45
:1040B00080179107C1F20F3F1140A9F200CEF4FE24
:1040C000FECD61E0C8010E94E60E882309F4F7CD19
:1040D000C8010E947B0C9F2D977061E070E001C0C9
:1040E000660F9A95EAF7F3FE02C0682BEBCE609557
:1040F0006823E8CEE83E08F0E2CDE05CFF0B80915B
:10410000280700912B0720912A074091290761E099
:1041100070E09E2F91CE04E813E09AE0E92EF12C96
:10412000DD24D39423E6C22E33E0B32E42E0A42E46
:104130005BE1352ED8011B968D919C91019709F07A
:104140003FC1F801E654F109808191813296608087
:104150007180680E791EF801118A128A1682128601
:104160001586168617861782108A138A118615827D
:1041700014829301359527954801FCE58F1A910823
:10418000F40161E070E086899789A72FA69541E048
:1041900050E04C0F5D1F4A0F511DDA0141E0281716
:1041A00039070CF040E04C93713248F4408D518D4A
:1041B000840F951F8E579109C19708F460E07E5FC8
:1041C0003496743201F7FE013196CE9C9001CF9C5B
:1041D000300D112446E057E0421B530B90E080E085
:1041E000708171118FC071817111A6C0D401A80FA7
:1041F000B91F1D961C92019632968930910581F760
:10420000F80180819181A281B38185519540A109F6
:10421000B10983359B40A105B10508F06EC1662345
:1042200009F46BC181E046E9641671040CF080E08A
:10423000D80151968C93F801EC54F1099081319793
:104240008081B9E08B9F802D1124939D800D1124D6
:1042500032979081890F31964081942F990F940F56
:10426000890FF8018683EB54F10946E9641671045D
:104270000CF42EC181E09081913009F080E0D801EA
:104280001D968C938989880F9F85890F880F9D853E
:10429000890F880F9B85890F91E009F090E0F80164
:1042A000968791E0813009F090E0D8011F969C93A9
:1042B00081118150F80187838289882309F456C0CF
:1042C0008C85880F9E85890F880F9889890F880FA4
:1042D0009A89890FEEEFE80FEE3008F047C0F0E062
:1042E000EC58FE4D0C944F24A921A921B121B121F4
:1042F00054225422B621B621592259225D225D2230
:10430000622262227130C1F42180A1E02A1206C02B
:10431000DA01A80FB91F1D962C926DCF21100CC089
:10432000D401A80FB91F1D96AC92853008F463CF55
:10433000D80152967C935FCF853048F0DA01A80F00
:10434000B91F1D96BC92D8015296DC9254CF60E002
:1043500057CFD8011996AC921997817053968C93C8
:1043600005C041E050E0F8015583448389E090E0C6
:10437000FAE0EF16F10411F08E199F09D8011C968E
:104380005C924E921B97C89EB001C99E700D11247D
:10439000FB01E157FC4F80819181029789F46B5CAE
:1043A0007C4F49E050E083E197E0821B930B0E9431
:1043B000AD25892B29F423E030E0F80134872387E9
:1043C000F1E0EF1AF1080D591F4FE114F10409F063
:1043D000B1CEEFE8F3E090E080E02081318123303E
:1043E000310509F092C023E6289F8001299F100D16
:1043F0001124F801E157FC4F84E090E09183808321
:104400000B5C1C4F0115110509F468CC680125E50A
:10441000C20ED11CD601EC91E0903302F0E0F12CF9
:10442000CF018E199F098130910509F4D8C00CF095
:1044300074C0892B09F043CC80913002D801A45A72
:10444000BF4F9C91992309F48EC080618093300204
:1044500090913002D801A85ABF4F8C91823009F454
:104460009DC008F082C0813009F48CC020913002D8
:1044700041E050E070E060E0CF010E94CD0CF80117
:10448000ED5AFF4F808191818130910509F09CC0E8
:1044900033960DE110E021E030E0408170E060E013
:1044A000C7010E94C00B0BCCD8011996BC9219977A
:1044B00054CFF8015582448259CFD8011996DC9225
:1044C00019974BCF44E0F80141878170838B4ECF21
:1044D0008081811112C08F85880F9D85890F880F7B
:1044E0009B85890FD8011A968C9381E09989913028
:1044F00009F080E0F801808B39CFE5E0F0E0D801E9
:104500001C96FC93EE931B975BCF0196ED59FF4FE2
:104510008A30910509F061CFE1CB8230910509F431
:10452000AAC0039709F0CBCB80E390E00E94550C22
:1045300083FFC5CB80912D02F801E85AFF4F90818F
:10454000923009F4FBC008F0E0C0913009F4EAC0F1
:10455000F601808120912D0244E050E070E060E09F
:104560008350990B57C08F7E71CF833009F184300F
:1045700009F07CCFD801AE59BF4F8C91882311F13F
:10458000986007C0D801AE59BF4F8C91882321F0A5
:104590009160909330026ACF9E7FFBCFD801AE59D5
:1045A000BF4F8C91882311F09260F3CF9D7FF1CFA4
:1045B000D801AE59BF4F8C91882311F09460E9CF98
:1045C0009B7FE7CF977FE5CF029709F078CBF80183
:1045D000EA5AFF4F0DE110E030E020E05ECF80E3CB
:1045E00090E00E94550C81FF6ACB80912F02F80168
:1045F000E85AFF4F9081923041F178F49130C9F040
:10460000F601808120912F0242E050E070E060E0EE
:104610008150990B0E94CD0C52CB933001F1943014
:1046200079F7F801EE59FF4F9081992311F18860D5
:1046300007C0F801EE59FF4F9081992321F0816066
:1046400080932F02DDCF8E7FFBCFF801EE59FF4F15
:104650009081992311F08260F3CF8D7FF1CFF80123
:10466000EE59FF4F9081992311F08460E9CF8B7F41
:10467000E7CF877FE5CF80E390E00E94550C82FF73
:104680001ECB80912E02F801E85AFF4F90819230A4
:1046900031F168F49130B9F0D6018C9120912E025D
:1046A00043E050E070E060E08250990BB3CF93306C
:1046B00001F1943089F7F801EE59FF4F9081992369
:1046C00011F1886007C0F801EE59FF4F90819923DE
:1046D00021F0816080932E02DFCF8E7FFBCFF80127
:1046E000EE59FF4F9081992311F08260F3CF8D7FB7
:1046F000F1CFF801EE59FF4F9081992311F08460BA
:10470000E9CF8B7FE7CF877FE5CF933009F19430F6
:1047100009F01ECFF801EE59FF4F9081992311F156
:10472000886007C0F801EE59FF4F9081992321F06E
:10473000816080932D020CCF8E7FFBCFF801EE5964
:10474000FF4F9081992311F08260F3CF8D7FF1CFDD
:10475000F801EE59FF4F9081992311F08460E9CF61
:104760008B7FE7CF877FE5CF81E090E090931907BB
:10477000809318073FCA8CE897E00E94AA0681112F
:1047800007C081E090E09093190780931807A6CAAC
:104790001092190710921807A1CACF93DF9360E017
:1047A00082E997E00E94050360E08CE897E00E94B0
:1047B0000503809199079CEF980F943098F18251EE
:1047C000843080F160E0809199070E94BF03C0911E
:1047D0009A07D0919B072097B1F160E0CE010E942B
:1047E0000503CE01DF91CF910C94242599B79E7FCC
:1047F00099BFE82FF0E0EE0FFF1FE050FF4F8CE86D
:1048000091E091838083DECF9D7FF2CF9B7FF0CFBD
:10481000977FEECF9F7EECCF9F7DEACF9F7BE8CF47
:104820009F77E6CFEFEFE80FE73000F7F0E0E45EC8
:10483000FB4D99B70C944F240424062408240A2421
:104840000C240E241024DF91CF910895E199FECF1E
:104850009FBB8EBBE09A99278DB30895262FE199CF
:10486000FECF9FBB8EBB2DBB0FB6F894E29AE19AA8
:104870000FBE0196089597FB072E16F4009407D0FB
:1048800077FD09D00E94582407FC05D03EF490958E
:1048900081959F4F0895709561957F4F0895EE0F14
:1048A000FF1F0024001C0BBE0790F691E02D099419
:1048B000AA1BBB1B51E107C0AA1FBB1FA617B70746
:1048C00010F0A61BB70B881F991F5A95A9F7809562
:1048D0009095BC01CD0108950F931F93CF93DF9363
:1048E000869F8001879F100D969F100D1124C8018F
:1048F0000E948824EC01009729F0A80170E060E094
:104900000E94BA25CE01DF91CF911F910F9108959A
:104910000F931F93CF93DF938230910510F482E0C1
:1049200090E0E091AD07F091AE0730E020E0B0E01C
:10493000A0E0309799F42115310509F44AC0281BED
:10494000390B24303105D8F58A819B8161157105B9
:1049500089F1FB0193838283FE0111C04081518163
:104960000281138148175907E0F04817590799F455
:10497000109761F012960C93129713961C9332962F
:10498000CF01DF91CF911F910F9108950093AD0753
:104990001093AE07F4CF2115310551F0421753079C
:1049A00038F0A901DB019A01BD01DF01F801C1CF97
:1049B000EF01F9CF9093AE078093AD07CDCFFE0105
:1049C000E20FF31F81939193225031093983288399
:1049D000D7CF2091AB073091AC07232B41F4209126
:1049E0001201309113013093AC072093AB07209153
:1049F0001001309111012115310541F42DB73EB759
:104A00004091140150911501241B350BE091AB0727
:104A1000F091AC07E217F307A0F42E1B3F0B281709
:104A2000390778F0AC014E5F5F4F2417350748F027
:104A30004E0F5F1F5093AC074093AB078193919348
:104A40009FCFF0E0E0E09CCFCF93DF930097E9F0B9
:104A5000FC01329713821282A091AD07B091AE078C
:104A6000ED0130E020E01097A1F420813181820F28
:104A7000931F2091AB073091AC072817390709F035
:104A800061C0F093AC07E093AB07DF91CF9108953D
:104A9000EA01CE17DF07E8F54A815B819E014115E7
:104AA0005105B1F7E901FB83EA8349915991C40F9C
:104AB000D51FEC17FD0761F4808191810296840F68
:104AC000951FE90199838883828193819B838A83DF
:104AD000F0E0E0E012968D919C9113970097B9F564
:104AE0002D913C911197CD010296820F931F209139
:104AF000AB073091AC072817390739F6309751F5D5
:104B00001092AE071092AD07B093AC07A093AB071D
:104B1000BCCFD383C28340815181840F951FC817B6
:104B2000D90761F44E5F5F4F88819981480F591F03
:104B3000518340838A819B81938382832115310530
:104B400009F0B0CFF093AE07E093AD079ECFFD0123
:104B5000DC01C0CF13821282D7CFFB01DC0104C07D
:104B60008D910190801921F441505040C8F7881B65
:104B7000990B0895DC0101C06D9341505040E0F75E
:104B8000089511E0CFE5D1E004C0FE010E944F245A
:0C4B90002196C036D107C9F7F894FFCF7A
:104B9C008C0100000000000000000000000000007C
:104BAC000000AF0780001D00021D0022870782074E
:104BBC007D07780773076E07690764075F075A0755
:104BCC00550750074B07460741073C073707320785
:104BDC002D070000000047022F03E9018E021A0284
:104BEC00F8010C020000000096068306A706590681
:064BFC007C0669065A0662
:00000001FF
