:100000000C9460010C9406190C94DB180C94B01835
:100010000C9485180C945A180C942F180C940418EE
:100020000C94D9170C948A010C948A010C948A01BF
:100030000C94551A0C948A010C948A010C948A0130
:100040000C948F170C948A010C9459170C942F1749
:100050000C948A010C948A010C948A010C948A01F4
:100060000C948A010C948A010C948A010C948A01E4
:100070000C948A010C948A010C948A010C948A01D4
:100080000C948A010C9431190C948A013D030000F0
:100090000000000A0D0000000000000101C0800007
:1000A000000000000000000000060000000000004A
:1000B0000000000000000000000000000000000040
:1000C0000000000000007F000000000000000000B1
:1000D0000000000000000000000000000000000020
:1000E0000000000000000000000000000000000010
:1000F0000000000000000000000000000000800080
:1001000000008000010080000100800001008000EC
:1001100001008000010080000200800003008000D8
:1001200003008000030080000300800003008000C3
:1001300003008000040080000400800005008000AF
:100140000680FF000681FF00FF000000FF000000A6
:10015000FF000000FF000000FF000000FF000000A3
:10016000FF000000FF000000FF000000FF00000093
:10017000FF000000FF000000FF000000FF00000083
:10018000FF000000FF000000FF000000FF00000073
:10019000FF000000FF000000FF00000000003A0028
:1001A00037003400310022006100640000003B0091
:1001B00038003500320023006200650070007400D2
:1001C00078007C008000840088008C0090009400FF
:1001D00098009C00A000A400A800AC00B000B400EF
:1001E000B800BC00C000C400C800CC00D000D400DF
:1001F000D800DC00E000E400E800EC00F000F400CF
:10020000F800FC000001040108010C0100003900A5
:10021000360033003000210020006300050505058D
:100220000505050502020202020202020707040494
:100230000404040404040707030303030303030380
:100240000701010101010101010606060606060675
:10025000060102040810204080010204081020401A
:1002600080081001020408102040800102010204ED
:100270000810204080048040201008040201010280
:100280000408102040800000000A0B0C0000000051
:10029000000001040506000000000000000000004E
:1002A000000000000000000000000000000000004E
:1002B0000000000000000000000000002B1BD625FD
:1002C00011241FBECFEFD0E1DEBFCDBF11E0A0E013
:1002D000B1E0E4E5FFE400E00BBF02C007900D923F
:1002E000AA36B107D9F727E0AAE6B1E001C01D920E
:1002F000A73CB207E1F711E0CFE5D1E004C02197B8
:10030000FE010E942B26CE35D107C9F70E943B1D66
:100310000C949D270C9400002091490730914A07C6
:100320002115310549F090E0880F991F820F931F26
:10033000FC0180819181089590E080E008959C0106
:100340006115710529F06130710571F080E0089543
:1003500080913E078217130681F09091410781E05A
:100360009217130699F7089581E040913F07509145
:1003700040074217530751F7F6CF81E0F4CFFF92C1
:100380000F931F93CF93DF938C01F42EE9010E940A
:100390009F018823B1F0809141078017110619F55C
:1003A00080914507909146078C179D0751F08091E9
:1003B0004207882399F0219751F410924607109232
:1003C0004507DF91CF911F910F91FF90089581E034
:1003D00090E09093460780934507F3CFD09346076C
:1003E000C0934507EECF8091430790914407C8170B
:1003F000D90739F3F0FE0EC0219729F41092440773
:1004000010924307DECF81E090E090934407809301
:100410004307D7CFD0934407C0934307D2CF089563
:1004200081E0809371020895FC01538D448D252F46
:1004300030E0842F90E0821B930B541710F0CF967E
:10044000089501970895FC01918D828D981761F0B0
:10045000A28DAE0FBF2FB11D5D968C91928D9F5FC7
:100460009F73928F90E008958FEF9FEF0895FC01A6
:10047000918D828D981731F0828DE80FF11D858D59
:1004800090E008958FEF9FEF0895FC01918D228DEC
:10049000892F90E0805C9F4F821B91098F73992771
:1004A0000895FC01A48DA80FB92FB11DA35ABF4F09
:1004B0002C91848D90E001968F739927848FA68963
:1004C000B7892C93A089B1898C9180648C93938D8A
:1004D000848D981306C00288F389E02D80818F7D7A
:1004E00080830895EF92FF920F931F93CF93DF9332
:1004F000EC0181E0888F9B8D8C8D981316C0E88964
:10050000F989808185FF11C0EE89FF896083E889C0
:10051000F98980818064808381E090E0DF91CF91D0
:100520001F910F91FF90EF900895F62E0B8D10E024
:100530000F5F1F4F0F731127E02E8C8D8E110CC093
:100540000FB607FCFACFE889F989808185FFF5CFDE
:10055000CE010E945102F1CFEB8DEC0FFD2FF11D6A
:10056000E35AFF4FF0820B8FEA89FB89808180621A
:10057000D2CFCF93DF93EC01888D8823B9F0AA897D
:10058000BB89E889F9898C9185FD03C0808186FD4E
:100590000DC00FB607FCF7CF8C9185FFF2CF80819D
:1005A00085FFEDCFCE010E945102E9CFDF91CF91BF
:1005B00008958AEA92E00E94450221E0892B09F41D
:1005C00020E0822F089580E090E0892B29F00E949E
:1005D000D90281110E94000080E090E0892B49F04F
:1005E00080E090E0892B29F00E94000081110C949A
:1005F000000008950895E0913C02F0913D0230978B
:1006000029F0109239021092380209940895CF937C
:10061000DF93AC01E0913E02F0913F023097F1F0A0
:1006200090913B0280913A029817C0F090E0292FF8
:1006300030E02617370754F4D901A557BE4F240FD1
:10064000351FE90128812C939F5FF1CF10923B0267
:1006500060933A02CB01DF91CF910994DF91CF9162
:100660000895DC011296ED91FC91139711969C91DF
:100670001197808161110EC09095982390831496F4
:10068000ED91FC911597908111968C91809589231D
:1006900080830895623061F4909598239083149636
:1006A000ED91FC911597808111969C91892BF0CF4B
:1006B000982B90830895AF92BF92CF92DF92EF92E2
:1006C000FF920F931F93CF93DF936C017B018B01FC
:1006D000040F151FEB015E01AE18BF08C017D1074C
:1006E00059F06991D601ED91FC910190F081E02DD6
:1006F000C6010995892B79F7C501DF91CF911F912B
:100700000F91FF90EF90DF90CF90BF90AF90089542
:1007100081508C3088F5E82FF0E0EF56FC4F0C94B8
:100720002B26B903B903BC039D03A103A403A703AC
:10073000BC03BC03AB03B103B5038FB58F778FBD8B
:1007400008958FB58F7DFBCF8FB5877FF8CF85B5A7
:100750008F7D85BD089580918B008F7780938B006E
:10076000089580918B008F7DF9CF80918B00877FDA
:10077000F5CF83B78F7D83BF08951F93CF93DF930A
:10078000282F30E0F901EA57FD4F8491F901EF5A23
:10079000FD4FD491F901E45EFD4FC491CC23A9F043
:1007A000162F81110E948803EC2FF0E0EE0FFF1F3F
:1007B000E455FE4FA591B4918FB7F894EC911111C7
:1007C00008C0D095DE23DC938FBFDF91CF911F91BE
:1007D0000895DE2BF8CFCF93DF9390E0FC01EF5A22
:1007E000FD4F2491845E9D4FFC0184918823D1F0BC
:1007F00090E0880F991FFC01E456FE4FA591B4913B
:10080000FC01E455FE4FC591D49161110EC09FB714
:10081000F8948C91E22FE0958E238C932881E2232B
:10082000E8839FBFDF91CF9108958FB7F894EC9143
:10083000E22BEC938FBFF6CF3FB7F89480912B0259
:1008400090912C02A0912D02B0912E0222B706B6F3
:1008500000FE05C02F3F19F00196A11DB11D3FBF3D
:10086000BA2FA92F982F8827BC01CD01620F711DC7
:10087000811D911D42E0660F771F881F991F4A95C1
:10088000D1F708958F929F92AF92BF92CF92DF924D
:10089000EF92FF924B015C010E941C046B017C01F2
:1008A0000E941C046C197D098E099F09683E7340E3
:1008B00081059105A8F321E0821A9108A108B108E9
:1008C00088EEC80E83E0D81EE11CF11C811491044F
:1008D000A104B10429F7FF90EF90DF90CF90BF9073
:1008E000AF909F908F90089561E08FE10E94BD03CB
:1008F00064E070E080E090E00E94420460E08FE1FC
:100900000C94BD030C9474042FB7F89460912702E3
:10091000709128028091290290912A022FBF089598
:10092000E82FF0E0DF01AA0FBB1FA050BF4F1196C8
:100930007C936E938830A8F4E056FB4F0C942B26E2
:10094000A804B204BF04CD04DB04E204ED04F904FE
:1009500080916A008C7F482B40936A0089B7816040
:1009600089BF089580916A00837F440F551F440F0B
:10097000551F482B40936A0089B78260F1CF809160
:100980006A008F7C74E0440F551F7A95E1F7482B7D
:1009900040936A0089B78460E3CF80916A008F73C7
:1009A00066E0440F551F6A95E1F7482B40936A00B3
:1009B00089B78860D5CF8AB78C7F482B4ABF89B763
:1009C0008061CECF8AB7837F440F551F440F551FD8
:1009D000482B4ABF89B78062C3CF8AB78F7C24E097
:1009E000440F551F2A95E1F7482B4ABF89B7806409
:1009F000B7CF8AB78F7396E0440F551F9A95E1F7EA
:100A0000482B4ABF89B78068ABCF883010F40C946C
:100A1000900408950E941C04209124023091250224
:100A2000FB01E21BF30B2091910230919202E2173D
:100A3000F30708F438C12091930230919402709327
:100A40002502609324024091950250919602413014
:100A5000510599F148F04230510509F4B9C04330CD
:100A6000510509F4EFC00895E217F30708F0D4C068
:100A7000809198028F5F809398028B3008F413C1A5
:100A800081E090E0909396028093950241E050E0DF
:100A90006AE075E080918B020E94050510922302A6
:100AA00082E590E0909394028093930283E290E039
:100AB00090939202809391020895409123024130D5
:100AC000A9F038F0433009F449C0443009F47CC03F
:100AD0000895E217F30730F491E090932302E09336
:100AE0002202089584E0809323020895E217F30719
:100AF00098F510922302909198029F5F909398022C
:100B00008E2FEE0F990B20912202821B910927FD57
:100B1000939597FF03C091958195910949970CF49E
:100B2000C2C0109296021092950282E990E09093D2
:100B300094028093930282E590E0909392028093D6
:100B40009102109298024091790250E06AE075E0BB
:100B500080918B020C94050583E0C5CFE217F30763
:100B600000F380917902833061F582E0809379020D
:100B700082E090E0909396028093950282E990E063
:100B8000909394028093930282E590E09093920276
:100B90008093910210929A0210929C0210929D02F0
:100BA00010929E0210929F021092A0021092A10237
:100BB0008091980280939B02109298021092990261
:100BC000C2CF40937902D4CFE217F30788F6A9CFBA
:100BD000509198025F5F5093980240919902440FA0
:100BE000E217F307E0F040939902583009F05BC038
:100BF000E0919A02E630A9F41092960210929502C2
:100C000082E990E0909394028093930282E590E0D1
:100C100090939202809391021092980208954160FD
:100C2000E2CF83E090E0909396028093950281E07A
:100C30008E0F80939A02F0E0EB56FD4F809199025F
:100C400087830895E217F307F8F410929602109242
:100C500095021092980282E990E09093940280931A
:100C6000930282E590E0909392028093910288E053
:100C7000EAE9F2E0A2EAB2E001900D928A95E1F78A
:100C800081E080939702089580919A02863009F45A
:100C9000B3CF82E090E090939602809395021092F9
:100CA000980210929902089580E090E0892B29F033
:100CB0008091900283FD0C9400000895E82FF0E0ED
:100CC000EE5BFD4F608308950F931F93CF93DF93E7
:100CD000FC018281813089F040F0823009F47AC0D1
:100CE000DF91CF911F910F91089561E08081DF9195
:100CF000CF911F910F910C94BD030181C02FD0E0C3
:100D0000108161E0812F0E94EB03209719F460E0CD
:100D1000812FEDCFCF3FD10511F461E0F9CFE12F65
:100D2000F0E0EA57FD4FE491E150EC3008F04DC09F
:100D3000F0E0E356F94F0C942B26A906A906E50628
:100D4000AE06B406BA06C206E506E506C706D10633
:100D5000DB0683B7806283BF01BFC2CF8FB58068D7
:100D60008FBDDBBDCABDBCCF8FB580628FBDD9BD85
:100D7000C8BDB6CF8FB588608FBDD0937900C093C2
:100D80007800AECF85B5806285BD03BDA9CF8091C7
:100D90008B00806880938B00D0938700C09386007F
:100DA0009FCF80918B00806280938B00D0938500D1
:100DB000C093840095CF80918B00886080938B00D6
:100DC000D0938300C09382008BCFC038D1050CF044
:100DD000A4CF9DCF8181E381F0E0EE5BFD4F808366
:100DE0007FCF0F931F93CF93DF93D62F8C01C0E05B
:100DF000CD1741F0F801819191918F010E94640615
:100E0000CF5FF6CFDF91CF911F910F910895CF93D0
:100E1000DF93DC01EC91F0E0EE0FFF1FE45FFD4F8C
:100E2000C591D491988111968C91982381E009F411
:100E300080E0DF91CF910895DC0170E0FB01EF5A73
:100E4000FD4FE4911196EC931197645E7D4FFB0189
:100E500024912C9330E0220F331FF901E456FE4F0A
:100E60008591949113969C938E931297F901E45572
:100E7000FE4F8591949115969C938E9314970895A7
:100E8000FC018081813089F4CB018458934088979C
:100E9000C0F06138F3E07F07A1F06C5F734081E040
:100EA0006530710578F080E00895823021F4CB013F
:100EB0008C5A9340ECCF833061F7CB01845D934033
:100EC000E6CF81E00895CF93DF93FC0121812F3F8E
:100ED000F9F0EC0161E0858D968D0E943103AD8DB6
:100EE000BE8D1496ED91FC911597908111968C9181
:100EF00080958923808361E070E080E090E00E942B
:100F0000420460E08D8D9E8DDF91CF910C94310372
:100F100080E090E0892B21F0DF91CF910C940000CC
:100F2000DF91CF91089585ED8093740080917400D6
:100F300084FDFCCF1092370208952091CB01260F3B
:100F40003327331F21323105ECF420913702FC01A5
:100F500090E080E0243069F082E00895A091CB0118
:100F60002191AC0145555E4FA40FB52FB11D2C93B7
:100F70000196861798F38091CB01680F6093CB019F
:100F800080E0089581E008950895E0913B0280910A
:100F90003A02E81730F4F0E0E557FE4F808190E028
:100FA00008958FEF9FEF089590913B0280913A0250
:100FB0002FEF3FEF981748F4E92FF0E0E557FE4F89
:100FC000208130E09F5F90933B02C901089580919A
:100FD0003A0290913B02891B990B0895CF92DF92C0
:100FE000EF92FF920F931F93CF93DF937C01CB017E
:100FF0008A0120918A01222389F0EB016B01C40E42
:10100000D51ECC15DD0569F06991D701ED91FC91F4
:101010000190F081E02DC7010995F3CF642F0E9464
:101020009D07C801DF91CF911F910F91FF90EF9025
:10103000DF90CF900895CF93DF931F92CDB7DEB7A7
:10104000698320918A012223F9F02091380220320D
:1010500058F021E030E0FC013383228390E080E00F
:101060000F90DF91CF91089580913902E82FF0E041
:10107000E659FE4F998190838F5F80933902809368
:10108000380281E090E0ECCF61E0CE0101960E9451
:101090009D07F7CF90E080E00895089508958F921E
:1010A0009F92AF92BF92CF92DF92EF92FF920F93F7
:1010B0001F93CF930E941C04AB01BC018091550388
:1010C00090915603A0915703B09158038A019B0158
:1010D000081B190B2A0B3B0B80915D03882309F435
:1010E0007FC080915F0390915E03E92FEE0FFF0BAD
:1010F000A82F082E000CBB0BC3E68C02E00DF11DDF
:101100001124ED5AFC4F178B068B053F114021052A
:10111000310508F054C09F5F90935E0390915E0389
:101120009332C9F593E69A9F90019B9F300D11244D
:101130002D5A3C4FF901E45AFF4FC0905903D0900B
:101140005A03E0905B03F0905C034A015B018C184A
:101150009D08AE08BF0875016401C082D182E28299
:10116000F38229593F4FE1E0F0E0D901ED93FC9380
:101170008F5F8A3094F580935F03E0915F03B3E65D
:10118000EB02F0011124E654FC4F11821082109200
:101190005D0310925E034093550350935603609392
:1011A000570370935803CF911F910F91FF90EF90C9
:1011B000DF90CF90BF90AF909F908F900895109246
:1011C0005E0391E090935D034093590350935A035B
:1011D00060935B0370935C03A1CF10925F03CDCF4C
:1011E000053F114021053105B0F281E080935D0398
:1011F0004093590350935A0360935B0370935C03CD
:10120000CACFE82FF0E0EE5BFD4F60830895CF93E7
:10121000FC018281813051F020F0823079F0CF9151
:10122000089560E08081CF910C94BD03C08161E09E
:101230008C2F0E94EB0360E08C2FF5CFE381F0E070
:10124000EE5BFD4F1082EBCF80937202882361F03A
:101250000FB6F894A89581B5886181BD11BC0FBE09
:101260008EEB97E00C9464068EEB97E00E940709E2
:1012700088E19BE00FB6F894A89581BD0FBE91BDA3
:101280000895CF93C82F80917C028C1731F081E0B4
:10129000C11101C080E00E942409C0937C0260E07B
:1012A00070E0CB01C1110E94840460937D027093B1
:1012B0007E0280937F029093800280917C028C1743
:1012C00039F081E0C11101C080E0CF910C94240974
:1012D000CF910895EF92FF920F931F93CF93DF93D7
:1012E0008C01FC01C581D681209751F0E480F12C5E
:1012F000EF1431F0899199910E940709F394F8CF86
:10130000F801C085D185209751F0078110E00117C1
:1013100031F0899199910E9407091F5FF8CFDF9101
:10132000CF911F910F91FF90EF9008952091490761
:1013300030914A072115310551F090E0880F991F2F
:10134000820F931FFC01808191810C946A0908959A
:10135000CF9380914B07882369F180914C0790913E
:101360004D07892B29F1C0E080914807C81700F587
:101370008C2F86958695869590E0E0914C07F091AC
:101380004D07E80FF91F208130E043E0880F991FD7
:101390004A95E1F74C2F481B02C0359527954A9591
:1013A000E2F720FF03C08C2F0E949609CF5FDCCFAD
:1013B00010924B07CF9108950F931F93CF938C01F9
:1013C000C42F0E949F018823E1F180914107482F9B
:1013D00050E0C03128F5882319F12C2F30E080919E
:1013E0004E0790914F070C2E02C0969587950A9450
:1013F000E2F780FF15C00417150719F5809149071A
:1014000090914A070097E9F0220F331F820F931F34
:10141000FC0180819181CF911F910F910C946A09F9
:101420000417150771F08091490790914A070097BA
:1014300041F04C2F50E0440F551F480F591FFA013F
:10144000E8CFCF911F910F9108950F931F93CF93E2
:10145000DF93EC018B81882379F08B0189819A815C
:101460008617970729F0CE010E946A091A8309831B
:1014700089819A81019731F48D819E81009769F06D
:101480006C8105C088859985009739F06F81DF915F
:10149000CF911F910F910C94F106DF91CF911F9185
:1014A0000F9108952091490730914A072115310580
:1014B00071F0609143077091440790E0880F991F85
:1014C000820F931FFC01808191810C94250A08955D
:1014D000CF9380914B07811138C0C0E080914807BD
:1014E000C81728F48C2F0E949609CF5FF7CF809100
:1014F0004C0790914D07892B29F1C0E08091480756
:10150000C81700F58C2F86958695869590E0E0911A
:101510004C07F0914D07E80FF91F208130E043E0C0
:10152000880F991F4A95E1F74C2F481B02C035954B
:1015300027954A95E2F720FF03C08C2F0E94520A9C
:10154000CF5FDCCF81E080934B07CF91089520914E
:101550004307309144072817390761F090934407F7
:101560008093430780914B07882321F00E94A809AC
:101570000C94680A0895CF93C62F8230910509F420
:1015800056C020F4019769F1CF91089583309105F9
:1015900009F48BC00497C1F785E160FFC0C00E94C9
:1015A000520A86E1C1FFBEC00E94520A87E1C2FF13
:1015B000BCC00E94520A88E1C3FFBAC00E94520A0E
:1015C00089E1C4FFB8C00E94520A8AE1C5FFB6C0D3
:1015D0000E94520A8BE1C6FFB4C00E94520A8CE1FD
:1015E0004AC080E064FF17C00E94520A81E0C0FF39
:1015F00015C00E94520A82E0C1FF13C00E94520A25
:1016000083E0C2FF11C00E94520A84E0C3FF35C0CC
:10161000CF910C94520A0E949609E8CF0E94960935
:10162000EACF0E949609ECCF0E949609EECF85E0A2
:1016300060FF26C00E94520A86E0C1FF24C00E94BB
:10164000520A87E0C2FF22C00E94520A88E0C3FF0C
:1016500020C00E94520A89E0C4FF1EC00E94520AA4
:101660008AE0C5FF1CC00E94520A8BE0C6FF1AC068
:101670000E94520A8CE0C7FDCBCFCF910C94960903
:101680000E949609D9CF0E949609DBCF0E94960945
:10169000DDCF0E949609DFCF0E949609E1CF0E941C
:1016A0009609E3CF0E949609E5CF8DE060FF22C046
:1016B0000E94520A8EE0C1FF20C00E94520A8FE0B1
:1016C000C2FF1EC00E94520A80E1C3FF1CC00E94DC
:1016D000520A81E1C4FF1AC00E94520A82E1C5FF8A
:1016E00018C00E94520A83E1C6FF16C00E94520A27
:1016F00084E1C1CF0E949609DDCF0E949609DFCF19
:101700000E949609E1CF0E949609E3CF0E949609B4
:10171000E5CF0E949609E7CF0E949609E9CF0E9483
:1017200096093FCF0E94960941CF0E94960943CF68
:101730000E94960945CF0E94960947CF0E949609BC
:1017400049CF0E9496094BCF0F931F93CF938C01E3
:10175000C42F0E949F01882309F444C0809141074F
:10176000482F50E0C03148F5882339F12C2F30E064
:1017700080914E0790914F070C2E02C09695879549
:101780000A94E2F780FF19C00417150759F58091F4
:10179000490790914A07009729F160914507709198
:1017A0004607220F331F820F931FFC018081918116
:1017B000CF911F910F910C94250A0417150791F0F2
:1017C0008091490790914A07009761F06091430723
:1017D000709144074C2F50E0440F551F480F591F7C
:1017E000FA01E4CFCF911F910F9108950E94410912
:1017F000EAE7F2E081E087831086E3E8F2E088E040
:10180000DF011D928A95E9F708950C94E0250F9366
:101810001F93CF93C82F8B0181E090E00E94050CAD
:1018200090E020913E072817190629F020914107E2
:101830002817190611F4C09347078DE190E00E9424
:10184000050CC82F81E090E00E94050C90E021E09B
:1018500030E00130110511F030E020E04C2F70E055
:1018600060E0CF911F910F910C94BF01CF93863808
:1018700023E0920719F130F481389340D1F08FEFD3
:10188000CF910895873823E09207D9F088389340A4
:10189000B1F786E893E00E94050CC82F87E893E033
:1018A0000E94050C90E02FEFC29F800D911D112426
:1018B00002C081E893E0CF910C94050C86E893E098
:1018C000FACF87E893E0F7CFCF93C82F8FE290E06D
:1018D0000E94050C811109C085E190E0CC2311F034
:1018E00086E190E0CF910C94050C80E0CF910895B3
:1018F000CF93C82F8FE290E00E94050C811106C0A3
:101900008C2F90E0CA96CF910C94050C80E0CF917B
:101910000895DF92EF92FF920F931F93CF93DF937F
:101920005091680251111AC07901D42E8B01EC013B
:101930000E949F018111D09247078DE190E00E94A3
:10194000050C9701482FB801CE01DF91CF911F916F
:101950000F91FF90EF90DF900C94BF01DF91CF913A
:101960001F910F91FF90EF90DF9008951F93CF93F9
:10197000DF93EC0180917202882359F08FE090E0B0
:101980000E94050C182F80E190E00E94050C1813AE
:1019900006C0CE01DF91CF911F910C94050C8EEB08
:1019A00097E00E940709FFCF0C94B60CCF93DF930A
:1019B00020918D0230918E022F3F320721F0C90114
:1019C000DF91CF9108958091900287FF2BC086FF11
:1019D0000FC089E090E00E94D40CC82F81E090E015
:1019E0000E94D40C9C2F90938E0280938D0215C080
:1019F00089E090E00E94D40CC82F81E090E00E9422
:101A0000D40C90E4C99F90011124207C31708F7315
:101A1000282B30938E0220938D0280918D0290911D
:101A20008E02CECF85FF0CC081E190E00E94D40CE5
:101A3000C82F82E190E00E94D40CC05CDD0BD2CFB5
:101A400081E090E00E94D40C90E0CDCFFF920F9304
:101A50001F93CF93DF933091680231110FC0F22EA4
:101A60008B01EC014330510509F47EC068F441302C
:101A70005105E9F04230510509F458C0DF91CF918A
:101A80001F910F91FF9008954530510509F4D4C07E
:101A900008F488C04630510589F740E024FF2CC087
:101AA000DF91CF911F910F91FF900C94A40B809127
:101AB000650281112BC040E0B801CE01F4FE23C0C5
:101AC0000E94A40B41E0B801CE01F0FE26C00E94A6
:101AD000A40B42E0B801CE01F1FE22C00E94A40B8B
:101AE00043E0B801CE01F2FE1EC00E94A40B44E008
:101AF000B801CE01F3FCD4CFDF91CF911F910F91AC
:101B0000FF900C94DC090E94DC09DCCF8DE190E0B1
:101B10000E94D40C81FDCFCFD5CF0E94DC09D9CF54
:101B20000E94DC09DDCF0E94DC09E1CF45E020FF07
:101B300012C00E94A40B46E0B801CE01F1FE0EC017
:101B40000E94A40B47E0B801CE01F2FE0AC00E9439
:101B5000A40B48E0CDCF0E94DC09EDCF0E94DC0948
:101B6000F1CF0E94DC09F5CF49E020FF12C00E94AE
:101B7000A40B4AE0B801CE01F1FE0EC00E94A40BF6
:101B80004BE0B801CE01F2FE0AC00E94A40B4CE06B
:101B9000AFCF0E94DC09EDCF0E94DC09F1CF0E949B
:101BA000DC09F5CF4DE020FF32C00E94A40B4EE0CF
:101BB000B801CE01F1FE2EC00E94A40B4FE0B80187
:101BC000CE01F2FE2AC00E94A40B40E1B801CE0172
:101BD000F3FE26C00E94A40B41E1B801CE01F4FE41
:101BE00022C00E94A40B42E1B801CE01F5FE1EC046
:101BF0000E94A40B43E1B801CE01F6FE1AC00E9478
:101C0000A40B44E1B801CE01F7FE76CF49CF0E9484
:101C1000DC09CDCF0E94DC09D1CF0E94DC09D5CFF1
:101C20000E94DC09D9CF0E94DC09DDCF0E94DC09CB
:101C3000E1CF0E94DC09E5CF45E120FF2EC00E94E4
:101C4000A40B46E1B801CE01F1FE2AC00E94A40B0C
:101C500047E1B801CE01F2FE26C00E94A40B48E184
:101C6000B801CE01F3FE22C00E94A40B49E1B801E5
:101C7000CE01F4FE1EC00E94A40B4AE1B801CE01C1
:101C8000F5FE1AC00E94A40B4BE1B801CE01F6FE8E
:101C900016C00E94A40B4CE1B5CF0E94DC09D1CF45
:101CA0000E94DC09D5CF0E94DC09D9CF0E94DC0953
:101CB000DDCF0E94DC09E1CF0E94DC09E5CF0E9464
:101CC000DC09E9CF1F93CF93DF93EC01162F0E941D
:101CD000E025181721F0612FCE010E94E825CE01E2
:101CE000DF91CF911F910C94050CCF93DF93863831
:101CF00023E0920739F138F481389340E9F08FEF0F
:101D0000DF91CF910895873823E09207F1F088386A
:101D10009340A9F7C62F86E893E00E94050CD82FC0
:101D200087E893E00E94050C90E06C2F2FEFD29F84
:101D3000800D911D112402C081E893E0DF91CF91C5
:101D40000C94620E86E893E0F9CF87E893E0F6CF33
:101D50000F931F93CF93DF930FB7F894D0E0C0E0B9
:101D6000FE01E457FF4F1491CE010E94E0251817A1
:101D700021F0612FCE010E94E8252196C03181E03B
:101D8000D80771F781E893E00E94E025813029F0BF
:101D900061E081E893E00E94E825CCE1D1E01FEF0B
:101DA00089919991FC0111830E946406F1E0C2348B
:101DB000DF07B1F70FBFDF91CF911F910F9108950A
:101DC0001F93CF93DF93EC01162F089779F46623C6
:101DD00019F10E94A80E80E090E0892BB9F0612FE4
:101DE000CE01DF91CF911F910C94000080E090E034
:101DF000892BA9F781E0C11590E1D90708F080E0AF
:101E0000111105C0DF91CF911F91089581E02797AF
:101E10002297C0F780E0F6CF80E090E0892BF9F6BA
:101E200081E0F0CF2F923F924F925F926F927F921C
:101E30008F929F92AF92BF92CF92DF92EF92FF92DA
:101E40000F931F93CF93DF9300D000D0CDB7DEB7B1
:101E50008C01E0E0CE2EE0E0DE2EF0E02F2EF0E070
:101E60003F2E812C912C54018394B0E0EB2EB0E0F6
:101E7000FB2ED8015B96ED91FC91309709F416C2C8
:101E80005280B181BA838081803409F42DC108F079
:101E900044C0893209F4A2C1F0F4843209F45BC170
:101EA00080F4813209F438C1833209F43EC18111D2
:101EB00010C080E090E0892B61F08A810E940000D0
:101EC00008C0863209F460C108F44FC1883209F4B1
:101ED0007BC180E0DBC18D3209F495C168F48B329F
:101EE00009F48AC108F481C16A8185E090E0E114B7
:101EF000F10409F070C1EDCF8F3209F493C108F4F9
:101F000089C1803309F495C1813319F7E0E0F0E02D
:101F1000EF2BF9F26A8182E093C1813609F4A1C006
:101F200050F5803509F446C170F4823409F4EDC0EF
:101F300008F4E4C0833469F6C114D10451F26A8113
:101F400084E090E0D8C08E3509F47DC1803609F474
:101F500082C0813509F0BDCF80E090E0892B09F483
:101F6000B8CF9A8197FF0CC161E070E0892F80584B
:101F70000E940000AECF8D3609F47FC088F483360E
:101F800009F477C008F471C08C3609F0A2CFE0E004
:101F9000F0E0EF2B09F49DCF8A810E94000099CFD9
:101FA000873709F465C1E8F48E3609F092CF0380D3
:101FB000F481E02D309709F479C180818F3609F0E2
:101FC00088CF2114310409F484CF6A81661F662703
:101FD000661F8181B0E88B9FC0011124EA818E2B9E
:101FE00080C08B3709F4A7C18F3709F072CFFA810F
:101FF000EF2FF0E0EF5FFC4FFC83EB83BF01C801E4
:102000000E944007882309F440C18B819C81853858
:10201000A3E09A0709F439C18D3AB3E09B0709F4AC
:1020200046C2853DE3E09E0709F441C28438F3E0EF
:102030009F0741F08C3A23E0920721F0843D9340C2
:1020400009F028C288E0581225C20E94A80EC801D3
:102050000E9463072CC26A8181E090E00E94BB0A63
:1020600038CF6A8182E090E0F9CF6A8183E090E026
:10207000F5CF6A8184E090E0F1CF8A818F77818308
:102080002114310409F425CF6A81661F6627661F73
:10209000D8015B96ED91FC918181811121C081E095
:1020A0008093210261110EC08091210287FD11CF22
:1020B00060E090E00E940000809121028F5F809399
:1020C0002102F2CF8091210287FD03CF61E090E0F1
:1020D0000E940000809121028F5F80932102F2CF45
:1020E00090E00E940000F5CE6A8181E090E0C1148A
:1020F000D10409F4EECE0E940000EBCE6A8182E0AA
:1021000090E0C114D104B9F7E4CE6A8183E090E095
:10211000C114D10481F7DDCE80E090E0892B09F471
:10212000D8CE8A810E940000D4CEA0E0B0E0AB2BD4
:1021300009F4CFCEBA818B2F90E0B7FF09C0EA81B6
:10214000E1958E2F90E09C838B83919581959109E9
:102150000E940000BECEAA8161E070E08A2FA7FD38
:102160002FC070E060E08A812CC0E0E0F0E0EF2B4F
:1021700009F4AFCEFA8161E070E08F2FF7FDF7CE62
:1021800070E060E08A81F4CE80E090E0892B09F471
:10219000A0CE9A8197FD05C0892F90E00E94000093
:1021A00098CEAA81A195EA2FF0E0CF019195819573
:1021B0009109F4CF2A8127FFD4CF61E070E0822F0C
:1021C00080580E94070C85CE6A8181E090E0E1147E
:1021D000F10409F47ECE0E9400007BCE6A8182E089
:1021E00090E0E114F104B9F774CE6A8183E090E0E5
:1021F000E114F10481F76DCE6A8184E090E0E1148E
:10220000F10449F766CE6A8186E090E0E114F104BA
:1022100011F75FCEE114F10409F45BCE6A8187E027
:1022200090E0D9CF6A8188E090E0E114F10499F65A
:1022300050CEA0E0B0E06A8181E0AB2B09F449CE3A
:102240000E94000046CE0380F481E02D309771F1AA
:1022500080818F3509F03DCEA0E0B0E0AB2B09F4D2
:1022600038CE8181BA81982F8B2F0E94000031CE09
:102270009A81892F90E08F5F9C4F9C838B83BC0158
:10228000C8010E944007811128C081E0D8015B96F7
:10229000ED91FC915C9723813481148213825C96CA
:1022A0003C932E935B97813009F4E3CD0F900F9010
:1022B0000F900F90DF91CF911F910F91FF90EF90B2
:1022C000DF90CF90BF90AF909F908F907F906F9056
:1022D0005F904F903F902F900895AB81BC81A138C3
:1022E000E3E0BE07C9F0A438F3E0BF0711F1A53859
:1022F00023E0B20779F0AC3A43E0B407D1F0AD3A4D
:1023000083E0B80739F0A43D93E0B90791F0A53D0B
:10231000B34051F48AE002C0D8018C915812B5CF75
:10232000C8010E946307B1CF8B819C810E94360C4B
:10233000F5CF8DE0F3CFBA816B2E712CEFEF6E1AD3
:10234000ECEF7E0AB301C8010E944007882309F41C
:102350009CCF852D90E09C0144E0359527954A95CA
:10236000E1F7F22FF170F983F09320029C0153E022
:10237000359527955A95E1F7422F4170442E4093A9
:102380001F029C0135952795A22FA170AA0F959544
:102390008795959587958170880F880F8A0FB52D41
:1023A000B170B80FBB83B0931E02E1E86E16E3E094
:1023B0007E06B1F4D8018C9180931D02F130A9F111
:1023C00080911D0290E00B8002C0959587950A943C
:1023D000E2F7817099274816190609F056CFA0CF69
:1023E000B4E86B16B3E07B0651F0ECEA6E16E3E05E
:1023F0007E0629F0F4ED6F16F3E07F0689F58DE097
:1024000080931D0299819130D9F6C301845893407D
:10241000029708F43ACF8A818B5A823008F435CF7C
:10242000AA81A35DA23008F430CFD501C4010B808E
:1024300004C0880F991FAA1FBB1F0A94D2F72091CE
:102440001D0253FE22C0822B80931D0260911D024B
:10245000C3010E94750E90911D02891316CF60CFA3
:1024600025E8621623E0720651F04DEA641643E057
:10247000740629F085ED681683E0780611F48AE089
:10248000BFCFC3010E94360CBBCF482F4095822F8F
:102490008423DACF652D8B819C810E94750ED80133
:1024A0005B96ED91FC919281891709F4D0CDEB8177
:1024B000FC81E138F34009F0E8CE81E893E00E9426
:1024C000050CD8018C93E1CEAF92BF92CF92DF92F0
:1024D000EF92FF920F931F93CF93DF93C0912F0240
:1024E000D091300210911C0211111AC0FE0190E02F
:1024F00080E025813681232B09F05AC025E0289FF2
:10250000F001299FF00D11243296EC0FFD1FF0937E
:102510001B02E0931A02309709F43FC01482138221
:10252000A0901A02B0901B02A114B104B1F10E9454
:102530008404C0901602D0901702E0901802F09028
:1025400019026C197D098E099F096A307105810590
:102550009105C8F110921C020E9484046093160237
:102560007093170280931802909319028D8D9E8D9F
:102570000E940707F5019081882319F191609083EB
:1025800081E080931C020E941C04609312027093ED
:1025900013028093140290931502DF91CF911F9143
:1025A0000F91FF90EF90DF90CF90BF90AF90089584
:1025B000019635968530910509F09BCFF0E0E0E07B
:1025C000A6CF9E7FDCCF0E941C04C0901202D09048
:1025D0001302E0901402F09015026C197D098E0927
:1025E0009F096531710581059105B8F20E941C04AF
:1025F0006C197D098E099F09643F71408105910521
:1026000060F68D8D9E8D212F2770C12CD12C7601E7
:10261000C39404C0CC0CDD1CEE1CFF1C2A95D2F721
:10262000103108F049C00E940707E12FE695E695B2
:10263000E695EA0DFB2DF11D8823D1F18081C82A92
:10264000C08201E0010F00931C020E941C046093F1
:102650001202709313028093140290931502177F55
:10266000173019F0083109F098CF0E948404609364
:10267000160270931702809318029093190200318A
:1026800041F1083109F089CF0B8D1C8D80911A0220
:1026900090911B029C8F8B8FCE010E94120FE091B4
:1026A0001A02F0911B02148213821C8F0B8F2CC014
:1026B000C0948081C822C4CF0E940707F50192818F
:1026C000882319F0C92AC282BCCFC0949C2192836E
:1026D000B8CFA0911A02B0911B028C91982F977FCE
:1026E000973709F45ACF8B3709F457CFEB8DFC8D10
:1026F000309721F4BC8FAB8F07C0FC01838194819C
:102700000097D9F7B483A38310921C0246CF0F938E
:102710001F93CF93DF9320917202222329F08F30F1
:10272000910541F48FE090E0DF91CF911F910F91DF
:102730000C94620E162FEC018FE090E00E94050CC5
:10274000082F80E190E00E94050C08130DC0C730EF
:10275000D10531F0C830D10521F4183031F0FFCF68
:10276000FFCF612FCE01E0CFFFCF0E94A80E88E0FF
:10277000DF91CF911F910F9108958331910588F4D6
:102780008131910530F48130910519F0893091053E
:1027900031F42FEF3FEF30938E0220938D020C9493
:1027A00087138D319105D9F7677F6093900220914F
:1027B0007A022F73362F307C232B20937A02E9CFB5
:1027C000CF93DF93E5E9F2E095E1DF011D929A9561
:1027D000E9F722E930E0309394022093930222E556
:1027E00030E03093920220939102CAE7D2E08883CE
:1027F00019828FEF9FEF9C8B8B8B1D8A83E08093D8
:10280000790243E050E06AE075E089890E9405059D
:102810008DE190E00E94D40C682F6F738DE190E001
:102820000E94BD138E8B6AE087E090E00E94BD138A
:102830006DE088E090E00E94BD1380E0DF91CF91D1
:102840000C94F60B89B78F7B89BF8FE092E0909351
:102850000D0180930C0181E00E94E0131092780238
:102860001092770208950F931F930E941C04009109
:102870007302109174022091750230917602601BF0
:10288000710B820B930B613F79448240910508F4F0
:1028900056C08091720281110BC080917702909195
:1028A000780281309105B1F188F0029709F444C0B3
:1028B0000E941C04609373027093740280937502EB
:1028C0009093760281E01F910F91089580E390E04C
:1028D0000E94B60C80FF0EC041E050E06FE478E04B
:1028E00086E00E94900481E090E0909378028093CB
:1028F0007702DECF8DE190E00E94B60C82FFD8CF48
:1029000041E050E060E172E086E00E94900482E0E5
:1029100090E0EBCF89B78F7B89BF8FE092E09093F7
:102920000D0180930C018DE190E00E94B60C82FDB8
:10293000E7CF0E942214BCCF10927102FACF80E040
:10294000C2CFBF92CF92DF92EF92FF920F931F936D
:10295000CF93DF938B01B42E690182FF23C083FFE5
:1029600017C061E0C8010E94E00E8823D9F16B2DE9
:10297000C8010E94BD138B1135C0F601DF91CF91C4
:102980001F910F91FF90EF90DF90CF90BF9009942F
:1029900060E0C8010E94E00E882321F1C8010E9476
:1029A000D40CE9CF842F8770C1E0D0E07E0101C054
:1029B000EE0C8A95EAF7D42FD870CB010E94D40C84
:1029C000C82FB4FE1CC061E0C8010E94E00E88233D
:1029D00049F0DD2389F0CE296C2FC8010E94BD1378
:1029E0008C1759F2DF91CF911F910F91FF90EF90CB
:1029F000DF90CF90BF900895E094CE21EDCF60E0BE
:102A0000C8010E94E00E882369F3CE21DD2319F06E
:102A1000C111B3CFE7CFCC2309F4AFCFE3CFCF922F
:102A2000DF92EF92FF920F931F93CF93DF937C017E
:102A30006B01C42F122FD42FD07E80917A0287FF92
:102A40002CC0D03EC1F580917B028823A1F190E09B
:102A50000E94D40CD82F80917B0290E001960E94B6
:102A6000D40C982F8D2FE816F90629F56C2F70E0FD
:102A7000762F662766277370612B6F5F7F4F24E583
:102A800036E0402F8C2FDF91CF911F910F91FF9057
:102A9000EF90DF90CF900C94A11480FD32C0D0361F
:102AA00009F464C088F4D03209F447C0D03409F482
:102AB0005DC0DD2379F1DF91CF911F910F91FF90E0
:102AC000EF90DF90CF900895D03A09F483C090F44E
:102AD0002C2F2F7141E050E0D03869F7B601C701C3
:102AE000DF91CF911F910F91FF90EF90DF90CF90EA
:102AF0000C94260DD03C09F476C0D03E09F4B6CF34
:102B0000DACF0E94D60C8E159F0549F2E114F1042C
:102B100031F2D1CF8C2F8E7071F680E090E0892B4E
:102B200051F28C2F8170DF91CF911F910F91FF9007
:102B3000EF90DF90CF900C940000CF71CF3109F06F
:102B4000BACF412F4F7771F0413071F0111F11272B
:102B5000111F212F30E00FE710E0B601C7010E94DE
:102B6000890CA9CF41E0F2CF40E0F0CF2C2F30E02C
:102B70008C2F8F71813029F030F0803121F081313C
:102B8000F9F440E001C041E025FB222720F90DE1E6
:102B900010E030E0B601C7010E94890C80E090E0AF
:102BA000892B09F488CF4C2FB601C701DF91CF9153
:102BB0001F910F91FF90EF90DF90CF900C94000049
:102BC000C901880F991F8E71C4FB442740F9482B17
:102BD0004250DACF2C2F2F7043E050E0C4FF7ECF5D
:102BE00042E050E07BCFCF71CE3139F0CF3109F0E8
:102BF00062CF212F45E050E071CF212F44E050E01B
:102C00006DCFCF92DF92EF92FF920F931F93CF93EE
:102C1000DF93EC017B0141305105F9F4CD80DE807A
:102C20002496C114D104E9F462E070E081E090E000
:102C30000E9448268C01009731F0FC01F182E0826D
:102C400088818F5F8883C801DF91CF911F910F9199
:102C5000FF90EF90DF90CF900895C884D984279695
:102C6000E0CF88818F5F8883C82FD0E062E070E07A
:102C7000CE010E9448268C0120E0BE0161507109FE
:102C8000822F90E08617970774F4880F991FF6013A
:102C9000E80FF91F40815181800F911FFC01518382
:102CA00040832F5FEDCFC150D048CC0FDD1FC00F48
:102CB000D11FF982E882C6010E940027C4CF4F923B
:102CC0005F926F927F92AF92BF92CF92DF92EF921C
:102CD000FF920F931F93CF93DF93CDB7DEB7C1540D
:102CE000D1090FB6F894DEBF0FBECDBF5C01F82E40
:102CF0006E0182E2C80ED11C8601802F8C198F15BF
:102D000040F487E493E00E94D407F80181938F0197
:102D1000F4CFF12C8AE0482E512C612C712CF5E077
:102D2000AF16B10409F064C0009140021091410255
:102D300001151105A9F13CA14BA12AA1F80190E0D0
:102D400080E065817681672B31F555E0589F7001F1
:102D5000599FF00C1124C7010296800F911FE00EBD
:102D6000F11EF70116821582228343833483F80112
:102D7000C38CD48C322F377F373741F5F801948FCD
:102D8000838FC8010E94120FF70116821582F80185
:102D9000D48EC38E05C0019635968530910589F68F
:102DA000CF5BDF4F0FB6F894DEBF0FBECDBFDF9114
:102DB000CF911F910F91FF90EF90DF90CF90BF9038
:102DC000AF907F906F905F904F9008952B37B1F246
:102DD000C114D10421F4948F838FE2CF6901F601ED
:102DE0002381348121153105C9F794838383D8CF9A
:102DF0008F2D90E08A159B059CF68C0D9D1DFC0186
:102E0000208130E050E040E019A28E010F5D1F4F9D
:102E1000CA01B901A30192010E940926605DF8016F
:102E200062938F01211531054105510589F73097CE
:102E300061F001900020E9F73197AF01401B510B81
:102E4000B8018AEA92E00E945B0342E050E066E645
:102E500071E08AEA92E00E945B03F394C9CF1F926B
:102E60000F920FB60F9211240BB60F922F933F9330
:102E70004F935F936F937F938F939F93AF93BF9382
:102E8000EF93FF938AEA92E00E945102FF91EF9143
:102E9000BF91AF919F918F917F916F915F914F9172
:102EA0003F912F910F900BBE0F900FBE0F901F9070
:102EB00018951F920F920FB60F9211240BB60F9216
:102EC0002F938F939F93EF93FF93E091BA02F0912A
:102ED000BB028081E091C002F091C10282FD1DC061
:102EE00090818091C3028F5F8F732091C4028217FB
:102EF00041F0E091C302F0E0E655FD4F958F8093DD
:102F0000C302FF91EF919F918F912F910F900BBE74
:102F10000F900FBE0F901F9018958081F2CF1F92D7
:102F20000F920FB60F9211242F933F938F939F937D
:102F3000AF93BF938091270290912802A09129021C
:102F4000B0912A023091260223E0230F2D3768F139
:102F500026E8230F0296A11DB11D2093260280931F
:102F6000270290932802A0932902B0932A0280910D
:102F70002B0290912C02A0912D02B0912E0201966D
:102F8000A11DB11D80932B0290932C02A0932D02C2
:102F9000B0932E02BF91AF919F918F913F912F914E
:102FA0000F900FBE0F901F9018950196A11DB11D97
:102FB000D4CF1F920F920FB60F9211240BB60F921F
:102FC0002F933F934F935F936F937F938F939F9331
:102FD000AF93BF93EF93FF93E0910E01F0910F0138
:102FE0000995FF91EF91BF91AF919F918F917F9143
:102FF0006F915F914F913F912F910F900BBE0F906A
:103000000FBE0F901F9018951F920F920FB60F9240
:1030100011240BB60F922F933F934F935F936F93AF
:103020007F938F939F93AF93BF93EF93FF93E09121
:103030000C01F0910D010995FF91EF91BF91AF91B6
:103040009F918F917F916F915F914F913F912F91C0
:103050000F900BBE0F900FBE0F901F9018951F92F0
:103060000F920FB60F9211240BB60F922F933F932E
:103070004F935F936F937F938F939F93AF93BF9380
:10308000EF93FF93E0910A01F0910B010995FF91F5
:10309000EF91BF91AF919F918F917F916F915F91D0
:1030A0004F913F912F910F900BBE0F900FBE0F903D
:1030B0001F9018951F920F920FB60F9211240BB606
:1030C0000F922F933F934F935F936F937F938F93C1
:1030D0009F93AF93BF93EF93FF93E0910801F0911B
:1030E00009010995FF91EF91BF91AF919F918F9148
:1030F0007F916F915F914F913F912F910F900BBEF8
:103100000F900FBE0F901F9018951F920F920FB641
:103110000F9211240BB60F922F933F934F935F930F
:103120006F937F938F939F93AF93BF93EF93FF938F
:10313000E0910601F09107010995FF91EF91BF9190
:10314000AF919F918F917F916F915F914F913F913F
:103150002F910F900BBE0F900FBE0F901F901895E0
:103160001F920F920FB60F9211240BB60F922F934E
:103170003F934F935F936F937F938F939F93AF93FF
:10318000BF93EF93FF93E0910401F091050109953E
:10319000FF91EF91BF91AF919F918F917F916F912F
:1031A0005F914F913F912F910F900BBE0F900FBEEB
:1031B0000F901F9018951F920F920FB60F92112427
:1031C0000BB60F922F933F934F935F936F937F9321
:1031D0008F939F93AF93BF93EF93FF93E09102017F
:1031E000F09103010995FF91EF91BF91AF919F91EC
:1031F0008F917F916F915F914F913F912F910F90A0
:103200000BBE0F900FBE0F901F9018951F920F923C
:103210000FB60F9211240BB60F922F933F934F933B
:103220005F936F937F938F939F93AF93BF93EF932E
:10323000FF93E0910001F09101010995FF91EF9159
:10324000BF91AF919F918F917F916F915F914F91BE
:103250003F912F910F900BBE0F900FBE0F901F90BC
:1032600018951F920F920FB60F9211240BB60F9262
:103270002F933F934F935F936F937F938F939F937E
:10328000AF93BF93EF93FF9380917100887F803657
:1032900009F44DC008F040C0883209F4A9C028F5EF
:1032A000803109F49DC0C8F4882309F4FBC088303C
:1032B00009F496C0FF91EF91BF91AF919F918F91CB
:1032C0007F916F915F914F913F912F910F900BBE26
:1032D0000F900FBE0F901F901895883109F488C089
:1032E000803241F78093EE0114C0803409F49DC010
:1032F00040F48033B9F38833E9F68093EE0185EC2E
:10330000B0C0803509F485C0883509F496C088348A
:1033100089F60E949307CECF883909F48CC038F51E
:10332000883729F050F4883611F0803719F683E099
:10333000809337021092ED0157C0883809F47BC0A2
:10334000803919F0803809F0B5CF8091ED018032D5
:1033500008F071C0E091ED0181E08E0F8093ED01E6
:1033600080917300F0E0E353FE4F80833DC0803BCB
:1033700039F0E0F4803A09F479C0883A09F09ACF3C
:1033800084E0809337021092CC011092CB01E0913F
:103390003302F091340209958091CB0181110FC065
:1033A00081E08093CB011092AB0109C0803C09F40D
:1033B000A6CF883C09F4A3CF883B09F07BCFE091EE
:1033C000CC0181E08E0F8093CC01F0E0E555FE4FFB
:1033D0008081809373009091CC018091CB0129C0B2
:1033E000809111028093730085EC8093740062CF0A
:1033F0009091100280910F02981758F5E0911002F9
:1034000081E08E0F80931002F0E0E151FE4F808149
:10341000E9CFE091100281E08E0F8093100280913D
:103420007300F0E0E151FE4F808390911002809193
:103430000F029817C8F285E8D8CFE091100281E01A
:103440008E0F8093100280917300F0E0E151FE4FE7
:1034500080838091360281115CCF81E080933502B8
:1034600084EA809374001092370224CF85EC809315
:103470007400109237028091ED01803230F4E091B7
:10348000ED01F0E0E353FE4F10826091ED0170E03A
:10349000E0913102F09132028DEC91E009951092A9
:1034A000ED0108CF1092EE0134CF1F920F920FB6AC
:1034B0000F9211248F939F9378948091550290914D
:1034C0005402891708F08AC0909162009860909326
:1034D000620090915302891708F084C0DC9A9091A1
:1034E0005202891708F080C0909162009064909316
:1034F000620090915102891708F07AC090916200A1
:1035000090629093620090915002891708F074C005
:10351000C69A90914F02891708F070C0C59A909191
:103520004E02891708F06CC0C49A90914D02891719
:1035300008F068C01D9A90914C02891708F064C089
:103540001C9A90914B02891708F060C01B9A9091C9
:103550004A02891708F05CC09091620091609093D4
:10356000620090914902891708F056C0C79A90915D
:103570004802891708F052C0DE9A909147028917D5
:1035800008F04EC0DF9A90914602891708F04AC0B1
:10359000969A90914502891708F046C0979A9091A3
:1035A0004402891708F042C0DD9A909143028917BE
:1035B00008F03EC0DB9A909142028917D8F59091AD
:1035C00062009061909362008F5F809355029F919B
:1035D0008F910F900FBE0F901F90189590916200E1
:1035E000977F75CFDC987BCF909162009F7B7FCFD8
:1035F000909162009F7D85CFC6988BCFC5988FCF65
:10360000C49893CF1D9897CF1C989BCF1B989FCFA2
:10361000909162009E7FA3CFC798A9CFDE98ADCFCF
:10362000DF98B1CF9698B5CF9798B9CFDD98BDCF39
:10363000DB98C1CF909162009F7EC4CFCF93DF9380
:10364000EC0161E088810E94EB0360E08881DF91FA
:10365000CF910C94BD03EF92FF920F931F93CF93E2
:10366000DF931092AD021092AC0288EE93E0A0E0DE
:10367000B0E08093AE029093AF02A093B002B093FB
:10368000B10226E431E03093AB022093AA0220E994
:1036900030E03093B7022093B60229E230E0309355
:1036A000B9022093B8022BE230E03093BB022093A2
:1036B000BA022AE230E03093BD022093BC0225E931
:1036C00030E03093BF022093BE022CE230E0309312
:1036D000C1022093C0021092C3021092C402109241
:1036E000C5021092C60210924A03109249038093B9
:1036F0004B0390934C03A0934D03B0934E0388E586
:1037000091E09093480380934703109255031092E1
:1037100056031092570310925803109259031092B7
:103720005A0310925B0310925C0310925D03109297
:103730005E0310925F0386E090E0909354038093C1
:10374000530383E190E00E94050CC82F82E190E0D2
:103750000E94050CD82F81E190E00E94050C182FE3
:1037600081E090E00E94050C21E030E030934407B6
:10377000209343073093460720934507109247074D
:1037800010924B0710924D0710924C0780933E0702
:10379000212F205C330BC9012D2F382FC9019093A5
:1037A000400780933F07CF77C093410710924207AD
:1037B0008DE18093480762E070E08DE190E00E9427
:1037C000482690934A07809349070097C9F0EC0177
:1037D00010E0EE24E394F12C8AE090E00E9464264D
:1037E000FC01F282E1821382148216821582178212
:1037F000118610861083899399931F5F1D3161F79D
:1038000066E08EE597E00E941C0764E388E597E098
:103810000E941C0781E38093BE07C2E0C093C007EB
:103820001092C107DFEFD093BF071092C2078EEB53
:1038300097E00E941E1B89E28093B907C093BB07E3
:1038400081E08093BC07D093BA071092BD0789EB43
:1038500097E00E941E1B87E28093B407C093B607CF
:10386000C093B707D093B5071092B80784EB97E0E1
:103870000E941E1B89E18093AF07C093B10783E0CC
:10388000E82EE092B207D093B0071092B3078FEA08
:1038900097E00E941E1B88E18093AA07C093AC07A3
:1038A00094E0F92EF092AD07D093AB071092AE07DB
:1038B0008AEA97E00E941E1B85E28093A507C093C9
:1038C000A70705E00093A807D093A6071092A907C1
:1038D00085EA97E00E941E1B86E28093A007C093B2
:1038E000A20786E08093A307D093A1071092A407B4
:1038F00080EA97E00E941E1B1FE010939B07C09375
:103900009D0787E080939E07D0939C0710929F07A6
:103910008BE997E00E941E1B8DE280939607C0936F
:10392000980788E080939907D093970710929A0799
:1039300086E997E00E941E1BE0929107C0939307CF
:1039400089E080939407D09392071092950781E9BC
:1039500097E00E941E1BF0928C07C0938E078AE0AE
:1039600080938F07D0938D07109290078CE897E093
:103970000E941E1B00938707C09389078BE08093EA
:103980008A07D093880710928B0787E897E00E94F8
:103990001E1B8CE080938207C09384078093850769
:1039A000D09383071092860782E897E00E941E1B3F
:1039B0008DE080937D07C0937F0780938007D0932D
:1039C0007E07109281078DE797E00E941E1B8EE014
:1039D00080937807C0937A0780937B07D093790709
:1039E00010927C0788E797E00E941E1B82E3809379
:1039F0007307C093750710937607D09374071092DE
:103A0000770783E797E00E941E1B83E380936E078E
:103A1000C093700780E180937107D0936F07109275
:103A200072078EE697E00E941E1B88E2809369076A
:103A3000C0936B0781E180936C07D0936A07109263
:103A40006D0789E697E00E941E1B80E38093640760
:103A5000C093660782E180936707D0936507109251
:103A6000680784E697E0DF91CF911F910F91FF9057
:103A7000EF900C941E1BCF93DF93CDB7DEB7629708
:103A80000FB6F894DEBF0FBECDBF789483B78C64B9
:103A900083BF87B7816087BF82E08EBD8EB58160AE
:103AA0008EBD8FB581608FBD85B5846085BD85B5C0
:103AB000806485BD80918A00836080938A008091B4
:103AC0008B00816080938B0087E886B91AB80FB6A7
:103AD000F894A89581B5886181BD11BC0FBE2FB740
:103AE000F89490E080E0FC01EE5BFD4F10820196BF
:103AF00083319105C1F780916200877F80936200D6
:103B0000DC98809162008F7B8093620080916200DC
:103B10008F7D80936200C698C598C4981D981C98A4
:103B20001B98809162008E7F80936200C798DE9818
:103B3000DF9896989798DD98DB98809162008F7E49
:103B4000809362002FBF9FB7F894809161008860D6
:103B500080936100D49A80916100806480936100B9
:103B600080916100806280936100BE9ABD9ABC9A88
:103B7000159A149A139A8091610081608093610074
:103B8000BF9AD69AD79A8E9A8F9AD59AD39A8091BD
:103B900061008061809361009FBF1FBC89E08EBD82
:103BA0008CE093E09BBD8ABD87B7806187BF109290
:103BB000550261E08FE10E94EB0360E08EE597E043
:103BC0000E943103E0915A07F0915B079081809148
:103BD0005907809589238083E0915C07F0915D0708
:103BE000808190915907892B80832CEBA22E21E0B4
:103BF000B22E3CE1C32E31E0D32E99249394F501EB
:103C0000E490F12CC7010E94050C182FC701019602
:103C10000E94050C082FC70102960E94050C882EF1
:103C2000C70103960E94050C90914807191710F5DB
:103C3000D601ED90FC90F70181828483812F0111E0
:103C4000D2C00E948C013C0141E050E0B7010E94CB
:103C50000116D30116969C938E931597812F0E947F
:103C60008C018C0150E040E0B7010E940116F80180
:103C700091878087A895B2E0AB0EB11CE2E0CE0E32
:103C8000D11CF2E4CF16F1E0DF0609F0B8CF61E015
:103C900070E084E090E00E94482690934D07809366
:103CA0004C07892B91F010E000E0E0904C07F09079
:103CB0004D07E00EF11E802F0E94780CD7018C93E7
:103CC0000F5F1F4F0430110581F780E00E94640CE4
:103CD000082F10E081E00E94640C282F30E0322F82
:103CE000222722273E7F000F111F202B312B3093DC
:103CF0004F0720934E0780FF05C0216030934F0788
:103D000020934E0760E08AE10E94EB03E0EAF2E0D4
:103D10008491EBE6F2E00491E6E3F2E014911111F4
:103D20007CC0FF24F394F09268028FE190E00E943F
:103D300064268C0187E0F801818386E090E00E9490
:103D400064266C0168E00E941C07D8015E96DC9234
:103D5000CE925D97109367020093660281E893E02C
:103D60000E94050CF8018083843008F024C1F8011A
:103D700081818F3FF1F01093300200932F0260E0B9
:103D80000E94EB0360E0D8015D968D919C910E94AA
:103D90003103F80181819CEF980F943020F082511B
:103DA000843008F08FEF42E050E064E672E10E9458
:103DB0000505D80116961C921E9215971B961C920B
:103DC0001E921A9750961C921E921F9755961C92FF
:103DD0001E9254975A961C921E9259975C961C926A
:103DE0001E925B9729C00E948C01DC0113969C9265
:103DF000003809F433CF013809F03CCF812F0E94FD
:103E00008C018C0141E050E0B7010E940116D801FD
:103E100016969C938E9315972DCF81110E9488033F
:103E2000E12FF0E0EE0FFF1FE45FFD4FA591B4918D
:103E3000EC91E02309F475CF81E090E00E94050C3D
:103E400021E030E030935B0220935A0280935C02C1
:103E500081E190E00E94050C21E130E030935E02A8
:103E600020935D0280935F0282E190E00E94050C46
:103E700022E130E03093610220936002809362027D
:103E80008DE190E00E94B60C81FD97C08DE190E03D
:103E900090936402809363021092650286E080939F
:103EA0008B0280938C0260E00E94EB0361E086E06D
:103EB0000E94BD0380E00E94E0138FE596E190939D
:103EC0003F0280933E028AEF92E090933D028093FE
:103ED0003C0210923B0210923A0210923902109268
:103EE00038021092370281E0809336021092350238
:103EF00061E083E10E94BD0361E082E10E94BD03B5
:103F0000809171008E7F80937100809171008D7F10
:103F10008093710088E48093700085E4809374003E
:103F20008BEF92E0909334028093330287E093E02A
:103F3000909332028093310282E0809372008CE091
:103F400080937000109241021092400288E19BE041
:103F50000FB6F894A89581BD0FBE91BD72E0472EB3
:103F6000512C8091690281110DC00E941C04609344
:103F7000730270937402809375029093760281E0CD
:103F80008093690280917702909178028130910547
:103F900009F4AEC260F1029709F4D8C5A8958091E2
:103FA00068028823F1F280916602909167020E9474
:103FB000120FA895D6CFF082DACE8DE190E00E9464
:103FC000B60C85FD0DC08091160190911701A0914E
:103FD00018018093630290936402A09365025ECF00
:103FE0008091190190911A01A0911B01F2CF80914B
:103FF0007C028823B1F00E94840400917D0210911C
:104000007E0220917F0230918002601B710B820B37
:10401000930B653171058105910518F080E00E94D0
:10402000F60B80919702882309F445C0F89488E044
:10403000E2EAF2E0A0E5B7E001900D928A95E1F79F
:104040001092970278943091A202E4EAF2E090E0B4
:1040500080E0391721F0219182279F5FFACF8111EB
:104060002AC080E090E0892B21F080E597E00E9453
:10407000000080915207811125C090915307911142
:1040800021C080E090E0892B19F080E00E940000C0
:1040900080917C02882391F081E00E9441090E9476
:1040A000A8090E941C0460937302709374028093A9
:1040B0007502909376020E94331470CF81E00E94C3
:1040C000F60BEDCF90917C02992309F486C08057BE
:1040D000803108F07FC081E00E94410910915007B3
:1040E0008091830218130AC0412F50E065E872E006
:1040F00082E597E00E948927892B61F01092820265
:1041000088E0E0E5F7E0A3E8B2E001900D928A953F
:10411000E1F7C5CF809182028F5F809382021330D6
:1041200009F040C090915207892F8770F090530793
:10413000853029F4F09281020E947404B0CF0DE121
:1041400010E0843091F0282F30E08430F0F40091BA
:1041500081020023D1F00150110B000F111F000F3D
:10416000111F020F131F0F5F1F4F93FF10C061E05D
:10417000C8010E94E00E882309F491CF6F2DC80179
:104180000E94BD13F8128BCFD7CF8901ECCF60E02E
:10419000C8010E94E00E882309F481CFC8010E9463
:1041A000D40CF0CF143009F07ACF80915207682FE9
:1041B00070E0762F66276627737090915307692BFE
:1041C0006F5F7F4F22E834E0409154078C700E946B
:1041D000A11465CF80E00E94F60BE0915207EF3FFB
:1041E00061F48091530781115ACF80E090E0892BD0
:1041F00009F455CF0E94000052CFE7FD0DC0009199
:104200005507209154074091530770E060E08E2FCE
:1042100090E00E940F1543CFE03C08F058C1309168
:104220007A0237FF3CCF20915307822F90E08C0118
:1042300000951095000F111F000F111F007C1170C9
:10424000EF730E2B95958795B82FB370BB2E809189
:104250005007853041F52C782C3029F50E94D60C7A
:104260008017910721F00F3F114009F018CF80917E
:10427000530790E0982F8827882793700091540760
:10428000080F192F111D0F5F1F4FF090550761E0A8
:10429000C8010E94E00E6F2D882309F400CFC801E9
:1042A0000E94BD13FCCE6801F1E0CF1AD108CC0CFE
:1042B000DD1CCC0CDD1CCB2876012FEFE21AF20AB4
:1042C00080918F028823F9F036FF41C0C70160E07A
:1042D00071E00E94F525682F81E090E00E94BD13F7
:1042E000C701F7FE02C081509F4F692F89E090E01F
:1042F0000E94BD1380E090E0892B19F0C7010E9455
:10430000000010928F0280917A0280FD39C0809166
:104310005007843009F04FC080915307897881306D
:1043200009F0BDCE6091540780E090E0892B19F030
:10433000C7010E94000080E090E0892B09F4AFCE15
:10434000409154076B2DC7010E940000A8CEB80110
:104350006F73772781E090E00E94BD13B801E6E01B
:1043600075956795EA95E1F789E090E00E94BD13A5
:1043700080E090E0892B29F2C8010E940000C1CFA3
:1043800086FF0DC00E94D60C8E159F0509F4BFCF85
:104390003DEFE31637E0F3060CF0B9CF80CE0E9474
:1043A000D60C8017910709F4B2CF0F3F41E01407F4
:1043B00009F4ADCF74CE833069F540915307542F83
:1043C0005170C52E43FBDD24D0F880E090E0892BAE
:1043D00031F047702D2DB801C7010E940000809177
:1043E0007A0286FF0BC080E090E0892B09F457CE5B
:1043F0004D2D6C2DC7010E94000051CE80E090E051
:10440000892B09F44CCE2D2D4C2D6B2DC8010E940B
:10441000000045CE863009F042CE80915307982F98
:104420009978913021F08F78803809F038CE8091DA
:104430007A0286FF28C00E94D60C8E159F05E9F4EB
:104440008091540790E0382F222722273370009163
:104450005507020F132F111D0F5F1F4FF0905607C6
:1044600095958795959587958370992782309105C5
:1044700099F0039709F40BCF12CE8DEFE81687E081
:10448000F806F4F60CCE0E94D60C80179107C1F204
:104490000F3F1140A9F203CEF4FE01CE61E0C80146
:1044A0000E94E00E882309F4FACDC8010E94D40CC2
:1044B0009F2D977061E070E001C0660F9A95EAF752
:1044C000F3FE02C0682BEBCE60956823E8CEE83E91
:1044D00008F0E5CDE05CFF0B809153070091560793
:1044E000209155074091540761E070E09E2F91CED6
:1044F0000FEA13E09AE0E92EF12CDD24D39423E6B1
:10450000C22E33E0B32E42E0A42E5BE1352ED8015B
:104510001B968D919C91019709F03FC1F801E654DB
:10452000F10980819181329660807180680E791ED8
:10453000F801118A128A1682128615861686178647
:104540001782108A138A1186158214829301359579
:1045500027954801FCE58F1A9108F40161E070E0AD
:1045600086899789A72FA69541E050E04C0F5D1FE3
:104570004A0F511DDA0141E0281739070CF040E0DD
:104580004C93713248F4408D518D840F951F8E5796
:104590009109C19708F460E07E5F3496743201F7A8
:1045A000FE013196CE9C9001CF9C300D112441E349
:1045B00057E0421B530B90E080E0708171118FC077
:1045C00071817111A6C0D401A80FB91F1D961C924C
:1045D000019632968930910581F7F80180819181A9
:1045E000A281B38185519540A109B10983359B40D2
:1045F000A105B10508F070C1662309F46DC181E021
:1046000046E9641671040CF080E0D80151968C9351
:10461000F801EC54F109908131978081B9E08B9FCA
:10462000802D1124939D800D112432979081890F44
:1046300031964081942F990F940F890FF80186834A
:10464000EB54F10946E9641671040CF430C181E0C1
:104650009081913009F080E0D8011D968C93898972
:10466000880F9F85890F880F9D85890F880F9B85EF
:10467000890F91E009F090E0F801968791E0813090
:1046800009F090E0D8011F969C9381118150F801A8
:1046900087838289882309F456C08C85880F9E857C
:1046A000890F880F9889890F880F9A89890FEEEFF3
:1046B000E80FEE3008F047C0F0E0EF59FC4D0C94E5
:1046C0002B26962396239E239E2343244324A32311
:1046D000A323482448244C244C24512451247130D1
:1046E000C1F42180A1E02A1206C0DA01A80FB91F87
:1046F0001D962C926DCF21100CC0D401A80FB91FAC
:104700001D96AC92853008F463CFD80152967C9305
:104710005FCF853048F0DA01A80FB91F1D96BC9213
:10472000D8015296DC9254CF60E057CFD801199649
:10473000AC921997817053968C9305C041E050E07C
:10474000F8015583448389E090E0FAE0EF16F10424
:1047500011F08E199F09D8011C965C924E921B97FE
:10476000C89EB001C99E700D1124FB01E654FC4F98
:1047700080819181029789F4605A7C4F49E050E032
:104780008EE397E0821B930B0E948927892B29F4E3
:1047900023E030E0F80134872387F1E0EF1AF108D5
:1047A0000D591F4FE114F10409F0B1CEEAEBF3E02B
:1047B00090E080E0208131812330310509F094C000
:1047C00023E6289F8001299F100D1124F801E6544B
:1047D000FC4F84E090E091838083005A1C4F0115C8
:1047E000110509F468CC780125E5E20EF11CD7012A
:1047F000EC91F0E080915C029F01281B3109C90116
:104800002130310509F4DDC00CF076C0892B09F0A8
:1048100046CC80915902D801A45ABF4F9C9199234C
:1048200009F491C080618093590290915902D80196
:10483000A85ABF4F8C91823009F4A0C008F085C0FF
:10484000813009F48FC02091590241E050E070E0BE
:1048500060E0CF010E94260DF801ED5AFF4F8081E4
:1048600091818130910509F09FC0339680915C025F
:104870000DE110E021E030E0408170E060E090E088
:104880000E94890C0CCCD8011996BC92199752CF72
:10489000F8015582448257CFD8011996DC921997B6
:1048A00049CF44E0F80141878170838B4CCF8081F0
:1048B000811112C08F85880F9D85890F880F9B8578
:1048C000890FD8011A968C9381E09989913009F06B
:1048D00080E0F801808B37CFE5E0F0E0D8011C964E
:1048E000FC93EE931B9759CF0196ED59FF4F8A30F9
:1048F000910509F05FCFDFCB2230310509F4ADC05F
:104900002330310509F0CBCB80E390E00E94B60C58
:1049100083FFC5CB80915602F801E85AFF4F908182
:10492000923009F4FDC008F0E2C0913009F4ECC007
:10493000D7018C912091560244E050E070E060E095
:104940008350990B59C08F7E6ECF833009F184302C
:1049500009F079CFD801AE59BF4F8C91882311F15E
:10496000986007C0D801AE59BF4F8C91882321F0C1
:1049700091609093590267CF9E7FFBCFD801AE59CB
:10498000BF4F8C91882311F09260F3CF9D7FF1CFC0
:10499000D801AE59BF4F8C91882311F09460E9CFB4
:1049A0009B7FE7CF977FE5CF029709F078CBF8019F
:1049B000EA5AFF4F80915C020DE110E030E020E008
:1049C0005BCF80E390E00E94B60C81FF68CB8091C2
:1049D0005802F801E85AFF4F9081923041F178F483
:1049E0009130C9F0D7018C912091580242E050E0FB
:1049F00070E060E08150990B0E94260D50CB9330FF
:104A000001F1943079F7F801EE59FF4F9081992325
:104A100011F1886007C0F801EE59FF4F908199238A
:104A200021F0816080935802DDCF8E7FFBCFF801AB
:104A3000EE59FF4F9081992311F08260F3CF8D7F63
:104A4000F1CFF801EE59FF4F9081992311F0846066
:104A5000E9CF8B7FE7CF877FE5CF80E390E00E94AF
:104A6000B60C82FF1CCB80915702F801E85AFF4F29
:104A70009081923031F168F49130B9F0F701808182
:104A80002091570243E050E070E060E08250990BC3
:104A9000B3CF933001F1943089F7F801EE59FF4F0D
:104AA0009081992311F1886007C0F801EE59FF4FFA
:104AB0009081992321F0816080935702DFCF8E7F10
:104AC000FBCFF801EE59FF4F9081992311F08260DE
:104AD000F3CF8D7FF1CFF801EE59FF4F90819923ED
:104AE00011F08460E9CF8B7FE7CF877FE5CF9330EC
:104AF00009F1943009F01CCFF801EE59FF4F908175
:104B0000992311F1886007C0F801EE59FF4F908199
:104B1000992321F08160809356020ACF8E7FFBCFCC
:104B2000F801EE59FF4F9081992311F08260F3CF85
:104B30008D7FF1CFF801EE59FF4F9081992311F04D
:104B40008460E9CF8B7FE7CF877FE5CF0E94680A3B
:104B5000809171028823E1F088E597E00E940707C1
:104B60008111A9CA8091430790914407019769F484
:104B700090E080E00E94A70A0E94680A88E597E01A
:104B80000E9407078823D1F396CA81E090E0F2CF14
:104B90008EE597E00E940707811105C081E090E053
:104BA0000E94A70A88CA90E080E0FACF60E088E51A
:104BB00097E00E94310360E08EE597E00C943103AA
:104BC000E199FECF9FBB8EBBE09A99278DB30895E4
:104BD000262FE199FECF9FBB8EBB2DBB0FB6F8945D
:104BE000E29AE19A0FBE0196089597FB072E16F4FC
:104BF000009407D077FD09D00E94342607FC05D029
:104C00003EF4909581959F4F0895709561957F4FE3
:104C10000895A1E21A2EAA1BBB1BFD010DC0AA1FFD
:104C2000BB1FEE1FFF1FA217B307E407F50720F015
:104C3000A21BB30BE40BF50B661F771F881F991F90
:104C40001A9469F760957095809590959B01AC01D9
:104C5000BD01CF010895EE0FFF1F0024001C0BBE05
:104C60000790F691E02D0994AA1BBB1B51E107C0E8
:104C7000AA1FBB1FA617B70710F0A61BB70B881FEC
:104C8000991F5A95A9F780959095BC01CD0108957B
:104C90000F931F93CF93DF93869F8001879F100D03
:104CA000969F100D1124C8010E946426EC01009704
:104CB00029F0A80170E060E00E949627CE01DF9104
:104CC000CF911F910F9108950F931F93CF93DF936F
:104CD0008230910510F482E090E0E091C507F091F8
:104CE000C60730E020E0B0E0A0E0309799F421154D
:104CF000310509F44AC0281B390B24303105D8F599
:104D00008A819B816115710589F1FB0193838283FF
:104D1000FE0111C04081518102811381481759075A
:104D2000E0F04817590799F4109761F012960C9328
:104D3000129713961C933296CF01DF91CF911F915A
:104D40000F9108950093C5071093C607F4CF21155E
:104D5000310551F04217530738F0A901DB019A01E0
:104D6000BD01DF01F801C1CFEF01F9CF9093C60774
:104D70008093C507CDCFFE01E20FF31F819391937E
:104D80002250310939832883D7CF2091C30730912E
:104D9000C407232B41F42091120130911301309369
:104DA000C4072093C30720911001309111012115F0
:104DB000310541F42DB73EB74091140150911501D2
:104DC000241B350BE091C307F091C407E217F307EA
:104DD000A0F42E1B3F0B2817390778F0AC014E5F6B
:104DE0005F4F2417350748F04E0F5F1F5093C407DD
:104DF0004093C307819391939FCFF0E0E0E09CCF75
:104E0000CF93DF930097E9F0FC013297138212826F
:104E1000A091C507B091C607ED0130E020E01097E2
:104E2000A1F420813181820F931F2091C30730911B
:104E3000C4072817390709F061C0F093C407E0934D
:104E4000C307DF91CF910895EA01CE17DF07E8F598
:104E50004A815B819E0141155105B1F7E901FB8350
:104E6000EA8349915991C40FD51FEC17FD0761F4EE
:104E7000808191810296840F951FE901998388832F
:104E8000828193819B838A83F0E0E0E012968D918A
:104E90009C9113970097B9F52D913C911197CD01F5
:104EA0000296820F931F2091C3073091C4072817E1
:104EB000390739F6309751F51092C6071092C50799
:104EC000B093C407A093C307BCCFD383C2834081F0
:104ED0005181840F951FC817D90761F44E5F5F4F4A
:104EE00088819981480F591F518340838A819B8112
:104EF000938382832115310509F0B0CFF093C60763
:104F0000E093C5079ECFFD01DC01C0CF1382128262
:104F1000D7CFFB01DC0104C08D910190801921F4F1
:104F200041505040C8F7881B990B0895DC0101C01F
:104F30006D9341505040E0F7089511E0CFE5D1E086
:104F400004C0FE010E942B262196C036D107C9F766
:044F5000F894FFCF03
:104F54000F0200000000000000000000000000003C
:104F64000000C70780001D00021D0022BE07B9070C
:104F7400B407AF07AA07A507A0079B0796079107E1
:104F84008C07870782077D07780773076E07690711
:104F940064070000000072025B031402B9024502B8
:104FA40023023702000000001B08EE074A08C4076A
:0A4FB400E707D407C5070D0A000047
:00000001FF
