:100000000C9438010C947E110C9453110C9428110B
:100010000C94FD100C94D2100C94A7100C947C102E
:100020000C9451100C9462010C9462010C946201C6
:100030000C94C9120C9462010C9462010C9462013C
:100040000C9407100C9462010C94D10F0C94A70F20
:100050000C9462010C9462010C9462010C94620194
:100060000C9462010C9462010C9462010C94620184
:100070000C9462010C9462010C9462010C94620174
:100080000C9462010C94A9110C9462013D030000D0
:10009000000000080D0000000000000101C0800009
:1000A000000000000000000000060000000000004A
:1000B0000000000000000000000000000000000040
:1000C0000000000000007F000000000000000000B1
:1000D0000000000000000000000000000000000020
:1000E0000000000000000000000000000000000010
:1000F0000000000000000000000000000000800080
:1001000000008000010080000100800001008000EC
:1001100001008000010080000200800003008000D8
:1001200003008000030080000300800003008000C3
:1001300003008000040080000400800005008000AF
:100140000680FF000681FF00FF000000FF000000A6
:10015000FF000000FF000000FF000000FF000000A3
:10016000FF000000FF000000FF000000FF00000093
:10017000FF000000FF000000FF000000FF00000083
:10018000FF000000FF000000FF000000FF00000073
:10019000FF000000FF000000FF0000000000390029
:1001A00036003300300021002000630000003A00D8
:1001B00037003400310022006100640000003B0081
:1001C0003800350032002300620065000505050592
:1001D00005050505020202020202020207070404E5
:1001E00004040404040407070303030303030303D1
:1001F00007010101010101010106060606060606C6
:10020000060102040810204080010204081020406A
:10021000800810010204081020408001020102043D
:1002200008102040800480402010080402010102D0
:100230000408102040800000000A0B0C00000000A1
:10024000000001040506000000000000000000009E
:10025000000000000000000000000000000000009E
:10026000000000000000000000000000C31383161F
:1002700011241FBECFEFD0E1DEBFCDBF11E0A0E063
:10028000B1E0EEE9F0E300E00BBF02C007900D9291
:10029000AE34B107D9F727E0AEE4B1E001C01D925A
:1002A000AF32B207E1F711E0C7E3D1E004C0219714
:1002B000FE010E94F116C633D107C9F70E94D0157E
:1002C0000C9442180C94000008959C01611571056E
:1002D00029F06130710571F080E0089580919B06EE
:1002E0008217130681F090919E0681E09217130603
:1002F00099F7089581E040919C0650919D06421720
:10030000530751F7F6CF81E0F4CF81E08093DA0113
:10031000089520911807213099F49C012458334006
:1003200028323105C8F0813823E09207A9F09C01FA
:100330002C5F334081E02530310578F080E008956E
:10034000223021F49C012C5A3340EACF233059F754
:100350009C01245D3340E4CF81E00895FC01538D7E
:10036000448D252F30E0842F90E0821B930B54178F
:1003700010F0CF96089501970895FC01918D828D1C
:10038000981761F0A28DAE0FBF2FB11D5D968C91B5
:10039000928D9F5F9F73928F90E008958FEF9FEFF4
:1003A0000895FC01918D828D981731F0828DE80FB0
:1003B000F11D858D90E008958FEF9FEF0895FC016A
:1003C000918D228D892F90E0805C9F4F821B910937
:1003D0008F7399270895FC01A48DA80FB92FB11D23
:1003E000A35ABF4F2C91848D90E001968F7399276B
:1003F000848FA689B7892C93A089B1898C91806458
:100400008C93938D848D981306C00288F389E02D18
:1004100080818F7D80830895EF92FF920F931F93C9
:10042000CF93DF93EC0181E0888F9B8D8C8D9813A7
:1004300016C0E889F989808185FF11C0EE89FF899E
:100440006083E889F98980818064808381E090E01D
:10045000DF91CF911F910F91FF90EF900895F62EAD
:100460000B8D10E00F5F1F4F0F731127E02E8C8D47
:100470008E110CC00FB607FCFACFE889F98980818C
:1004800085FFF5CFCE010E94EB01F1CFEB8DEC0F94
:10049000FD2FF11DE35AFF4FF0820B8FEA89FB8994
:1004A00080818062D2CFCF93DF93EC01888D882347
:1004B000B9F0AA89BB89E889F9898C9185FD03C0C7
:1004C000808186FD0DC00FB607FCF7CF8C9185FFAC
:1004D000F2CF808185FFEDCFCE010E94EB01E9CF05
:1004E000DF91CF91089583E192E00E94DF0121E046
:1004F000892B09F420E0822F089580E090E0892B79
:1005000029F00E94730281110E94000080E090E0B7
:10051000892B49F080E090E0892B29F00E940000AF
:1005200081110C9400000895DC011296ED91FC916C
:10053000139711969C911197808161110EC090952F
:10054000982390831496ED91FC91159790811196C4
:100550008C918095892380830895623061F4909511
:10056000982390831496ED91FC91159780811196B4
:100570009C91892BF0CF982B90830895AF92BF92D6
:10058000CF92DF92EF92FF920F931F93CF93DF935F
:100590006C017B018B01040F151FEB015E01AE188E
:1005A000BF08C017D10759F06991D601ED91FC91B0
:1005B0000190F081E02DC6010995892B79F7C501DD
:1005C000DF91CF911F910F91FF90EF90DF90CF902F
:1005D000BF90AF90089590E0FC01EA5CFD4F24913C
:1005E000FC01EF5FFD4F349184539E4FFC018491D9
:1005F000882359F12223C1F021502C30A8F4E22F96
:10060000F0E0EB5FFC4F0C94F1163E033E03140345
:100610001103260329032C031403140330033603A8
:100620003A039FB59F779FBDE82FF0E0EE0FFF1FC5
:10063000E454FE4FA591B4918FB7F894EC916111F9
:1006400021C030953E233C938FBF08959FB59F7D79
:10065000EACF9FB5977FE7CF95B59F7D95BDE4CF56
:1006600090918B009F7790938B00DECF90918B00C1
:100670009F7DF9CF90918B00977FF5CF93B79F7DAA
:1006800093BFD2CF3E2BDFCFCF93DF9390E0FC011F
:10069000EF5FFD4F249184539E4FFC01849188238A
:1006A000D1F090E0880F991FFC01E455FE4FA59111
:1006B000B491FC01E454FE4FC591D49161110EC078
:1006C0009FB7F8948C91E22FE0958E238C9328812C
:1006D000E223E8839FBFDF91CF9108958FB7F8940D
:1006E000EC91E22BEC938FBFF6CF3FB7F89480915B
:1006F000BE019091BF01A091C001B091C10122B78C
:1007000006B600FE05C02F3F19F00196A11DB11DD0
:100710003FBFBA2FA92F982F8827BC01CD01620FA8
:10072000711D811D911D42E0660F771F881F991F63
:100730004A95D1F708958F929F92AF92BF92CF9230
:10074000DF92EF92FF924B015C010E9475036B01F7
:100750007C010E9475036C197D098E099F09683E12
:10076000734081059105A8F321E0821A9108A10840
:10077000B10888EEC80E83E0D81EE11CF11C81147C
:100780009104A104B10429F7FF90EF90DF90CF907E
:10079000BF90AF909F908F90089561E08FE10E948D
:1007A000EB0264E070E080E090E00E949B0360E078
:1007B0008FE10C94EB020C94CD03E82FF0E0DF0105
:1007C000AA0FBB1FA050BF4F11967C936E93883029
:1007D000A8F4E351FC4F0C94F116F503FF030C044D
:1007E0001A0428042F043A04460480916A008C7F7E
:1007F000482B40936A0089B7816089BF0895809132
:100800006A00837F440F551F440F551F482B4093A8
:100810006A0089B78260F1CF80916A008F7C74E0B2
:10082000440F551F7A95E1F7482B40936A0089B72A
:100830008460E3CF80916A008F7366E0440F551F98
:100840006A95E1F7482B40936A0089B78860D5CF55
:100850008AB78C7F482B4ABF89B78061CECF8AB7D1
:10086000837F440F551F440F551F482B4ABF89B73C
:100870008062C3CF8AB78F7C24E0440F551F2A952E
:10088000E1F7482B4ABF89B78064B7CF8AB78F7327
:1008900096E0440F551F9A95E1F7482B4ABF89B758
:1008A0008068ABCF883010F40C94DD0308950E946B
:1008B00075032091500130915101FB01E21BF30BB4
:1008C0002091F8013091F901E217F30708F438C1DB
:1008D0002091FA013091FB01709351016093500116
:1008E0004091FC015091FD014130510599F148F0D2
:1008F0004230510509F4B9C04330510509F4EFC045
:100900000895E217F30708F0D4C08091FF018F5FCC
:100910008093FF018B3008F413C181E090E0909345
:10092000FD018093FC0141E050E067E574E08091B7
:10093000F2010E94520410924F0182E590E09093E0
:10094000FB018093FA0183E290E09093F901809398
:10095000F801089540914F014130A9F038F043303B
:1009600009F449C0443009F47CC00895E217F30744
:1009700030F491E090934F01E0934E01089584E0AC
:1009800080934F010895E217F30798F510924F01F5
:100990009091FF019F5F9093FF018E2FEE0F990BB7
:1009A00020914E01821B910927FD939597FF03C06B
:1009B00091958195910949970CF4C2C01092FD015F
:1009C0001092FC0182E990E09093FB018093FA0180
:1009D00082E590E09093F9018093F8011092FF0175
:1009E0004091E00150E067E574E08091F2010C94E1
:1009F000520483E0C5CFE217F30700F38091E001D2
:100A0000833061F582E08093E00182E090E0909392
:100A1000FD018093FC0182E990E09093FB018093BB
:100A2000FA0182E590E09093F9018093F801109229
:100A30000102109203021092040210920502109219
:100A4000060210920702109208028091FF01809323
:100A500002021092FF0110920002C2CF4093E00107
:100A6000D4CFE217F30788F6A9CF5091FF015F5F5B
:100A70005093FF0140910002440FE217F307E0F0AA
:100A800040930002583009F05BC0E0910102E6306B
:100A9000A9F41092FD011092FC0182E990E090937C
:100AA000FB018093FA0182E590E09093F901809335
:100AB000F8011092FF0108954160E2CF83E090E0D9
:100AC0009093FD018093FC0181E08E0F80930102E1
:100AD000F0E0E450FE4F8091000287830895E21712
:100AE000F307F8F41092FD011092FC011092FF013F
:100AF00082E990E09093FB018093FA0182E590E017
:100B00009093F9018093F80188E0E1E0F2E0A9E038
:100B1000B2E001900D928A95E1F781E08093FE01A9
:100B2000089580910102863009F4B3CF82E090E00D
:100B30009093FD018093FC011092FF01109200023E
:100B4000089585ED809374008091740084FDFCCF3E
:100B500010929701089520917301260F3327331FB8
:100B600021323105ECF420919701FC0190E080E006
:100B7000243069F082E00895A09173012191AC01C5
:100B80004D5A5E4FA40FB52FB11D2C9301968617B9
:100B900098F380917301680F6093730180E008956A
:100BA00081E0089508958FEF9FEF08958FEF9FEFF5
:100BB00008958091520190E0919581959109089551
:100BC000CF93DF93CB01EA01642F0E94AB05CE01E6
:100BD000DF91CF910895CF93DF931F92CDB7DEB70A
:100BE000698361E0CE0101960E94AB0581E090E04F
:100BF0000F90DF91CF91089590E080E00895CF931A
:100C0000DF93DC01EC91F0E0EE0FFF1FE456FE4FA6
:100C1000C591D491988111968C91982381E009F423
:100C200080E0DF91CF91089580E090E0892B29F05A
:100C30008091F70183FD0C9400000895E82FF0E007
:100C4000EE53FE4F608308950F931F93CF93DF936E
:100C5000FC018281813089F040F0823009F47AC051
:100C6000DF91CF911F910F91089561E08081DF9115
:100C7000CF911F910F910C94EB020181C02FD0E016
:100C8000108161E0812F0E944403209719F460E0F5
:100C9000812FEDCFCF3FD10511F461E0F9CFE12FE6
:100CA000F0E0EA5CFD4FE491E150EC3008F04DC01B
:100CB000F0E0E35AF94F0C94F11669066906A506AF
:100CC0006E0674067A068206A506A50687069106B4
:100CD0009B0683B7806283BF01BFC2CF8FB5806898
:100CE0008FBDDBBDCABDBCCF8FB580628FBDD9BD06
:100CF000C8BDB6CF8FB588608FBDD0937900C09343
:100D00007800AECF85B5806285BD03BDA9CF809147
:100D10008B00806880938B00D0938700C0938600FF
:100D20009FCF80918B00806280938B00D093850051
:100D3000C093840095CF80918B00886080938B0056
:100D4000D0938300C09382008BCFC038D1050CF0C4
:100D5000A4CF9DCF8181E381F0E0EE53FE4F8083ED
:100D60007FCF0F931F93CF93DF93D62F8C01C0E0DB
:100D7000CD1741F0F801819191918F010E942406D5
:100D8000CF5FF6CFDF91CF911F910F9108958F9292
:100D90009F92AF92BF92CF92DF92EF92FF920F930A
:100DA0001F93CF930E947503AB01BC018091B202E7
:100DB0009091B302A091B402B091B5028A019B0157
:100DC000081B190B2A0B3B0B8091BA02882309F4EC
:100DD0007FC08091BC029091BB02E92FEE0FFF0B08
:100DE000A82F082E000CBB0BC3E68C02E00DF11DF2
:100DF0001124E055FD4F178B068B053F114021054F
:100E0000310508F054C09F5F9093BB029091BB02E4
:100E10009332C9F593E69A9F90019B9F300D112460
:100E200020553D4FF901E45AFF4FC090B602D090D3
:100E3000B702E090B802F090B9024A015B018C1849
:100E40009D08AE08BF0875016401C082D182E282AC
:100E5000F38229593F4FE1E0F0E0D901ED93FC9393
:100E60008F5F8A3094F58093BC02E091BC02B3E6B8
:100E7000EB02F0011124E95EFC4F11821082109206
:100E8000BA021092BB024093B2025093B302609335
:100E9000B4027093B502CF911F910F91FF90EF9024
:100EA000DF90CF90BF90AF909F908F900895109259
:100EB000BB0291E09093BA024093B6025093B702FE
:100EC0006093B8027093B902A1CF1092BC02CDCF4B
:100ED000053F114021053105B0F281E08093BA024F
:100EE0004093B6025093B7026093B8027093B90270
:100EF000CACF1F93CF93DF93C6E1D1E01FEF899153
:100F00009991FC0111830E942406F1E0CC33DF07A4
:100F1000B1F7DF91CF911F910895E82FF0E0EE53E4
:100F2000FE4F60830895CF93DF93C8E1D7E061E07F
:100F30008A819B810E949402AA81BB811496ED91C3
:100F4000FC911597908111968C91809589238083CF
:100F500061E070E080E090E00E949B03AA81BB8189
:100F60001496ED91FC911597808111969C91892B97
:100F7000808360E08A819B81DF91CF910C94940201
:100F8000CF93FC018281813051F020F0823079F0E2
:100F9000CF91089560E08081CF910C94EB02C081E5
:100FA00061E08C2F0E94440360E08C2FF5CFE38139
:100FB000F0E0EE53FE4F1082EBCF8093DB018823ED
:100FC00021F087E097E00C94240687E097E00C94EA
:100FD000C007CF93C82F8091E3018C1731F081E0D7
:100FE000C11101C080E00E94DD07C093E301CC2362
:100FF00011F12FB7F8948091D6019091D701A0916B
:10100000D801B091D9012FBF482F392F2A2F8B2F0C
:101010004093E4013093E5012093E6018093E701DA
:101020008091E3018C1761F081E0C11101C080E083
:10103000CF910C94DD0740E030E020E080E0E8CF85
:10104000CF910895EF92FF920F931F93CF93DF9369
:101050008C01FC01C581D681209751F0E480F12CF0
:10106000EF1431F0899199910E94C007F394F8CF61
:10107000F801C085D185209751F0078110E0011754
:1010800031F0899199910E94C0071F5FF8CFDF91DD
:10109000CF911F910F91FF90EF9008950F931F93A1
:1010A000CF938C01C42F0E9465018823E1F18091C8
:1010B0009E06482F50E0C03128F5882319F12C2FC7
:1010C00030E08091AB069091AC060C2E02C0969554
:1010D00087950A94E2F780FF15C00417150719F5E4
:1010E0008091A6069091A7060097E9F0220F331F82
:1010F000820F931FFC0180819181CF911F910F91ED
:101100000C9422080417150771F08091A60690919F
:10111000A706009741F04C2F50E0440F551F480F91
:10112000591FFA01E8CFCF911F910F910895CF93E6
:101130008091A9069091AA06892BA1F1C0E0809127
:10114000A506C81778F58C2F86958695869590E02C
:10115000E091A906F091AA06E80FF91F208130E07E
:101160004C2F50E063E0880F991F6A95E1F7BA01B0
:10117000681B790B02C0359527956A95E2F720FF29
:101180000FC08091A6069091A706009749F0440FE2
:10119000551F840F951FFC01808191810E942208B8
:1011A000CF5FCDCF1092A806CF9108950F931F93D4
:1011B000CF93DF93EC018B81882379F08B018981B8
:1011C0009A818617970729F0CE010E9422081A8378
:1011D000098389819A81019731F48D819E810097DD
:1011E00069F06C8105C088859985009739F06F8119
:1011F000DF91CF911F910F910C94B106DF91CF91A8
:101200001F910F9108950F931F93CF938C01C42FBB
:101210000E946501882309F444C080919E06482FEE
:1012200050E0C03148F5882339F12C2F30E080910F
:10123000AB069091AC060C2E02C0969587950A9449
:10124000E2F780FF19C00417150759F58091A6062B
:101250009091A706009729F16091A2067091A306CC
:10126000220F331F820F931FFC0180819181CF9148
:101270001F910F910C94D6080417150791F08091D7
:10128000A6069091A706009761F06091A006709164
:10129000A1064C2F50E0440F551F480F591FFA016B
:1012A000E4CFCF911F910F910895CF93C0E080912B
:1012B000A506C81798F48091A6069091A7060097F6
:1012C00059F02C2F30E0220F331F820F931FFC01A7
:1012D000808191810E942208CF5FE9CF8091A90689
:1012E0009091AA06892BC1F1C0E08091A506C8178C
:1012F00098F58C2F86958695869590E0E091A906C5
:10130000F091AA06E80FF91F208130E04C2F50E041
:1013100063E0880F991F6A95E1F7BA01681B790BA2
:1013200002C0359527956A95E2F720FF13C080919A
:10133000A6069091A706009769F06091A0067091AB
:10134000A106440F551F840F951FFC0180819181D8
:101350000E94D608CF5FC9CF81E08093A806CF91C5
:1013600008950E94E907E1EEF1E081E087831086AD
:10137000EAEEF1E088E0DF011D928A95E9F7089531
:101380000C94DC16CF93863823E0920719F130F4E1
:1013900081389340D1F08FEFCF910895873823E0C3
:1013A0009207D9F088389340B1F786E893E00E941D
:1013B000C009C82F87E893E00E94C00990E02FEF92
:1013C000C29F800D911D112402C081E893E0CF914E
:1013D0000C94C00986E893E0FACF87E893E0F7CF52
:1013E000DF92EF92FF920F931F93CF93DF938C01C5
:1013F0007B01D42EE9010E9465018111D092A406DF
:101400008DE190E00E94C009D82EB701C8010E946A
:1014100065018823B1F080919E068017110629F599
:101420008091A2069091A306C817D90751F0809128
:101430009F068823A9F0219761F41092A3061092C9
:10144000A206DF91CF911F910F91FF90EF90DF9057
:10145000089581E090E09093A3068093A206F1CFD7
:10146000D093A306C093A206ECCF8091A0069091E2
:10147000A106C817D90729F3D0FE0EC0219729F479
:101480001092A1061092A006DCCF81E090E090932C
:10149000A1068093A006D5CFD093A106C093A00645
:1014A000D0CF0F931F93CF93C82F81E090E00E947D
:1014B000C0090FE710E021E030E04C2F70E060E061
:1014C00090E00E94F009CF911F910F9108950F9322
:1014D0001F93CF936130710529F4CF911F910F9124
:1014E0000C94510AC82F81E090E00E94C0090FE7D8
:1014F00010E030E020E04C2F70E060E090E00E94CF
:10150000F009CF911F910F9108951F93CF93DF930F
:10151000EC018091DB01882359F08FE090E00E947C
:10152000C009182F80E190E00E94C009181306C07E
:10153000CE01DF91CF911F910C94C00987E097E015
:101540000E94C0070FB6F894A89581B5886181BD47
:1015500011BC0FBEFFCF0C94850ACF93DF9320916F
:10156000F4013091F5012F3F320721F0C901DF91DD
:10157000CF9108958091F70187FF2BC086FF0FC0A0
:1015800089E090E00E94AB0AC82F81E090E00E94C1
:10159000AB0A9C2F9093F5018093F40115C089E06C
:1015A00090E00E94AB0AC82F81E090E00E94AB0A55
:1015B00090E4C99F90011124207C31708F73282BF7
:1015C0003093F5012093F4018091F4019091F5019D
:1015D000CECF85FF0CC081E190E00E94AB0AC82FFE
:1015E00082E190E00E94AB0AC05CDD0BD2CF81E0CB
:1015F00090E00E94AB0A90E0CDCFFF920F931F9333
:10160000CF93DF93EC018B01F22E4330510509F4A7
:1016100071C068F441305105E9F04230510509F4D8
:101620004BC0DF91CF911F910F91FF9008954530EE
:10163000510509F4C7C008F47BC04630510589F74D
:1016400040E024FF26C0DF91CF911F910F91FF90C2
:101650000C94030940E024FF23C00E94030941E0E9
:10166000B801CE01F0FE1FC00E94030942E0B8019C
:10167000CE01F1FE1BC00E94030943E0B801CE0178
:10168000F2FE17C00E94030944E0B801CE01F3FC4A
:10169000DACFDF91CF911F910F91FF900C944E08FC
:1016A0000E944E08DCCF0E944E08E0CF0E944E08F8
:1016B000E4CF0E944E08E8CF45E020FF12C00E9410
:1016C000030946E0B801CE01F1FE0EC00E940309F5
:1016D00047E0B801CE01F2FE0AC00E94030948E0CB
:1016E000D4CF0E944E08EDCF0E944E08F1CF0E9449
:1016F0004E08F5CF49E020FF12C00E9403094AE0DE
:10170000B801CE01F1FE0EC00E9403094BE0B80102
:10171000CE01F2FE0AC00E9403094CE0B6CF0E943F
:101720004E08EDCF0E944E08F1CF0E944E08F5CF33
:101730004DE020FF32C00E9403094EE0B801CE0107
:10174000F1FE2EC00E9403094FE0B801CE01F2FE67
:101750002AC00E94030940E1B801CE01F3FE26C071
:101760000E94030941E1B801CE01F4FE22C00E94AB
:10177000030942E1B801CE01F5FE1EC00E94030933
:1017800043E1B801CE01F6FE1AC00E94030944E10C
:10179000B801CE01F7FE7DCF56CF0E944E08CDCFC7
:1017A0000E944E08D1CF0E944E08D5CF0E944E080D
:1017B000D9CF0E944E08DDCF0E944E08E1CF0E9493
:1017C0004E08E5CF45E120FF2EC00E94030946E107
:1017D000B801CE01F1FE2AC00E94030947E1B80119
:1017E000CE01F2FE26C00E94030948E1B801CE01F5
:1017F000F3FE22C00E94030949E1B801CE01F4FEC4
:101800001EC00E9403094AE1B801CE01F5FE1AC0CC
:101810000E9403094BE1B801CE01F6FE16C00E94FA
:1018200003094CE1B5CF0E944E08D1CF0E944E086B
:10183000D5CF0E944E08D9CF0E944E08DDCF0E941E
:101840004E08E1CF0E944E08E5CF0E944E08E9CF36
:10185000CF93C82F81E090E00E94C0092C2F42E076
:1018600050E070E060E090E00E94FD0A81E090E0CE
:101870000E94C0092C2F30E094E0359527959A9569
:10188000E1F743E050E070E060E090E0CF910C942D
:10189000FD0ACF938230910511F1C62F8330910557
:1018A00020F4019779F0CF91089583309105D9F014
:1018B0000497C9F781E090E00E94C0092C2F45E011
:1018C00050E007C081E090E00E94C0092C2F41E069
:1018D00050E070E060E090E0CF910C94FD0A862F1C
:1018E000CF910C94280C81E090E00E94C0092C2F2D
:1018F00044E050E0EECF1F93CF93DF93EC01162F1F
:101900000E94DC16181721F0612FCE010E94E41608
:10191000CE01DF91CF911F910C94C009CF93DF933B
:10192000863823E0920739F138F481389340E9F0A2
:101930008FEFDF91CF910895873823E09207F1F080
:1019400088389340A9F7C62F86E893E00E94C00923
:10195000D82F87E893E00E94C00990E06C2F2FEF0A
:10196000D29F800D911D112402C081E893E0DF9188
:10197000CF910C947B0C86E893E0F9CF87E893E055
:10198000F6CF0F931F93CF93DF930FB6F894A895DC
:1019900081B5886181BD11BC0FBE0FB7F894D0E04E
:1019A000C0E0FE01E457FF4F1491CE010E94DC1607
:1019B000181721F0612FCE010E94E4162196C03144
:1019C00081E0D80771F781E893E00E94DC1681304E
:1019D00029F061E081E893E00E94E4160E94790713
:1019E0000FBF88E19BE00FB6F894A89581BD0FBEAC
:1019F00091BDDF91CF911F910F9108951F93CF93C8
:101A0000DF93EC01162F089779F4662319F10E94F1
:101A1000C10C80E090E0892BB9F0612FCE01DF91FD
:101A2000CF911F910C94000080E090E0892BA9F7E2
:101A300081E0C11590E1D90708F080E0111105C0DF
:101A4000DF91CF911F91089581E027972297C0F7EA
:101A500080E0F6CF80E090E0892BF9F681E0F0CFCE
:101A60000F931F93CF93DF932091DB01222329F063
:101A70008F30910541F48FE090E0DF91CF911F917D
:101A80000F910C947B0C162FEC018FE090E00E94DC
:101A9000C009082F80E190E00E94C00908130CC023
:101AA000C730D10529F0C830D10519F4183029F014
:101AB000FFCF612FCE01E1CFFFCF0E94C10C88E0A4
:101AC000DF91CF911F910F9108958331910588F493
:101AD0008131910530F48130910519F089309105FB
:101AE00031F42FEF3FEF3093F5012093F4010C9484
:101AF000300D8D319105D9F7677F6093F701209103
:101B0000E1012F73362F307C232B2093E101E9CFA5
:101B1000CF93DF9389B78F7B89BF84E691E0909361
:101B20000D0180930C01ECEFF1E085E1DF011D92E6
:101B30008A95E9F782E990E09093FB018093FA019E
:101B400082E590E09093F9018093F801C1EED1E035
:101B500081E0888319828FEF9FEF9C8B8B8B1D8A8E
:101B600083E08093E00143E050E067E574E0898919
:101B70000E9452048DE190E00E94AB0A682F6F73BF
:101B80008DE190E00E94650D8E8B6AE087E090E029
:101B90000E94650D6DE088E090E00E94650D80E098
:101BA0000E94B1091092120210921102DF91CF919E
:101BB00008950F931F930E9475030091DC0110910B
:101BC000DD012091DE013091DF01601B710B820B82
:101BD000930B613F79448240910508F456C080918F
:101BE000DB0181110BC080911102909112028130B2
:101BF0009105B1F188F0029709F444C00E94750381
:101C00006093DC017093DD018093DE019093DF012E
:101C100081E01F910F91089580E390E00E94850A72
:101C200080FF0EC041E050E067EC76E086E00E9465
:101C3000DD0381E090E09093120280931102DECFE9
:101C40008DE190E00E94850A82FFD8CF41E050E00C
:101C500065E871E086E00E94DD0382E090E0EBCF72
:101C600089B78F7B89BF84E691E090930D018093C3
:101C70000C018DE190E00E94850A82FDE7CF0E9471
:101C8000880DBCCF1092DA01FACF80E0C2CFBF92AC
:101C9000CF92DF92EF92FF920F931F93CF93DF9338
:101CA0008B01B42E690182FF23C083FF17C061E05E
:101CB000C8010E94FE0C8823D9F16B2DC8010E9437
:101CC000650D8B1135C0F601DF91CF911F910F91FA
:101CD000FF90EF90DF90CF90BF90099460E0C80133
:101CE0000E94FE0C882321F1C8010E94AB0AE9CFB3
:101CF000842F8770C1E0D0E07E0101C0EE0C8A9590
:101D0000EAF7D42FD870CB010E94AB0AC82FB4FEDB
:101D10001CC061E0C8010E94FE0C882349F0DD234D
:101D200089F0CE296C2FC8010E94650D8C1759F2DD
:101D3000DF91CF911F910F91FF90EF90DF90CF90A7
:101D4000BF900895E094CE21EDCF60E0C8010E94DD
:101D5000FE0C882369F3CE21DD2319F0C111B3CF26
:101D6000E7CFCC2309F4AFCFE3CFCF92DF92EF924E
:101D7000FF920F931F93CF93DF937C016B01C42FCE
:101D8000122FD42FD07E8091E10187FF2CC0D03E4E
:101D9000C1F58091E2018823A1F190E00E94AB0A95
:101DA000D82F8091E20190E001960E94AB0A982F13
:101DB0008D2FE816F90629F56C2F70E0762F66272F
:101DC00066277370612B6F5F7F4F24E136E0402FF1
:101DD0008C2FDF91CF911F910F91FF90EF90DF90AB
:101DE000CF900C94470E80FD32C0D03609F464C009
:101DF00088F4D03209F447C0D03409F45DC0DD2343
:101E000079F1DF91CF911F910F91FF90EF90DF90CB
:101E1000CF900895D03A09F483C090F42C2F2F71FD
:101E200041E050E0D03869F7B601C701DF91CF91AA
:101E30001F910F91FF90EF90DF90CF900C94FD0ACF
:101E4000D03C09F476C0D03E09F4B6CFDACF0E9478
:101E5000AD0A8E159F0549F2E114F10431F2D1CF9C
:101E60008C2F8E7071F680E090E0892B51F28C2FD0
:101E70008170DF91CF911F910F91FF90EF90DF90D4
:101E8000CF900C940000CF71CF3109F0BACF412F21
:101E90004F7771F0413071F0111F1127111F212F61
:101EA00030E00FE710E0B601C7010E94F009A9CFAA
:101EB00041E0F2CF40E0F0CF2C2F30E08C2F8F713B
:101EC000813029F030F0803121F08131F9F440E0A7
:101ED00001C041E025FB222720F90DE110E030E0B0
:101EE000B601C7010E94F00980E090E0892B09F457
:101EF00088CF4C2FB601C701DF91CF911F910F9171
:101F0000FF90EF90DF90CF900C940000C901880FF4
:101F1000991F8E71C4FB442740F9482B4250DACFF9
:101F20002C2F2F7043E050E0C4FF7ECF42E050E002
:101F30007BCFCF71CE3139F0CF3109F062CF212F75
:101F400045E050E071CF212F44E050E06DCF1F926B
:101F50000F920FB60F9211240BB60F922F933F934F
:101F60004F935F936F937F938F939F93AF93BF93A1
:101F7000EF93FF9383E192E00E94EB01FF91EF91D9
:101F8000BF91AF919F918F917F916F915F914F9191
:101F90003F912F910F900BBE0F900FBE0F901F908F
:101FA00018951F920F920FB60F9211240BB60F9235
:101FB0002F938F939F93EF93FF93E0912302F091E0
:101FC00024028081E0912902F0912A0282FD1DC045
:101FD000908180912C028F5F8F7320912D02821748
:101FE00041F0E0912C02F0E0ED5EFD4F958F809383
:101FF0002C02FF91EF919F918F912F910F900BBE2B
:102000000F900FBE0F901F9018958081F2CF1F92F6
:102010000F920FB60F9211242F933F938F939F939C
:10202000AF93BF938091D6019091D701A091D80131
:10203000B091D9013091BD0123E0230F2D3768F114
:1020400026E8230F0296A11DB11D2093BD018093A8
:10205000D6019093D701A093D801B093D901809174
:10206000BE019091BF01A091C001B091C101019644
:10207000A11DB11D8093BE019093BF01A093C0012B
:10208000B093C101BF91AF919F918F913F912F91DB
:102090000F900FBE0F901F9018950196A11DB11DB6
:1020A000D4CF1F920F920FB60F9211240BB60F923E
:1020B0002F933F934F935F936F937F938F939F9350
:1020C000AF93BF93EF93FF93E0910E01F0910F0157
:1020D0000995FF91EF91BF91AF919F918F917F9162
:1020E0006F915F914F913F912F910F900BBE0F9089
:1020F0000FBE0F901F9018951F920F920FB60F9260
:1021000011240BB60F922F933F934F935F936F93CE
:102110007F938F939F93AF93BF93EF93FF93E09140
:102120000C01F0910D010995FF91EF91BF91AF91D5
:102130009F918F917F916F915F914F913F912F91DF
:102140000F900BBE0F900FBE0F901F9018951F920F
:102150000F920FB60F9211240BB60F922F933F934D
:102160004F935F936F937F938F939F93AF93BF939F
:10217000EF93FF93E0910A01F0910B010995FF9114
:10218000EF91BF91AF919F918F917F916F915F91EF
:102190004F913F912F910F900BBE0F900FBE0F905C
:1021A0001F9018951F920F920FB60F9211240BB625
:1021B0000F922F933F934F935F936F937F938F93E0
:1021C0009F93AF93BF93EF93FF93E0910801F0913A
:1021D00009010995FF91EF91BF91AF919F918F9167
:1021E0007F916F915F914F913F912F910F900BBE17
:1021F0000F900FBE0F901F9018951F920F920FB661
:102200000F9211240BB60F922F933F934F935F932E
:102210006F937F938F939F93AF93BF93EF93FF93AE
:10222000E0910601F09107010995FF91EF91BF91AF
:10223000AF919F918F917F916F915F914F913F915E
:102240002F910F900BBE0F900FBE0F901F901895FF
:102250001F920F920FB60F9211240BB60F922F936D
:102260003F934F935F936F937F938F939F93AF931E
:10227000BF93EF93FF93E0910401F091050109955D
:10228000FF91EF91BF91AF919F918F917F916F914E
:102290005F914F913F912F910F900BBE0F900FBE0A
:1022A0000F901F9018951F920F920FB60F92112446
:1022B0000BB60F922F933F934F935F936F937F9340
:1022C0008F939F93AF93BF93EF93FF93E09102019E
:1022D000F09103010995FF91EF91BF91AF919F910B
:1022E0008F917F916F915F914F913F912F910F90BF
:1022F0000BBE0F900FBE0F901F9018951F920F925C
:102300000FB60F9211240BB60F922F933F934F935A
:102310005F936F937F938F939F93AF93BF93EF934D
:10232000FF93E0910001F09101010995FF91EF9178
:10233000BF91AF919F918F917F916F915F914F91DD
:102340003F912F910F900BBE0F900FBE0F901F90DB
:1023500018951F920F920FB60F9211240BB60F9281
:102360002F933F934F935F936F937F938F939F939D
:10237000AF93BF93EF93FF9380917100887F803676
:1023800009F44DC008F040C0883209F4A7C028F510
:10239000803109F49BC0C8F4882309F4F7C0883061
:1023A00009F494C0FF91EF91BF91AF919F918F91EC
:1023B0007F916F915F914F913F912F910F900BBE45
:1023C0000F900FBE0F901F901895883109F486C0AA
:1023D000803241F78093960114C0803409F49BC089
:1023E00040F48033B9F38833E9F68093960185ECA5
:1023F000AEC0803509F483C0883509F494C08834B0
:1024000089F60E94A105CECF883909F48AC038F533
:10241000883729F050F4883611F0803719F683E0B8
:10242000809397011092950155C0883809F479C0BE
:10243000803919F0803809F0B5CF8091950180324C
:1024400008F06FC0E091950181E08E0F80939501B7
:1024500080917300F0E0EB58FE4F80833BC0803BDF
:1024600039F0D0F4803A09F477C0883A09F09ACF6D
:1024700084E0809397011092740110927301F0E050
:10248000E0E009958091730181110FC081E0809394
:1024900073011092530109C0803C09F4A8CF883C15
:1024A00009F4A5CF883B09F07DCFE091740181E06C
:1024B0008E0F80937401F0E0ED5AFE4F808180937F
:1024C0007300909174018091730129C08091BC01C7
:1024D0008093730085EC8093740064CF9091BB016E
:1024E0008091BA01981758F5E091BB0181E08E0FF9
:1024F0008093BB01F0E0E656FE4F8081E9CFE0918A
:10250000BB0181E08E0F8093BB0180917300F0E0EE
:10251000E656FE4F80839091BB018091BA019817D7
:10252000C8F285E8D8CFE091BB0181E08E0F80939F
:10253000BB0180917300F0E0E656FE4F80838091EE
:10254000990181115ECF81E08093980184EA8093A4
:1025500074001092970126CF85EC8093740010923E
:10256000970180919501803230F4E0919501F0E07F
:10257000EB58FE4F10826091950170E085E791E085
:10258000F0E0E0E00995109295010CCF10929601D1
:1025900038CF1F920F920FB60F9211248F939F93F3
:1025A00078948091D5019091D401891708F08AC060
:1025B000909162009860909362009091D301891786
:1025C00008F084C0DC9A9091D201891708F080C08D
:1025D000909162009064909362009091D10189176C
:1025E00008F07AC09091620090629093620090919E
:1025F000D001891708F074C0C69A9091CF0189174D
:1026000008F070C0C59A9091CE01891708F06CC08F
:10261000C49A9091CD01891708F068C01D9A9091D5
:10262000CC01891708F064C01C9A9091CB018917DE
:1026300008F060C01B9A9091CA01891708F05CC02D
:10264000909162009160909362009091C901891706
:1026500008F056C0C79A9091C801891708F052C077
:10266000DE9A9091C701891708F04EC0DF9A9091C9
:10267000C601891708F04AC0969A9091C50189173A
:1026800008F046C0979A9091C401891708F042C09B
:10269000DD9A9091C301891708F03EC0DB9A9091B2
:1026A000C2018917D8F59091620090619093620001
:1026B0008F5F8093D5019F918F910F900FBE0F90E8
:1026C0001F90189590916200977F75CFDC987BCF13
:1026D000909162009F7B7FCF909162009F7D85CF1C
:1026E000C6988BCFC5988FCFC49893CF1D9897CF9E
:1026F0001C989BCF1B989FCF909162009E7FA3CF89
:10270000C798A9CFDE98ADCFDF98B1CF9698B5CF57
:102710009798B9CFDD98BDCFDB98C1CF909162007B
:102720009F7EC4CFDC0170E0FB01EF5FFD4FE491C1
:102730001196EC93119764537E4FFB0124912C93D7
:1027400030E0220F331FF901E455FE4F859194913B
:1027500013969C938E931297F901E454FE4F859142
:10276000949115969C938E9314970895CF93DF932D
:10277000EC0161E088810E94440360E08881DF9180
:10278000CF910C94EB02EF92FF920F931F93CF9394
:10279000DF93109216021092150288EE93E0A0E0EB
:1027A000B0E08093170290931802A0931902B0939F
:1027B0001A0280E491E0909314028093130280E95E
:1027C00090E09093200280931F0289E290E0909322
:1027D0002202809321028BE290E090932402809366
:1027E00023028AE290E0909326028093250285E9F5
:1027F00090E090932802809327028CE290E09093DF
:102800002A028093290210922C0210922D0210921B
:102810002E0210922F0287E08093190786E090E045
:102820000E941617EC0168E00E949213D0931B07D8
:10283000C0931A071092B2021092B3021092B4021F
:102840001092B5021092B6021092B7021092B8021E
:102850001092B9021092BA021092BB021092BC02FE
:1028600086E090E09093B1028093B00283E190E023
:102870000E94C009C82F82E190E00E94C009D82FB1
:1028800081E190E00E94C009182F81E090E00E9451
:10289000C00921E030E03093A1062093A0063093D8
:1028A000A3062093A2061092A4061092A8061092E6
:1028B000AA061092A90680939B06212F205C330B59
:1028C000C9012D2F382FC90190939D0680939C0636
:1028D000CF77C0939E0610929F068DE18093A50648
:1028E00062E070E08DE190E00E94FA169093A706F6
:1028F0008093A6060097C9F0EC0110E0EE24E39463
:10290000F12C8AE090E00E941617FC01F282E1822D
:102910001382148216821582178211861086108304
:10292000899399931F5F1D3161F766E08CE097E012
:102930000E94921364E382E197E00E94921381E384
:1029400080930707C2E0C093090710920A07DFEFE0
:10295000D093080710920B0787E097E00E94B61308
:1029600089E280930207C093040781E08093050702
:10297000D09303071092060782E097E00E94B613F7
:1029800087E28093FD06C093FF06C0930007D093B3
:10299000FE06109201078DEF96E00E94B61389E1C2
:1029A0008093F806C093FA0683E0E82EE092FB06D7
:1029B000D093F9061092FC0688EF96E00E94B613B9
:1029C00088E18093F306C093F50694E0F92EF09227
:1029D000F606D093F4061092F70683EF96E00E9475
:1029E000B61385E28093EE06C093F00605E00093EF
:1029F000F106D093EF061092F2068EEE96E00E945A
:102A0000B61386E28093E906C093EB0686E08093D6
:102A1000EC06D093EA061092ED0689EE96E00E944D
:102A2000B6131FE01093E406C093E60687E0809398
:102A3000E706D093E5061092E80684EE96E00E9441
:102A4000B6138DE28093DF06C093E10688E08093A1
:102A5000E206D093E0061092E3068FED96E00E9426
:102A6000B613E092DA06C093DC0689E08093DD06B7
:102A7000D093DB061092DE068AED96E00E94B61334
:102A8000F092D506C093D7068AE08093D806D093FB
:102A9000D6061092D90685ED96E00E94B6130093F3
:102AA000D006C093D2068BE08093D306D093D10694
:102AB0001092D40680ED96E00E94B6138CE08093CD
:102AC000CB06C093CD068093CE06D093CC06109251
:102AD000CF068BEC96E00E94B6138DE08093C6067D
:102AE000C093C8068093C906D093C7061092CA0641
:102AF00086EC96E00E94B6138EE08093C106C093E8
:102B0000C3068093C406D093C2061092C50681EC1A
:102B100096E00E94B61382E38093BC06C093BE0683
:102B20001093BF06D093BD061092C0068CEB96E0C2
:102B30000E94B61383E38093B706C093B90680E181
:102B40008093BA06D093B8061092BB0687EB96E046
:102B50000E94B61388E28093B206C093B40681E166
:102B60008093B506D093B3061092B60682EB96E03A
:102B70000E94B61380E38093AD06C093AF0682E156
:102B80008093B006D093AE061092B1068DEA96E01F
:102B9000DF91CF911F910F91FF90EF900C94B6139E
:102BA000789483B78C6483BF87B7816087BF82E0E6
:102BB0008EBD8EB581608EBD8FB581608FBD85B5B0
:102BC000846085BD85B5806485BD80918A00836001
:102BD00080938A0080918B00816080938B0087E8CE
:102BE00086B91AB80FB6F894A89581B5886181BDE9
:102BF00011BC0FBE2FB7F89490E080E0FC01EE53BB
:102C0000FE4F1082019683319105C1F780916200D9
:102C1000877F80936200DC98809162008F7B809335
:102C20006200809162008F7D80936200C698C59893
:102C3000C4981D981C981B98809162008E7F809389
:102C40006200C798DE98DF9896989798DD98DB9891
:102C5000809162008F7E809362002FBF9FB7F894AF
:102C600080916100886080936100D49A80916100B6
:102C70008064809361008091610080628093610034
:102C8000BE9ABD9ABC9A159A149A139A80916100C3
:102C9000816080936100BF9AD69AD79A8E9A8F9A54
:102CA000D59AD39A809161008061809361009FBF23
:102CB0001FBC89E08EBD8CE093E09BBD8ABD87B7C9
:102CC000806187BF1092D50161E08FE10E944403CB
:102CD00060E08CE097E00E949402E0911407F0918C
:102CE0001507908180911307809589238083E09157
:102CF0001607F0911707808190911307892B808325
:102D00000E947907FFCFCF93DF9360E082E197E0E5
:102D10000E94940260E08CE097E00E94940280910F
:102D200019079CEF980F943098F18251843080F10C
:102D300060E0809119070E944403C0911A07D09166
:102D40001B072097B1F160E0CE010E949402CE01F2
:102D5000DF91CF910C94B21799B79E7F99BFE82F5E
:102D6000F0E0EE0FFF1FE050FF4F84E691E091830B
:102D70008083DECF9D7FF2CF9B7FF0CF977FEECF1A
:102D80009F7EECCF9F7DEACF9F7BE8CF9F77E6CFFA
:102D9000EFEFE80FE73000F7F0E0EE52F94E99B7A9
:102DA0000C94F116BA16BC16BE16C016C216C4167E
:102DB000C616DF91CF910895E199FECF9FBB8EBBE0
:102DC000E09A99278DB30895262FE199FECF9FBBF6
:102DD0008EBB2DBB0FB6F894E29AE19A0FBE019616
:102DE0000895EE0FFF1F0024001C0BBE0790F69104
:102DF000E02D09940F931F93CF93DF93869F80015B
:102E0000879F100D969F100D1124C8010E94161760
:102E1000EC01009729F0A80170E060E00E943B18E7
:102E2000CE01DF91CF911F910F9108950F931F93C2
:102E3000CF93DF938230910510F482E090E0E0912F
:102E40002D07F0912E0730E020E0B0E0A0E03097B1
:102E500099F42115310509F44AC0281B390B243097
:102E60003105D8F58A819B816115710589F1FB01D6
:102E700093838283FE0111C04081518102811381BD
:102E800048175907E0F04817590799F4109761F06F
:102E900012960C93129713961C933296CF01DF91E2
:102EA000CF911F910F91089500932D0710932E0736
:102EB000F4CF2115310551F04217530738F0A9011D
:102EC000DB019A01BD01DF01F801C1CFEF01F9CFAC
:102ED00090932E0780932D07CDCFFE01E20FF31FB5
:102EE000819391932250310939832883D7CF209140
:102EF0002B0730912C07232B41F4209112013091A4
:102F0000130130932C0720932B072091100130914F
:102F100011012115310541F42DB73EB7409114013F
:102F200050911501241B350BE0912B07F0912C07D4
:102F3000E217F307A0F42E1B3F0B2817390778F090
:102F4000AC014E5F5F4F2417350748F04E0F5F1FEF
:102F500050932C0740932B07819391939FCFF0E0E0
:102F6000E0E09CCFCF93DF930097E9F0FC0132972C
:102F700013821282A0912D07B0912E07ED0130E04F
:102F800020E01097A1F420813181820F931F2091BE
:102F90002B0730912C072817390709F061C0F093EF
:102FA0002C07E0932B07DF91CF910895EA01CE170C
:102FB000DF07E8F54A815B819E0141155105B1F7B4
:102FC000E901FB83EA8349915991C40FD51FEC179E
:102FD000FD0761F4808191810296840F951FE901BC
:102FE00099838883828193819B838A83F0E0E0E0E8
:102FF00012968D919C9113970097B9F52D913C9164
:103000001197CD010296820F931F20912B073091CB
:103010002C072817390739F6309751F510922E07EB
:1030200010922D07B0932C07A0932B07BCCFD3830E
:10303000C28340815181840F951FC817D90761F45D
:103040004E5F5F4F88819981480F591F518340839C
:103050008A819B81938382832115310509F0B0CF4A
:10306000F0932E07E0932D079ECFFD01DC01C0CF2A
:1030700013821282D7CFDC0101C06D9341505040C2
:10308000E0F7089511E0C7E3D1E004C0FE010E941B
:0E309000F1162196C833D107C9F7F894FFCF87
:10309E0064010000000000000000000000000000BD
:1030AE0000002F07800007070207FD06F806F3064B
:1030BE00EE06E906E406DF06DA06D506D006CB06EE
:1030CE00C606C106BC06B706B206AD060000000075
:0E30DE000C02BE02AE015302DF01BD01D101A2
:00000001FF
