:100000000C9460010C947D190C9452190C942719CE
:100010000C94FC180C94D1180C94A6180C947B1812
:100020000C9450180C948A010C948A010C948A0147
:100030000C94CC1A0C948A010C948A010C948A01B9
:100040000C9406180C948A010C948A010C948A0171
:100050000C948A010C948A010C948A010C948A01F4
:100060000C948A010C948A010C948A010C948A01E4
:100070000C948A010C948A010C948A010C948A01D4
:100080000C948A010C94A8190C948A013D03000079
:100090000000000A0D0000000000000101C0800007
:1000A000000000000000000000060000000000004A
:1000B0000000000000000000000000000000000040
:1000C0000000000000007F000000000000000000B1
:1000D0000000000000000000000000000000000020
:1000E0000000000000000000000000000000000010
:1000F0000000000000000000000000000000800080
:1001000000008000010080000100800001008000EC
:1001100001008000010080000200800003008000D8
:1001200003008000030080000300800003008000C3
:1001300003008000040080000400800005008000AF
:100140000680FF000681FF00FF000000FF000000A6
:10015000FF000000FF000000FF000000FF000000A3
:10016000FF000000FF000000FF000000FF00000093
:10017000FF000000FF000000FF000000FF00000083
:10018000FF000000FF000000FF000000FF00000073
:10019000FF000000FF000000FF00000000003A0028
:1001A00037003400310022006100640000003B0091
:1001B00038003500320023006200650070007400D2
:1001C00078007C008000840088008C0090009400FF
:1001D00098009C00A000A400A800AC00B000B400EF
:1001E000B800BC00C000C400C800CC00D000D400DF
:1001F000D800DC00E000E400E800EC00F000F400CF
:10020000F800FC000001040108010C0100003900A5
:10021000360033003000210020006300050505058D
:100220000505050502020202020202020707040494
:100230000404040404040707030303030303030380
:100240000701010101010101010606060606060675
:10025000060102040810204080010204081020401A
:1002600080081001020408102040800102010204ED
:100270000810204080048040201008040201010280
:100280000408102040800000000A0B0C0000000051
:10029000000001040506000000000000000000004E
:1002A000000000000000000000000000000000004E
:1002B000000000000000000000000000A21B3B2620
:1002C00011241FBECFEFD0E1DEBFCDBF11E0A0E013
:1002D000B1E0EAEDFFE400E00BBF02C007900D9231
:1002E000A635B107D9F727E0A6E5B1E001C01D9218
:1002F000A832B207E1F711E0CFE5D1E004C02197C1
:10030000FE010E946E26CE35D107C9F70E94741DEA
:100310000C94E0270C9400002091A70281E0213288
:1003200008F044C0809183028111FCCF8091A60225
:1003300092E09093830291E0909382029FEF9093DA
:1003400081021092800220937F02A6E8B2E0EFE5DE
:10035000F2E090E0291331C010925E0290915E02AB
:10036000880F892B80935E0280915D02813049F570
:1003700010925D0280915E02809373008091740000
:1003800083FDF8CF85EC80937400809183028230E6
:10039000E1F3809181028F3FB1F080918102803240
:1003A000A1F080918102803391F084E01092850267
:1003B0001092A7021092840208953D9131939F5F9D
:1003C000C9CF85EEE0CF80E0F1CF82E0EFCF83E0D0
:1003D000EDCF2091AA063091AB062115310549F0E9
:1003E00090E0880F991F820F931FFC0180819181FB
:1003F000089590E080E008959C016115710529F051
:100400006130710571F080E0089580919F06821738
:10041000130681F09091A20681E09217130699F7D6
:10042000089581E04091A0065091A106421753071C
:1004300051F7F6CF81E0F4CFFF920F931F93CF9344
:10044000DF938C01F42EE9010E94FC018823B1F0B6
:100450008091A2068017110619F58091A606909149
:10046000A7068C179D0751F08091A306882399F069
:10047000219751F41092A7061092A606DF91CF9112
:100480001F910F91FF90089581E090E09093A7064F
:100490008093A606F3CFD093A706C093A606EECF0F
:1004A0008091A4069091A506C817D90739F3F0FEEC
:1004B0000EC0219729F41092A5061092A406DECF53
:1004C00081E090E09093A5068093A406D7CFD093C7
:1004D000A506C093A406D2CF089581E0809324029C
:1004E0000895E091E501F091E601309729F010922E
:1004F00085021092A70209940895CF93DF93AC016F
:10050000E091E701F091E8013097F1F09091E4017A
:100510008091E3019817C0F090E0292F30E0261772
:10052000370754F4D901A35ABE4F240F351FE901F0
:1005300028812C939F5FF1CF1092E4016093E30137
:10054000CB01DF91CF910994DF91CF910895DC0128
:100550001296ED91FC91139711969C9111978081C1
:1005600061110EC09095982390831496ED91FC91A3
:100570001597908111968C91809589238083089599
:10058000623061F49095982390831496ED91FC91DC
:100590001597808111969C91892BF0CF982B908391
:1005A000089581508C3088F5E82FF0E0E652FD4F39
:1005B0000C946E26020302030503E602EA02ED0232
:1005C000F00205030503F402FA02FE028FB58F77ED
:1005D0008FBD08958FB58F7DFBCF8FB5877FF8CF07
:1005E00085B58F7D85BD089580918B008F77809331
:1005F0008B00089580918B008F7DF9CF80918B00C7
:10060000877FF5CF83B78F7D83BF08951F93CF93E7
:10061000DF93282F30E0F901EA57FD4F8491F9016B
:10062000EF5AFD4FD491F901E45EFD4FC491CC2304
:10063000A9F0162F81110E94D102EC2FF0E0EE0FED
:10064000FF1FE455FE4FA591B4918FB7F894EC913C
:10065000111108C0D095DE23DC938FBFDF91CF91BD
:100660001F910895DE2BF8CFCF93DF9390E0FC012C
:10067000EF5AFD4F2491845E9D4FFC0184918823A5
:10068000D1F090E0880F991FFC01E456FE4FA59130
:10069000B491FC01E455FE4FC591D49161110EC097
:1006A0009FB7F8948C91E22FE0958E238C9328814C
:1006B000E223E8839FBFDF91CF9108958FB7F8942D
:1006C000EC91E22BEC938FBFF6CF3FB7F89480917B
:1006D000D9019091DA01A091DB01B091DC0122B740
:1006E00006B600FE05C02F3F19F00196A11DB11DF1
:1006F0003FBFBA2FA92F982F8827BC01CD01620FC9
:10070000711D811D911D42E0660F771F881F991F83
:100710004A95D1F708958F929F92AF92BF92CF9250
:10072000DF92EF92FF924B015C010E9465036B0127
:100730007C010E9465036C197D098E099F09683E42
:10074000734081059105A8F321E0821A9108A10860
:10075000B10888EEC80E83E0D81EE11CF11C81149C
:100760009104A104B10429F7FF90EF90DF90CF909E
:10077000BF90AF909F908F90089561E08FE10E94AD
:10078000060364E070E080E090E00E948B0360E08C
:100790008FE10C9406030C94BD032FB7F89460917D
:1007A000D5017091D6018091D7019091D8012FBFCA
:1007B0000895E82FF0E0DF01AA0FBB1FAF5FBE4F27
:1007C00011967C936E938830A8F4E751FC4F0C94FB
:1007D0006E26F103FB030804160424042B043604DC
:1007E000420480916A008C7F482B40936A0089B74D
:1007F000816089BF089580916A00837F440F551FEF
:10080000440F551F482B40936A0089B78260F1CF8F
:1008100080916A008F7C74E0440F551F7A95E1F750
:10082000482B40936A0089B78460E3CF80916A00C7
:100830008F7366E0440F551F6A95E1F7482B40938C
:100840006A0089B78860D5CF8AB78C7F482B4ABFAA
:1008500089B78061CECF8AB7837F440F551F440F7D
:10086000551F482B4ABF89B78062C3CF8AB78F7C98
:1008700024E0440F551F2A95E1F7482B4ABF89B75A
:100880008064B7CF8AB78F7396E0440F551F9A954F
:10089000E1F7482B4ABF89B78068ABCF883010F4A6
:1008A0000C94D90308950E9465032091C2013091F0
:1008B000C301FB01E21BF30B20914402309145027E
:1008C000E217F30708F438C120914602309147023D
:1008D0007093C3016093C201409148025091490254
:1008E0004130510599F148F04230510509F4B9C041
:1008F0004330510509F4EFC00895E217F30708F0FB
:10090000D4C080914B028F5F80934B028B3008F4F0
:1009100013C181E090E0909349028093480241E046
:1009200050E063E574E080913E020E944E04109214
:10093000C10182E590E0909347028093460283E2F2
:1009400090E0909345028093440208954091C10144
:100950004130A9F038F0433009F449C0443009F47B
:100960007CC00895E217F30730F491E09093C10141
:10097000E093C001089584E08093C1010895E217D7
:10098000F30798F51092C10190914B029F5F9093ED
:100990004B028E2FEE0F990B2091C001821B910903
:1009A00027FD939597FF03C09195819591094997EC
:1009B0000CF4C2C0109249021092480282E990E001
:1009C000909347028093460282E590E0909345021F
:1009D0008093440210924B0240912C0250E063E558
:1009E00074E080913E020C944E0483E0C5CFE21780
:1009F000F30700F380912C02833061F582E080934D
:100A00002C0282E090E0909349028093480282E9B0
:100A100090E0909347028093460282E590E09093A5
:100A200045028093440210924D0210924F021092A0
:100A300050021092510210925202109253021092E0
:100A4000540280914B0280934E0210924B021092FE
:100A50004C02C2CF40932C02D4CFE217F30788F6A2
:100A6000A9CF50914B025F5F50934B0240914C02D3
:100A7000440FE217F307E0F040934C02583009F0BE
:100A80005BC0E0914D02E630A9F410924902109249
:100A9000480282E990E0909347028093460282E503
:100AA00090E0909345028093440210924B02089587
:100AB0004160E2CF83E090E0909349028093480246
:100AC00081E08E0F80934D02F0E0E85BFD4F809156
:100AD0004C0287830895E217F307F8F41092490255
:100AE0001092480210924B0282E990E090934702E4
:100AF0008093460282E590E0909345028093440201
:100B000088E0EDE4F2E0A5E5B2E001900D928A956F
:100B1000E1F781E080934A02089580914D0286308A
:100B200009F4B3CF82E090E09093490280934802A9
:100B300010924B0210924C020895CF93DF93DC0188
:100B4000EC91F0E0EE0FFF1FE45FFD4FC591D491F3
:100B5000988111968C91982381E009F480E0DF91CF
:100B6000CF910895DC0170E0FB01EF5AFD4FE49155
:100B70001196EC931197645E7D4FFB0124912C93A9
:100B800030E0220F331FF901E456FE4F8591949116
:100B900013969C938E931297F901E455FE4F85911D
:100BA000949115969C938E9314970895FC018081DF
:100BB000813089F4CB01845893408897C0F0613824
:100BC000F3E07F07A1F06C5F734081E06530710551
:100BD00078F080E00895823021F4CB018C5A934064
:100BE000ECCF833061F7CB01845D9340E6CF81E0A9
:100BF0000895CF93DF93EC0161E08D8D9E8D0E946F
:100C0000A702AD8DBE8D1496ED91FC911597908144
:100C100011968C9180958923808361E070E080E05B
:100C200090E00E948B0360E08D8D9E8DDF91CF91CF
:100C30000C94A70280E090E0892B29F08091430278
:100C400083FD0C940000089585ED809374008091DD
:100C5000740084FDFCCF10928302089520919D01C1
:100C6000260F3327331F21323105ECF42091830204
:100C7000FC0190E080E0243069F082E00895A091CA
:100C80009D012191AC0143585E4FA40FB52FB11DBA
:100C90002C930196861798F380919D01680F6093BD
:100CA0009D0180E0089581E008950895E091E401B8
:100CB0008091E301E81730F4F0E0E35AFE4F8081C1
:100CC00090E008958FEF9FEF08959091E401809157
:100CD000E3012FEF3FEF981748F4E92FF0E0E35AD4
:100CE000FE4F208130E09F5F9093E401C901089599
:100CF0008091E3019091E401891B990B0895CF92B3
:100D0000DF92EF92FF920F931F93CF93DF937C01BB
:100D1000CB018A0120918402222389F0EB016B012F
:100D2000C40ED51ECC15DD0569F06991D701ED9192
:100D3000FC910190F081E02DC7010995F3CF642F5C
:100D40000E942E06C801DF91CF911F910F91FF9055
:100D5000EF90DF90CF90089544E050E069E571E0B6
:100D600088EA92E00C947F06CF93DF931F92CDB771
:100D7000DEB76983209184022223F9F02091A70233
:100D8000203258F021E030E0FC013383228390E0F0
:100D900080E00F90DF91CF91089580918502E82F38
:100DA000F0E0EA57FD4F998190838F5F8093850231
:100DB0008093A70281E090E0ECCF61E0CE01019644
:100DC0000E942E06F7CF90E080E00895E82FF0E033
:100DD000E751FE4F608308950F931F93CF93DF93E6
:100DE000FC018281813089F040F0823009F47AC0C0
:100DF000DF91CF911F910F91089561E08081DF9184
:100E0000CF911F910F910C9406030181C02FD0E068
:100E1000108161E0812F0E943403209719F460E073
:100E2000812FEDCFCF3FD10511F461E0F9CFE12F54
:100E3000F0E0EA57FD4FE491E150EC3008F04DC08E
:100E4000F0E0EB5DF84F0C946E26310731076D072B
:100E500036073C0742074A076D076D074F075907DA
:100E6000630783B7806283BF01BFC2CF8FB580683D
:100E70008FBDDBBDCABDBCCF8FB580628FBDD9BD74
:100E8000C8BDB6CF8FB588608FBDD0937900C093B1
:100E90007800AECF85B5806285BD03BDA9CF8091B6
:100EA0008B00806880938B00D0938700C09386006E
:100EB0009FCF80918B00806280938B00D0938500C0
:100EC000C093840095CF80918B00886080938B00C5
:100ED000D0938300C09382008BCFC038D1050CF033
:100EE000A4CF9DCF8181E381F0E0E751FE4F808365
:100EF0007FCF0F931F93CF93DF93D62F8C01C0E04A
:100F0000CD1741F0F801819191918F010E94EC067B
:100F1000CF5FF6CFDF91CF911F910F9108950F937F
:100F20001F93CF93DF93162F082FEC0188EA92E0EE
:100F30000E94650689938C2F801B8117B8F3812F3F
:100F4000DF91CF911F910F9108950F931F93CF932E
:100F50008A01C22F91E0909384028093A60210929E
:100F600085021092A70288EA92E00E94B4064C2FF4
:100F700050E0B80188EA92E00E947F06CF911F916D
:100F80000F910C948C011F93CF93DF9300D01F928D
:100F9000CDB7DEB7209158012223C1F09A8389830F
:100FA0006B8310E080915801181780F4E09156018E
:100FB000F0915701E10FF11D23E0AE014F5F5F4F4C
:100FC00066E080810E94A5071F5FECCF0F900F9015
:100FD0000F90DF91CF911F9108958F929F92AF92C2
:100FE000BF92CF92DF92EF92FF920F931F93CF9316
:100FF0000E946503AB01BC018091B6029091B702DB
:10100000A091B802B091B9028A019B01081B190B8B
:101010002A0B3B0B8091BE02882309F47FC080918C
:10102000C0029091BF02E92FEE0FFF0BA82F082EF0
:10103000000CBB0BC3E68C02E00DF11D1124EC5437
:10104000FD4F178B068B053F11402105310508F038
:1010500054C09F5F9093BF029091BF029332C9F535
:1010600093E69A9F90019B9F300D11242C543D4F85
:10107000F901E45AFF4FC090BA02D090BB02E09051
:10108000BC02F090BD024A015B018C189D08AE08BD
:10109000BF0875016401C082D182E282F3822959BE
:1010A0003F4FE1E0F0E0D901ED93FC938F5F8A3090
:1010B00094F58093C002E091C002B3E6EB02F00128
:1010C0001124E55EFC4F118210821092BE02109234
:1010D000BF024093B6025093B7026093B802709378
:1010E000B902CF911F910F91FF90EF90DF90CF90B9
:1010F000BF90AF909F908F9008951092BF0291E0A3
:101100009093BE024093BA025093BB026093BC021C
:101110007093BD02A1CF1092C002CDCF053F114008
:1011200021053105B0F281E08093BE024093BA02FE
:101130005093BB026093BC027093BD02CACFE82FEC
:10114000F0E0E751FE4F60830895CF93FC01828168
:10115000813051F020F0823079F0CF91089560E035
:101160008081CF910C940603C08161E08C2F0E9496
:10117000340360E08C2FF5CFE381F0E0E751FE4FC0
:101180001082EBCF80932502882361F00FB6F8948C
:10119000A89581B5886181BD11BC0FBE8FE197E034
:1011A0000C94EC068FE197E00E94A50888E19BE093
:1011B0000FB6F894A89581BD0FBE91BD0895CF9349
:1011C000C82F80912F028C1731F081E0C11101C02E
:1011D00080E00E94C208C0932F0260E070E0CB0163
:1011E000C1110E94CD03609330027093310280934D
:1011F00032029093330280912F028C1739F081E0F4
:10120000C11101C080E0CF910C94C208CF91089524
:10121000EF92FF920F931F93CF93DF938C01FC010A
:10122000C581D681209751F0E480F12CEF1431F084
:10123000899199910E94A508F394F8CFF801C0858F
:10124000D185209751F0078110E0011731F0899185
:1012500099910E94A5081F5FF8CFDF91CF911F9150
:101260000F91FF90EF9008952091AA063091AB0660
:101270002115310551F090E0880F991F820F931FBF
:10128000FC01808191810C9408090895CF9380918D
:10129000AC06882369F18091AD069091AE06892B4A
:1012A00029F1C0E08091A906C81700F58C2F86951A
:1012B0008695869590E0E091AD06F091AE06E80F38
:1012C000F91F208130E043E0880F991F4A95E1F72C
:1012D0004C2F481B02C0359527954A95E2F720FF11
:1012E00003C08C2F0E943409CF5FDCCF1092AC0674
:1012F000CF9108950F931F93CF938C01C42F0E9419
:10130000FC018823E1F18091A206482F50E0C03112
:1013100028F5882319F12C2F30E08091AF069091A9
:10132000B0060C2E02C0969587950A94E2F780FFCE
:1013300015C00417150719F58091AA069091AB0600
:101340000097E9F0220F331F820F931FFC01808169
:101350009181CF911F910F910C94080904171507E3
:1013600071F08091AA069091AB06009741F04C2F46
:1013700050E0440F551F480F591FFA01E8CFCF9195
:101380001F910F9108950F931F93CF93DF93EC015B
:101390008B81882379F08B0189819A818617970741
:1013A00029F0CE010E9408091A83098389819A8154
:1013B000019731F48D819E81009769F06C8105C0A1
:1013C00088859985009739F06F81DF91CF911F91C2
:1013D0000F910C947907DF91CF911F910F91089590
:1013E0002091AA063091AB062115310571F060916C
:1013F000A4067091A50690E0880F991F820F931F95
:10140000FC01808191810C94C3090895CF93809150
:10141000AC06811138C0C0E08091A906C81728F435
:101420008C2F0E943409CF5FF7CF8091AD06909149
:10143000AE06892B29F1C0E08091A906C81700F5F6
:101440008C2F86958695869590E0E091AD06F0917B
:10145000AE06E80FF91F208130E043E0880F991FA6
:101460004A95E1F74C2F481B02C0359527954A95C0
:10147000E2F720FF03C08C2F0E94F009CF5FDCCF82
:1014800081E08093AC06CF9108952091A40630911D
:10149000A5062817390761F09093A5068093A40646
:1014A0008091AC06882321F00E9446090C94060A1C
:1014B00008950F931F93CF938C01C62F823091050F
:1014C00009F45BC048F4019791F16C2FC801CF91EA
:1014D0001F910F910C94C3078330910509F48BC0C1
:1014E000049799F785E160FFC0C00E94F00986E18A
:1014F000C1FFBEC00E94F00987E1C2FFBCC00E94CC
:10150000F00988E1C3FFBAC00E94F00989E1C4FF75
:10151000B8C00E94F0098AE1C5FFB6C00E94F00978
:101520008BE1C6FFB4C00E94F0098CE14AC080E0A4
:1015300064FF17C00E94F00981E0C0FF15C00E943F
:10154000F00982E0C1FF13C00E94F00983E0C2FFEE
:1015500011C00E94F00984E0C3FF35C00E94F00969
:10156000B4CF0E943409E8CF0E943409EACF0E9428
:101570003409ECCF0E943409EECF85E060FF26C02D
:101580000E94F00986E0C1FF24C00E94F00987E0B4
:10159000C2FF22C00E94F00988E0C3FF20C00E9461
:1015A000F00989E0C4FF1EC00E94F0098AE0C5FF6F
:1015B0001CC00E94F0098BE0C6FF1AC00E94F0090F
:1015C0008CE0C7FDCBCF0E9434097FCF0E94340945
:1015D000D9CF0E943409DBCF0E943409DDCF0E94AD
:1015E0003409DFCF0E943409E1CF0E943409E3CFF0
:1015F0000E943409E5CF8DE060FF22C00E94F0090F
:101600008EE0C1FF20C00E94F0098FE0C2FF1EC023
:101610000E94F00980E1C3FF1CC00E94F00981E133
:10162000C4FF1AC00E94F00982E1C5FF18C00E94E1
:10163000F00983E1C6FF16C00E94F00984E1C1CF22
:101640000E943409DDCF0E943409DFCF0E943409A3
:10165000E1CF0E943409E3CF0E943409E5CF0E9414
:101660003409E7CF0E943409E9CF0E9434093FCF03
:101670000E94340941CF0E94340943CF0E943409AB
:1016800045CF0E94340947CF0E94340949CF0E94B8
:1016900034094BCF0F931F93CF938C01C42F0E941B
:1016A000FC01882309F444C08091A206482F50E031
:1016B000C03148F5882339F12C2F30E08091AF06F6
:1016C0009091B0060C2E02C0969587950A94E2F789
:1016D00080FF19C00417150759F58091AA0690914B
:1016E000AB06009729F16091A6067091A706220F1C
:1016F000331F820F931FFC0180819181CF911F9135
:101700000F910C94C3090417150791F08091AA0654
:101710009091AB06009761F06091A4067091A506C8
:101720004C2F50E0440F551F480F591FFA01E4CFCA
:10173000CF911F910F910895EF92FF920F931F93F6
:10174000CF93DF93C0E0D1E0D0938402C093A60290
:10175000109285021092A7020E948C01811105C08F
:10176000809158018F5F80935801CF5FCF3761F729
:10177000D0915801DD2311F161E070E08D2F90E0F0
:101780000E948B267C019093570180935601C0E004
:1017900010E001E000938402C093A602109285023B
:1017A0001092A7020E948C01811105C0F701E10F80
:1017B000F11DC0831F5FCF5FCF3761F78D2FDF91A2
:1017C000CF911F910F91FF90EF9008950E94DF0835
:1017D000EDE2F2E081E087831086E6E3F2E088E064
:1017E000DF011D928A95E9F708950C944526EF9242
:1017F000FF920F931F93CF93DF9300D01F92CDB72B
:10180000DEB7F82E8B0181E090E00E94F50B90E0AE
:1018100020919F062817190629F02091A206281763
:10182000190611F4F092A8068DE190E00E94F50BE4
:10183000E82E81E090E00E94F50B90E021E030E09E
:101840000130110511F030E020E04E2D70E060E035
:101850000E941C02809158018823C1F0F9821B83E9
:101860000A8310E080915801181780F4E091560126
:10187000F0915701E10FF11D23E0AE014F5F5F4F83
:1018800065E080810E94A5071F5FECCF0F900F904D
:101890000F90DF91CF911F910F91FF90EF900895DE
:1018A000CF93863823E0920719F130F481389340C2
:1018B000D1F08FEFCF910895873823E09207D9F0C8
:1018C00088389340B1F786E893E00E94F50BC82F63
:1018D00087E893E00E94F50B90E02FEFC29F800D08
:1018E000911D112402C081E893E0CF910C94F50B77
:1018F00086E893E0FACF87E893E0F7CFCF93C82F3D
:101900008FE290E00E94F50B811109C085E190E023
:10191000CC2311F086E190E0CF910C94F50B80E0A0
:10192000CF910895CF93C82F8FE290E00E94F50BDE
:10193000811106C08C2F90E0CA96CF910C94F50BC4
:1019400080E0CF9108951F93CF93DF93EC018091B6
:101950002502882359F08FE090E00E94F50B182FA4
:1019600080E190E00E94F50B181306C0CE01DF91D4
:10197000CF911F910C94F50B8FE197E00E94A50881
:10198000FFCF0C94A30CCF93DF93209140023091B2
:1019900041022F3F320721F0C901DF91CF91089515
:1019A0008091430287FF2BC086FF0FC089E090E043
:1019B0000E94C10CC82F81E090E00E94C10C9C2FB6
:1019C000909341028093400215C089E090E00E940C
:1019D000C10CC82F81E090E00E94C10C90E4C99F27
:1019E00090011124207C31708F73282B3093410299
:1019F000209340028091400290914102CECF85FF1A
:101A00000CC081E190E00E94C10CC82F82E190E0FF
:101A10000E94C10CC05CDD0BD2CF81E090E00E943F
:101A2000C10C90E0CDCFBF92CF92DF92EF92FF92A8
:101A30000F931F93CF93DF9300D01F92CDB7DEB7E4
:101A400030910F02311150C1B22E6A017B018C011D
:101A50004330510509F497C060F541305105C9F193
:101A60004230510509F470C0B701C8010E94FC0161
:101A7000882309F439C180915801882309F434C1BD
:101A8000DA82C982BB8210E080915801181708F0F1
:101A90002BC1E0915601F0915701E10FF11D23E0B8
:101AA000AE014F5F5F4F63E080810E94A5071F5F1B
:101AB000EBCF4530510509F4D0C008F483C046305F
:101AC000510591F640E0C80124FF28C00E944A0B4E
:101AD000CBCF80910C02811127C040E0B701C80133
:101AE000B4FE1FC00E944A0B41E0B701C801B0FE1E
:101AF00022C00E944A0B42E0B701C801B1FE1EC0DD
:101B00000E944A0B43E0B701C801B2FE1AC00E940E
:101B10004A0B44E0B701C801B3FCD8CF0E947A0950
:101B2000A3CF0E947A09E0CF8DE190E00E94C10C22
:101B300081FDD3CFD9CF0E947A09DDCF0E947A09E7
:101B4000E1CF0E947A09E5CF45E0C80120FF12C02D
:101B50000E944A0B46E0B701C801B1FE0EC00E94C8
:101B60004A0B47E0B701C801B2FE0AC00E944A0B07
:101B700048E0D0CF0E947A09EDCF0E947A09F1CFD8
:101B80000E947A09F5CF49E0C80120FF12C00E94E7
:101B90004A0B4AE0B701C801B1FE0EC00E944A0BD1
:101BA0004BE0B701C801B2FE0AC00E944A0B4CE0EC
:101BB000B1CF0E947A09EDCF0E947A09F1CF0E943D
:101BC0007A09F5CF4DE0C80120FF32C00E944A0BD0
:101BD0004EE0B701C801B1FE2EC00E944A0B4FE093
:101BE000B701C801B2FE2AC00E944A0B40E1B7010A
:101BF000C801B3FE26C00E944A0B41E1B701C801EB
:101C0000B4FE22C00E944A0B42E1B701C801B5FEF2
:101C10001EC00E944A0B43E1B701C801B6FE1AC0BC
:101C20000E944A0B44E1B701C801B7FE77CF4ECFFF
:101C30000E947A09CDCF0E947A09D1CF0E947A09F9
:101C4000D5CF0E947A09D9CF0E947A09DDCF0E94B0
:101C50007A09E1CF0E947A09E5CF45E1C80120FF6A
:101C60002EC00E944A0B46E1B701C801B1FE2AC04E
:101C70000E944A0B47E1B701C801B2FE26C00E948C
:101C80004A0B48E1B701C801B3FE22C00E944A0BCB
:101C900049E1B701C801B4FE1EC00E944A0B4AE1E7
:101CA000B701C801B5FE1AC00E944A0B4BE1B7014B
:101CB000C801B6FE16C00E944A0B4CE1B4CF0E9488
:101CC0007A09D1CF0E947A09D5CF0E947A09D9CF5B
:101CD0000E947A09DDCF0E947A09E1CF0E947A0939
:101CE000E5CF0E947A09E9CF0F900F900F90DF9116
:101CF000CF911F910F91FF90EF90DF90CF90BF9009
:101D000008958F929F92AF92BF92CF92DF92EF92FF
:101D1000FF920F931F93CF93DF9300D000D01F92B9
:101D2000CDB7DEB750910F02511138C048015901AB
:101D3000142F6B017C010E94FC0181111093A806F5
:101D40008DE190E00E94F50B9501482FB601C70187
:101D50000E941C02B601C7010E94FC018823F1F019
:101D6000809158018823D1F01983BB82AA829D8279
:101D70008C82F12C80915801F81680F4E091560184
:101D8000F0915701EF0DF11D25E0AE014F5F5F4F60
:101D900062E080810E94A507F394ECCF0F900F9032
:101DA0000F900F900F90DF91CF911F910F91FF90A7
:101DB000EF90DF90CF90BF90AF909F908F9008955D
:101DC0001F93CF93DF93EC01162F0E94452618171F
:101DD00021F0612FCE010E944D26CE01DF91CF91DF
:101DE0001F910C94F50BCF93DF93863823E0920775
:101DF00039F138F481389340E9F08FEFDF91CF91DA
:101E00000895873823E09207F1F088389340A9F7C6
:101E1000C62F86E893E00E94F50BD82F87E893E061
:101E20000E94F50B90E06C2F2FEFD29F800D911D3B
:101E3000112402C081E893E0DF91CF910C94E00E71
:101E400086E893E0F9CF87E893E0F6CF0F931F93EE
:101E5000CF93DF930FB7F894D0E0C0E0FE01E457D2
:101E6000FF4F1491CE010E944526181721F0612FD3
:101E7000CE010E944D262196C03181E0D80771F72E
:101E800081E893E00E944526813029F061E081E8F5
:101E900093E00E944D26CDE1D1E01FEF8991999109
:101EA000FC0111830E94EC06F1E0C334DF07B1F7B7
:101EB0000FBFDF91CF911F910F9108952F923F9205
:101EC0004F925F926F927F928F929F92AF92BF924A
:101ED000CF92DF92EF92FF920F931F93CF93DF93F6
:101EE00000D000D000D0CDB7DEB78C01E0E0AE2E40
:101EF000E0E0BE2EF0E02F2EF0E03F2E412C512CE2
:101F000032014394B0E08B2EB0E09B2E80E0C82ECF
:101F100080E0D82ED8015B960D90BC91A02DBD839A
:101F2000AC83109709F48DC28C91823409F4A7C157
:101F300008F053C08A3209F418C220F5843209F43B
:101F4000DCC198F4813209F4A4C1833209F4ADC133
:101F5000811116C0E0E0F0E0EF2B91F0AC81BD8183
:101F600011968C910E9400000BC0863209F4B1C119
:101F700008F4D1C1883209F4E1C1893209F4EAC117
:101F800080E04FC28F3209F41AC298F48C3209F4FF
:101F900001C208F4F4C18D3209F406C28E3281F711
:101FA000C114D10469F3EC81FD81618187E090E087
:101FB000CEC1813309F41BC208F40CC2803409F489
:101FC00052C18134E9F6A114B104D1F2AC81BD81D2
:101FD00011966C9182E090E04FC1853609F4E8C01B
:101FE00008F045C0803609F4C7C070F5803509F4A3
:101FF00084C160F4833421F6A114B10409F2AC81E8
:10200000BD8111966C9184E090E036C1813509F470
:1020100082C18E3509F0B4CFAC81BD811396ED91AC
:10202000FC911497309709F40CC280818F3509F028
:10203000A7CF20E030E0232B09F4A2CF91811196A5
:102040008C910E9400009CCF823609F4A4C008F451
:102050009BC0833609F4A5C0843609F091CFEC818A
:10206000FD81618185E090E00E94C30789CF8D36B4
:1020700009F4B8C0B8F4873609F4A7C008F49FC0C3
:10208000883609F4A9C08C3609F07ACF80E090E058
:10209000892B09F475CFAC81BD8111968C910E947A
:1020A00000006ECF873709F4ADC108F58E3609F010
:1020B00067CFAC81BD811396ED91FC911497309759
:1020C00009F4BFC180818F3609F05ACF2114310441
:1020D00009F456CF11962C91622F661F6627661F52
:1020E0008181B0E88B9FC0011124822BB9C08B374E
:1020F00009F4F7C18F3709F043CFAC81BD81119648
:10210000EC90F12CBFEFEB1ABCEFFB0AB701C80152
:102110000E94D605882309F483C1E5E8EE16E3E0C2
:10212000FE0609F47DC1FDEAEF16F3E0FF0609F4AF
:102130009EC225EDE21623E0F20609F498C234E8C7
:10214000E31633E0F30659F04CEAE41643E0F406F4
:1021500031F084EDE81683E0F80609F07AC2AC812C
:10216000BD8112968C91883009F073C20E94260FAF
:10217000C8010E94F9057BC2EC81FD81618181E08B
:1021800090E00E94590AFCCEAC81BD8111966C9101
:1021900082E090E0F6CFEC81FD81618183E090E008
:1021A000F0CFAC81BD8111966C9184E090E0E9CFD5
:1021B000AC81BD8111966C9186E090E055CFEC81A9
:1021C000FD81618187E090E04FCFAC81BD811196A8
:1021D0006C9188E090E048CFEC81FD81618189E0DD
:1021E00090E042CFAC81BD8111966C911197862F02
:1021F0008F7711968C93D8015B96ED91FC915C974B
:1022000081832114310409F4BBCE661F6627661F43
:102210005B96ED91FC918181811121C081E08093D9
:10222000D30161110EC08091D30187FDA9CE60E07A
:1022300090E00E9400008091D3018F5F8093D301D2
:10224000F2CF8091D30187FD9BCE61E090E00E94A8
:1022500000008091D3018F5F8093D301F2CF90E093
:102260000E9400008DCEA114B10409F489CEEC8146
:10227000FD81618181E090E00E94000081CEA11487
:10228000B10409F47DCEEC81FD81618183E090E0B1
:10229000F3CFE0E0F0E0EF2B09F472CEAC81BD812A
:1022A00011968C910E9400006BCEE0E0F0E0EF2BE5
:1022B00009F466CEAC81BD8111968C9190E087FFC8
:1022C00005C0819590E09195819591090E9400004B
:1022D00057CEE0E0F0E0EF2B09F452CEAC81BD81A7
:1022E00011968C9190E087FF05C0819590E09195C3
:1022F000819591090E94000043CEEC81FD8191817E
:1023000080E8890F70E060E097FF02C061E070E054
:102310000E94F70B35CE8114910409F431CEAC81C3
:10232000BD8111969C9180E8890F61E070E097FD76
:1023300002C070E060E00E94000022CEC114D1040F
:1023400009F41ECEEC81FD81618181E090E00E9464
:10235000000016CEC114D10409F412CEAC81BD81A7
:1023600011966C9182E090E0F2CFC114D10409F48F
:1023700007CEEC81FD81618183E090E0E8CFC1145C
:10238000D10409F4FDCDAC81BD8111966C9184E03E
:1023900090E0DDCFC114D10409F4F2CDEC81FD81D0
:1023A000618185E090E0D3CFC114D10409F4E8CD78
:1023B000AC81BD8111966C9186E090E0C8CFC114CC
:1023C000D10409F4DDCDAC81BD8111966C9188E01A
:1023D00090E0BDCFE0E0F0E0EF2B09F4D1CDAC818F
:1023E000BD8111966C9181E00E940000C9CDE0E0B2
:1023F000F0E0EF2B09F4C4CDAC81BD8111966C9156
:1024000082E0F2CFEC81FD81E180F12CFFEFEF1A49
:10241000FCEFFF0AB701C8010E94D60581112AC04E
:1024200081E0D8015B96ED91FC915C97238134812A
:10243000148213825C963C932E935B97813009F44F
:1024400069CD26960FB6F894DEBF0FBECDBFDF91E3
:10245000CF911F910F91FF90EF90DF90CF90BF90A1
:10246000AF909F908F907F906F905F904F903F9034
:102470002F90089521E8E21623E0F20601F134E8F6
:10248000E31633E0F30659F145E8E41643E0F406B9
:10249000A1F08CEAE81683E0F80609F19DEAE91656
:1024A00093E0F90651F0A4EDEA16A3E0FA06B9F0BC
:1024B000B5EDEB16B3E0FB0671F48AE002C0F8015B
:1024C0008081AC81BD8112969C919813A9CFC801DF
:1024D0000E94F905A5CFC7010E94500CF2CF8DE0F4
:1024E000F0CFEC81FD81F181F983EF2EF12C2FEFFC
:1024F000E21A2CEFF20AB701C8010E94D605882320
:1025000009F48ECFAC81BD811296BC91BA838B2F1A
:1025100090E09C0144E0359527954A95E1F7E22F3C
:10252000E170EE83E093D2019C0153E0359527954D
:102530005A95E1F7F22FF170FB83F093D1019C01E2
:1025400035952795422F4170440F95958795959520
:1025500087958170880F880F840FB170B80FBC8386
:10256000B093D00181E8E81683E0F806B9F4D80109
:102570008C918093CF01E130B1F18091CF0190E057
:102580000C8002C0959587950A94E2F7817099278F
:10259000BB81B817190609F043CF99CFE4E8EE16CE
:1025A000E3E0FE0651F0FCEAEF16F3E0FF0629F047
:1025B00024EDE21623E0F20691F58DE08093CF0141
:1025C0009E819130D1F6C70184589340029708F458
:1025D00027CF89818B5A823008F422CF8981835D8D
:1025E000823008F41DCFD301C2010C8004C0880FD3
:1025F000991FAA1FBB1F0A94D2F72091CF01EA812D
:10260000E3FF22C0822B8093CF016091CF01C701ED
:102610000E94F30E9091CF01891302CF58CF35E875
:10262000E31633E0F30651F04DEAE41643E0F40616
:1026300029F085EDE81683E0F80611F48AE0BECFB4
:10264000C7010E94500CBACF482F4095822F842397
:10265000DACFEC81FD816281C7010E94F30ED801BF
:102660005B96ED91FC919281891709F481CDB1E8D7
:10267000EB16B3E0FB0609F0D3CE81E893E00E94AD
:10268000F50BF8018083CCCEAF92BF92CF92DF9250
:10269000EF92FF920F931F93CF93DF93C091DD01D1
:1026A000D091DE011091CE0111111AC0FE0190E00F
:1026B00080E025813681232B09F05AC025E0289F30
:1026C000F001299FF00D11243296EC0FFD1FF093BD
:1026D000CD01E093CC01309709F43FC014821382FE
:1026E000A090CC01B090CD01A114B104B1F10E9431
:1026F000CD03C090C801D090C901E090CA01F0900C
:10270000CB016C197D098E099F096A30710581051D
:102710009105C8F11092CE010E94CD036093C801CB
:102720007093C9018093CA019093CB018D8D9E8DCA
:102730000E949D05F5019081882319F19160908395
:1027400081E08093CE010E9465036093C401709381
:10275000C5018093C6019093C701DF91CF911F916E
:102760000F91FF90EF90DF90CF90BF90AF900895C2
:10277000019635968530910509F09BCFF0E0E0E0B9
:10278000A6CF9E7FDCCF0E946503C090C401D0908D
:10279000C501E090C601F090C7016C197D098E0952
:1027A0009F096531710581059105B8F20E946503A5
:1027B0006C197D098E099F09643F7140810591055F
:1027C00060F68D8D9E8D212F2770C12CD12C760126
:1027D000C39404C0CC0CDD1CEE1CFF1C2A95D2F760
:1027E000103108F049C00E949D05E12FE695E6955D
:1027F000E695EA0DFB2DF11D8823D1F18081C82AD1
:10280000C08201E0010F0093CE010E946503609336
:10281000C4017093C5018093C6019093C701177FCF
:10282000173019F0083109F098CF0E94CD0360935A
:10283000C8017093C9018093CA019093CB01003104
:1028400041F1083109F089CF0B8D1C8D8091CC01AD
:102850009091CD019C8F8B8FCE010E945E0FE091F5
:10286000CC01F091CD01148213821C8F0B8F2CC0F0
:10287000C0948081C822C4CF0E949D05F501928139
:10288000882319F0C92AC282BCCFC0949C219283AC
:10289000B8CFA091CC01B091CD018C91982F977FAA
:1028A000973709F45ACF8B3709F457CFEB8DFC8D4E
:1028B000309721F4BC8FAB8F07C0FC0183819481DA
:1028C0000097D9F7B483A3831092CE0146CF1F930C
:1028D000CF93DF93EC01162F089779F4662319F153
:1028E0000E94260F80E090E0892BB9F0612FCE0185
:1028F000DF91CF911F910C94000080E090E0892B34
:10290000A9F781E0C11590E1D90708F080E0111125
:1029100005C0DF91CF911F91089581E027972297FD
:10292000C0F780E0F6CF80E090E0892BF9F681E0F7
:10293000F0CF0F931F93CF93DF9320912502222393
:1029400029F08F30910541F48FE090E0DF91CF9135
:102950001F910F910C94E00E162FEC018FE090E088
:102960000E94F50B082F80E190E00E94F50B081300
:102970000DC0C730D10531F0C830D10521F4183071
:1029800031F0FFCFFFCF612FCE01E0CFFFCF0E940C
:10299000260F88E0DF91CF911F910F910895833129
:1029A000910588F48131910530F48130910519F059
:1029B0008930910531F42FEF3FEF3093410220939E
:1029C00040020C9499148D319105D9F7677F60937B
:1029D000430220912D022F73362F307C232B20931E
:1029E0002D02E9CFCF93DF93E8E4F2E095E1DF0138
:1029F0001D929A95E9F722E930E03093470220933F
:102A0000460222E530E03093450220934402CDE2B5
:102A1000D2E0888319828FEF9FEF9C8B8B8B1D8A6E
:102A200083E080932C0243E050E063E574E0898901
:102A30000E944E048DE190E00E94C10C682F6F73DC
:102A40008DE190E00E94CF148E8B6AE087E090E0E9
:102A50000E94CF146DE088E090E00E94CF1480E0E7
:102A6000DF91CF910C94E60B89B78F7B89BF8CE601
:102A700092E090930E0180930D0181E00E94F21488
:102A800010922B0210922A0208950F931F930E9416
:102A900065030091260210912702209128023091AF
:102AA0002902601B710B820B930B613F79448240BA
:102AB000910508F456C08091250281110BC08091C8
:102AC0002A0290912B0281309105B1F188F0029792
:102AD00009F444C00E9465036093260270932702A4
:102AE000809328029093290281E01F910F9108950D
:102AF00080E390E00E94A30C80FF0EC041E050E014
:102B00006DEE77E086E00E94D90381E090E090933B
:102B10002B0280932A02DECF8DE190E00E94A30C6D
:102B200082FFD8CF41E050E06DE672E086E00E947F
:102B3000D90382E090E0EBCF89B78F7B89BF8CE629
:102B400092E090930E0180930D018DE190E00E9440
:102B5000A30C82FDE7CF0E943415BCCF1092240253
:102B6000FACF80E0C2CFBF92CF92DF92EF92FF9276
:102B70000F931F93CF93DF938B01B42E690182FFD4
:102B800023C083FF17C061E0C8010E946714882337
:102B9000D9F16B2DC8010E94CF148B1135C0F601FD
:102BA000DF91CF911F910F91FF90EF90DF90CF9029
:102BB000BF90099460E0C8010E946714882321F146
:102BC000C8010E94C10CE9CF842F8770C1E0D0E01A
:102BD0007E0101C0EE0C8A95EAF7D42FD870CB01A4
:102BE0000E94C10CC82FB4FE1CC061E0C8010E9445
:102BF0006714882349F0DD2389F0CE296C2FC801A2
:102C00000E94CF148C1759F2DF91CF911F910F9131
:102C1000FF90EF90DF90CF90BF900895E094CE2189
:102C2000EDCF60E0C8010E946714882369F3CE21CC
:102C3000DD2319F0C111B3CFE7CFCC2309F4AFCF17
:102C4000E3CFCF92DF92EF92FF920F931F93CF9338
:102C5000DF937C016B01C42F122FD42FD07E809183
:102C60002D0287FF2CC0D03EC1F580912E02882313
:102C7000A1F190E00E94C10CD82F80912E0290E02B
:102C800001960E94C10C982F8D2FE816F90629F5A0
:102C90006C2F70E0762F662766277370612B6F5F4D
:102CA0007F4F2AE136E0402F8C2FDF91CF911F918B
:102CB0000F91FF90EF90DF90CF900C94B31580FDB3
:102CC00032C0D03609F464C088F4D03209F447C069
:102CD000D03409F45DC0DD2379F1DF91CF911F91EC
:102CE0000F91FF90EF90DF90CF900895D03A09F4C4
:102CF00083C090F42C2F2F7141E050E0D03869F759
:102D0000B601C701DF91CF911F910F91FF90EF9016
:102D1000DF90CF900C94130DD03C09F476C0D03ED8
:102D200009F4B6CFDACF0E94C30C8E159F0549F285
:102D3000E114F10431F2D1CF8C2F8E7071F680E066
:102D400090E0892B51F28C2F8170DF91CF911F91F0
:102D50000F91FF90EF90DF90CF900C940000CF7117
:102D6000CF3109F0BACF412F4F7771F0413071F078
:102D7000111F1127111F212F30E00FE710E0B601BE
:102D8000C7010E94810EA9CF41E0F2CF40E0F0CF11
:102D90002C2F30E08C2F8F71813029F030F0803172
:102DA00021F08131F9F440E001C041E025FB222708
:102DB00020F90DE110E030E0B601C7010E94810E5C
:102DC00080E090E0892B09F488CF4C2FB601C70131
:102DD000DF91CF911F910F91FF90EF90DF90CF90F7
:102DE0000C940000C901880F991F8E71C4FB442701
:102DF00040F9482B4250DACF2C2F2F7043E050E09F
:102E0000C4FF7ECF42E050E07BCFCF71CE3139F0AE
:102E1000CF3109F062CF212F45E050E071CF212F53
:102E200044E050E06DCFCF93DF9300D000D01F92ED
:102E3000CDB7DEB718161906E4F588EA92E00E94CD
:102E40006506992783309105E1F18CF48130910575
:102E500009F460C00297E9F09091E3018091E401E8
:102E6000981739F188EA92E00E946506F5CF85301F
:102E7000910509F444C0A4F1069771F763E0CE010F
:102E800001960E948F076B8189819A810E94590A5D
:102E900010C065E0CE0101960E948F0780E090E0AF
:102EA000892B39F04C815D816A817B8189810E9407
:102EB00000000F900F900F900F900F90DF91CF9127
:102EC000089563E0CE0101960E948F0780E090E0B4
:102ED000892B79F36B8189819A810E940000E9CF67
:102EE00063E0CE0101960E948F0780E090E0892B7D
:102EF00001F36A817B8189810E940000DACF63E05F
:102F0000CE0101960E948F076A817B8189810E9490
:102F1000F70BCFCF64E089E591E00E948F078091A5
:102F20005C01882361F0813009F096CF60915901EE
:102F300080915A0190915B010E94991406C0809182
:102F40005A0190915B010E94A30C8093590184CF98
:102F5000CF92DF92EF92FF920F931F93CF93DF9365
:102F6000EC017B0141305105F9F4CD80DE802496DF
:102F7000C114D104E9F462E070E081E090E00E94C5
:102F80008B268C01009731F0FC01F182E082888170
:102F90008F5F8883C801DF91CF911F910F91FF90C0
:102FA000EF90DF90CF900895C884D9842796E0CF22
:102FB00088818F5F8883C82FD0E062E070E0CE0107
:102FC0000E948B268C0120E0BE0161507109822F86
:102FD00090E08617970774F4880F991FF601E80FA1
:102FE000F91F40815181800F911FFC015183408363
:102FF0002F5FEDCFC150D048CC0FDD1FC00FD11FC8
:10300000F982E882C6010E944327C4CF1F920F9223
:103010000FB60F9211242F933F938F939F93AF93EB
:10302000BF938091D5019091D601A091D701B09125
:10303000D8013091D40123E0230F2D3768F126E821
:10304000230F0296A11DB11D2093D4018093D501B9
:103050009093D601A093D701B093D8018091D90164
:103060009091DA01A091DB01B091DC010196A11DE4
:10307000B11D8093D9019093DA01A093DB01B09345
:10308000DC01BF91AF919F918F913F912F910F9054
:103090000FBE0F901F9018950196A11DB11DD4CFA2
:1030A0001F920F920FB60F9211240BB60F922F930F
:1030B0003F934F935F936F937F938F939F93AF93C0
:1030C000BF93EF93FF93E0910F01F09110010995E9
:1030D000FF91EF91BF91AF919F918F917F916F91F0
:1030E0005F914F913F912F910F900BBE0F900FBEAC
:1030F0000F901F9018951F920F920FB60F921124E8
:103100000BB60F922F933F934F935F936F937F93E1
:103110008F939F93AF93BF93EF93FF93E0910D0134
:10312000F0910E010995FF91EF91BF91AF919F91A1
:103130008F917F916F915F914F913F912F910F9060
:103140000BBE0F900FBE0F901F9018951F920F92FD
:103150000FB60F9211240BB60F922F933F934F93FC
:103160005F936F937F938F939F93AF93BF93EF93EF
:10317000FF93E0910B01F0910C010995FF91EF9104
:10318000BF91AF919F918F917F916F915F914F917F
:103190003F912F910F900BBE0F900FBE0F901F907D
:1031A00018951F920F920FB60F9211240BB60F9223
:1031B0002F933F934F935F936F937F938F939F933F
:1031C000AF93BF93EF93FF93E0910901F0910A0150
:1031D0000995FF91EF91BF91AF919F918F917F9151
:1031E0006F915F914F913F912F910F900BBE0F9078
:1031F0000FBE0F901F9018951F920F920FB60F924F
:1032000011240BB60F922F933F934F935F936F93BD
:103210007F938F939F93AF93BF93EF93FF93E0912F
:103220000701F09108010995FF91EF91BF91AF91CE
:103230009F918F917F916F915F914F913F912F91CE
:103240000F900BBE0F900FBE0F901F9018951F92FE
:103250000F920FB60F9211240BB60F922F933F933C
:103260004F935F936F937F938F939F93AF93BF938E
:10327000EF93FF93E0910501F09106010995FF910D
:10328000EF91BF91AF919F918F917F916F915F91DE
:103290004F913F912F910F900BBE0F900FBE0F904B
:1032A0001F9018951F920F920FB60F9211240BB614
:1032B0000F922F933F934F935F936F937F938F93CF
:1032C0009F93AF93BF93EF93FF93E0910301F0912E
:1032D00004010995FF91EF91BF91AF919F918F915B
:1032E0007F916F915F914F913F912F910F900BBE06
:1032F0000F900FBE0F901F9018951F920F920FB650
:103300000F9211240BB60F922F933F934F935F931D
:103310006F937F938F939F93AF93BF93EF93FF939D
:10332000E0910101F09102010995FF91EF91BF91A8
:10333000AF919F918F917F916F915F914F913F914D
:103340002F910F900BBE0F900FBE0F901F901895EE
:103350001F920F920FB60F9211240BB60F922F935C
:103360003F934F935F936F937F938F939F93AF930D
:10337000BF93EF93FF9380917100887F803609F4AB
:103380004DC008F040C0883209F4A9C028F580314A
:1033900009F49DC0C8F4882309F4FBC0883009F4FF
:1033A00096C0FF91EF91BF91AF919F918F917F91C7
:1033B0006F915F914F913F912F910F900BBE0F90A6
:1033C0000FBE0F901F901895883109F488C0803285
:1033D00041F78093810214C0803409F49DC040F409
:1033E0008033B9F38833E9F68093810285ECB0C06D
:1033F000803509F485C0883509F496C0883489F68B
:103400000E942406CECF883909F48CC038F588375D
:1034100029F050F4883611F0803719F683E0809354
:1034200083021092BF0157C0883809F47BC08039ED
:1034300019F0803809F0B5CF8091BF01803208F0D3
:1034400071C0E091BF0181E08E0F8093BF01809138
:103450007300F0E0E156FE4F80833DC0803B39F0C1
:10346000E0F4803A09F479C0883A09F09ACF84E010
:103470008093830210929E0110929D01E091E101E0
:10348000F091E201099580919D0181110FC081E0C9
:1034900080939D0110927D0109C0803C09F4A6CF64
:1034A000883C09F4A3CF883B09F07BCFE0919E01D3
:1034B00081E08E0F80939E01F0E0E358FE4F808103
:1034C0008093730090919E0180919D0129C080910D
:1034D0005E028093730085EC8093740062CF9091BC
:1034E000800280917F02981758F5E091800281E078
:1034F0008E0F80938002F0E0E15AFD4F8081E9CF8A
:10350000E091800281E08E0F8093800280917300B1
:10351000F0E0E15AFD4F80839091800280917F021C
:103520009817C8F285E8D8CFE091800281E08E0F2D
:103530008093800280917300F0E0E15AFD4F808318
:103540008091820281115CCF81E080935D0284EAE8
:10355000809374001092830224CF85EC80937400D2
:10356000109283028091BF01803230F4E091BF015C
:10357000F0E0E156FE4F10826091BF0170E0E091F3
:10358000DF01F091E0018FE991E009951092BF0110
:1035900008CF1092810234CF1F920F920FB60F9274
:1035A00011248F939F9378948091FC019091FB015B
:1035B000891708F08AC09091620098609093620029
:1035C0009091FA01891708F084C0DC9A9091F90172
:1035D000891708F080C09091620090649093620017
:1035E0009091F801891708F07AC09091620090627A
:1035F000909362009091F701891708F074C0C69A01
:103600009091F601891708F070C0C59A9091F50164
:10361000891708F06CC0C49A9091F401891708F0DA
:1036200068C01D9A9091F301891708F064C01C9A34
:103630009091F201891708F060C01B9A9091F101F6
:10364000891708F05CC090916200916090936200CD
:103650009091F001891708F056C0C79A9091EF0138
:10366000891708F052C0DE9A9091EE01891708F090
:103670004EC0DF9A9091ED01891708F04AC0969AE2
:103680009091EC01891708F046C0979A9091EB0150
:10369000891708F042C0DD9A9091EA01891708F075
:1036A0003EC0DB9A9091E9018917D8F590916200AC
:1036B0009061909362008F5F8093FC019F918F9146
:1036C0000F900FBE0F901F90189590916200977FFA
:1036D00075CFDC987BCF909162009F7B7FCF9091DC
:1036E00062009F7D85CFC6988BCFC5988FCFC49839
:1036F00093CF1D9897CF1C989BCF1B989FCF9091ED
:1037000062009E7FA3CFC798A9CFDE98ADCFDF9888
:10371000B1CF9698B5CF9798B9CFDD98BDCFDB984C
:10372000C1CF909162009F7EC4CFCF93DF93EC0115
:1037300061E088810E94340360E08881DF91CF914D
:103740000C940603EF92FF920F931F93CF93DF9396
:103750001092AB021092AA0288EE93E0A0E0B0E0D3
:103760008093AC029093AD02A093AE02B093AF02EF
:1037700087E491E09093A9028093A8021092B60288
:103780001092B7021092B8021092B9021092BA02C7
:103790001092BB021092BC021092BD021092BE02A7
:1037A0001092BF021092C00286E090E09093B502A2
:1037B0008093B40283E190E00E94F50BC82F82E170
:1037C00090E00E94F50BD82F81E190E00E94F50B6C
:1037D000182F81E090E00E94F50B21E030E030935B
:1037E000A5062093A4063093A7062093A606109260
:1037F000A8061092AC061092AE061092AD06809309
:103800009F06212F205C330BC9012D2F382FC901B2
:103810009093A1068093A006CF77C093A206109242
:10382000A3068DE18093A90662E070E08DE190E04F
:103830000E948B269093AB068093AA060097C9F04E
:10384000EC0110E0EE24E394F12C8AE090E00E9479
:10385000A726FC01F282E18213821482168215826D
:103860001782118610861083899399931F5F1D31EB
:1038700061F766E08FEB96E00E94B20564E389EBA6
:1038800096E00E94B20581E380931F07C2E0C093D7
:10389000210710922207DFEFD09320071092230711
:1038A0008FE197E00E94951B89E280931A07C093ED
:1038B0001C0781E080931D07D0931B0710921E0701
:1038C0008AE197E00E94951B87E280931507C093D9
:1038D0001707C0931807D09316071092190785E1B0
:1038E00097E00E94951B89E180931007C09312070F
:1038F00083E0E82EE0921307D0931107109214078B
:1039000080E197E00E94951B88E180930B07C093AC
:103910000D0794E0F92EF0920E07D0930C07109249
:103920000F078BE097E00E94951B85E280930607C6
:10393000C093080705E000930907D093070710928A
:103940000A0786E097E00E94951B86E280930107B4
:10395000C093030786E080930407D0930207109278
:10396000050781E097E00E94951B1FE01093FC067D
:10397000C093FE0687E08093FF06D093FD06109269
:1039800000078CEF96E00E94951B8DE28093F7066E
:10399000C093F90688E08093FA06D093F806109257
:1039A000FB0687EF96E00E94951BE092F206C0931B
:1039B000F40689E08093F506D093F3061092F6069C
:1039C00082EF96E00E94951BF092ED06C093EF0601
:1039D0008AE08093F006D093EE061092F1068DEE09
:1039E00096E00E94951B0093E806C093EA068BE0E0
:1039F0008093EB06D093E9061092EC0688EE96E0F1
:103A00000E94951B8CE08093E306C093E5068093AB
:103A1000E606D093E4061092E70683EE96E00E9455
:103A2000951B8DE08093DE06C093E0068093E1064F
:103A3000D093DF061092E2068EED96E00E94951B71
:103A40008EE08093D906C093DB068093DC06D0938A
:103A5000DA061092DD0689ED96E00E94951B82E35E
:103A60008093D406C093D6061093D706D093D5067C
:103A70001092D80684ED96E00E94951B83E3809314
:103A8000CF06C093D10680E18093D206D093D006B2
:103A90001092D3068FEC96E00E94951B88E28093EB
:103AA000CA06C093CC0681E18093CD06D093CB06A5
:103AB0001092CE068AEC96E00E94951B80E38093DC
:103AC000C506C093C70682E18093C806D093C60698
:103AD0001092C90685EC96E0DF91CF911F910F916E
:103AE000FF90EF900C94951BCF93DF93CDB7DEB78B
:103AF00062970FB6F894DEBF0FBECDBF789483B740
:103B00008C6483BF87B7816087BF82E08EBD8EB52E
:103B100081608EBD8FB581608FBD85B5846085BDA8
:103B200085B5806485BD80918A00836080938A001A
:103B300080918B00816080938B0087E886B91AB8EA
:103B40000FB6F894A89581B5886181BD11BC0FBEF0
:103B50002FB7F89490E080E0FC01E751FE4F10820F
:103B6000019683319105C1F780916200877F809330
:103B70006200DC98809162008F7B8093620080916C
:103B800062008F7D80936200C698C598C4981D9886
:103B90001C981B98809162008E7F80936200C7986A
:103BA000DE98DF9896989798DD98DB988091620070
:103BB0008F7E809362002FBF9FB7F8948091610041
:103BC000886080936100D49A8091610080648093C2
:103BD000610080916100806280936100BE9ABD9A0D
:103BE000BC9A159A149A139A80916100816080930F
:103BF0006100BF9AD69AD79A8E9A8F9AD59AD39AFD
:103C0000809161008061809361009FBF1FBC89E04B
:103C10008EBD8CE093E09BBD8ABD87B7806187BF76
:103C20001092FC0161E08FE10E94340360E08FEBB1
:103C300096E00E94A702E091BB06F091BC0690813D
:103C40008091BA06809589238083E091BD06F0912A
:103C5000BE0680819091BA06892B80832CEBC22E00
:103C600021E0D22E3DE1E32E31E0F32E43E4842E19
:103C700041E0942E77247394F601049110E0C8017A
:103C80000E94F50B682EC80101960E94F50BB82E14
:103C9000C80102960E94F50BA82EC80103960E9447
:103CA000F50B9091A906691610F5D7010D911C919D
:103CB000F801A1828483862DB110C1C00E94E90160
:103CC0005C0141E050E0B8010E94A817D5011696AA
:103CD0009C938E931597862D0E94E9015C0150E01C
:103CE00040E0B8010E94A817F50191878087A89548
:103CF000B2E0CB0ED11CE2E0EE0EF11C8E149F045C
:103D000009F0BACF61E070E084E090E00E948B2679
:103D10009093AE068093AD06892B91F010E000E001
:103D2000E090AD06F090AE06E00EF11E802F0E94EE
:103D3000920CD7018C930F5F1F4F0430110581F750
:103D400080E00E947E0C082F10E081E00E947E0C33
:103D5000282F30E0322F222722273E7F000F111F0D
:103D6000202B312B3093B0062093AF0680FF05C087
:103D700021603093B0062093AF0660E08AE10E9494
:103D80003403E0EAF2E08491EBE6F2E00491E6E34A
:103D9000F2E0149111116EC0FF24F394F0920F021F
:103DA0008FE190E00E94A7268C0187E0F8018183D3
:103DB00086E090E00E94A7266C0168E00E94B205B0
:103DC000D8015E96DC92CE925D9710930E0200931E
:103DD0000D0281E893E00E94F50BF80180838430A6
:103DE00008F04EC11093DE010093DD0160E0F801A0
:103DF00081810E94340360E0D8015D968D919C9191
:103E00000E94A702F8011682158213861286108A74
:103E10001786158A148A128E118E148E138E818144
:103E20009CEF980F943020F08251843008F08FEF8F
:103E300042E050E064E473E10E944E042AC00E9414
:103E4000E901DC0113967C92B0E8BB1609F443CF7C
:103E5000F1E8BF124CCF862D0E94E9015C0141E0E0
:103E600050E0B8010E94A817D50116969C938E9336
:103E700015973DCF81110E94D102E12FF0E0EE0FA6
:103E8000FF1FE45FFD4FA591B491EC91E02309F48D
:103E900083CF81E090E00E94F50B21E030E0309389
:103EA0000202209301028093030281E190E00E94CC
:103EB000F50B21E130E0309305022093040280935A
:103EC000060282E190E00E94F50B22E130E030939F
:103ED000080220930702809309028DE190E00E947E
:103EE000A30C81FDCFC08DE190E090930B028093F5
:103EF0000A0210920C0286E080933E0280933F02F9
:103F000060E00E94340361E086E00E94060380E0E6
:103F10000E94F21483E197E19093E8018093E70116
:103F20008CEA96E09093E6018093E5011092E4011B
:103F30001092E301109285021092A7021092830260
:103F400081E08093820210925D0261E083E10E9431
:103F5000060361E082E10E940603809171008E7F7A
:103F600080937100809171008D7F8093710088E44F
:103F70008093700085E48093740081E792E09093D1
:103F8000E2018093E1018DE792E09093E00180935C
:103F9000DF0182E0809372008CE0809370000E94C9
:103FA0009C0B88E19BE00FB6F894A89581BD0FBEED
:103FB00091BD72E0472E512C80911C0281110DC0E1
:103FC0000E94650360932602709327028093280263
:103FD0009093290281E080931C0280911402811148
:103FE0000DC00E94CD036093100270931102809364
:103FF00012029093130281E08093140280912A02AE
:1040000090912B028130910509F4D7C208F454C075
:10401000029709F400C6A89580910F02882339F011
:1040200080910D0290910E020E945E0FA8958091E2
:104030000001882309F4C0CF0E94CD030091100233
:10404000109111022091120230911302601B710B2A
:10405000820B930B693E73408105910508F4ACCF48
:104060000E949C0B8111109200010E94CD0360936D
:10407000100270931102809312029093130299CF51
:10408000F082B0CE8DE190E00E94A30C85FD0DC0C2
:104090008091170190911801A091190180930A0253
:1040A00090930B02A0930C0226CF80911A0190915D
:1040B0001B01A0911C01F2CF80912F028823B1F047
:1040C0000E94CD0300913002109131022091320202
:1040D00030913302601B710B820B930B65317105BC
:1040E0008105910518F080E00E94E60B80914A025C
:1040F000882309F445C0F89488E0E5E5F2E0A1EBF7
:10410000B6E001900D928A95E1F710924A027894F8
:1041100030915502E7E5F2E090E080E0391721F0B8
:10412000219182279F5FFACF81112AC080E090E021
:10413000892B21F081EB96E00E9400008091B3066C
:10414000811125C09091B406911121C080E090E0CA
:10415000892B19F080E00E94000080912F028823B3
:1041600091F081E00E94DF080E9446090E946503E9
:10417000609326027093270280932802909329026D
:104180000E94451548CF81E00E94E60BEDCF90914B
:104190002F02992309F486C08057803108F07FC030
:1041A00081E00E94DF081091B10680913602181359
:1041B0000AC0412F50E068E372E083EB96E00E9472
:1041C000CC27892B61F01092350288E0E1EBF6E014
:1041D000A6E3B2E001900D928A95E1F7C5CF8091F8
:1041E00035028F5F80933502133009F040C0909103
:1041F000B306892F8770F090B406853029F4F092C9
:1042000034020E94BD03B0CF0DE110E0843091F084
:10421000282F30E08430F0F4009134020023D1F0F4
:104220000150110B000F111F000F111F020F131F60
:104230000F5F1F4F93FF10C061E0C8010E94671419
:10424000882309F491CF6F2DC8010E94CF14F81272
:104250008BCFD7CF8901ECCF60E0C8010E946714F3
:10426000882309F481CFC8010E94C10CF0CF14301B
:1042700009F07ACF8091B306682F70E0762F662719
:10428000662773709091B406692B6F5F7F4F2BEC9C
:1042900033E04091B5068C700E94B31565CF80E085
:1042A0000E94E60BE091B306EF3F61F48091B40603
:1042B00081115ACF80E090E0892B09F455CF0E94FC
:1042C000000052CFE7FD0DC00091B6062091B50663
:1042D0004091B40670E060E08E2F90E00E942116BD
:1042E00043CFE03C08F058C130912D0237FF3CCF5E
:1042F0002091B406822F90E08C0100951095000F5C
:10430000111F000F111F007C1170EF730E2B95957C
:104310008795F82FF370BF2E8091B106853041F557
:104320002C782C3029F50E94C30C8017910721F0BE
:104330000F3F114009F018CF8091B40690E0982FFC
:104340008827882793700091B506080F192F111D33
:104350000F5F1F4FF090B60661E0C8010E9467141E
:104360006F2D882309F400CFC8010E94CF14FCCE22
:10437000680141E0C41AD108CC0CDD1CCC0CDD1C5A
:10438000CB2876015FEFE51AF50A80914202882377
:10439000F9F036FF41C0C70160E071E00E945A2683
:1043A000682F81E090E00E94CF14C701F7FE02C0A1
:1043B00081509F4F692F89E090E00E94CF1480E0E8
:1043C00090E0892B19F0C7010E9400001092420270
:1043D00080912D0280FD39C08091B106843009F0B2
:1043E0004FC08091B4068978813009F0BDCE6091CC
:1043F000B50680E090E0892B19F0C7010E9400000B
:1044000080E090E0892B09F4AFCE4091B5066B2D8A
:10441000C7010E940000A8CEB8016F73772781E022
:1044200090E00E94CF14B801E6E075956795EA9593
:10443000E1F789E090E00E94CF1480E090E0892BC2
:1044400029F2C8010E940000C1CF86FF0DC00E9462
:10445000C30C8E159F0509F4BFCF8DEFE81687E0DA
:10446000F8060CF0B9CF80CE0E94C30C80179107DC
:1044700009F4B2CF0F3F91E0190709F4ADCF74CE24
:10448000833069F54091B406A42FA170CA2E43FB76
:10449000DD24D0F880E090E0892B31F047702D2D9D
:1044A000B801C7010E94000080912D0286FF0BC059
:1044B00080E090E0892B09F457CE4D2D6C2DC7017B
:1044C0000E94000051CE80E090E0892B09F44CCE90
:1044D0002D2D4C2D6B2DC8010E94000045CE86303D
:1044E00009F042CE8091B406982F9978913021F04E
:1044F0008F78803809F038CE80912D0286FF28C051
:104500000E94C30C8E159F05E9F48091B50690E0DA
:10451000382F2227222733700091B606020F132F5F
:10452000111D0F5F1F4FF090B706959587959595D4
:104530008795837099278230910599F0039709F444
:104540000BCF12CEBDEFEB16B7E0FB06F4F60CCEA8
:104550000E94C30C80179107C1F20F3F1140A9F2CE
:1045600003CEF4FE01CE61E0C8010E9467148823E7
:1045700009F4FACDC8010E94C10C9F2D977061E02B
:1045800070E001C0660F9A95EAF7F3FE02C0682B4F
:10459000EBCE60956823E8CEE83E08F0E5CDE05C20
:1045A000FF0B8091B4060091B7062091B6064091AA
:1045B000B50661E070E09E2F91CE00E113E09AE035
:1045C000E92EF12CDD24D39423E6C22E33E0B32E62
:1045D00042E0A42E5BE1352ED8011B968D919C9173
:1045E000019709F03FC1F801E654F10980819181FA
:1045F000329660807180680E791EF801118A128AE5
:10460000168212861586168617861782108A138AD6
:104610001186158214829301359527954801FCE592
:104620008F1A9108F40161E070E086899789A72FBD
:10463000A69541E050E04C0F5D1F4A0F511DDA0175
:1046400041E0281739070CF040E04C93713248F4F0
:10465000408D518D840F951F8E579109C19708F495
:1046600060E07E5F3496743201F7FE013196CE9C95
:104670009001CF9C300D112442E956E0421B530BB0
:1046800090E080E0708171118FC071817111A6C0BE
:10469000D401A80FB91F1D961C920196329689303D
:1046A000910581F7F80180819181A281B3818551C3
:1046B0009540A109B10983359B40A105B10508F0DA
:1046C00070C1662309F46DC181E046E96416710486
:1046D0000CF080E0D80151968C93F801EC54F1096C
:1046E000908131978081B9E08B9F802D1124939D1B
:1046F000800D112432979081890F31964081942F3B
:10470000990F940F890FF8018683EB54F10946E95C
:10471000641671040CF430C181E09081913009F08D
:1047200080E0D8011D968C938989880F9F85890F19
:10473000880F9D85890F880F9B85890F91E009F06F
:1047400090E0F801968791E0813009F090E0D8017F
:104750001F969C9381118150F80187838289882359
:1047600009F456C08C85880F9E85890F880F98891B
:10477000890F880F9A89890FEEEFE80FEE3008F065
:1047800047C0F0E0EA53FC4D0C946E26FB23FB235C
:1047900003240324A824A82408240824AD24AD2439
:1047A000B124B124B624B6247130C1F42180A1E033
:1047B0002A1206C0DA01A80FB91F1D962C926DCFE0
:1047C00021100CC0D401A80FB91F1D96AC928530E2
:1047D00008F463CFD80152967C935FCF853048F0C0
:1047E000DA01A80FB91F1D96BC92D8015296DC922F
:1047F00054CF60E057CFD8011996AC9219978170C9
:1048000053968C9305C041E050E0F80155834483F2
:1048100089E090E0FAE0EF16F10411F08E199F099B
:10482000D8011C965C924E921B97C89EB001C99EFF
:10483000700D1124FB01E55EFC4F80819181029790
:1048400089F46F537D4F49E050E08FE996E0821B79
:10485000930B0E94CC27892B29F423E030E0F80148
:1048600034872387F1E0EF1AF1080D591F4FE11447
:10487000F10409F0B1CEEBE1F3E090E080E02081BB
:1048800031812330310509F094C023E6289F80014F
:10489000299F100D1124F801E55EFC4F84E090E0A3
:1048A000918380830F531D4F0115110509F468CCC6
:1048B000780125E5E20EF11CD701EC91F0E0809142
:1048C00003029F01281B3109C9012130310509F478
:1048D000DDC00CF076C0892B09F046CC8091000237
:1048E000D801A45ABF4F9C91992309F491C08061CB
:1048F0008093000290910002D801A85ABF4F8C917A
:10490000823009F4A0C008F085C0813009F48FC05E
:104910002091000241E050E070E060E0CF010E9491
:10492000130DF801ED5AFF4F80819181813091057F
:1049300009F09FC03396809103020DE110E021E061
:1049400030E0408170E060E090E00E94810E0CCC8D
:10495000D8011996BC92199752CFF801558244821A
:1049600057CFD8011996DC92199749CF44E0F80146
:1049700041878170838B4CCF8081811112C08F85DC
:10498000880F9D85890F880F9B85890FD8011A96FE
:104990008C9381E09989913009F080E0F801808B57
:1049A00037CFE5E0F0E0D8011C96FC93EE931B971F
:1049B00059CF0196ED59FF4F8A30910509F05FCF2D
:1049C000DFCB2230310509F4ADC02330310509F0C9
:1049D000CBCB80E390E00E94A30C83FFC5CB8091FA
:1049E000FD01F801E85AFF4F9081923009F4FDC0B3
:1049F00008F0E2C0913009F4ECC0D7018C9120910D
:104A0000FD0144E050E070E060E08350990B59C034
:104A10008F7E6ECF833009F1843009F079CFD801D1
:104A2000AE59BF4F8C91882311F1986007C0D8010F
:104A3000AE59BF4F8C91882321F091609093000272
:104A400067CF9E7FFBCFD801AE59BF4F8C91882393
:104A500011F09260F3CF9D7FF1CFD801AE59BF4FD7
:104A60008C91882311F09460E9CF9B7FE7CF977FEB
:104A7000E5CF029709F078CBF801EA5AFF4F809111
:104A800003020DE110E030E020E05BCF80E390E036
:104A90000E94A30C81FF68CB8091FF01F801E85AC6
:104AA000FF4F9081923041F178F49130C9F0D701F5
:104AB0008C912091FF0142E050E070E060E0815075
:104AC000990B0E94130D50CB933001F1943079F77C
:104AD000F801EE59FF4F9081992311F1886007C0CA
:104AE000F801EE59FF4F9081992321F08160809366
:104AF000FF01DDCF8E7FFBCFF801EE59FF4F908194
:104B0000992311F08260F3CF8D7FF1CFF801EE5938
:104B1000FF4F9081992311F08460E9CF8B7FE7CF1D
:104B2000877FE5CF80E390E00E94A30C82FF1CCB3F
:104B30008091FE01F801E85AFF4F9081923031F1E7
:104B400068F49130B9F0F70180812091FE0143E0D3
:104B500050E070E060E08250990BB3CF933001F1E8
:104B6000943089F7F801EE59FF4F9081992311F1A4
:104B7000886007C0F801EE59FF4F9081992321F01A
:104B800081608093FE01DFCF8E7FFBCFF801EE596D
:104B9000FF4F9081992311F08260F3CF8D7FF1CF89
:104BA000F801EE59FF4F9081992311F08460E9CF0D
:104BB0008B7FE7CF877FE5CF933009F1943009F001
:104BC0001CCFF801EE59FF4F9081992311F18860B5
:104BD00007C0F801EE59FF4F9081992321F08160C1
:104BE0008093FD010ACF8E7FFBCFF801EE59FF4F76
:104BF0009081992311F08260F3CF8D7FF1CFF8017E
:104C0000EE59FF4F9081992311F08460E9CF8B7F9B
:104C1000E7CF877FE5CF0E94060A80912402882390
:104C2000E1F089EB96E00E949D058111A9CA80916F
:104C3000A4069091A506019769F490E080E00E9497
:104C4000450A0E94060A89EB96E00E949D0588238A
:104C5000D1F396CA81E090E0F2CF8FEB96E00E940C
:104C60009D05811105C081E090E00E94450A88CA37
:104C700090E080E0FACF60E089EB96E00E94A70226
:104C800060E08FEB96E00C94A702E199FECF9FBB0A
:104C90008EBBE09A99278DB30895262FE199FECF18
:104CA0009FBB8EBB2DBB0FB6F894E29AE19A0FBE64
:104CB0000196089597FB072E16F4009407D077FD10
:104CC00009D00E94772607FC05D03EF49095819587
:104CD0009F4F0895709561957F4F0895EE0FFF1FC8
:104CE0000024001C0BBE0790F691E02D0994AA1B2E
:104CF000BB1B51E107C0AA1FBB1FA617B70710F0C7
:104D0000A61BB70B881F991F5A95A9F780959095F8
:104D1000BC01CD0108950F931F93CF93DF93869F1E
:104D20008001879F100D969F100D1124C8010E94CD
:104D3000A726EC01009729F0A80170E060E00E942E
:104D4000D927CE01DF91CF911F910F9108950F9335
:104D50001F93CF93DF938230910510F482E090E0AF
:104D6000E0912607F091270730E020E0B0E0A0E0D6
:104D7000309799F42115310509F44AC0281B390BE5
:104D800024303105D8F58A819B816115710589F13F
:104D9000FB0193838283FE0111C040815181028116
:104DA000138148175907E0F04817590799F41097ED
:104DB00061F012960C93129713961C933296CF01C2
:104DC000DF91CF911F910F910895009326071093C3
:104DD0002707F4CF2115310551F04217530738F05A
:104DE000A901DB019A01BD01DF01F801C1CFEF018B
:104DF000F9CF9093270780932607CDCFFE01E20FCE
:104E0000F31F819391932250310939832883D7CF9F
:104E10002091240730912507232B41F42091130181
:104E2000309114013093250720932407209111011C
:104E3000309112012115310541F42DB73EB7409153
:104E4000150150911601241B350BE0912407F091B8
:104E50002507E217F307A0F42E1B3F0B281739078D
:104E600078F0AC014E5F5F4F2417350748F04E0FC6
:104E70005F1F5093250740932407819391939FCF01
:104E8000F0E0E0E09CCFCF93DF930097E9F0FC01E6
:104E9000329713821282A0912607B0912707ED0165
:104EA00030E020E01097A1F420813181820F931F20
:104EB00020912407309125072817390709F061C090
:104EC000F0932507E0932407DF91CF910895EA013D
:104ED000CE17DF07E8F54A815B819E014115510538
:104EE000B1F7E901FB83EA8349915991C40FD51FBA
:104EF000EC17FD0761F4808191810296840F951F64
:104F0000E90199838883828193819B838A83F0E07E
:104F1000E0E012968D919C9113970097B9F52D9131
:104F20003C911197CD010296820F931F2091240787
:104F3000309125072817390739F6309751F5109227
:104F4000270710922607B0932507A0932407BCCF0C
:104F5000D383C28340815181840F951FC817D9071D
:104F600061F44E5F5F4F88819981480F591F5183CB
:104F700040838A819B81938382832115310509F0C7
:104F8000B0CFF0932707E09326079ECFFD01DC0109
:104F9000C0CF13821282D7CFFB01DC0104C08D91F8
:104FA0000190801921F441505040C8F7881B990B9B
:104FB0000895DC0101C06D9341505040E0F7089521
:104FC00011E0CFE5D1E004C0FE010E946E262196DB
:0A4FD000C036D107C9F7F894FFCFEF
:104FDA00016C020000000000000000000000000058
:104FEA00000000280780001D00021D00221F071A6A
:104FFA0007150710070B0706070107FC06F706F255
:10500A0006ED06E806E306DE06D906D406CF06CA8A
:10501A0006C50600000000B4067F06E306550678BA
:06502A00066506560600B3
:00000001FF
