:100000000C9460010C94E4120C94B9120C948E12AE
:100010000C9463120C9438120C940D120C94E2118F
:100020000C94B7110C948A010C948A010C948A01E7
:100030000C94D0140C948A010C948A010C948A01BB
:100040000C946D110C948A010C948A010C948A0111
:100050000C948A010C948A010C948A010C948A01F4
:100060000C948A010C948A010C948A010C948A01E4
:100070000C948A010C9433140C948A010C948A0118
:100080000C948A010C940F130C948A013D03000018
:100090000000000B0D0000000000000101C0800006
:1000A000000000000000000000060000000000004A
:1000B0000000000000000000000000000000000040
:1000C0000000000000007F000000000000000000B1
:1000D0000000000000000000000000000000000020
:1000E0000000000000000000000000000000000010
:1000F0000000000000000000000000000000800080
:1001000000008000010080000100800001008000EC
:1001100001008000010080000200800003008000D8
:1001200003008000030080000300800003008000C3
:1001300003008000040080000400800005008000AF
:100140000680FF000681FF00FF000000FF000000A6
:10015000FF000000FF000000FF000000FF000000A3
:10016000FF000000FF000000FF000000FF00000093
:10017000FF000000FF000000FF000000FF00000083
:10018000FF000000FF000000FF000000FF00000073
:10019000FF000000FF000000FF00000000003A0028
:1001A00037003400310022006100640000003B0091
:1001B0003800350032002300620065000000000AAC
:1001C0000B0C000000000000010405060000000008
:1001D000000000000000000000000000000000001F
:1001E000000000000000000000000000000000000F
:1001F000007000740078007C008000840088008C0F
:10020000009000940098009C00A000A400A800ACFE
:1002100000B000B400B800BC00C000C400C800CCEE
:1002200000D000D400D800DC00E000E400E800ECDE
:1002300000F000F400F800FC000001040108010CCB
:10024000010102040810204080010204081020402F
:1002500080081001020408102040800102010204FD
:100260000810204080048040201008040201010290
:1002700004081020408000003900360033003000B0
:10028000210020006300050505050505050502029E
:100290000202020202020707040404040404040424
:1002A000070703030303030303030701010101011C
:1002B000010101060606060606060600CA15772293
:1002C00011241FBECFEFD0E1DEBFCDBF11E0A0E013
:1002D000B1E0E6ECF8E400E00BBF02C007900D923D
:1002E000A835B107D9F727E0A8E5B1E001C01D9214
:1002F000A836B207E1F711E0CFE5D1E004C02197BD
:10030000FE010E94CA22CE35D107C9F70E949B1771
:100310000C9456240C9400002091E2023091E302E8
:100320002115310549F090E0880F991F820F931F26
:10033000FC0180819181089590E080E008952091F2
:10034000940281E0213208F044C080917002811152
:10035000FCCF8091930292E09093700291E0909391
:100360006F029FEF90936E0210926D0220936C02C9
:10037000A3E7B2E0ECE4F2E090E0291331C0109280
:100380004B0290914B02880F892B80934B028091F6
:100390004A02813049F510924A0280914B028093C3
:1003A00073008091740083FDF8CF85EC8093740016
:1003B000809170028230E1F380916E028F3FB1F044
:1003C00080916E028032A1F080916E02803391F0B4
:1003D00084E01092720210929402109271020895B9
:1003E0003D9131939F5FC9CF85EEE0CF80E0F1CFA3
:1003F00082E0EFCF83E0EDCFE82FF0E0EA5CFD4F45
:1004000060830895E091EA01F091EB01309729F0C3
:10041000109272021092940209940895CF93DF9380
:10042000AC01E091E801F091E9013097F1F0909191
:10043000E7018091E6019817C0F090E0292F30E0A5
:100440002617370754F4D901AD59BE4F240F351F75
:10045000E90128812C939F5FF1CF1092E70160930F
:10046000E601CB01DF91CF910994DF91CF910895FF
:1004700090E0FC01E454FE4F2491FC01EF5BFD4F42
:1004800034918A579D4FFC018491882359F122238E
:10049000C1F021502C30A8F4E22FF0E0EE5AFD4FCD
:1004A0000C94CA228B028B0261025E0273027602F6
:1004B0007902610261027D02830287029FB59F7704
:1004C0009FBDE82FF0E0EE0FFF1FE455FE4FA59112
:1004D000B4918FB7F894EC91611121C030953E230F
:1004E0003C938FBF08959FB59F7DEACF9FB5977FBF
:1004F000E7CF95B59F7D95BDE4CF90918B009F7719
:1005000090938B00DECF90918B009F7DF9CF9091DF
:100510008B00977FF5CF93B79F7D93BFD2CF3E2BB4
:10052000DFCFCF93DF9390E0FC01EF5BFD4F249191
:100530008A579D4FFC0184918823C9F090E0880F71
:10054000991FFC01E456FE4FA591B491FC01E455BE
:10055000FE4FC591D49161110DC09FB7F8948C9155
:10056000209582238C938881282328839FBFDF9145
:10057000CF910895623051F49FB7F8943C91822F47
:10058000809583238C93E8812E2BEFCF8FB7F8943F
:10059000EC912E2B2C938FBFEACF3FB7F89480912C
:1005A000DE019091DF01A091E001B091E10122B75D
:1005B00006B600FE05C02F3F19F00196A11DB11D22
:1005C0003FBFBA2FA92F982F8827BC01CD01620FFA
:1005D000711D811D911D42E0660F771F881F991FB5
:1005E0004A95D1F70895E82FF0E0DF01AA0FBB1F6D
:1005F000AF5FBE4F11967C936E938830A8F4ED5F89
:10060000FC4F0C94CA220B031503220330033E0354
:10061000450350035C0380916A008C7F482B409314
:100620006A0089B7816089BF089580916A00837FDD
:10063000440F551F440F551F482B40936A0089B73C
:100640008260F1CF80916A008F7C74E0440F551F67
:100650007A95E1F7482B40936A0089B78460E3CF2D
:1006600080916A008F7366E0440F551F6A95E1F729
:10067000482B40936A0089B78860D5CF8AB78C7FB2
:10068000482B4ABF89B78061CECF8AB7837F440F9A
:10069000551F440F551F482B4ABF89B78062C3CFEF
:1006A0008AB78F7C24E0440F551F2A95E1F7482B29
:1006B0004ABF89B78064B7CF8AB78F7396E0440F7B
:1006C000551F9A95E1F7482B4ABF89B78068ABCF91
:1006D000883010F40C94F3020895FF920F931F9347
:1006E000CF93DF930E94CD0220916101309162018E
:1006F000EB01C21BD30B2091B1023091B202C217A1
:10070000D30708F461C04091B5025091B602413060
:10071000510561F0E091AA02F091AB022081309185
:10072000AC0223233091950223134EC070936201D3
:10073000609361010091B3021091B40242305105FF
:1007400009F419C14330510509F454C14130510530
:1007500061F480916001813009F449C0D8F183309F
:1007600009F486C0843009F4CFC08091B50290911D
:10077000B602019749F1C017D10708F073C1809103
:100780005E018F5F80935E018B30F0F081E090E03E
:100790009093B6028093B50241E050E06DE673E0BD
:1007A0008091A8020E946803109295021092600145
:1007B00082E590E09093B4028093B30283E290E0EC
:1007C0009093B2028093B102DF91CF911F910F916C
:1007D000FF900895C017D10730F481E08093600145
:1007E000C0935F01C2CF84E080936001BECFC01789
:1007F000D107E0F51092600180915E018F5F8093D8
:100800005E0120915F018C2F0C2E000C990B821B36
:10081000910927FD939597FF03C0919581959109C3
:10082000499794F21092B6021092B50282E990E0D4
:100830009093B4028093B30282E590E09093B20269
:100840008093B10210925E01F09096024F2D50E01D
:100850006DE673E08091A8020E9468038091AC026B
:1008600093E0F91229C0809395027FCF83E0BCCF3B
:10087000C017D10718F51092B6021092B50282E99E
:1008800090E09093B4028093B30282E590E090935D
:10089000B2028093B10210925E01F09096024F2D49
:1008A00050E06DE673E08091A8020E946803809199
:1008B000AC0233E0F316B9F280E0D5CF9091960206
:1008C000933009F482E08093960282E090E0909366
:1008D000B6028093B50282E990E09093B4028093CF
:1008E000B30282E590E09093B2028093B10210923D
:1008F000BB0280915E018093BC021092B8021092FC
:10090000BA021092B902C9CFC017D107A8F4109249
:10091000B6021092B50282E990E09093B4028093FF
:10092000B30282E590E09093B2028093B1021092FC
:100930005E011092B80288CF82E090E09093B602F8
:100940008093B50282E990E09093B4028093B30261
:1009500082E590E09093B2028093B1021092BB02C4
:1009600080915E018093BC021092B8021092BA028C
:100970001092B90269CF9091B8029F5F9093B8022C
:100980008091B902880FC017D107E0F08093B902B7
:10099000983009F0F0CEE091BB02E630A9F4109255
:1009A000B6021092B50282E990E09093B40280936F
:1009B000B30282E590E09093B2028093B10210926C
:1009C000B802D3CE8160E2CF83E090E09093B6028C
:1009D0008093B5029091B90281E08E0F8093BB02A3
:1009E000F0E0EB54FD4F90878091BA028927809305
:1009F000BA02BBCEC017D10728F51092B6021092EA
:100A0000B5021092B80282E990E09093B40280930C
:100A1000B30282E590E09093B2028093B10280919C
:100A2000BA028111ACCE88E0EBEBF2E0A3ECB2E0CD
:100A300001900D928A95E1F781E08093B7021092C0
:100A40005E0193CE8091BB02863009F4A8CF82E08C
:100A500090E09093B6028093B5021092B802109283
:100A6000B90283CE10925E01AFCE08958091E60167
:100A70009091E701891B990B0895CF93DF93DC01D7
:100A8000EC91F0E0EE0FFF1FEA58FD4FC591D491B5
:100A9000988111968C91982381E009F480E0DF9190
:100AA000CF910895CF92DF92EF92FF920F931F9311
:100AB0000E94CD026B017C0180911201813019F4FA
:100AC00083E0809312018EEE92E00E943D054091FA
:100AD000290250912A0260912B0270912C029701F9
:100AE0008601041B150B260B370BB901A8018111D8
:100AF0001AC04093310250933202609333027093D4
:100B0000340281E080933502C0922902D0922A02F9
:100B1000E0922B02F0922C021F910F91FF90EF9028
:100B2000DF90CF90089540932D0250932E02609352
:100B30002F0270933002F0CF85ED80937400809186
:100B4000740084FDFCCF1092700208952091A301DF
:100B5000260F3327331F21323105ECF42091700228
:100B6000FC0190E080E0243069F082E00895A091DB
:100B7000A3012191AC014D575E4FA40FB52FB11DBC
:100B80002C930196861798F38091A301680F6093C8
:100B9000A30180E0089581E008950895E091E701C0
:100BA0008091E601E81730F4F0E0ED59FE4F8081C6
:100BB00090E008958FEF9FEF08959091E701809165
:100BC000E6012FEF3FEF981748F4E92FF0E0ED59D9
:100BD000FE4F208130E09F5F9093E701C9010895A7
:100BE000CF92DF92EF92FF920F931F93CF93DF93F9
:100BF0007C01CB018A0120917102222389F0EB0153
:100C00006B01C40ED51ECC15DD0569F06991D701C5
:100C1000ED91FC910190F081E02DC7010995F3CF92
:100C2000642F0E94A605C801DF91CF911F910F91FB
:100C3000FF90EF90DF90CF900895CF93DF931F92B6
:100C4000CDB7DEB76983209171022223F9F020919C
:100C50009402203258F021E030E0FC0133832283FB
:100C600090E080E00F90DF91CF9108958091720223
:100C7000E82FF0E0ED58FD4F998190838F5F8093CE
:100C800072028093940281E090E0ECCF61E0CE01AB
:100C900001960E94A605F7CF1F93CF93DF93CAED6D
:100CA000D1E0188169818BEC92E00E941D06612FD2
:100CB0008BEC92E00E941D066A818BEC92E0DF9142
:100CC000CF911F910C941D0690E080E0089580E084
:100CD00090E0892B29F08091B00283FD0C940000F4
:100CE00008950F931F93CF93DF93FC01828181308E
:100CF00089F040F0823009F47AC0DF91CF911F91E2
:100D00000F91089561E08081DF91CF911F910F9144
:100D10000C9438020181C02FD0E0108161E0812F56
:100D20000E949102209719F460E0812FEDCFCF3F10
:100D3000D10511F461E0F9CFE12FF0E0E454FE4F6A
:100D4000E491E150EC3008F04DC0F0E0E655F94F89
:100D50000C94CA22B606B606F206BB06C106C70642
:100D6000CF06F206F206D406DE06E80683B78062F6
:100D700083BF01BFC2CF8FB580688FBDDBBDCABD49
:100D8000BCCF8FB580628FBDD9BDC8BDB6CF8FB582
:100D900088608FBDD0937900C0937800AECF85B5C1
:100DA000806285BD03BDA9CF80918B008068809350
:100DB0008B00D0938700C09386009FCF80918B00DB
:100DC000806280938B00D0938500C093840095CF80
:100DD00080918B00886080938B00D0938300C093B8
:100DE00082008BCFC038D1050CF0A4CF9DCF81817C
:100DF000E381F0E0EA5CFD4F80837FCF0F931F9388
:100E0000CF93DF93D62F8C01C0E0CD1741F0F801CE
:100E1000819191918F010E947106CF5FF6CFDF9192
:100E2000CF911F910F9108958F929F92AF92BF9291
:100E3000CF92DF92EF92FF9261E08FE10E94380241
:100E40000E94CD024B015C0184E0C82ED12CE12C24
:100E5000F12C0E94CD02681979098A099B09683E24
:100E6000734081059105A8F321E0C21AD108E10879
:100E7000F10888EE880E83E0981EA11CB11CC114F5
:100E8000D104E104F10429F760E08FE1FF90EF90D5
:100E9000DF90CF90BF90AF909F908F900C943802CE
:100EA0000C94140780935B01882351F08EE493E047
:100EB0000E94710680918A00887F80938A0008953D
:100EC0008EE493E00E9471061092880010928900CF
:100ED00080918A008460F1CFCF93C82F80919902CE
:100EE0008C1731F081E0C11101C080E00E945207EF
:100EF000C0939902CC2311F12FB7F8948091FA0195
:100F00009091FB01A091FC01B091FD012FBF482FF2
:100F1000392F2A2F8B2F40939A0230939B022093D4
:100F20009C0280939D02809199028C1761F081E070
:100F3000C11101C080E0CF910C94520740E030E035
:100F400020E080E0E8CFCF9108958F929F92AF92FA
:100F5000BF92CF92DF92EF92FF920F931F93CF93A6
:100F60000E94CD02AB01BC018091550390915603C4
:100F7000A0915703B09158038A019B01081B190BDC
:100F80002A0B3B0B80915D03882309F481C080917B
:100F90005F0390915E03A82F082E000CBB0BC3E3E8
:100FA0008C02F0011124E90FF11D97FDFA95EE0F67
:100FB000FF1FE759FC4F11830083053F11402105B6
:100FC000310508F054C09F5F90935E0390915E03DB
:100FD0009332C9F596E69A9F90019B9F300D11249C
:100FE0002D5A3C4FF901E45AFF4FC0905903D0905D
:100FF0005A03E0905B03F0905C034A015B018C189C
:101000009D08AE08BF0875016401C082D182E282EA
:10101000F38228593F4FE1E0F0E0D901ED93FC93D2
:101020008F5F8A3094F580935F03E0915F03B6E6AB
:10103000EB02F0011124E554FC4F11821082109252
:101040005D0310925E0340935503509356036093E3
:10105000570370935803CF911F910F91FF90EF901A
:10106000DF90CF90BF90AF909F908F900895109297
:101070005E0391E090935D034093590350935A03AC
:1010800060935B0370935C03A1CF10925F03CDCF9D
:10109000053F114021053105B0F281E080935D03E9
:1010A0004093590350935A0360935B0370935C031E
:1010B000CACFFC01A281B3818C9191819095982334
:1010C0009C93A481B5819C918181809589238C9387
:1010D0000895FF920F931F93CF93DF93F62E8C0109
:1010E000C0E0CF15F9F0D801ED91FD918D0182811D
:1010F000813051F020F0823079F0CF5FF2CF60E0A4
:1011000080810E943802F9CFD08161E08D2F0E944A
:10111000910260E08D2FF5CFE381F0E0EA5CFD4FB6
:101120001082EBCFDF91CF911F910F91FF90089527
:10113000CF93DF93EC018D819E81009719F06C8134
:101140000E94690888859985009729F06F81DF9151
:10115000CF910C946908DF91CF9108950F931F935D
:10116000CF93DF932091E2023091E3022115310504
:1011700071F190E0880F991F820F931FFC01C081CD
:10118000D1818B81882391F00091DC021091DD02E6
:1011900089819A810817190729F0CE010E949808C1
:1011A0001A83098389819A81019731F48D819E8107
:1011B000009769F06C8105C088859985009739F0A2
:1011C0006F81DF91CF911F910F910C94FE06DF91FB
:1011D000CF911F910F910895CF938091E402909148
:1011E000E502892B29F1C0E08091E102C81700F5E2
:1011F0008C2F86958695869590E0E091E402F0919B
:10120000E502E80FF91F208130E043E0880F991FC5
:101210004A95E1F74C2F481B02C0359527954A9512
:10122000E2F720FF03C08C2F0E94AE08CF5FDCCF17
:10123000CF9108952091DC023091DD022817390703
:1012400031F09093DD028093DC020C94EC08089559
:101250006115710521F06130710581F0089550919B
:10126000D7025817190629F05091DA0258171906B3
:1012700061F44093E002C9010C941A096091D8020C
:101280007091D90286179707A1F308952091E20281
:101290003091E3022115310551F090E0880F991F3C
:1012A000820F931FFC01808191810C94980808950E
:1012B000CF93C62F813079F140F0823009F469C0B4
:1012C000833009F4A0C0CF91089580E064FF17C077
:1012D0000E94AE0881E0C0FF15C00E94AE0882E007
:1012E000C1FF13C00E94AE0883E0C2FF11C00E947C
:1012F000AE0884E0C3FF35C0CF910C94AE080E94C5
:101300004609E8CF0E944609EACF0E944609ECCF81
:101310000E944609EECF85E060FF26C00E94AE081D
:1013200086E0C1FF24C00E94AE0887E0C2FF22C051
:101330000E94AE0888E0C3FF20C00E94AE0889E08A
:10134000C4FF1EC00E94AE088AE0C5FF1CC00E94F8
:10135000AE088BE0C6FF1AC00E94AE088CE0C7FD45
:10136000CBCFCF910C9446090E944609D9CF0E9459
:101370004609DBCF0E944609DDCF0E944609DFCF38
:101380000E944609E1CF0E944609E3CF0E94460928
:10139000E5CF8DE060FF22C00E94AE088EE0C1FF65
:1013A00020C00E94AE088FE0C2FF1EC00E94AE089F
:1013B00080E1C3FF1CC00E94AE0881E1C4FF1AC0D7
:1013C0000E94AE0882E1C5FF18C00E94AE0883E10A
:1013D000C6FF16C00E94AE0884E1C1CF0E94460934
:1013E000DDCF0E944609DFCF0E944609E1CF0E946F
:1013F0004609E3CF0E944609E5CF0E944609E7CFA0
:101400000E944609E9CF85E160FF22C00E94AE0834
:1014100086E1C1FF20C00E94AE0887E1C2FF1EC066
:101420000E94AE0888E1C3FF1CC00E94AE0889E19B
:10143000C4FF1AC00E94AE088AE1C5FF18C00E940E
:10144000AE088BE1C6FF16C00E94AE088CE187CFC4
:101450000E944609DDCF0E944609DFCF0E9446095F
:10146000E1CF0E944609E3CF0E944609E5CF0E94E2
:101470004609E7CF0E944609E9CF0E946C07E7E9D9
:10148000F2E081E087831086E0EAF2E088E0DF01A5
:101490001D928A95E9F708950C947F22EF92FF92AE
:1014A0000F931F93CF93DF93E82EF62E81E090E009
:1014B0000E944C0A90E00091D70210E0C091DA023D
:1014C000D0E08017910721F08C179D0709F04EC0DE
:1014D000E092E00281E0F8124CC08DE190E00E94C1
:1014E0004C0AF82E81E090E00E944C0A90E0081728
:1014F000190721F08C179D0799F4CE018C179D07D1
:10150000B1F48091DE029091DF02019749F0809161
:10151000DB02882309F448C01092DF021092DE0239
:10152000DF91CF911F910F91FF90EF9008958091DF
:10153000DC029091DD02019799F3F0FE10C0109249
:10154000DD021092DC02ECCF0C171D0711F1809127
:10155000DC029091DD02892B19F3F0FEF0CF81E0DF
:1015600090E09093DD028093DC02DACF81E0F81600
:10157000B9F28DE190E00E944C0AF82E81E090E0F3
:101580000E944C0A90E080179107F1F28C179D079A
:1015900039F68091DE029091DF02892B09F2809169
:1015A000DB02882309F4B8CF81E090E09093DF025A
:1015B0008093DE02B5CFCF93863823E0920719F1EE
:1015C00038F4813823E09207D9F0CF910C944C0A7B
:1015D000873823E09207D1F0883823E09207A9F7F3
:1015E00086E893E00E944C0AC82F87E893E00E94A7
:1015F0004C0A90E02FEFC29F800D911D1124E5CF82
:1016000081E893E0E2CF86E893E0DFCF87E893E0DC
:10161000DCCF1F93CF93DF93EC0180915B01882394
:1016200059F08FE090E00E944C0A182F80E190E082
:101630000E944C0A181306C0CE01DF91CF911F9172
:101640000C944C0AFFCF0C94090BCF93DF9320919D
:10165000AD023091AE022F3F320721F0C901DF9178
:10166000CF9108958091B00287FF2BC086FF0FC0F5
:1016700089E090E00E94230BC82F81E090E00E9457
:10168000230B9C2F9093AE028093AD0215C089E08E
:1016900090E00E94230BC82F81E090E00E94230B72
:1016A00090E4C99F90011124207C31708F73282B06
:1016B0003093AE022093AD028091AD029091AE02C4
:1016C000CECF85FF0CC081E190E00E94230BC82F94
:1016D00082E190E00E94230BC05CDD0BD2CF81E061
:1016E00090E00E94230B90E0CDCFEF92FF920F93FA
:1016F0001F93CF93DF936115710559F06130710528
:1017000009F45DC0DF91CF911F910F91FF90EF9091
:1017100008953091D7023817190629F03091DA026E
:101720003817190679F7C22F4330510509F4F4C070
:1017300008F04EC04130510509F463C042305105F4
:1017400009F7822F8170F82E85E020FFD1C00E941A
:10175000AE080C2F027086E0C1FFCDC00E94AE081B
:101760001C2F147087E0C2FFC9C00E94AE08DC2F96
:10177000D87088E0C3FFC5C00E94AE0880915C01AC
:10178000FF2009F4C1C0816080935C0180915C01FD
:10179000002309F4BBC0826080935C0180915C01EE
:1017A000112309F4B5C0846080935C0180915C01D1
:1017B000DD2309F4AFC0886080935C01A3CF609102
:1017C000D8027091D9028617970709F4ACCF9ACF47
:1017D0004530510509F42FC108F4EAC046305105DF
:1017E00009F090CFD0915D0180E024FF06C00E94F7
:1017F000AE08D061D0935D0185CF0E944609DF7E9F
:10180000F9CF122F1071D0915D018091F7018111F4
:101810004FC0112309F447C00E94AE08D061D09395
:101820005D018C2F8170E82E81E0C0FF4BC00E94CB
:10183000AE088C2F8270F82E82E0C1FF46C00E9455
:10184000AE080C2F047083E0C2FF42C00E94AE08B5
:10185000DC2FD87084E0C3FF3EC00E94AE088091A8
:101860005D011123D9F1806180935D0180915D015B
:10187000EE20B1F1816080935D0180915D01FF20D8
:1018800089F1826080935D0180915D01002361F1A7
:10189000846080935D0180915D01DD2339F1886072
:1018A00080935D012FCF80E00E944609DF7EB7CF95
:1018B0008DE190E00E944C0A81FFB3CF80E01123BC
:1018C00099F3AACF0E944609B4CF0E944609B9CF26
:1018D0000E944609BDCF0E944609C1CF8F7EC4CF6A
:1018E0008E7FC9CF8D7FCECF8B7FD3CF877FD8CF51
:1018F0000E9446092ECF0E94460932CF0E94460917
:1019000036CF0E9446093ACF8E7F3ECF8D7F44CF9F
:101910008B7F4ACF877F50CF822F8170F82E89E04E
:1019200020FF32C00E94AE080C2F02708AE0C1FF77
:101930002EC00E94AE081C2F14708BE0C2FF2AC07C
:101940000E94AE08DC2FD8708CE0C3FF26C00E9436
:10195000AE0880915C01FF2019F1806180935C01E9
:1019600080915C010023F1F0806280935C018091A2
:101970005C011123C9F0806480935C0180915C015B
:10198000DD23A1F0806818CF0E944609CDCF0E94C8
:101990004609D1CF0E944609D5CF0E944609D9CF2A
:1019A0008F7EDCCF8F7DE1CF8F7BE6CF8F7704CF2B
:1019B0008DE020FF2BC00E94AE088EE0C1FF29C041
:1019C0000E94AE088FE0C2FF27C00E94AE0880E1EF
:1019D000C3FF25C00E94AE0881E1C4FF23C00E945E
:1019E000AE0882E1C5FF21C00E94AE0883E1C6FFB8
:1019F0001FC00E94AE0884E1C7FF57C0DF91CF919E
:101A00001F910F91FF90EF900C94AE080E94460931
:101A1000D4CF0E944609D6CF0E944609D8CF0E9453
:101A20004609DACF0E944609DCCF0E944609DECF84
:101A30000E944609E0CF85E120FF22C00E94AE0847
:101A400086E1C1FF20C00E94AE0887E1C2FF1EC030
:101A50000E94AE0888E1C3FF1CC00E94AE0889E165
:101A6000C4FF1AC00E94AE088AE1C5FF18C00E94D8
:101A7000AE088BE1C6FF16C00E94AE088CE1BCCF59
:101A80000E944609DDCF0E944609DFCF0E94460929
:101A9000E1CF0E944609E3CF0E944609E5CF0E94AC
:101AA0004609E7CF0E944609E9CFDF91CF911F9108
:101AB0000F91FF90EF900C944609CF93C82F8FE2BF
:101AC00090E00E944C0A811109C085E190E0CC238E
:101AD00011F086E190E0CF910C944C0A80E0CF9118
:101AE0000895CF93C82F8FE290E00E944C0A811195
:101AF00006C08C2F90E0CA96CF910C944C0A80E0DF
:101B0000CF9108951F93CF93DF93EC01162F0E947E
:101B10007F22181739F0612FCE01DF91CF911F91ED
:101B20000C948722DF91CF911F9108950F931F93FB
:101B3000CF93DF93EC01162FC63883E0D80781F1ED
:101B400050F4C13883E0D807F9F0612FCE010E942C
:101B5000820DCE011FC0C73883E0D80741F1C838D5
:101B600083E0D80791F786E893E00E944C0A082F9B
:101B700087E893E00E944C0AC82FD0E08FEF089FBF
:101B8000C00DD11D1124E1CF81E893E00E94820DA8
:101B900081E893E0DF91CF911F910F910C944C0A53
:101BA00086E893E00E94820D86E893E0F3CF87E811
:101BB00093E00E94820D87E893E0ECCFFF920F93B1
:101BC0001F93CF93DF930FB6F894A89581B58861E2
:101BD00081BD11BC0FBED0E0C0E0FE01E457FF4F55
:101BE0006491CE010E94820D2196C03181E0D80718
:101BF000A1F761E081E893E00E94820DCFE1D1E09E
:101C000005E411E0FF24FA9489919991FC01F18295
:101C10000E9471060C171D07B9F788E19BE00FB60B
:101C2000F894A89581BD0FBE91BDDF91CF911F9112
:101C30000F91FF9008951F93CF93DF9320910001A0
:101C40002223C1F02FEF3FEF3093C9012093C80149
:101C50003093CD012093CC013093D1012093D0015A
:101C60003093D5012093D4013093D9012093D8012A
:101C70001092000182309105C9F08330910509F47A
:101C800058C020E030E0232B11F00E94000080912A
:101C9000E6019091E701891B990B181619060CF0C3
:101CA00044C08BEC92E00E94DD05F1CFE6ECF1E060
:101CB000D0E0C0E0828193810196E9F4CC0FDD1F72
:101CC000CC0FDD1FCA53DE4F1B821A828BEC92E0D1
:101CD0000E94DD0588838BEC92E00E94DD058983FC
:101CE000E091F801F091F9013097C9F4D093F9012E
:101CF000C093F8011AC021963496C530D105D1F6AB
:101D00008091E6019091E701891B990B181619063D
:101D100064F48BEC92E00E94DD05F2CFFC0182813D
:101D200093810097D9F7D383C283DF91CF911F911D
:101D300008958BEC92E00E94DD05182F8BEC92E069
:101D40000E94DD05D12F90E0C92FC80FD11DD0937F
:101D5000DB01C093DA018BEC92E00E94DD05682F75
:101D60008093DC01CE01D7FF21C09F779093DB01E8
:101D70008093DA018830910561F0843823E092077E
:101D800041F08C3A23E0920721F0843D23E0920752
:101D900041F481E8683039F4DF91CF911F910C94C0
:101DA000DE0D0E94960D8093DC01BFCF0E94DB0AFE
:101DB000FACF1F93CF93DF93EC01162F089779F496
:101DC000662319F10E94DE0D80E090E0892BB9F0C6
:101DD000612FCE01DF91CF911F910C94000080E024
:101DE00090E0892BA9F781E0C11590E1D90708F0AF
:101DF00080E0111105C0DF91CF911F91089581E01E
:101E000027972297C0F780E0F6CF80E090E0892BFB
:101E1000F9F681E0F0CF0F931F93CF93DF93EC019E
:101E2000162F80915B01882329F1CF30D10561F411
:101E30008FE090E00E94820D8FE090E0DF91CF91E3
:101E40001F910F910C944C0A8FE090E00E944C0A75
:101E5000082F80E190E00E944C0A08130AC0C730A6
:101E6000D10531F0C830D10529F4183049F0FFCF41
:101E7000FFCFFFCF612FCE010E94820DCE01DECFBA
:101E80000E94DE0D88E0DF91CF911F910F910895A0
:101E90008331910588F48131910530F481309105C9
:101EA00019F08930910531F42FEF3FEF3093AE02F6
:101EB0002093AD020C940B0F8D319105D9F7677FFC
:101EC0006093B002209197022F73362F307C232B22
:101ED00020939702E9CFCF93DF93E5EBF2E086E121
:101EE000DF011D928A95E9F782E990E09093B402B0
:101EF0008093B30282E590E09093B2028093B102A6
:101F0000C7E9D2E0188219828FEF9FEF9F8B8E8BEB
:101F1000188E83E0809396028D898093950243E02A
:101F200050E06DE673E089890E9468038DE190E0DE
:101F30000E94230B682F6F738DE190E00E94480F81
:101F4000898F6BE087E090E00E94480F6DE088E0A9
:101F500090E00E94480F80E0DF91CF910C943D0A01
:101F6000BF92CF92DF92EF92FF920F931F93CF9386
:101F7000DF938B01B42E690182FF23C083FF17C05A
:101F800061E0C8010E94D90E8823D9F16B2DC801E8
:101F90000E94480F8B1135C0F601DF91CF911F9140
:101FA0000F91FF90EF90DF90CF90BF90099460E089
:101FB000C8010E94D90E882321F1C8010E94230B79
:101FC000E9CF842F8770C1E0D0E07E0101C0EE0C24
:101FD0008A95EAF7D42FD870CB010E94230BC82F23
:101FE000B4FE1CC061E0C8010E94D90E882349F0EC
:101FF000DD2389F0CE296C2FC8010E94480F8C1771
:1020000059F2DF91CF911F910F91FF90EF90DF90E8
:10201000CF90BF900895E094CE21EDCF60E0C8014D
:102020000E94D90E882369F3CE21DD2319F0C11156
:10203000B3CFE7CFCC2309F4AFCFE3CFCF92DF927A
:10204000EF92FF920F931F93CF93DF937C016B016D
:10205000C42F122FD42FD07E8091970287FF2BC0E0
:10206000D03EB9F5C0909802CC2099F1D12CC60190
:102070000E94230BD82FC60101960E94230B982F94
:102080008D2FE816F90629F56C2F70E0762F66275C
:1020900066277370612B6F5F7F4F27E636E0402F16
:1020A0008C2FDF91CF911F910F91FF90EF90DF90D8
:1020B000CF900C94B00F80FD32C0D03609F464C0CC
:1020C00088F4D03209F447C0D03409F45DC0DD2370
:1020D00079F1DF91CF911F910F91FF90EF90DF90F9
:1020E000CF900895D03A09F483C090F42C2F2F712B
:1020F00041E050E0D03869F7B601C701DF91CF91D8
:102100001F910F91FF90EF90DF90CF900C94750B83
:10211000D03C09F476C0D03E09F4B6CFDACF0E94A5
:10212000250B8E159F0549F2E114F10431F2D1CF50
:102130008C2F8E7071F680E090E0892B51F28C2FFD
:102140008170DF91CF911F910F91FF90EF90DF9001
:10215000CF900C940000CF71CF3109F0BACF412F4E
:102160004F7771F0413071F0111F1127111F212F8E
:1021700030E00FE710E0B601C7010E942809A9CF9F
:1021800041E0F2CF40E0F0CF2C2F30E08C2F8F7168
:10219000813029F030F0803121F08131F9F440E0D4
:1021A00001C041E025FB222720F90DE110E030E0DD
:1021B000B601C7010E94280980E090E0892B09F44C
:1021C00088CF4C2FB601C701DF91CF911F910F919E
:1021D000FF90EF90DF90CF900C940000C901880F22
:1021E000991F8E71C4FB442740F9482B4250DACF27
:1021F0002C2F2F7043E050E0C4FF7ECF42E050E030
:102200007BCFCF71CE3139F0CF3109F062CF212FA2
:1022100045E050E071CF212F44E050E06DCFCF92E8
:10222000DF92EF92FF920F931F93CF93DF93EC0116
:102230007B0141305105F9F4CD80DE802496C11434
:10224000D104E9F462E070E081E090E00E940123B3
:102250008C01009731F0FC01F182E08288818F5F70
:102260008883C801DF91CF911F910F91FF90EF906C
:10227000DF90CF900895C884D9842796E0CF8881D5
:102280008F5F8883C82FD0E062E070E0CE010E94AB
:1022900001238C0120E0BE0161507109822F90E082
:1022A0008617970774F4880F991FF601E80FF91F36
:1022B00040815181800F911FFC01518340832F5F2A
:1022C000EDCFC150D048CC0FDD1FC00FD11FF98218
:1022D000E882C6010E94B923C4CF1F920F920FB6A5
:1022E0000F9211242F933F938F939F93AF93BF939C
:1022F0008091FA019091FB01A091FC01B091FD0148
:102300003091DD0123E0230F2D3768F126E8230FFC
:102310000296A11DB11D2093DD018093FA019093D7
:10232000FB01A093FC01B093FD018091DE0190912F
:10233000DF01A091E001B091E1010196A11DB11D65
:102340008093DE019093DF01A093E001B093E1015F
:10235000BF91AF919F918F913F912F910F900FBEA1
:102360000F901F9018950196A11DB11DD4CF1F92FB
:102370000F920FB60F9211240BB60F922F933F932B
:102380004F935F936F937F938F939F93AF93BF937D
:10239000EF93FF93E0910F01F09110010995FF91E8
:1023A000EF91BF91AF919F918F917F916F915F91CD
:1023B0004F913F912F910F900BBE0F900FBE0F903A
:1023C0001F9018951F920F920FB60F9211240BB603
:1023D0000F922F933F934F935F936F937F938F93BE
:1023E0009F93AF93BF93EF93FF93E0910D01F09113
:1023F0000E010995FF91EF91BF91AF919F918F9140
:102400007F916F915F914F913F912F910F900BBEF4
:102410000F900FBE0F901F9018951F920F920FB63E
:102420000F9211240BB60F922F933F934F935F930C
:102430006F937F938F939F93AF93BF93EF93FF938C
:10244000E0910B01F0910C010995FF91EF91BF9183
:10245000AF919F918F917F916F915F914F913F913C
:102460002F910F900BBE0F900FBE0F901F901895DD
:102470001F920F920FB60F9211240BB60F922F934B
:102480003F934F935F936F937F938F939F93AF93FC
:10249000BF93EF93FF93E0910901F0910A01099531
:1024A000FF91EF91BF91AF919F918F917F916F912C
:1024B0005F914F913F912F910F900BBE0F900FBEE8
:1024C0000F901F9018951F920F920FB60F92112424
:1024D0000BB60F922F933F934F935F936F937F931E
:1024E0008F939F93AF93BF93EF93FF93E091070177
:1024F000F09108010995FF91EF91BF91AF919F91E4
:102500008F917F916F915F914F913F912F910F909C
:102510000BBE0F900FBE0F901F9018951F920F9239
:102520000FB60F9211240BB60F922F933F934F9338
:102530005F936F937F938F939F93AF93BF93EF932B
:10254000FF93E0910501F09106010995FF91EF914C
:10255000BF91AF919F918F917F916F915F914F91BB
:102560003F912F910F900BBE0F900FBE0F901F90B9
:1025700018951F920F920FB60F9211240BB60F925F
:102580002F933F934F935F936F937F938F939F937B
:10259000AF93BF93EF93FF93E0910301F091040198
:1025A0000995FF91EF91BF91AF919F918F917F918D
:1025B0006F915F914F913F912F910F900BBE0F90B4
:1025C0000FBE0F901F9018951F920F920FB60F928B
:1025D00011240BB60F922F933F934F935F936F93FA
:1025E0007F938F939F93AF93BF93EF93FF93E0916C
:1025F0000101F09102010995FF91EF91BF91AF9117
:102600009F918F917F916F915F914F913F912F910A
:102610000F900BBE0F900FBE0F901F9018951F923A
:102620000F920FB60F9211240BB60F922F933F9378
:102630004F935F936F937F938F939F93AF93BF93CA
:10264000EF93FF9380917100887F803609F44DC02D
:1026500008F040C0883209F4A9C028F5803109F497
:102660009DC0C8F4882309F4FBC0883009F496C0E3
:10267000FF91EF91BF91AF919F918F917F916F915A
:102680005F914F913F912F910F900BBE0F900FBE16
:102690000F901F901895883109F488C0803241F757
:1026A00080936E0214C0803409F49DC040F48033DE
:1026B000B9F38833E9F680936E0285ECB0C08035BB
:1026C00009F485C0883509F496C0883489F60E94DB
:1026D0009C05CECF883909F48CC038F5883729F0AD
:1026E00050F4883611F0803719F683E08093700239
:1026F0001092C50157C0883809F47BC0803919F0A1
:10270000803809F0B5CF8091C501803208F071C0E2
:10271000E091C50181E08E0F8093C5018091730027
:10272000F0E0EB55FE4F80833DC0803B39F0E0F494
:10273000803A09F479C0883A09F09ACF84E080930E
:1027400070021092A4011092A301E091E401F091B3
:10275000E50109958091A30181110FC081E080936B
:10276000A3011092830109C0803C09F4A6CF883CE4
:1027700009F4A3CF883B09F07BCFE091A40181E06D
:102780008E0F8093A401F0E0ED57FE4F808180937F
:1027900073009091A4018091A30129C080914B0204
:1027A0008093730085EC8093740062CF90916D02EA
:1027B00080916C02981758F5E0916D0281E08E0FC0
:1027C00080936D02F0E0E45BFD4F8081E9CFE09102
:1027D0006D0281E08E0F80936D0280917300F0E0B6
:1027E000E45BFD4F808390916D0280916C0298179D
:1027F000C8F285E8D8CFE0916D0281E08E0F80931A
:102800006D0280917300F0E0E45BFD4F8083809166
:102810006F0281115CCF81E080934A0284EA809349
:1028200074001092700224CF85EC80937400109293
:1028300070028091C501803230F4E091C501F0E072
:10284000EB55FE4F10826091C50170E0E091E2010E
:10285000F091E30185EA91E009951092C50108CF56
:1028600010926E0234CF1F920F920FB60F92112466
:102870000BB60F92EF92FF920F931F932F933F93FC
:102880004F935F936F937F938F939F93AF93BF9378
:10289000CF93DF93EF93FF930FB6F894A89581B58C
:1028A000886181BD11BC0FBE789410925A01C1E0BD
:1028B000D1E0D0937102C0939302109272021092F1
:1028C00094020E949F01811105C080915A018F5F7F
:1028D00080935A01CF5FCF3761F780915801909173
:1028E0005901009731F00E94B923109259011092BA
:1028F0005801D0915A01DD2371F161E070E08D2F14
:1029000090E00E9401237C0190935901809358012B
:1029100010E0C1E001E000937102C09393021092B5
:102920007202109294020E949F01811105C0F7016A
:10293000E10FF11DC0831F5FCF5FCF3761F7D2304A
:1029400050F080918A00887F80938A0080917D007A
:102950008B7F80937D00109288001092890088E11F
:102960009BE00FB6F894A89581BD0FBE91BDFF9175
:10297000EF91DF91CF91BF91AF919F918F917F9117
:102980006F915F914F913F912F911F910F91FF9008
:10299000EF900F900BBE0F900FBE0F901F901895E9
:1029A0001F920F920FB60F9211248F939F937894DA
:1029B0008091490290914802891708F08AC090914D
:1029C000620098609093620090914702891708F026
:1029D00084C0DC9A90914602891708F080C09091DB
:1029E000620090649093620090914502891708F00C
:1029F0007AC090916200906290936200909144023C
:102A0000891708F074C0C69A90914302891708F09C
:102A100070C0C59A90914202891708F06CC0C49AA0
:102A200090914102891708F068C01D9A9091400268
:102A3000891708F064C01C9A90913F02891708F02A
:102A400060C01B9A90913E02891708F05CC090917B
:102A5000620091609093620090913D02891708F0A6
:102A600056C0C79A90913C02891708F052C0DE9A6E
:102A700090913B02891708F04EC0DF9A90913A027C
:102A8000891708F04AC0969A90913902891708F080
:102A900046C0979A90913802891708F042C0DD9A93
:102AA00090913702891708F03EC0DB9A9091360268
:102AB0008917D8F5909162009061909362008F5FC2
:102AC000809349029F918F910F900FBE0F901F909E
:102AD000189590916200977F75CFDC987BCF90918D
:102AE00062009F7B7FCF909162009F7D85CFC698CB
:102AF0008BCFC5988FCFC49893CF1D9897CF1C9834
:102B00009BCF1B989FCF909162009E7FA3CFC798C9
:102B1000A9CFDE98ADCFDF98B1CF9698B5CF979873
:102B2000B9CFDD98BDCFDB98C1CF909162009F7E79
:102B3000C4CFDC0170E0FB01EF5BFD4FE491119627
:102B4000EC9311976A577D4FFB0124912C9330E051
:102B5000220F331FF901E456FE4F8591949113968D
:102B60009C938E931297F901E455FE4F85919491B1
:102B700015969C938E9314970895CF93DF93EC0151
:102B800061E088810E94910260E08881DF91CF91AD
:102B90000C943802EF92FF920F931F93CF93DF9321
:102BA0001092CE021092CD0288EE93E0A0E0B0E049
:102BB0008093CF029093D002A093D102B093D2021F
:102BC00089E491E09093CC028093CB0283E190E082
:102BD0000E944C0AC82F82E190E00E944C0AD82F34
:102BE00081E190E00E944C0A182F81E090E00E9461
:102BF0004C0A21E030E03093DD022093DC02309378
:102C0000DF022093DE021092E0021092E5021092A1
:102C1000E4028093D702212F205C330BC9012D2FB2
:102C2000382FC9019093D9028093D802CF77C093EF
:102C3000DA021092DB028DE18093E10262E070E043
:102C40008DE190E00E9401239093E3028093E202E1
:102C50000097C9F0EC0110E0EE24E394F12C8AE037
:102C600090E00E941D23FC01F282E1821382148213
:102C70001682158217821186108610838993999384
:102C80001F5F1D3161F766E08EEE92E00E9499159C
:102C900064E388EE92E00E94991581E380934E03ED
:102CA000C2E0C093500310925103DFEFD0934F0363
:102CB000109252038EE493E00E94BD1589E2809346
:102CC0004903C0934B0381E080934C03D0934A03A4
:102CD00010924D0389E493E00E94BD1587E2809332
:102CE0004403C0934603C0934703D0934503109217
:102CF000480384E493E00E94BD1589E180933F037B
:102D0000C093410383E0E82EE0924203D093400356
:102D1000109243038FE393E00E94BD1588E18093F6
:102D20003A03C0933C0394E0F92EF0923D03D09314
:102D30003B0310923E038AE393E00E94BD1585E2B7
:102D400080933503C093370305E000933803D09395
:102D500036031092390385E393E00E94BD1586E2A5
:102D600080933003C093320386E080933303D09383
:102D700031031092340380E393E00E94BD151FE0FD
:102D800010932B03C0932D0387E080932E03D093E1
:102D90002C0310922F038BE293E00E94BD158DE26D
:102DA00080932603C093280388E080932903D0935F
:102DB000270310922A0386E293E00E94BD15E09259
:102DC0002103C093230389E080932403D09322033B
:102DD0001092250381E293E00E94BD15F0921C033E
:102DE000C0931E038AE080931F03D0931D031092AB
:102DF00020038CE193E00E94BD1500931703C0935C
:102E000019038BE080931A03D093180310921B03CD
:102E100087E193E00E94BD158CE080931203C0937C
:102E2000140380931503D09313031092160382E1C9
:102E300093E00E94BD158DE080930D03C0930F03B6
:102E400080931003D0930E03109211038DE093E052
:102E50000E94BD158EE080930803C0930A038093FF
:102E60000B03D093090310920C0388E093E00E94B7
:102E7000BD1582E380930303C093050310930603FB
:102E8000D09304031092070383E093E00E94BD15E2
:102E900083E38093FE02C093000380E180930103EB
:102EA000D093FF02109202038EEF92E00E94BD15B4
:102EB00088E28093F902C093FB0281E18093FC02D7
:102EC000D093FA021092FD0289EF92E00E94BD15A4
:102ED00080E38093F402C093F60282E18093F702CC
:102EE000D093F5021092F80284EF92E00E94BD1593
:102EF00010925503109256031092570310925803E4
:102F00001092590310925A0310925B0310925C03C3
:102F100010925D0310925E0310925F0386E090E0D2
:102F20009093540380935303DF91CF911F910F919E
:102F3000FF90EF900895CF93DF93CDB7DEB76997F9
:102F40000FB6F894DEBF0FBECDBF789483B78C6404
:102F500083BF87B7816087BF82E08EBD8EB58160F9
:102F60008EBD8FB581608FBD85B5846085BD85B50B
:102F7000806485BD80918A00836080938A008091FF
:102F80008B00816080938B0087E886B91AB80FB6F2
:102F9000F894A89581B5886181BD11BC0FBE2FB78B
:102FA000F89490E080E0FC01EA5CFD4F108201960D
:102FB00083319105C1F780916200877F8093620021
:102FC000DC98809162008F7B809362008091620028
:102FD0008F7D80936200C698C598C4981D981C98F0
:102FE0001B98809162008E7F80936200C798DE9864
:102FF000DF9896989798DD98DB98809162008F7E95
:10300000809362002FBF9FB7F89480916100886021
:1030100080936100D49A8091610080648093610004
:1030200080916100806280936100BE9ABD9ABC9AD3
:10303000159A149A139A80916100816080936100BF
:10304000BF9AD69AD79A8E9A8F9AD59AD39A809108
:1030500061008061809361009FBF1FBC89E08EBDCD
:1030600081E194E09BBD8ABD87B7806187BF1092E4
:10307000490261E08FE10E9491028EEE92E00E948F
:103080005908F12CE12CBB24B394F701EF50FE4F0B
:10309000E4910E2F10E0C8010E944C0AA82EC8012E
:1030A00001960E944C0AD82EC80102960E944C0A32
:1030B000C82EC80103960E944C0A9091E102A916FD
:1030C00038F5F701E15EFE4F00811181D8011196BC
:1030D000CC92119714968C938A2DD11041C10E94E5
:1030E0008C016C0141E050E0B8010E940F11F60123
:1030F000968385838A2D0E948C016C0150E040E00C
:10310000B8010E940F11D60119969C938E931897BF
:10311000A895F2E0EF0EF11C06E2E016F10409F0CA
:10312000B4CF61E070E084E090E00E9401239093CE
:10313000E5028093E402892B91F010E000E0E0903A
:10314000E402F090E502E00EF11E802F0E94710D66
:10315000D7018C930F5F1F4F0430110581F780E07A
:103160000E945D0D082F10E081E00E945D0D282F68
:1031700030E0322F222722273E7F000F111F022B23
:10318000132B1093E7020093E60280FF05C0016055
:103190001093E7020093E6021092E7011092E60115
:1031A00010927202109294021092700281E0809349
:1031B0006F0210924A0261E083E10E94380261E0EE
:1031C00082E10E943802809171008C7F80937100AF
:1031D00088E48093700085E48093740082E092E03C
:1031E0009093E5018093E4018EE092E09093E301F7
:1031F0008093E20182E0809372008CE08093700003
:103200008BE19EE09093E9018093E8018CE496E0E5
:103210009093EB018093EA0181E090E00E944C0AD8
:1032200021E030E03093ED012093EC018093EE013A
:1032300081E190E00E944C0A21E130E03093F001FE
:103240002093EF018093F10182E190E00E944C0A0B
:1032500022E130E03093F3012093F2018093F401F6
:103260008DE190E00E94090B81FD92C08DE190E01C
:103270009093F6018093F5011092F70186E0809318
:10328000A8028093A902ECE8F2E0E491F0E0EE0FEE
:10329000FF1FEA58FD4F859194919093AB02809364
:1032A000AA02E7E4F2E0E491E093AC0260E086E099
:1032B0000E9491020E946B0F109288001092890068
:1032C00010928A0010928B0080918A008460809313
:1032D0008A0080917D00846080937D0088E19BE07E
:1032E0000FB6F894A89581BD0FBE91BD0E94CD0286
:1032F0006B017C01B1E0BB8BE091F801F091F90129
:10330000309709F46DC080E090E0892B21F0618155
:1033100080810E940000E091F801F091F901808124
:10332000803409F48CC108F0C9C0893209F4F3C1B2
:1033300008F0A0C0843209F4CDC108F03FC081324A
:1033400009F497C1833209F49DC181113FC080E027
:1033500090E0892B09F402C181810E940000FEC027
:103360000E948C01FC01B382F0E8DF1609F4C2CEA2
:10337000B1E8DB12CDCE8A2D0E948C016C0141E0B8
:1033800050E0B8010E940F11F60196838583C0CEEC
:1033900085FD0DC08091190190911A01A0911B012A
:1033A0008093F5019093F601A093F70167CF809188
:1033B0001C0190911D01A0911E01F2CF863209F4EB
:1033C00075C108F490C1883209F49BC18281938150
:1033D0002FEF3FEF338322839093F9018093F8011D
:1033E0000B89023009F427C4033009F498C701306F
:1033F00009F0C8C0809199028823F1F02FB7F894A2
:103400008091FA019091FB01A091FC01B091FD0126
:103410002FBF40919A0250919B0260919C02709143
:103420009D02841B950BA60BB70B4597A105B10513
:1034300018F080E00E943D0A8091B702882309F4C9
:10344000E0C3F89488E0E3ECF2E0ACE5B7E001908B
:103450000D928A95E1F71092B702789480915C07FB
:10346000E82FF0E0E25AF84F863008F08EC1119252
:103470008F5FFACF8D3209F466C168F48B3209F49C
:103480005AC108F450C180E090E0892B09F466C06D
:10349000618184E03DC18F3209F465C108F45BC1EC
:1034A000803309F468C1813309F090CF80E090E067
:1034B000892B09F453C0618182E064C1803609F42C
:1034C00049C058F5803509F405C178F4823409F40F
:1034D000C8C008F4BEC0833409F078CF80E090E023
:1034E000892BE1F1618183E0B1C08235B9F108F443
:1034F000FAC08E3509F06ACFA281B3811097E1F14D
:103500008C918F3559F580E090E0892B39F1119637
:103510009C9181810E94000021C0893650F484363C
:10352000E8F4823609F446C008F441C0618183E0C2
:1035300013C08D3609F441C08E3609F465C08C364F
:1035400009F044CF80E090E0892B41F081810E9416
:10355000000004C0618180E00E945809E091F801F8
:10356000F091F901828193812FEF3FEF3383228322
:103570009093F9018093F8010E94CD026B017C01C8
:10358000FBE0FB8B0E94CD026C197D098E099F091F
:103590006132714A8740910508F44BC30E946B0F5A
:1035A0000E94CD026B017C0151E05B8B42C36181C3
:1035B00081E0D2CF618182E0CFCF80E090E0892BA3
:1035C00069F26181862F8F77D1F410E000E067FD0A
:1035D0000BC00F5F1F4F0038110509F4BFCF60E02B
:1035E000C8010E940000F5CF0F5F1F4F0038110582
:1035F00009F4B4CF61E0C8010E940000F5CF607803
:1036000090E00E940000AACFA281B381109709F434
:10361000B3CF8C918F3609F0A1CF80E090E0892B59
:1036200009F49CCF2181622F661F6627661F1196C1
:103630008C91E0E88E9FC0011124822BE2CF80E0C4
:1036400090E0892B09F48ACF618180E00E9400001C
:1036500085CF80E090E0892B09F480CF618181E003
:10366000F5CF80E090E0892B09F478CF618182E08A
:10367000EDCF80E090E0892B09F470CF81810E942A
:1036800000006CCF80E090E0892B09F467CF818146
:1036900087FD06C0082E000C990B0E9400005ECF2B
:1036A000819590E0919581959109F7CF80E090E028
:1036B000892B09F453CF818187FD06C0082E000CA9
:1036C000990B0E9400004ACF819590E091958195D9
:1036D0009109F7CF818160E087FF02C061E08058E7
:1036E0000E944E0A3BCF80E090E0892B09F436CF50
:1036F000818160E087FF02C061E080580E94000085
:103700002DCF80E090E0892B09F428CF618180E003
:103710000E94000023CF80E090E0892B09F41ECFA7
:10372000618181E0F5CF80E090E0892B09F416CF2C
:10373000618182E0EDCF80E090E0892B09F40ECF2B
:10374000618183E0E5CF80E090E0892B09F406CF2A
:10375000618185E0DDCF80E090E0892B09F4FECE29
:10376000618186E0D5CF80E090E0892B09F4F6CE28
:10377000618187E0CDCF80E090E0892B09F4EECE27
:10378000618181E00E940000E9CE80E090E0892B19
:1037900021F08CE597E00E94000080915E07811186
:1037A0001BC090915F07911117C080E090E0892BBA
:1037B00019F080E00E94000080919902882341F076
:1037C00081E00E946C070E94CD026B017C0131C236
:1037D00081E00E943D0AF7CF90919902992309F464
:1037E00086C08057803108F07FC081E00E946C075E
:1037F00010915C078091A00218130AC0412F50E07D
:1038000062EA72E08EE597E00E944224892B61F023
:1038100010929F0288E0ECE5F7E0A0EAB2E00190A8
:103820000D928A95E1F7CFCF80919F028F5F8093B1
:103830009F02133009F040C090915E07892F877076
:10384000F0905F07853029F4F0929E020E941407E1
:10385000BACF0DE110E0843091F0282F30E08430B1
:10386000F0F400919E020023D1F00150110B000FE3
:10387000111F000F111F020F131F0F5F1F4F93FF28
:1038800010C061E0C8010E94D90E882309F49BCFC3
:103890006F2DC8010E94480FF81295CFD7CF89012C
:1038A000ECCF60E0C8010E94D90E882309F48BCFC9
:1038B000C8010E94230BF0CF143009F084CF80910F
:1038C0005E07682F70E0762F6627662773709091E9
:1038D0005F07692B6F5F7F4F20E537E040916007FE
:1038E0008C700E94B00F6FCF80E00E943D0AE09183
:1038F0005E07EF3F61F480915F07811164CF80E044
:1039000090E0892B09F45FCF0E9400005CCFE7FDB7
:103910000DC0009161072091600740915F0770E042
:1039200060E08E2F90E00E941E104DCFE03C08F02A
:1039300057C14091970247FF46CF90915F07292FCB
:1039400030E0890100951095000F111F000F111F25
:10395000007C1170EF730E2B35952795522F537005
:10396000B52E80915C07853039F59C789C3021F527
:103970000E94250B8017910721F00F3F114009F09D
:1039800022CF00915F0710E0102F0027002713704F
:1039900080916007080F111D0F5F1F4FF0906107A6
:1039A00061E0C8010E94D90E6F2D882309F40BCF66
:1039B000C8010E94480F07CF680181E0C81AD108EA
:1039C000CC0CDD1CCC0CDD1CCB2876019FEFE91A5A
:1039D000F90A8091AF028823F9F046FF41C0C70180
:1039E00060E071E00E949422682F81E090E00E94E4
:1039F000480FC701F7FE02C081509F4F692F89E031
:103A000090E00E94480F80E090E0892B19F0C701F8
:103A10000E9400001092AF028091970280FD39C091
:103A200080915C07843009F04FC080915F078978EE
:103A3000813009F0C8CE80E090E0892B29F06091B8
:103A40006007C7010E94000080E090E0892B09F424
:103A5000BACE409160076B2DC7010E940000B3CE23
:103A6000B8016F73772781E090E00E94480FB8019A
:103A700046E0759567954A95E1F789E090E00E94E8
:103A8000480F80E090E0892B29F2C8010E940000D5
:103A9000C1CF86FF0DC00E94250B8E159F0509F42E
:103AA000BFCFADEFEA16A7E0FA060CF0B9CF8BCE88
:103AB0000E94250B8017910709F4B2CF0F3FB1E0A8
:103AC0001B0709F4ADCF7FCE833069F540915F07C6
:103AD000E42FE170CE2E43FBDD24D0F880E090E0AF
:103AE000892B31F047702D2DB801C7010E940000CD
:103AF0008091970286FF0BC080E090E0892B09F44B
:103B000062CE4D2D6C2DC7010E9400005CCE80E07E
:103B100090E0892B09F457CE2D2D4C2D6B2DC8012B
:103B20000E94000050CE863009F04DCE80915F0794
:103B3000982F9978913021F08F78803809F043CE12
:103B40008091970286FF28C00E94250B8E159F0545
:103B5000E9F48091600790E0382F22272227337004
:103B600000916107020F132F111D0F5F1F4FF0907F
:103B700062079595879595958795837099278230EB
:103B8000910599F0039709F40BCF1DCEFDEFEF16C9
:103B9000F7E0FF06F4F617CE0E94250B8017910779
:103BA000C1F20F3F1140A9F20ECEF4FE0CCE61E03F
:103BB000C8010E94D90E882309F405CEC8010E94CD
:103BC000230B9F2D977061E070E001C0660F9A95FE
:103BD000EAF7F3FE02C0682BEBCE60956823E8CECF
:103BE000E83E08F0F0CDE05CFF0B80915F070091AC
:103BF0006207209161074091600761E070E09E2FAD
:103C000092CE0E94CD026C197D098E099F09613206
:103C1000714A8740910568F041E050E065EA77E03D
:103C200086E00E94F3020E94CD026B017C0142E01B
:103C30004B8BA89561CB80910C02811109C080E368
:103C400090E00E944C0A80930B0281E080930C026A
:103C500080910302811109C081E090E00E944C0A2A
:103C60008093020281E0809303020FEA13E09AE05E
:103C7000292E312CD8011C968D919C91019709F029
:103C800044C1F801E654F109808191813296808027
:103C90009180880E991EF801148A158A1682128660
:103CA00016861786108A1782118A168A118615823F
:103CB0001482138A128A1386B40175956795580188
:103CC000FCE5AF1AB108F50141E050E0868997891B
:103CD000A52FA69521E030E02C0F3D1F2A0F311DA6
:103CE000D90121E0681779070CF020E02C935132BC
:103CF00048F4208D318D820F931F8E579109C19703
:103D000008F440E05E5F3496543201F7FE013196CC
:103D1000A6E6A29DC001A39D900D1124998F888FC6
:103D20002FE437E0281B390B90E080E050815111DF
:103D300094C051815111ABC0D501A80FB91F1D9678
:103D40001C92019632968930910581F7F8018081A5
:103D50009181A281B38185519540A109B109833533
:103D60009B40A105B10508F04BC1442309F448C1AB
:103D700081E026E9821691040CF080E0D801549687
:103D80008C93F801EC54F109808131979081B9E06E
:103D90009B9F902D1124EBE18E9F900D1124F80133
:103DA000EF54F1098081980F31962081822F880F7E
:103DB000820F980FD80116969C933396B6E98B160E
:103DC00091040CF4F6C081E09081913009F080E01C
:103DD000F80186878989880F9F85890F880F9D85BF
:103DE000890F880F9B85890F91E009F090E0D80139
:103DF0001F969C9391E0813009F090E0F801908B40
:103E000081118150D80117968C93179755968C91F4
:103E1000882309F44DC08C85880F9E85890F880FF3
:103E20009889890F880F9A89890FEEEFE80FEE3095
:103E300008F03EC0F0E0E15EF04E0C94CA22531F41
:103E4000531FC11FC11FC91FC91F581F581FD21F91
:103E5000D21FD51FD51FD71FD71F5130C1F4618185
:103E6000613031F4D901A80FB91F1D966C9369CF49
:103E700061110DC0D501A80FB91F62E01D966C93AA
:103E8000853008F45ECFD80155965C935ACF8530C3
:103E900040F0D901A80FB91F53E01D965C9351E083
:103EA000F2CF40E053CF22E0F80121878170868B6A
:103EB00089E090E0FAE02F16310411F0821993099D
:103EC000E2E0F0E0D8011D96FC93EE931C97F6E635
:103ED000F89FB001F99F700D1124FB01E554FC4FD0
:103EE00080819181029789F4605A7C4F49E050E0CB
:103EF0008CE597E0288D398D821B930B0E9442241C
:103F0000E3E0F0E0892B09F47DC0F1E02F1A3108DD
:103F10000A591F4F2114310409F0ACCEEBEBF3E04A
:103F200090E080E0208131812330310509F070C0BC
:103F300026E6289F8001299F100D1124F801E554E1
:103F4000FC4F84E090E091838083005A1C4F011560
:103F5000110509F065C01FEF0E94CD026C197D09A3
:103F60008E099F096132714A8740910508F461CE3C
:103F70001111C0C10E946B0F0E94CD0211E01B8B7A
:103F800022CCE1E0F0E0D8011596FC93EE93149773
:103F90008FCFE3E0D8011996EC931997817056966C
:103FA0008C9386CFE2E0F0E0EECFE1E0F3CFE4E007
:103FB000F1CF8081811124C02B858F85880F3D85AD
:103FC000830F880F820FD8011A968C931A978695C3
:103FD0008F5F915C990F990F890F1B968C931B979C
:103FE0008989813009F064CF51968C9382E090E00A
:103FF000211102C081E090E0F801938B828B58CFB1
:10400000E5E0F0E0D8011D96FC93EE931C977DCF80
:104010000196EA59FF4F8A30910509F083CF9BCF73
:1040200090910B0290FF61C1F801EB5AFF4FA08104
:10403000B0E0E0900202F12C9D012E193F092130E1
:10404000310509F499C0DCF5232B09F0BCCB809134
:104050000102F801E35AFF4F9081992309F450C0FF
:1040600080618093010280910102F801E85AFF4FBC
:104070009081923009F45FC008F044C0913009F497
:104080004EC02091010241E050E070E060E0CD01BF
:104090000E94750BF801ED5AFF4F808191818130AC
:1040A000910509F05EC033960DE110E021E030E0AB
:1040B000408170E060E0C7010E94280984CB223073
:1040C000310509F49FC02330310509F07CCB93FF03
:1040D0007ACB9091FE01F801E85AFF4F808182303F
:1040E00009F4EDC008F0D2C0813009F4DCC02091A1
:1040F000FE0144E050E070E060E0CD01039751C064
:104100008F7EAFCF933009F1943009F0BACFF80128
:10411000EB59FF4F9081992311F1886007C0F80196
:10412000EB59FF4F9081992321F081608093010228
:10413000A8CF8E7FFBCFF801EB59FF4F90819923D9
:1041400011F08260F3CF8D7FF1CFF801EB59FF4F73
:104150009081992311F08460E9CF8B7FE7CF877F2F
:10416000E5CF029709F02FCBF801EA5AFF4F0DE196
:1041700010E030E020E09CCF91FF25CB8091000241
:10418000F801E85AFF4F9081923031F168F4913094
:10419000B9F02091000242E050E070E060E0CD0113
:1041A00001970E94750B0FCB933001F1943089F782
:1041B000F801EB59FF4F9081992311F1886007C0F6
:1041C000F801EB59FF4F9081992321F08160809392
:1041D0000002DFCF8E7FFBCFF801EB59FF4F9081BC
:1041E000992311F08260F3CF8D7FF1CFF801EB5965
:1041F000FF4F9081992311F08460E9CF8B7FE7CF47
:10420000877FE5CF92FFDFCA8091FF01F801E85A6E
:10421000FF4F9081923021F158F49130A9F0209114
:10422000FF0143E050E070E060E0CD010297B9CFBC
:10423000933001F1943099F7F801EB59FF4F9081D9
:10424000992311F1886007C0F801EB59FF4F908165
:10425000992321F081608093FF01E1CF8E7FFBCF16
:10426000F801EB59FF4F9081992311F08260F3CF51
:104270008D7FF1CFF801EB59FF4F9081992311F019
:104280008460E9CF8B7FE7CF877FE5CF833009F16B
:10429000843009F02CCFF801EB59FF4F808188233F
:1042A00011F1986007C0F801EB59FF4F8081882316
:1042B00021F091609093FE011ACF9E7FFBCFF80111
:1042C000EB59FF4F8081882311F09260F3CF9D7FDF
:1042D000F1CFF801EB59FF4F8081882311F09460F2
:1042E000E9CF9B7FE7CF977FE5CF97FD0E94EC0852
:1042F00010E032CE8DE190E00E944C0A82FF0AC0AD
:1043000041E050E062E575E086E00E94F30223E0C0
:104310002B8B59CA0E946B0F31E03B8B54CA8091A2
:104320003502882351F120912D0230912E024091C7
:104330002F0250913002A4E6B0E00E94D3222091D7
:1043400031023091320240913302509134020E9486
:10435000A82229013A01CA01B90124E630E040E06F
:1043600050E00E94A822A5E0B0E00E94D3226C8B0E
:104370007D8B8E8B9F8B1092350280912102811153
:104380000BC040921D0250921E0260921F0270925A
:10439000200281E08093210280911201833029F56F
:1043A00080911D0290911E02A0911F02B0912002E7
:1043B000B301A2010C891D892E893F89401B510B35
:1043C000620B730B84179507A607B70758F0B9015E
:1043D000A801440D551D661D771D481759076A072A
:1043E0007B0718F482E080931201109112011230C1
:1043F00091F1133009F45BC01130A1F480911502E2
:10440000811108C08EEE92E00E943D058093140257
:104410001093150280911402811146C081E090E052
:104420000E941A090E94EC0840921D0250921E023E
:1044300060921F02709220020E94CD026C197D09C9
:104440008E099F096132714A8740910508F4F1CBCA
:104450006FEF6B8BEECB8C899D89AE89BF89C2963D
:10446000A11DB11D84159505A605B70530F414E608
:10447000411651046104710488F282E390E0A0E0E7
:10448000B0E02C893D894E895F89821B930BA40B78
:10449000B50B481659066A067B0620F641145104EE
:1044A0006104710409F4BECF90E080E0B9CF88EEDA
:1044B00092E00E943D058111B5CF809111018130BC
:1044C00071F490E080E00E941A091092110188EEC8
:1044D00092E00E943D058111A5CFA895F8CF81E01B
:1044E00090E00E941A0981E080931101F0CF88EEDC
:1044F00092E00E9459088EEE92E00C945908E199DE
:10450000FECF9FBB8EBBE09A99278DB30895262FCF
:10451000E199FECF9FBB8EBB2DBB0FB6F894E29AFC
:10452000E19A0FBE0196089597FB072E16F40094AA
:1045300007D077FD09D00E94DE2207FC05D03EF4AB
:10454000909581959F4F0895709561957F4F08953F
:10455000A1E21A2EAA1BBB1BFD010DC0AA1FBB1F87
:10456000EE1FFF1FA217B307E407F50720F0A21BF9
:10457000B30BE40BF50B661F771F881F991F1A9466
:1045800069F760957095809590959B01AC01BD0190
:10459000CF010895EE0FFF1F0024001C0BBE0790F3
:1045A000F691E02D09940E94F222A59F900DB49FF0
:1045B000900DA49F800D911D11240895AA1BBB1B73
:1045C00051E107C0AA1FBB1FA617B70710F0A61B13
:1045D000B70B881F991F5A95A9F780959095BC0134
:1045E000CD010895A29FB001B39FC001A39F700D9C
:1045F000811D1124911DB29F700D811D1124911DEB
:1046000008950F931F93CF93DF93869F8001879F19
:10461000100D969F100D1124C8010E941D23EC015E
:10462000009729F0A80170E060E00E944F24CE01BD
:10463000DF91CF911F910F9108950F931F93CF9307
:10464000DF938230910510F482E090E0E0916607FC
:10465000F091670730E020E0B0E0A0E0309799F4F7
:104660002115310509F44AC0281B390B24303105C6
:10467000D8F58A819B816115710589F1FB019383CE
:104680008283FE0111C0408151810281138148174C
:104690005907E0F04817590799F4109761F01296FE
:1046A0000C93129713961C933296CF01DF91CF9102
:1046B0001F910F9108950093660710936707F4CF39
:1046C0002115310551F04217530738F0A901DB01DC
:1046D0009A01BD01DF01F801C1CFEF01F9CF90933D
:1046E000670780936607CDCFFE01E20FF31F81932A
:1046F00091932250310939832883D7CF20916407C1
:1047000030916507232B41F420911501309116015A
:1047100030936507209364072091130130911401B1
:104720002115310541F42DB73EB740911701509145
:104730001801241B350BE0916407F0916507E2171F
:10474000F307A0F42E1B3F0B2817390778F0AC01B4
:104750004E5F5F4F2417350748F04E0F5F1F509391
:10476000650740936407819391939FCFF0E0E0E069
:104770009CCFCF93DF930097E9F0FC01329713822F
:104780001282A0916607B0916707ED0130E020E04A
:104790001097A1F420813181820F931F209164072B
:1047A000309165072817390709F061C0F093650754
:1047B000E0936407DF91CF910895EA01CE17DF07F8
:1047C000E8F54A815B819E0141155105B1F7E90188
:1047D000FB83EA8349915991C40FD51FEC17FD075C
:1047E00061F4808191810296840F951FE90199837C
:1047F0008883828193819B838A83F0E0E0E0129634
:104800008D919C9113970097B9F52D913C9111973B
:10481000CD010296820F931F2091640730916507A6
:104820002817390739F6309751F51092670710921B
:104830006607B0936507A0936407BCCFD383C28398
:1048400040815181840F951FC817D90761F44E5FCD
:104850005F4F88819981480F591F518340838A8116
:104860009B81938382832115310509F0B0CFF093AA
:104870006707E09366079ECFFD01DC01C0CF13827E
:104880001282D7CFFB01DC0104C08D910190801909
:1048900021F441505040C8F7881B990B0895DC0162
:1048A00001C06D9341505040E0F7089511E0CFE50D
:1048B000D1E004C0FE010E94CA222196C036D10771
:0648C000C9F7F894FFCFD8
:1048C60001350500000000000000000000000000A7
:1048D6000001010000680780001D00021D00224E35
:1048E60003490344033F033A03350330032B0326EE
:1048F6000321031C03170312030D0308030303FE1E
:1049060002F902F402000000001D06F0056406CD5F
:08491600053605DD05CE0500A4
:00000001FF
